{
	"V1/Contracts/sponsorCoin/SPC_Token.sol": {
		"SPC_Token": {
			"abi": [
				{
					"inputs": [],
					"stateMutability": "nonpayable",
					"type": "constructor"
				},
				{
					"anonymous": false,
					"inputs": [
						{
							"indexed": true,
							"internalType": "address",
							"name": "owner",
							"type": "address"
						},
						{
							"indexed": true,
							"internalType": "address",
							"name": "spender",
							"type": "address"
						},
						{
							"indexed": false,
							"internalType": "uint256",
							"name": "value",
							"type": "uint256"
						}
					],
					"name": "Approval",
					"type": "event"
				},
				{
					"anonymous": false,
					"inputs": [
						{
							"indexed": true,
							"internalType": "address",
							"name": "from",
							"type": "address"
						},
						{
							"indexed": true,
							"internalType": "address",
							"name": "to",
							"type": "address"
						},
						{
							"indexed": false,
							"internalType": "uint256",
							"name": "value",
							"type": "uint256"
						}
					],
					"name": "Transfer",
					"type": "event"
				},
				{
					"inputs": [
						{
							"internalType": "uint256",
							"name": "",
							"type": "uint256"
						}
					],
					"name": "accountKeys",
					"outputs": [
						{
							"internalType": "address",
							"name": "",
							"type": "address"
						}
					],
					"stateMutability": "view",
					"type": "function"
				},
				{
					"inputs": [
						{
							"internalType": "address",
							"name": "",
							"type": "address"
						},
						{
							"internalType": "address",
							"name": "",
							"type": "address"
						}
					],
					"name": "allowance",
					"outputs": [
						{
							"internalType": "uint256",
							"name": "",
							"type": "uint256"
						}
					],
					"stateMutability": "view",
					"type": "function"
				},
				{
					"inputs": [
						{
							"internalType": "address",
							"name": "_spender",
							"type": "address"
						},
						{
							"internalType": "uint256",
							"name": "_value",
							"type": "uint256"
						}
					],
					"name": "approve",
					"outputs": [
						{
							"internalType": "bool",
							"name": "",
							"type": "bool"
						}
					],
					"stateMutability": "nonpayable",
					"type": "function"
				},
				{
					"inputs": [
						{
							"internalType": "address",
							"name": "",
							"type": "address"
						}
					],
					"name": "balanceOf",
					"outputs": [
						{
							"internalType": "uint256",
							"name": "",
							"type": "uint256"
						}
					],
					"stateMutability": "view",
					"type": "function"
				},
				{
					"inputs": [],
					"name": "decimals",
					"outputs": [
						{
							"internalType": "uint256",
							"name": "",
							"type": "uint256"
						}
					],
					"stateMutability": "view",
					"type": "function"
				},
				{
					"inputs": [
						{
							"internalType": "address",
							"name": "_accountKey",
							"type": "address"
						}
					],
					"name": "getAccountBalance",
					"outputs": [
						{
							"internalType": "uint256",
							"name": "",
							"type": "uint256"
						}
					],
					"stateMutability": "view",
					"type": "function"
				},
				{
					"inputs": [
						{
							"internalType": "address",
							"name": "_accountKey",
							"type": "address"
						}
					],
					"name": "getIndexOf",
					"outputs": [
						{
							"internalType": "bool",
							"name": "",
							"type": "bool"
						}
					],
					"stateMutability": "view",
					"type": "function"
				},
				{
					"inputs": [
						{
							"internalType": "address",
							"name": "",
							"type": "address"
						}
					],
					"name": "indexOf",
					"outputs": [
						{
							"internalType": "uint256",
							"name": "",
							"type": "uint256"
						}
					],
					"stateMutability": "view",
					"type": "function"
				},
				{
					"inputs": [
						{
							"internalType": "address",
							"name": "",
							"type": "address"
						}
					],
					"name": "inserted",
					"outputs": [
						{
							"internalType": "bool",
							"name": "",
							"type": "bool"
						}
					],
					"stateMutability": "view",
					"type": "function"
				},
				{
					"inputs": [
						{
							"internalType": "address",
							"name": "_accountKey",
							"type": "address"
						}
					],
					"name": "isInserted",
					"outputs": [
						{
							"internalType": "bool",
							"name": "",
							"type": "bool"
						}
					],
					"stateMutability": "view",
					"type": "function"
				},
				{
					"inputs": [],
					"name": "name",
					"outputs": [
						{
							"internalType": "string",
							"name": "",
							"type": "string"
						}
					],
					"stateMutability": "view",
					"type": "function"
				},
				{
					"inputs": [],
					"name": "symbol",
					"outputs": [
						{
							"internalType": "string",
							"name": "",
							"type": "string"
						}
					],
					"stateMutability": "view",
					"type": "function"
				},
				{
					"inputs": [],
					"name": "totalSupply",
					"outputs": [
						{
							"internalType": "uint256",
							"name": "",
							"type": "uint256"
						}
					],
					"stateMutability": "view",
					"type": "function"
				},
				{
					"inputs": [
						{
							"internalType": "address",
							"name": "_to",
							"type": "address"
						},
						{
							"internalType": "uint256",
							"name": "_value",
							"type": "uint256"
						}
					],
					"name": "transfer",
					"outputs": [
						{
							"internalType": "bool",
							"name": "success",
							"type": "bool"
						}
					],
					"stateMutability": "nonpayable",
					"type": "function"
				},
				{
					"inputs": [
						{
							"internalType": "address",
							"name": "_from",
							"type": "address"
						},
						{
							"internalType": "address",
							"name": "_to",
							"type": "address"
						},
						{
							"internalType": "uint256",
							"name": "_value",
							"type": "uint256"
						}
					],
					"name": "transferFrom",
					"outputs": [
						{
							"internalType": "bool",
							"name": "",
							"type": "bool"
						}
					],
					"stateMutability": "nonpayable",
					"type": "function"
				}
			],
			"devdoc": {
				"kind": "dev",
				"methods": {
					"approve(address,uint256)": {
						"params": {
							"_spender": "allowed to spend and a max amount allowed to spend",
							"_value": "amount value of token to send"
						},
						"returns": {
							"_0": "true, success once address approved"
						}
					},
					"isInserted(address)": {
						"params": {
							"_accountKey": "public account key to set new balance"
						}
					},
					"transfer(address,uint256)": {
						"params": {
							"_to": "receiver of token",
							"_value": "amount value of token to send"
						},
						"returns": {
							"success": "as true, for transfer "
						}
					},
					"transferFrom(address,address,uint256)": {
						"details": "internal helper transfer function with required safety checks",
						"params": {
							"_from": ", address sending to and the amount to send",
							"_to": "receiver of token",
							"_value": "amount value of token to send"
						},
						"returns": {
							"_0": "true, success once transfered from original account    "
						}
					}
				},
				"title": "ERC20 Contract",
				"version": 1
			},
			"evm": {
				"assembly": "    /* \"V1/Contracts/sponsorCoin/SPC_Token.sol\":179:5613  contract SPC_Token {... */\n  mstore(0x40, 0x80)\n    /* \"V1/Contracts/sponsorCoin/SPC_Token.sol\":1203:1400  constructor() {... */\n  callvalue\n  dup1\n  iszero\n  tag_1\n  jumpi\n  0x00\n  dup1\n  revert\ntag_1:\n  pop\n    /* \"V1/Contracts/sponsorCoin/SPC_Token.sol\":1227:1247  name = \"sponsorCoin\" */\n  mload(0x40)\n  dup1\n  0x40\n  add\n  0x40\n  mstore\n  dup1\n  0x0b\n  dup2\n  mstore\n  0x20\n  add\n  0x73706f6e736f72436f696e000000000000000000000000000000000000000000\n  dup2\n  mstore\n  pop\n    /* \"V1/Contracts/sponsorCoin/SPC_Token.sol\":1227:1231  name */\n  0x00\n    /* \"V1/Contracts/sponsorCoin/SPC_Token.sol\":1227:1247  name = \"sponsorCoin\" */\n  swap1\n  dup1\n  mload\n  swap1\n  0x20\n  add\n  swap1\n  tag_4\n  swap3\n  swap2\n  swap1\n  tag_5\n  jump\t// in\ntag_4:\n  pop\n    /* \"V1/Contracts/sponsorCoin/SPC_Token.sol\":1257:1275  symbol = \"SP_Coin\" */\n  mload(0x40)\n  dup1\n  0x40\n  add\n  0x40\n  mstore\n  dup1\n  0x07\n  dup2\n  mstore\n  0x20\n  add\n  0x53505f436f696e00000000000000000000000000000000000000000000000000\n  dup2\n  mstore\n  pop\n    /* \"V1/Contracts/sponsorCoin/SPC_Token.sol\":1257:1263  symbol */\n  0x01\n    /* \"V1/Contracts/sponsorCoin/SPC_Token.sol\":1257:1275  symbol = \"SP_Coin\" */\n  swap1\n  dup1\n  mload\n  swap1\n  0x20\n  add\n  swap1\n  tag_6\n  swap3\n  swap2\n  swap1\n  tag_5\n  jump\t// in\ntag_6:\n  pop\n    /* \"V1/Contracts/sponsorCoin/SPC_Token.sol\":1296:1298  18 */\n  0x12\n    /* \"V1/Contracts/sponsorCoin/SPC_Token.sol\":1285:1293  decimals */\n  0x02\n    /* \"V1/Contracts/sponsorCoin/SPC_Token.sol\":1285:1298  decimals = 18 */\n  dup2\n  swap1\n  sstore\n  pop\n    /* \"V1/Contracts/sponsorCoin/SPC_Token.sol\":1322:1347  1000000000000000000000000 */\n  0xd3c21bcecceda1000000\n    /* \"V1/Contracts/sponsorCoin/SPC_Token.sol\":1308:1319  totalSupply */\n  0x03\n    /* \"V1/Contracts/sponsorCoin/SPC_Token.sol\":1308:1347  totalSupply = 1000000000000000000000000 */\n  dup2\n  swap1\n  sstore\n  pop\n    /* \"V1/Contracts/sponsorCoin/SPC_Token.sol\":1358:1393  setBalance(msg.sender, totalSupply) */\n  tag_7\n    /* \"V1/Contracts/sponsorCoin/SPC_Token.sol\":1369:1379  msg.sender */\n  caller\n    /* \"V1/Contracts/sponsorCoin/SPC_Token.sol\":1381:1392  totalSupply */\n  sload(0x03)\n    /* \"V1/Contracts/sponsorCoin/SPC_Token.sol\":1358:1368  setBalance */\n  shl(0x20, tag_8)\n    /* \"V1/Contracts/sponsorCoin/SPC_Token.sol\":1358:1393  setBalance(msg.sender, totalSupply) */\n  0x20\n  shr\n  jump\t// in\ntag_7:\n  pop\n    /* \"V1/Contracts/sponsorCoin/SPC_Token.sol\":179:5613  contract SPC_Token {... */\n  jump(tag_9)\n    /* \"V1/Contracts/sponsorCoin/SPC_Token.sol\":4708:5047  function setBalance(address _accountKey, uint _newBalance ) internal returns (bool) {... */\ntag_8:\n    /* \"V1/Contracts/sponsorCoin/SPC_Token.sol\":4786:4790  bool */\n  0x00\n    /* \"V1/Contracts/sponsorCoin/SPC_Token.sol\":4828:4839  _newBalance */\n  dup2\n    /* \"V1/Contracts/sponsorCoin/SPC_Token.sol\":4803:4812  balanceOf */\n  0x04\n    /* \"V1/Contracts/sponsorCoin/SPC_Token.sol\":4803:4825  balanceOf[_accountKey] */\n  0x00\n    /* \"V1/Contracts/sponsorCoin/SPC_Token.sol\":4813:4824  _accountKey */\n  dup6\n    /* \"V1/Contracts/sponsorCoin/SPC_Token.sol\":4803:4825  balanceOf[_accountKey] */\n  0xffffffffffffffffffffffffffffffffffffffff\n  and\n  0xffffffffffffffffffffffffffffffffffffffff\n  and\n  dup2\n  mstore\n  0x20\n  add\n  swap1\n  dup2\n  mstore\n  0x20\n  add\n  0x00\n  keccak256\n    /* \"V1/Contracts/sponsorCoin/SPC_Token.sol\":4803:4839  balanceOf[_accountKey] = _newBalance */\n  dup2\n  swap1\n  sstore\n  pop\n    /* \"V1/Contracts/sponsorCoin/SPC_Token.sol\":4855:4863  inserted */\n  0x08\n    /* \"V1/Contracts/sponsorCoin/SPC_Token.sol\":4855:4876  inserted[_accountKey] */\n  0x00\n    /* \"V1/Contracts/sponsorCoin/SPC_Token.sol\":4864:4875  _accountKey */\n  dup5\n    /* \"V1/Contracts/sponsorCoin/SPC_Token.sol\":4855:4876  inserted[_accountKey] */\n  0xffffffffffffffffffffffffffffffffffffffff\n  and\n  0xffffffffffffffffffffffffffffffffffffffff\n  and\n  dup2\n  mstore\n  0x20\n  add\n  swap1\n  dup2\n  mstore\n  0x20\n  add\n  0x00\n  keccak256\n  0x00\n  swap1\n  sload\n  swap1\n  0x0100\n  exp\n  swap1\n  div\n  0xff\n  and\n    /* \"V1/Contracts/sponsorCoin/SPC_Token.sol\":4850:5039  if (!inserted[_accountKey]) {... */\n  tag_11\n  jumpi\n    /* \"V1/Contracts/sponsorCoin/SPC_Token.sol\":4916:4920  true */\n  0x01\n    /* \"V1/Contracts/sponsorCoin/SPC_Token.sol\":4892:4900  inserted */\n  0x08\n    /* \"V1/Contracts/sponsorCoin/SPC_Token.sol\":4892:4913  inserted[_accountKey] */\n  0x00\n    /* \"V1/Contracts/sponsorCoin/SPC_Token.sol\":4901:4912  _accountKey */\n  dup6\n    /* \"V1/Contracts/sponsorCoin/SPC_Token.sol\":4892:4913  inserted[_accountKey] */\n  0xffffffffffffffffffffffffffffffffffffffff\n  and\n  0xffffffffffffffffffffffffffffffffffffffff\n  and\n  dup2\n  mstore\n  0x20\n  add\n  swap1\n  dup2\n  mstore\n  0x20\n  add\n  0x00\n  keccak256\n  0x00\n    /* \"V1/Contracts/sponsorCoin/SPC_Token.sol\":4892:4920  inserted[_accountKey] = true */\n  0x0100\n  exp\n  dup2\n  sload\n  dup2\n  0xff\n  mul\n  not\n  and\n  swap1\n  dup4\n  iszero\n  iszero\n  mul\n  or\n  swap1\n  sstore\n  pop\n    /* \"V1/Contracts/sponsorCoin/SPC_Token.sol\":4934:4945  accountKeys */\n  0x06\n    /* \"V1/Contracts/sponsorCoin/SPC_Token.sol\":4951:4962  _accountKey */\n  dup4\n    /* \"V1/Contracts/sponsorCoin/SPC_Token.sol\":4934:4963  accountKeys.push(_accountKey) */\n  swap1\n  dup1\n  0x01\n  dup2\n  sload\n  add\n  dup1\n  dup3\n  sstore\n  dup1\n  swap2\n  pop\n  pop\n  0x01\n  swap1\n  sub\n  swap1\n  0x00\n  mstore\n  keccak256(0x00, 0x20)\n  add\n  0x00\n  swap1\n  swap2\n  swap1\n  swap2\n  swap1\n  swap2\n  0x0100\n  exp\n  dup2\n  sload\n  dup2\n  0xffffffffffffffffffffffffffffffffffffffff\n  mul\n  not\n  and\n  swap1\n  dup4\n  0xffffffffffffffffffffffffffffffffffffffff\n  and\n  mul\n  or\n  swap1\n  sstore\n  pop\n    /* \"V1/Contracts/sponsorCoin/SPC_Token.sol\":4984:4988  true */\n  0x01\n    /* \"V1/Contracts/sponsorCoin/SPC_Token.sol\":4977:4988  return true */\n  swap1\n  pop\n  jump(tag_10)\n    /* \"V1/Contracts/sponsorCoin/SPC_Token.sol\":4850:5039  if (!inserted[_accountKey]) {... */\ntag_11:\n    /* \"V1/Contracts/sponsorCoin/SPC_Token.sol\":5034:5039  false */\n  0x00\n    /* \"V1/Contracts/sponsorCoin/SPC_Token.sol\":5027:5039  return false */\n  swap1\n  pop\n    /* \"V1/Contracts/sponsorCoin/SPC_Token.sol\":4708:5047  function setBalance(address _accountKey, uint _newBalance ) internal returns (bool) {... */\ntag_10:\n  swap3\n  swap2\n  pop\n  pop\n  jump\t// out\n    /* \"V1/Contracts/sponsorCoin/SPC_Token.sol\":179:5613  contract SPC_Token {... */\ntag_5:\n  dup3\n  dup1\n  sload\n  tag_14\n  swap1\n  tag_15\n  jump\t// in\ntag_14:\n  swap1\n  0x00\n  mstore\n  keccak256(0x00, 0x20)\n  swap1\n  0x1f\n  add\n  0x20\n  swap1\n  div\n  dup2\n  add\n  swap3\n  dup3\n  tag_17\n  jumpi\n  0x00\n  dup6\n  sstore\n  jump(tag_16)\ntag_17:\n  dup3\n  0x1f\n  lt\n  tag_18\n  jumpi\n  dup1\n  mload\n  not(0xff)\n  and\n  dup4\n  dup1\n  add\n  or\n  dup6\n  sstore\n  jump(tag_16)\ntag_18:\n  dup3\n  dup1\n  add\n  0x01\n  add\n  dup6\n  sstore\n  dup3\n  iszero\n  tag_16\n  jumpi\n  swap2\n  dup3\n  add\ntag_19:\n  dup3\n  dup2\n  gt\n  iszero\n  tag_20\n  jumpi\n  dup3\n  mload\n  dup3\n  sstore\n  swap2\n  0x20\n  add\n  swap2\n  swap1\n  0x01\n  add\n  swap1\n  jump(tag_19)\ntag_20:\ntag_16:\n  pop\n  swap1\n  pop\n  tag_21\n  swap2\n  swap1\n  tag_22\n  jump\t// in\ntag_21:\n  pop\n  swap1\n  jump\t// out\ntag_22:\ntag_23:\n  dup1\n  dup3\n  gt\n  iszero\n  tag_24\n  jumpi\n  0x00\n  dup2\n  0x00\n  swap1\n  sstore\n  pop\n  0x01\n  add\n  jump(tag_23)\ntag_24:\n  pop\n  swap1\n  jump\t// out\n    /* \"#utility.yul\":7:327   */\ntag_15:\n    /* \"#utility.yul\":51:57   */\n  0x00\n    /* \"#utility.yul\":88:89   */\n  0x02\n    /* \"#utility.yul\":82:86   */\n  dup3\n    /* \"#utility.yul\":78:90   */\n  div\n    /* \"#utility.yul\":68:90   */\n  swap1\n  pop\n    /* \"#utility.yul\":135:136   */\n  0x01\n    /* \"#utility.yul\":129:133   */\n  dup3\n    /* \"#utility.yul\":125:137   */\n  and\n    /* \"#utility.yul\":156:174   */\n  dup1\n    /* \"#utility.yul\":146:227   */\n  tag_27\n  jumpi\n    /* \"#utility.yul\":212:216   */\n  0x7f\n    /* \"#utility.yul\":204:210   */\n  dup3\n    /* \"#utility.yul\":200:217   */\n  and\n    /* \"#utility.yul\":190:217   */\n  swap2\n  pop\n    /* \"#utility.yul\":146:227   */\ntag_27:\n    /* \"#utility.yul\":274:276   */\n  0x20\n    /* \"#utility.yul\":266:272   */\n  dup3\n    /* \"#utility.yul\":263:277   */\n  lt\n    /* \"#utility.yul\":243:261   */\n  dup2\n    /* \"#utility.yul\":240:278   */\n  eq\n    /* \"#utility.yul\":237:321   */\n  iszero\n  tag_28\n  jumpi\n    /* \"#utility.yul\":293:311   */\n  tag_29\n  tag_30\n  jump\t// in\ntag_29:\n    /* \"#utility.yul\":237:321   */\ntag_28:\n    /* \"#utility.yul\":58:327   */\n  pop\n    /* \"#utility.yul\":7:327   */\n  swap2\n  swap1\n  pop\n  jump\t// out\n    /* \"#utility.yul\":333:513   */\ntag_30:\n    /* \"#utility.yul\":381:458   */\n  0x4e487b7100000000000000000000000000000000000000000000000000000000\n    /* \"#utility.yul\":378:379   */\n  0x00\n    /* \"#utility.yul\":371:459   */\n  mstore\n    /* \"#utility.yul\":478:482   */\n  0x22\n    /* \"#utility.yul\":475:476   */\n  0x04\n    /* \"#utility.yul\":468:483   */\n  mstore\n    /* \"#utility.yul\":502:506   */\n  0x24\n    /* \"#utility.yul\":499:500   */\n  0x00\n    /* \"#utility.yul\":492:507   */\n  revert\n    /* \"V1/Contracts/sponsorCoin/SPC_Token.sol\":179:5613  contract SPC_Token {... */\ntag_9:\n  dataSize(sub_0)\n  dup1\n  dataOffset(sub_0)\n  0x00\n  codecopy\n  0x00\n  return\nstop\n\nsub_0: assembly {\n        /* \"V1/Contracts/sponsorCoin/SPC_Token.sol\":179:5613  contract SPC_Token {... */\n      mstore(0x40, 0x80)\n      callvalue\n      dup1\n      iszero\n      tag_1\n      jumpi\n      0x00\n      dup1\n      revert\n    tag_1:\n      pop\n      jumpi(tag_2, lt(calldatasize, 0x04))\n      shr(0xe0, calldataload(0x00))\n      dup1\n      0x313ce567\n      gt\n      tag_18\n      jumpi\n      dup1\n      0x95d89b41\n      gt\n      tag_19\n      jumpi\n      dup1\n      0x95d89b41\n      eq\n      tag_14\n      jumpi\n      dup1\n      0xa9059cbb\n      eq\n      tag_15\n      jumpi\n      dup1\n      0xdd62ed3e\n      eq\n      tag_16\n      jumpi\n      dup1\n      0xfd6aad25\n      eq\n      tag_17\n      jumpi\n      jump(tag_2)\n    tag_19:\n      dup1\n      0x313ce567\n      eq\n      tag_10\n      jumpi\n      dup1\n      0x70a08231\n      eq\n      tag_11\n      jumpi\n      dup1\n      0x7cd380f1\n      eq\n      tag_12\n      jumpi\n      dup1\n      0x93423e9c\n      eq\n      tag_13\n      jumpi\n      jump(tag_2)\n    tag_18:\n      dup1\n      0x18160ddd\n      gt\n      tag_20\n      jumpi\n      dup1\n      0x18160ddd\n      eq\n      tag_6\n      jumpi\n      dup1\n      0x1e2eb088\n      eq\n      tag_7\n      jumpi\n      dup1\n      0x23b872dd\n      eq\n      tag_8\n      jumpi\n      dup1\n      0x29b57c14\n      eq\n      tag_9\n      jumpi\n      jump(tag_2)\n    tag_20:\n      dup1\n      0x017df522\n      eq\n      tag_3\n      jumpi\n      dup1\n      0x06fdde03\n      eq\n      tag_4\n      jumpi\n      dup1\n      0x095ea7b3\n      eq\n      tag_5\n      jumpi\n    tag_2:\n      0x00\n      dup1\n      revert\n        /* \"V1/Contracts/sponsorCoin/SPC_Token.sol\":5302:5479  function getIndexOf(address _accountKey) public view returns (bool) {... */\n    tag_3:\n      tag_21\n      0x04\n      dup1\n      calldatasize\n      sub\n      dup2\n      add\n      swap1\n      tag_22\n      swap2\n      swap1\n      tag_23\n      jump\t// in\n    tag_22:\n      tag_24\n      jump\t// in\n    tag_21:\n      mload(0x40)\n      tag_25\n      swap2\n      swap1\n      tag_26\n      jump\t// in\n    tag_25:\n      mload(0x40)\n      dup1\n      swap2\n      sub\n      swap1\n      return\n        /* \"V1/Contracts/sponsorCoin/SPC_Token.sol\":225:243  string public name */\n    tag_4:\n      tag_27\n      tag_28\n      jump\t// in\n    tag_27:\n      mload(0x40)\n      tag_29\n      swap2\n      swap1\n      tag_30\n      jump\t// in\n    tag_29:\n      mload(0x40)\n      dup1\n      swap2\n      sub\n      swap1\n      return\n        /* \"V1/Contracts/sponsorCoin/SPC_Token.sol\":2819:3066  function approve(address _spender, uint256 _value) external returns (bool) {... */\n    tag_5:\n      tag_31\n      0x04\n      dup1\n      calldatasize\n      sub\n      dup2\n      add\n      swap1\n      tag_32\n      swap2\n      swap1\n      tag_33\n      jump\t// in\n    tag_32:\n      tag_34\n      jump\t// in\n    tag_31:\n      mload(0x40)\n      tag_35\n      swap2\n      swap1\n      tag_26\n      jump\t// in\n    tag_35:\n      mload(0x40)\n      dup1\n      swap2\n      sub\n      swap1\n      return\n        /* \"V1/Contracts/sponsorCoin/SPC_Token.sol\":304:330  uint256 public totalSupply */\n    tag_6:\n      tag_36\n      tag_37\n      jump\t// in\n    tag_36:\n      mload(0x40)\n      tag_38\n      swap2\n      swap1\n      tag_39\n      jump\t// in\n    tag_38:\n      mload(0x40)\n      dup1\n      swap2\n      sub\n      swap1\n      return\n        /* \"V1/Contracts/sponsorCoin/SPC_Token.sol\":532:560  address[] public accountKeys */\n    tag_7:\n      tag_40\n      0x04\n      dup1\n      calldatasize\n      sub\n      dup2\n      add\n      swap1\n      tag_41\n      swap2\n      swap1\n      tag_42\n      jump\t// in\n    tag_41:\n      tag_43\n      jump\t// in\n    tag_40:\n      mload(0x40)\n      tag_44\n      swap2\n      swap1\n      tag_45\n      jump\t// in\n    tag_44:\n      mload(0x40)\n      dup1\n      swap2\n      sub\n      swap1\n      return\n        /* \"V1/Contracts/sponsorCoin/SPC_Token.sol\":3533:3872  function transferFrom(address _from, address _to, uint256 _value) external returns (bool) {... */\n    tag_8:\n      tag_46\n      0x04\n      dup1\n      calldatasize\n      sub\n      dup2\n      add\n      swap1\n      tag_47\n      swap2\n      swap1\n      tag_48\n      jump\t// in\n    tag_47:\n      tag_49\n      jump\t// in\n    tag_46:\n      mload(0x40)\n      tag_50\n      swap2\n      swap1\n      tag_26\n      jump\t// in\n    tag_50:\n      mload(0x40)\n      dup1\n      swap2\n      sub\n      swap1\n      return\n        /* \"V1/Contracts/sponsorCoin/SPC_Token.sol\":5118:5295  function isInserted(address _accountKey) public view returns (bool) {... */\n    tag_9:\n      tag_51\n      0x04\n      dup1\n      calldatasize\n      sub\n      dup2\n      add\n      swap1\n      tag_52\n      swap2\n      swap1\n      tag_23\n      jump\t// in\n    tag_52:\n      tag_53\n      jump\t// in\n    tag_51:\n      mload(0x40)\n      tag_54\n      swap2\n      swap1\n      tag_26\n      jump\t// in\n    tag_54:\n      mload(0x40)\n      dup1\n      swap2\n      sub\n      swap1\n      return\n        /* \"V1/Contracts/sponsorCoin/SPC_Token.sol\":275:298  uint256 public decimals */\n    tag_10:\n      tag_55\n      tag_56\n      jump\t// in\n    tag_55:\n      mload(0x40)\n      tag_57\n      swap2\n      swap1\n      tag_39\n      jump\t// in\n    tag_57:\n      mload(0x40)\n      dup1\n      swap2\n      sub\n      swap1\n      return\n        /* \"V1/Contracts/sponsorCoin/SPC_Token.sol\":388:432  mapping(address => uint256) public balanceOf */\n    tag_11:\n      tag_58\n      0x04\n      dup1\n      calldatasize\n      sub\n      dup2\n      add\n      swap1\n      tag_59\n      swap2\n      swap1\n      tag_23\n      jump\t// in\n    tag_59:\n      tag_60\n      jump\t// in\n    tag_58:\n      mload(0x40)\n      tag_61\n      swap2\n      swap1\n      tag_39\n      jump\t// in\n    tag_61:\n      mload(0x40)\n      dup1\n      swap2\n      sub\n      swap1\n      return\n        /* \"V1/Contracts/sponsorCoin/SPC_Token.sol\":611:651  mapping(address => bool) public inserted */\n    tag_12:\n      tag_62\n      0x04\n      dup1\n      calldatasize\n      sub\n      dup2\n      add\n      swap1\n      tag_63\n      swap2\n      swap1\n      tag_23\n      jump\t// in\n    tag_63:\n      tag_64\n      jump\t// in\n    tag_62:\n      mload(0x40)\n      tag_65\n      swap2\n      swap1\n      tag_26\n      jump\t// in\n    tag_65:\n      mload(0x40)\n      dup1\n      swap2\n      sub\n      swap1\n      return\n        /* \"V1/Contracts/sponsorCoin/SPC_Token.sol\":5490:5611  function getAccountBalance(address _accountKey) public view returns (uint) {... */\n    tag_13:\n      tag_66\n      0x04\n      dup1\n      calldatasize\n      sub\n      dup2\n      add\n      swap1\n      tag_67\n      swap2\n      swap1\n      tag_23\n      jump\t// in\n    tag_67:\n      tag_68\n      jump\t// in\n    tag_66:\n      mload(0x40)\n      tag_69\n      swap2\n      swap1\n      tag_39\n      jump\t// in\n    tag_69:\n      mload(0x40)\n      dup1\n      swap2\n      sub\n      swap1\n      return\n        /* \"V1/Contracts/sponsorCoin/SPC_Token.sol\":249:269  string public symbol */\n    tag_14:\n      tag_70\n      tag_71\n      jump\t// in\n    tag_70:\n      mload(0x40)\n      tag_72\n      swap2\n      swap1\n      tag_30\n      jump\t// in\n    tag_72:\n      mload(0x40)\n      dup1\n      swap2\n      sub\n      swap1\n      return\n        /* \"V1/Contracts/sponsorCoin/SPC_Token.sol\":1598:1799  function transfer(address _to, uint256 _value) external returns (bool success) {... */\n    tag_15:\n      tag_73\n      0x04\n      dup1\n      calldatasize\n      sub\n      dup2\n      add\n      swap1\n      tag_74\n      swap2\n      swap1\n      tag_33\n      jump\t// in\n    tag_74:\n      tag_75\n      jump\t// in\n    tag_73:\n      mload(0x40)\n      tag_76\n      swap2\n      swap1\n      tag_26\n      jump\t// in\n    tag_76:\n      mload(0x40)\n      dup1\n      swap2\n      sub\n      swap1\n      return\n        /* \"V1/Contracts/sponsorCoin/SPC_Token.sol\":438:502  mapping(address => mapping(address => uint256)) public allowance */\n    tag_16:\n      tag_77\n      0x04\n      dup1\n      calldatasize\n      sub\n      dup2\n      add\n      swap1\n      tag_78\n      swap2\n      swap1\n      tag_79\n      jump\t// in\n    tag_78:\n      tag_80\n      jump\t// in\n    tag_77:\n      mload(0x40)\n      tag_81\n      swap2\n      swap1\n      tag_39\n      jump\t// in\n    tag_81:\n      mload(0x40)\n      dup1\n      swap2\n      sub\n      swap1\n      return\n        /* \"V1/Contracts/sponsorCoin/SPC_Token.sol\":566:605  mapping(address => uint) public indexOf */\n    tag_17:\n      tag_82\n      0x04\n      dup1\n      calldatasize\n      sub\n      dup2\n      add\n      swap1\n      tag_83\n      swap2\n      swap1\n      tag_23\n      jump\t// in\n    tag_83:\n      tag_84\n      jump\t// in\n    tag_82:\n      mload(0x40)\n      tag_85\n      swap2\n      swap1\n      tag_39\n      jump\t// in\n    tag_85:\n      mload(0x40)\n      dup1\n      swap2\n      sub\n      swap1\n      return\n        /* \"V1/Contracts/sponsorCoin/SPC_Token.sol\":5302:5479  function getIndexOf(address _accountKey) public view returns (bool) {... */\n    tag_24:\n        /* \"V1/Contracts/sponsorCoin/SPC_Token.sol\":5364:5368  bool */\n      0x00\n        /* \"V1/Contracts/sponsorCoin/SPC_Token.sol\":5385:5393  inserted */\n      0x08\n        /* \"V1/Contracts/sponsorCoin/SPC_Token.sol\":5385:5406  inserted[_accountKey] */\n      0x00\n        /* \"V1/Contracts/sponsorCoin/SPC_Token.sol\":5394:5405  _accountKey */\n      dup4\n        /* \"V1/Contracts/sponsorCoin/SPC_Token.sol\":5385:5406  inserted[_accountKey] */\n      0xffffffffffffffffffffffffffffffffffffffff\n      and\n      0xffffffffffffffffffffffffffffffffffffffff\n      and\n      dup2\n      mstore\n      0x20\n      add\n      swap1\n      dup2\n      mstore\n      0x20\n      add\n      0x00\n      keccak256\n      0x00\n      swap1\n      sload\n      swap1\n      0x0100\n      exp\n      swap1\n      div\n      0xff\n      and\n        /* \"V1/Contracts/sponsorCoin/SPC_Token.sol\":5380:5470  if (!inserted[_accountKey])... */\n      tag_87\n      jumpi\n        /* \"V1/Contracts/sponsorCoin/SPC_Token.sol\":5427:5432  false */\n      0x00\n        /* \"V1/Contracts/sponsorCoin/SPC_Token.sol\":5420:5432  return false */\n      swap1\n      pop\n      jump(tag_86)\n        /* \"V1/Contracts/sponsorCoin/SPC_Token.sol\":5380:5470  if (!inserted[_accountKey])... */\n    tag_87:\n        /* \"V1/Contracts/sponsorCoin/SPC_Token.sol\":5466:5470  true */\n      0x01\n        /* \"V1/Contracts/sponsorCoin/SPC_Token.sol\":5459:5470  return true */\n      swap1\n      pop\n        /* \"V1/Contracts/sponsorCoin/SPC_Token.sol\":5302:5479  function getIndexOf(address _accountKey) public view returns (bool) {... */\n    tag_86:\n      swap2\n      swap1\n      pop\n      jump\t// out\n        /* \"V1/Contracts/sponsorCoin/SPC_Token.sol\":225:243  string public name */\n    tag_28:\n      0x00\n      dup1\n      sload\n      tag_89\n      swap1\n      tag_90\n      jump\t// in\n    tag_89:\n      dup1\n      0x1f\n      add\n      0x20\n      dup1\n      swap2\n      div\n      mul\n      0x20\n      add\n      mload(0x40)\n      swap1\n      dup2\n      add\n      0x40\n      mstore\n      dup1\n      swap3\n      swap2\n      swap1\n      dup2\n      dup2\n      mstore\n      0x20\n      add\n      dup3\n      dup1\n      sload\n      tag_91\n      swap1\n      tag_90\n      jump\t// in\n    tag_91:\n      dup1\n      iszero\n      tag_92\n      jumpi\n      dup1\n      0x1f\n      lt\n      tag_93\n      jumpi\n      0x0100\n      dup1\n      dup4\n      sload\n      div\n      mul\n      dup4\n      mstore\n      swap2\n      0x20\n      add\n      swap2\n      jump(tag_92)\n    tag_93:\n      dup3\n      add\n      swap2\n      swap1\n      0x00\n      mstore\n      keccak256(0x00, 0x20)\n      swap1\n    tag_94:\n      dup2\n      sload\n      dup2\n      mstore\n      swap1\n      0x01\n      add\n      swap1\n      0x20\n      add\n      dup1\n      dup4\n      gt\n      tag_94\n      jumpi\n      dup3\n      swap1\n      sub\n      0x1f\n      and\n      dup3\n      add\n      swap2\n    tag_92:\n      pop\n      pop\n      pop\n      pop\n      pop\n      dup2\n      jump\t// out\n        /* \"V1/Contracts/sponsorCoin/SPC_Token.sol\":2819:3066  function approve(address _spender, uint256 _value) external returns (bool) {... */\n    tag_34:\n        /* \"V1/Contracts/sponsorCoin/SPC_Token.sol\":2888:2892  bool */\n      0x00\n        /* \"V1/Contracts/sponsorCoin/SPC_Token.sol\":2932:2933  0 */\n      dup1\n        /* \"V1/Contracts/sponsorCoin/SPC_Token.sol\":2912:2934  _spender != address(0) */\n      0xffffffffffffffffffffffffffffffffffffffff\n      and\n        /* \"V1/Contracts/sponsorCoin/SPC_Token.sol\":2912:2920  _spender */\n      dup4\n        /* \"V1/Contracts/sponsorCoin/SPC_Token.sol\":2912:2934  _spender != address(0) */\n      0xffffffffffffffffffffffffffffffffffffffff\n      and\n      eq\n      iszero\n        /* \"V1/Contracts/sponsorCoin/SPC_Token.sol\":2904:2935  require(_spender != address(0)) */\n      tag_96\n      jumpi\n      0x00\n      dup1\n      revert\n    tag_96:\n        /* \"V1/Contracts/sponsorCoin/SPC_Token.sol\":2979:2985  _value */\n      dup2\n        /* \"V1/Contracts/sponsorCoin/SPC_Token.sol\":2945:2954  allowance */\n      0x05\n        /* \"V1/Contracts/sponsorCoin/SPC_Token.sol\":2945:2966  allowance[msg.sender] */\n      0x00\n        /* \"V1/Contracts/sponsorCoin/SPC_Token.sol\":2955:2965  msg.sender */\n      caller\n        /* \"V1/Contracts/sponsorCoin/SPC_Token.sol\":2945:2966  allowance[msg.sender] */\n      0xffffffffffffffffffffffffffffffffffffffff\n      and\n      0xffffffffffffffffffffffffffffffffffffffff\n      and\n      dup2\n      mstore\n      0x20\n      add\n      swap1\n      dup2\n      mstore\n      0x20\n      add\n      0x00\n      keccak256\n        /* \"V1/Contracts/sponsorCoin/SPC_Token.sol\":2945:2976  allowance[msg.sender][_spender] */\n      0x00\n        /* \"V1/Contracts/sponsorCoin/SPC_Token.sol\":2967:2975  _spender */\n      dup6\n        /* \"V1/Contracts/sponsorCoin/SPC_Token.sol\":2945:2976  allowance[msg.sender][_spender] */\n      0xffffffffffffffffffffffffffffffffffffffff\n      and\n      0xffffffffffffffffffffffffffffffffffffffff\n      and\n      dup2\n      mstore\n      0x20\n      add\n      swap1\n      dup2\n      mstore\n      0x20\n      add\n      0x00\n      keccak256\n        /* \"V1/Contracts/sponsorCoin/SPC_Token.sol\":2945:2985  allowance[msg.sender][_spender] = _value */\n      dup2\n      swap1\n      sstore\n      pop\n        /* \"V1/Contracts/sponsorCoin/SPC_Token.sol\":3021:3029  _spender */\n      dup3\n        /* \"V1/Contracts/sponsorCoin/SPC_Token.sol\":3000:3038  Approval(msg.sender, _spender, _value) */\n      0xffffffffffffffffffffffffffffffffffffffff\n      and\n        /* \"V1/Contracts/sponsorCoin/SPC_Token.sol\":3009:3019  msg.sender */\n      caller\n        /* \"V1/Contracts/sponsorCoin/SPC_Token.sol\":3000:3038  Approval(msg.sender, _spender, _value) */\n      0xffffffffffffffffffffffffffffffffffffffff\n      and\n      0x8c5be1e5ebec7d5bd14f71427d1e84f3dd0314c0f7b2291e5b200ac8c7c3b925\n        /* \"V1/Contracts/sponsorCoin/SPC_Token.sol\":3031:3037  _value */\n      dup5\n        /* \"V1/Contracts/sponsorCoin/SPC_Token.sol\":3000:3038  Approval(msg.sender, _spender, _value) */\n      mload(0x40)\n      tag_97\n      swap2\n      swap1\n      tag_39\n      jump\t// in\n    tag_97:\n      mload(0x40)\n      dup1\n      swap2\n      sub\n      swap1\n      log3\n        /* \"V1/Contracts/sponsorCoin/SPC_Token.sol\":3055:3059  true */\n      0x01\n        /* \"V1/Contracts/sponsorCoin/SPC_Token.sol\":3048:3059  return true */\n      swap1\n      pop\n        /* \"V1/Contracts/sponsorCoin/SPC_Token.sol\":2819:3066  function approve(address _spender, uint256 _value) external returns (bool) {... */\n      swap3\n      swap2\n      pop\n      pop\n      jump\t// out\n        /* \"V1/Contracts/sponsorCoin/SPC_Token.sol\":304:330  uint256 public totalSupply */\n    tag_37:\n      sload(0x03)\n      dup2\n      jump\t// out\n        /* \"V1/Contracts/sponsorCoin/SPC_Token.sol\":532:560  address[] public accountKeys */\n    tag_43:\n      0x06\n      dup2\n      dup2\n      sload\n      dup2\n      lt\n      tag_98\n      jumpi\n      0x00\n      dup1\n      revert\n    tag_98:\n      swap1\n      0x00\n      mstore\n      keccak256(0x00, 0x20)\n      add\n      0x00\n      swap2\n      pop\n      sload\n      swap1\n      0x0100\n      exp\n      swap1\n      div\n      0xffffffffffffffffffffffffffffffffffffffff\n      and\n      dup2\n      jump\t// out\n        /* \"V1/Contracts/sponsorCoin/SPC_Token.sol\":3533:3872  function transferFrom(address _from, address _to, uint256 _value) external returns (bool) {... */\n    tag_49:\n        /* \"V1/Contracts/sponsorCoin/SPC_Token.sol\":3617:3621  bool */\n      0x00\n        /* \"V1/Contracts/sponsorCoin/SPC_Token.sol\":3651:3660  balanceOf */\n      0x04\n        /* \"V1/Contracts/sponsorCoin/SPC_Token.sol\":3651:3667  balanceOf[_from] */\n      0x00\n        /* \"V1/Contracts/sponsorCoin/SPC_Token.sol\":3661:3666  _from */\n      dup6\n        /* \"V1/Contracts/sponsorCoin/SPC_Token.sol\":3651:3667  balanceOf[_from] */\n      0xffffffffffffffffffffffffffffffffffffffff\n      and\n      0xffffffffffffffffffffffffffffffffffffffff\n      and\n      dup2\n      mstore\n      0x20\n      add\n      swap1\n      dup2\n      mstore\n      0x20\n      add\n      0x00\n      keccak256\n      sload\n        /* \"V1/Contracts/sponsorCoin/SPC_Token.sol\":3641:3647  _value */\n      dup3\n        /* \"V1/Contracts/sponsorCoin/SPC_Token.sol\":3641:3667  _value <= balanceOf[_from] */\n      gt\n      iszero\n        /* \"V1/Contracts/sponsorCoin/SPC_Token.sol\":3633:3668  require(_value <= balanceOf[_from]) */\n      tag_101\n      jumpi\n      0x00\n      dup1\n      revert\n    tag_101:\n        /* \"V1/Contracts/sponsorCoin/SPC_Token.sol\":3696:3705  allowance */\n      0x05\n        /* \"V1/Contracts/sponsorCoin/SPC_Token.sol\":3696:3712  allowance[_from] */\n      0x00\n        /* \"V1/Contracts/sponsorCoin/SPC_Token.sol\":3706:3711  _from */\n      dup6\n        /* \"V1/Contracts/sponsorCoin/SPC_Token.sol\":3696:3712  allowance[_from] */\n      0xffffffffffffffffffffffffffffffffffffffff\n      and\n      0xffffffffffffffffffffffffffffffffffffffff\n      and\n      dup2\n      mstore\n      0x20\n      add\n      swap1\n      dup2\n      mstore\n      0x20\n      add\n      0x00\n      keccak256\n        /* \"V1/Contracts/sponsorCoin/SPC_Token.sol\":3696:3724  allowance[_from][msg.sender] */\n      0x00\n        /* \"V1/Contracts/sponsorCoin/SPC_Token.sol\":3713:3723  msg.sender */\n      caller\n        /* \"V1/Contracts/sponsorCoin/SPC_Token.sol\":3696:3724  allowance[_from][msg.sender] */\n      0xffffffffffffffffffffffffffffffffffffffff\n      and\n      0xffffffffffffffffffffffffffffffffffffffff\n      and\n      dup2\n      mstore\n      0x20\n      add\n      swap1\n      dup2\n      mstore\n      0x20\n      add\n      0x00\n      keccak256\n      sload\n        /* \"V1/Contracts/sponsorCoin/SPC_Token.sol\":3686:3692  _value */\n      dup3\n        /* \"V1/Contracts/sponsorCoin/SPC_Token.sol\":3686:3724  _value <= allowance[_from][msg.sender] */\n      gt\n      iszero\n        /* \"V1/Contracts/sponsorCoin/SPC_Token.sol\":3678:3725  require(_value <= allowance[_from][msg.sender]) */\n      tag_102\n      jumpi\n      0x00\n      dup1\n      revert\n    tag_102:\n        /* \"V1/Contracts/sponsorCoin/SPC_Token.sol\":3798:3804  _value */\n      dup2\n        /* \"V1/Contracts/sponsorCoin/SPC_Token.sol\":3766:3775  allowance */\n      0x05\n        /* \"V1/Contracts/sponsorCoin/SPC_Token.sol\":3766:3782  allowance[_from] */\n      0x00\n        /* \"V1/Contracts/sponsorCoin/SPC_Token.sol\":3776:3781  _from */\n      dup7\n        /* \"V1/Contracts/sponsorCoin/SPC_Token.sol\":3766:3782  allowance[_from] */\n      0xffffffffffffffffffffffffffffffffffffffff\n      and\n      0xffffffffffffffffffffffffffffffffffffffff\n      and\n      dup2\n      mstore\n      0x20\n      add\n      swap1\n      dup2\n      mstore\n      0x20\n      add\n      0x00\n      keccak256\n        /* \"V1/Contracts/sponsorCoin/SPC_Token.sol\":3766:3794  allowance[_from][msg.sender] */\n      0x00\n        /* \"V1/Contracts/sponsorCoin/SPC_Token.sol\":3783:3793  msg.sender */\n      caller\n        /* \"V1/Contracts/sponsorCoin/SPC_Token.sol\":3766:3794  allowance[_from][msg.sender] */\n      0xffffffffffffffffffffffffffffffffffffffff\n      and\n      0xffffffffffffffffffffffffffffffffffffffff\n      and\n      dup2\n      mstore\n      0x20\n      add\n      swap1\n      dup2\n      mstore\n      0x20\n      add\n      0x00\n      keccak256\n      sload\n        /* \"V1/Contracts/sponsorCoin/SPC_Token.sol\":3766:3805  allowance[_from][msg.sender] - (_value) */\n      tag_103\n      swap2\n      swap1\n      tag_104\n      jump\t// in\n    tag_103:\n        /* \"V1/Contracts/sponsorCoin/SPC_Token.sol\":3735:3744  allowance */\n      0x05\n        /* \"V1/Contracts/sponsorCoin/SPC_Token.sol\":3735:3751  allowance[_from] */\n      0x00\n        /* \"V1/Contracts/sponsorCoin/SPC_Token.sol\":3745:3750  _from */\n      dup7\n        /* \"V1/Contracts/sponsorCoin/SPC_Token.sol\":3735:3751  allowance[_from] */\n      0xffffffffffffffffffffffffffffffffffffffff\n      and\n      0xffffffffffffffffffffffffffffffffffffffff\n      and\n      dup2\n      mstore\n      0x20\n      add\n      swap1\n      dup2\n      mstore\n      0x20\n      add\n      0x00\n      keccak256\n        /* \"V1/Contracts/sponsorCoin/SPC_Token.sol\":3735:3763  allowance[_from][msg.sender] */\n      0x00\n        /* \"V1/Contracts/sponsorCoin/SPC_Token.sol\":3752:3762  msg.sender */\n      caller\n        /* \"V1/Contracts/sponsorCoin/SPC_Token.sol\":3735:3763  allowance[_from][msg.sender] */\n      0xffffffffffffffffffffffffffffffffffffffff\n      and\n      0xffffffffffffffffffffffffffffffffffffffff\n      and\n      dup2\n      mstore\n      0x20\n      add\n      swap1\n      dup2\n      mstore\n      0x20\n      add\n      0x00\n      keccak256\n        /* \"V1/Contracts/sponsorCoin/SPC_Token.sol\":3735:3805  allowance[_from][msg.sender] = allowance[_from][msg.sender] - (_value) */\n      dup2\n      swap1\n      sstore\n      pop\n        /* \"V1/Contracts/sponsorCoin/SPC_Token.sol\":3815:3844  _transfer(_from, _to, _value) */\n      tag_105\n        /* \"V1/Contracts/sponsorCoin/SPC_Token.sol\":3825:3830  _from */\n      dup5\n        /* \"V1/Contracts/sponsorCoin/SPC_Token.sol\":3832:3835  _to */\n      dup5\n        /* \"V1/Contracts/sponsorCoin/SPC_Token.sol\":3837:3843  _value */\n      dup5\n        /* \"V1/Contracts/sponsorCoin/SPC_Token.sol\":3815:3824  _transfer */\n      tag_106\n        /* \"V1/Contracts/sponsorCoin/SPC_Token.sol\":3815:3844  _transfer(_from, _to, _value) */\n      jump\t// in\n    tag_105:\n        /* \"V1/Contracts/sponsorCoin/SPC_Token.sol\":3861:3865  true */\n      0x01\n        /* \"V1/Contracts/sponsorCoin/SPC_Token.sol\":3854:3865  return true */\n      swap1\n      pop\n        /* \"V1/Contracts/sponsorCoin/SPC_Token.sol\":3533:3872  function transferFrom(address _from, address _to, uint256 _value) external returns (bool) {... */\n      swap4\n      swap3\n      pop\n      pop\n      pop\n      jump\t// out\n        /* \"V1/Contracts/sponsorCoin/SPC_Token.sol\":5118:5295  function isInserted(address _accountKey) public view returns (bool) {... */\n    tag_53:\n        /* \"V1/Contracts/sponsorCoin/SPC_Token.sol\":5180:5184  bool */\n      0x00\n        /* \"V1/Contracts/sponsorCoin/SPC_Token.sol\":5201:5209  inserted */\n      0x08\n        /* \"V1/Contracts/sponsorCoin/SPC_Token.sol\":5201:5222  inserted[_accountKey] */\n      0x00\n        /* \"V1/Contracts/sponsorCoin/SPC_Token.sol\":5210:5221  _accountKey */\n      dup4\n        /* \"V1/Contracts/sponsorCoin/SPC_Token.sol\":5201:5222  inserted[_accountKey] */\n      0xffffffffffffffffffffffffffffffffffffffff\n      and\n      0xffffffffffffffffffffffffffffffffffffffff\n      and\n      dup2\n      mstore\n      0x20\n      add\n      swap1\n      dup2\n      mstore\n      0x20\n      add\n      0x00\n      keccak256\n      0x00\n      swap1\n      sload\n      swap1\n      0x0100\n      exp\n      swap1\n      div\n      0xff\n      and\n        /* \"V1/Contracts/sponsorCoin/SPC_Token.sol\":5196:5286  if (!inserted[_accountKey])... */\n      tag_108\n      jumpi\n        /* \"V1/Contracts/sponsorCoin/SPC_Token.sol\":5243:5248  false */\n      0x00\n        /* \"V1/Contracts/sponsorCoin/SPC_Token.sol\":5236:5248  return false */\n      swap1\n      pop\n      jump(tag_107)\n        /* \"V1/Contracts/sponsorCoin/SPC_Token.sol\":5196:5286  if (!inserted[_accountKey])... */\n    tag_108:\n        /* \"V1/Contracts/sponsorCoin/SPC_Token.sol\":5282:5286  true */\n      0x01\n        /* \"V1/Contracts/sponsorCoin/SPC_Token.sol\":5275:5286  return true */\n      swap1\n      pop\n        /* \"V1/Contracts/sponsorCoin/SPC_Token.sol\":5118:5295  function isInserted(address _accountKey) public view returns (bool) {... */\n    tag_107:\n      swap2\n      swap1\n      pop\n      jump\t// out\n        /* \"V1/Contracts/sponsorCoin/SPC_Token.sol\":275:298  uint256 public decimals */\n    tag_56:\n      sload(0x02)\n      dup2\n      jump\t// out\n        /* \"V1/Contracts/sponsorCoin/SPC_Token.sol\":388:432  mapping(address => uint256) public balanceOf */\n    tag_60:\n      mstore(0x20, 0x04)\n      dup1\n      0x00\n      mstore\n      keccak256(0x00, 0x40)\n      0x00\n      swap2\n      pop\n      swap1\n      pop\n      sload\n      dup2\n      jump\t// out\n        /* \"V1/Contracts/sponsorCoin/SPC_Token.sol\":611:651  mapping(address => bool) public inserted */\n    tag_64:\n      mstore(0x20, 0x08)\n      dup1\n      0x00\n      mstore\n      keccak256(0x00, 0x40)\n      0x00\n      swap2\n      pop\n      sload\n      swap1\n      0x0100\n      exp\n      swap1\n      div\n      0xff\n      and\n      dup2\n      jump\t// out\n        /* \"V1/Contracts/sponsorCoin/SPC_Token.sol\":5490:5611  function getAccountBalance(address _accountKey) public view returns (uint) {... */\n    tag_68:\n        /* \"V1/Contracts/sponsorCoin/SPC_Token.sol\":5559:5563  uint */\n      0x00\n        /* \"V1/Contracts/sponsorCoin/SPC_Token.sol\":5582:5591  balanceOf */\n      0x04\n        /* \"V1/Contracts/sponsorCoin/SPC_Token.sol\":5582:5604  balanceOf[_accountKey] */\n      0x00\n        /* \"V1/Contracts/sponsorCoin/SPC_Token.sol\":5592:5603  _accountKey */\n      dup4\n        /* \"V1/Contracts/sponsorCoin/SPC_Token.sol\":5582:5604  balanceOf[_accountKey] */\n      0xffffffffffffffffffffffffffffffffffffffff\n      and\n      0xffffffffffffffffffffffffffffffffffffffff\n      and\n      dup2\n      mstore\n      0x20\n      add\n      swap1\n      dup2\n      mstore\n      0x20\n      add\n      0x00\n      keccak256\n      sload\n        /* \"V1/Contracts/sponsorCoin/SPC_Token.sol\":5575:5604  return balanceOf[_accountKey] */\n      swap1\n      pop\n        /* \"V1/Contracts/sponsorCoin/SPC_Token.sol\":5490:5611  function getAccountBalance(address _accountKey) public view returns (uint) {... */\n      swap2\n      swap1\n      pop\n      jump\t// out\n        /* \"V1/Contracts/sponsorCoin/SPC_Token.sol\":249:269  string public symbol */\n    tag_71:\n      0x01\n      dup1\n      sload\n      tag_111\n      swap1\n      tag_90\n      jump\t// in\n    tag_111:\n      dup1\n      0x1f\n      add\n      0x20\n      dup1\n      swap2\n      div\n      mul\n      0x20\n      add\n      mload(0x40)\n      swap1\n      dup2\n      add\n      0x40\n      mstore\n      dup1\n      swap3\n      swap2\n      swap1\n      dup2\n      dup2\n      mstore\n      0x20\n      add\n      dup3\n      dup1\n      sload\n      tag_112\n      swap1\n      tag_90\n      jump\t// in\n    tag_112:\n      dup1\n      iszero\n      tag_113\n      jumpi\n      dup1\n      0x1f\n      lt\n      tag_114\n      jumpi\n      0x0100\n      dup1\n      dup4\n      sload\n      div\n      mul\n      dup4\n      mstore\n      swap2\n      0x20\n      add\n      swap2\n      jump(tag_113)\n    tag_114:\n      dup3\n      add\n      swap2\n      swap1\n      0x00\n      mstore\n      keccak256(0x00, 0x20)\n      swap1\n    tag_115:\n      dup2\n      sload\n      dup2\n      mstore\n      swap1\n      0x01\n      add\n      swap1\n      0x20\n      add\n      dup1\n      dup4\n      gt\n      tag_115\n      jumpi\n      dup3\n      swap1\n      sub\n      0x1f\n      and\n      dup3\n      add\n      swap2\n    tag_113:\n      pop\n      pop\n      pop\n      pop\n      pop\n      dup2\n      jump\t// out\n        /* \"V1/Contracts/sponsorCoin/SPC_Token.sol\":1598:1799  function transfer(address _to, uint256 _value) external returns (bool success) {... */\n    tag_75:\n        /* \"V1/Contracts/sponsorCoin/SPC_Token.sol\":1663:1675  bool success */\n      0x00\n        /* \"V1/Contracts/sponsorCoin/SPC_Token.sol\":1720:1726  _value */\n      dup2\n        /* \"V1/Contracts/sponsorCoin/SPC_Token.sol\":1695:1704  balanceOf */\n      0x04\n        /* \"V1/Contracts/sponsorCoin/SPC_Token.sol\":1695:1716  balanceOf[msg.sender] */\n      0x00\n        /* \"V1/Contracts/sponsorCoin/SPC_Token.sol\":1705:1715  msg.sender */\n      caller\n        /* \"V1/Contracts/sponsorCoin/SPC_Token.sol\":1695:1716  balanceOf[msg.sender] */\n      0xffffffffffffffffffffffffffffffffffffffff\n      and\n      0xffffffffffffffffffffffffffffffffffffffff\n      and\n      dup2\n      mstore\n      0x20\n      add\n      swap1\n      dup2\n      mstore\n      0x20\n      add\n      0x00\n      keccak256\n      sload\n        /* \"V1/Contracts/sponsorCoin/SPC_Token.sol\":1695:1726  balanceOf[msg.sender] >= _value */\n      lt\n      iszero\n        /* \"V1/Contracts/sponsorCoin/SPC_Token.sol\":1687:1727  require(balanceOf[msg.sender] >= _value) */\n      tag_117\n      jumpi\n      0x00\n      dup1\n      revert\n    tag_117:\n        /* \"V1/Contracts/sponsorCoin/SPC_Token.sol\":1737:1771  _transfer(msg.sender, _to, _value) */\n      tag_118\n        /* \"V1/Contracts/sponsorCoin/SPC_Token.sol\":1747:1757  msg.sender */\n      caller\n        /* \"V1/Contracts/sponsorCoin/SPC_Token.sol\":1759:1762  _to */\n      dup5\n        /* \"V1/Contracts/sponsorCoin/SPC_Token.sol\":1764:1770  _value */\n      dup5\n        /* \"V1/Contracts/sponsorCoin/SPC_Token.sol\":1737:1746  _transfer */\n      tag_106\n        /* \"V1/Contracts/sponsorCoin/SPC_Token.sol\":1737:1771  _transfer(msg.sender, _to, _value) */\n      jump\t// in\n    tag_118:\n        /* \"V1/Contracts/sponsorCoin/SPC_Token.sol\":1788:1792  true */\n      0x01\n        /* \"V1/Contracts/sponsorCoin/SPC_Token.sol\":1781:1792  return true */\n      swap1\n      pop\n        /* \"V1/Contracts/sponsorCoin/SPC_Token.sol\":1598:1799  function transfer(address _to, uint256 _value) external returns (bool success) {... */\n      swap3\n      swap2\n      pop\n      pop\n      jump\t// out\n        /* \"V1/Contracts/sponsorCoin/SPC_Token.sol\":438:502  mapping(address => mapping(address => uint256)) public allowance */\n    tag_80:\n      mstore(0x20, 0x05)\n      dup2\n      0x00\n      mstore\n      mstore(0x20, keccak256(0x00, 0x40))\n      dup1\n      0x00\n      mstore\n      keccak256(0x00, 0x40)\n      0x00\n      swap2\n      pop\n      swap2\n      pop\n      pop\n      sload\n      dup2\n      jump\t// out\n        /* \"V1/Contracts/sponsorCoin/SPC_Token.sol\":566:605  mapping(address => uint) public indexOf */\n    tag_84:\n      mstore(0x20, 0x07)\n      dup1\n      0x00\n      mstore\n      keccak256(0x00, 0x40)\n      0x00\n      swap2\n      pop\n      swap1\n      pop\n      sload\n      dup2\n      jump\t// out\n        /* \"V1/Contracts/sponsorCoin/SPC_Token.sol\":2125:2471  function _transfer(address _from, address _to, uint256 _value) internal {... */\n    tag_106:\n        /* \"V1/Contracts/sponsorCoin/SPC_Token.sol\":2313:2314  0 */\n      0x00\n        /* \"V1/Contracts/sponsorCoin/SPC_Token.sol\":2298:2315  _to != address(0) */\n      0xffffffffffffffffffffffffffffffffffffffff\n      and\n        /* \"V1/Contracts/sponsorCoin/SPC_Token.sol\":2298:2301  _to */\n      dup3\n        /* \"V1/Contracts/sponsorCoin/SPC_Token.sol\":2298:2315  _to != address(0) */\n      0xffffffffffffffffffffffffffffffffffffffff\n      and\n      eq\n      iszero\n        /* \"V1/Contracts/sponsorCoin/SPC_Token.sol\":2290:2316  require(_to != address(0)) */\n      tag_120\n      jumpi\n      0x00\n      dup1\n      revert\n    tag_120:\n        /* \"V1/Contracts/sponsorCoin/SPC_Token.sol\":2326:2370  setBalance(_from, balanceOf[_from] - _value) */\n      tag_121\n        /* \"V1/Contracts/sponsorCoin/SPC_Token.sol\":2337:2342  _from */\n      dup4\n        /* \"V1/Contracts/sponsorCoin/SPC_Token.sol\":2363:2369  _value */\n      dup3\n        /* \"V1/Contracts/sponsorCoin/SPC_Token.sol\":2344:2353  balanceOf */\n      0x04\n        /* \"V1/Contracts/sponsorCoin/SPC_Token.sol\":2344:2360  balanceOf[_from] */\n      0x00\n        /* \"V1/Contracts/sponsorCoin/SPC_Token.sol\":2354:2359  _from */\n      dup8\n        /* \"V1/Contracts/sponsorCoin/SPC_Token.sol\":2344:2360  balanceOf[_from] */\n      0xffffffffffffffffffffffffffffffffffffffff\n      and\n      0xffffffffffffffffffffffffffffffffffffffff\n      and\n      dup2\n      mstore\n      0x20\n      add\n      swap1\n      dup2\n      mstore\n      0x20\n      add\n      0x00\n      keccak256\n      sload\n        /* \"V1/Contracts/sponsorCoin/SPC_Token.sol\":2344:2369  balanceOf[_from] - _value */\n      tag_122\n      swap2\n      swap1\n      tag_104\n      jump\t// in\n    tag_122:\n        /* \"V1/Contracts/sponsorCoin/SPC_Token.sol\":2326:2336  setBalance */\n      tag_123\n        /* \"V1/Contracts/sponsorCoin/SPC_Token.sol\":2326:2370  setBalance(_from, balanceOf[_from] - _value) */\n      jump\t// in\n    tag_121:\n      pop\n        /* \"V1/Contracts/sponsorCoin/SPC_Token.sol\":2380:2421  setBalance(_to,  balanceOf[_to] + _value) */\n      tag_124\n        /* \"V1/Contracts/sponsorCoin/SPC_Token.sol\":2391:2394  _to */\n      dup3\n        /* \"V1/Contracts/sponsorCoin/SPC_Token.sol\":2414:2420  _value */\n      dup3\n        /* \"V1/Contracts/sponsorCoin/SPC_Token.sol\":2397:2406  balanceOf */\n      0x04\n        /* \"V1/Contracts/sponsorCoin/SPC_Token.sol\":2397:2411  balanceOf[_to] */\n      0x00\n        /* \"V1/Contracts/sponsorCoin/SPC_Token.sol\":2407:2410  _to */\n      dup7\n        /* \"V1/Contracts/sponsorCoin/SPC_Token.sol\":2397:2411  balanceOf[_to] */\n      0xffffffffffffffffffffffffffffffffffffffff\n      and\n      0xffffffffffffffffffffffffffffffffffffffff\n      and\n      dup2\n      mstore\n      0x20\n      add\n      swap1\n      dup2\n      mstore\n      0x20\n      add\n      0x00\n      keccak256\n      sload\n        /* \"V1/Contracts/sponsorCoin/SPC_Token.sol\":2397:2420  balanceOf[_to] + _value */\n      tag_125\n      swap2\n      swap1\n      tag_126\n      jump\t// in\n    tag_125:\n        /* \"V1/Contracts/sponsorCoin/SPC_Token.sol\":2380:2390  setBalance */\n      tag_123\n        /* \"V1/Contracts/sponsorCoin/SPC_Token.sol\":2380:2421  setBalance(_to,  balanceOf[_to] + _value) */\n      jump\t// in\n    tag_124:\n      pop\n        /* \"V1/Contracts/sponsorCoin/SPC_Token.sol\":2452:2455  _to */\n      dup2\n        /* \"V1/Contracts/sponsorCoin/SPC_Token.sol\":2436:2464  Transfer(_from, _to, _value) */\n      0xffffffffffffffffffffffffffffffffffffffff\n      and\n        /* \"V1/Contracts/sponsorCoin/SPC_Token.sol\":2445:2450  _from */\n      dup4\n        /* \"V1/Contracts/sponsorCoin/SPC_Token.sol\":2436:2464  Transfer(_from, _to, _value) */\n      0xffffffffffffffffffffffffffffffffffffffff\n      and\n      0xddf252ad1be2c89b69c2b068fc378daa952ba7f163c4a11628f55a4df523b3ef\n        /* \"V1/Contracts/sponsorCoin/SPC_Token.sol\":2457:2463  _value */\n      dup4\n        /* \"V1/Contracts/sponsorCoin/SPC_Token.sol\":2436:2464  Transfer(_from, _to, _value) */\n      mload(0x40)\n      tag_127\n      swap2\n      swap1\n      tag_39\n      jump\t// in\n    tag_127:\n      mload(0x40)\n      dup1\n      swap2\n      sub\n      swap1\n      log3\n        /* \"V1/Contracts/sponsorCoin/SPC_Token.sol\":2125:2471  function _transfer(address _from, address _to, uint256 _value) internal {... */\n      pop\n      pop\n      pop\n      jump\t// out\n        /* \"V1/Contracts/sponsorCoin/SPC_Token.sol\":4708:5047  function setBalance(address _accountKey, uint _newBalance ) internal returns (bool) {... */\n    tag_123:\n        /* \"V1/Contracts/sponsorCoin/SPC_Token.sol\":4786:4790  bool */\n      0x00\n        /* \"V1/Contracts/sponsorCoin/SPC_Token.sol\":4828:4839  _newBalance */\n      dup2\n        /* \"V1/Contracts/sponsorCoin/SPC_Token.sol\":4803:4812  balanceOf */\n      0x04\n        /* \"V1/Contracts/sponsorCoin/SPC_Token.sol\":4803:4825  balanceOf[_accountKey] */\n      0x00\n        /* \"V1/Contracts/sponsorCoin/SPC_Token.sol\":4813:4824  _accountKey */\n      dup6\n        /* \"V1/Contracts/sponsorCoin/SPC_Token.sol\":4803:4825  balanceOf[_accountKey] */\n      0xffffffffffffffffffffffffffffffffffffffff\n      and\n      0xffffffffffffffffffffffffffffffffffffffff\n      and\n      dup2\n      mstore\n      0x20\n      add\n      swap1\n      dup2\n      mstore\n      0x20\n      add\n      0x00\n      keccak256\n        /* \"V1/Contracts/sponsorCoin/SPC_Token.sol\":4803:4839  balanceOf[_accountKey] = _newBalance */\n      dup2\n      swap1\n      sstore\n      pop\n        /* \"V1/Contracts/sponsorCoin/SPC_Token.sol\":4855:4863  inserted */\n      0x08\n        /* \"V1/Contracts/sponsorCoin/SPC_Token.sol\":4855:4876  inserted[_accountKey] */\n      0x00\n        /* \"V1/Contracts/sponsorCoin/SPC_Token.sol\":4864:4875  _accountKey */\n      dup5\n        /* \"V1/Contracts/sponsorCoin/SPC_Token.sol\":4855:4876  inserted[_accountKey] */\n      0xffffffffffffffffffffffffffffffffffffffff\n      and\n      0xffffffffffffffffffffffffffffffffffffffff\n      and\n      dup2\n      mstore\n      0x20\n      add\n      swap1\n      dup2\n      mstore\n      0x20\n      add\n      0x00\n      keccak256\n      0x00\n      swap1\n      sload\n      swap1\n      0x0100\n      exp\n      swap1\n      div\n      0xff\n      and\n        /* \"V1/Contracts/sponsorCoin/SPC_Token.sol\":4850:5039  if (!inserted[_accountKey]) {... */\n      tag_129\n      jumpi\n        /* \"V1/Contracts/sponsorCoin/SPC_Token.sol\":4916:4920  true */\n      0x01\n        /* \"V1/Contracts/sponsorCoin/SPC_Token.sol\":4892:4900  inserted */\n      0x08\n        /* \"V1/Contracts/sponsorCoin/SPC_Token.sol\":4892:4913  inserted[_accountKey] */\n      0x00\n        /* \"V1/Contracts/sponsorCoin/SPC_Token.sol\":4901:4912  _accountKey */\n      dup6\n        /* \"V1/Contracts/sponsorCoin/SPC_Token.sol\":4892:4913  inserted[_accountKey] */\n      0xffffffffffffffffffffffffffffffffffffffff\n      and\n      0xffffffffffffffffffffffffffffffffffffffff\n      and\n      dup2\n      mstore\n      0x20\n      add\n      swap1\n      dup2\n      mstore\n      0x20\n      add\n      0x00\n      keccak256\n      0x00\n        /* \"V1/Contracts/sponsorCoin/SPC_Token.sol\":4892:4920  inserted[_accountKey] = true */\n      0x0100\n      exp\n      dup2\n      sload\n      dup2\n      0xff\n      mul\n      not\n      and\n      swap1\n      dup4\n      iszero\n      iszero\n      mul\n      or\n      swap1\n      sstore\n      pop\n        /* \"V1/Contracts/sponsorCoin/SPC_Token.sol\":4934:4945  accountKeys */\n      0x06\n        /* \"V1/Contracts/sponsorCoin/SPC_Token.sol\":4951:4962  _accountKey */\n      dup4\n        /* \"V1/Contracts/sponsorCoin/SPC_Token.sol\":4934:4963  accountKeys.push(_accountKey) */\n      swap1\n      dup1\n      0x01\n      dup2\n      sload\n      add\n      dup1\n      dup3\n      sstore\n      dup1\n      swap2\n      pop\n      pop\n      0x01\n      swap1\n      sub\n      swap1\n      0x00\n      mstore\n      keccak256(0x00, 0x20)\n      add\n      0x00\n      swap1\n      swap2\n      swap1\n      swap2\n      swap1\n      swap2\n      0x0100\n      exp\n      dup2\n      sload\n      dup2\n      0xffffffffffffffffffffffffffffffffffffffff\n      mul\n      not\n      and\n      swap1\n      dup4\n      0xffffffffffffffffffffffffffffffffffffffff\n      and\n      mul\n      or\n      swap1\n      sstore\n      pop\n        /* \"V1/Contracts/sponsorCoin/SPC_Token.sol\":4984:4988  true */\n      0x01\n        /* \"V1/Contracts/sponsorCoin/SPC_Token.sol\":4977:4988  return true */\n      swap1\n      pop\n      jump(tag_128)\n        /* \"V1/Contracts/sponsorCoin/SPC_Token.sol\":4850:5039  if (!inserted[_accountKey]) {... */\n    tag_129:\n        /* \"V1/Contracts/sponsorCoin/SPC_Token.sol\":5034:5039  false */\n      0x00\n        /* \"V1/Contracts/sponsorCoin/SPC_Token.sol\":5027:5039  return false */\n      swap1\n      pop\n        /* \"V1/Contracts/sponsorCoin/SPC_Token.sol\":4708:5047  function setBalance(address _accountKey, uint _newBalance ) internal returns (bool) {... */\n    tag_128:\n      swap3\n      swap2\n      pop\n      pop\n      jump\t// out\n        /* \"#utility.yul\":7:146   */\n    tag_133:\n        /* \"#utility.yul\":53:58   */\n      0x00\n        /* \"#utility.yul\":91:97   */\n      dup2\n        /* \"#utility.yul\":78:98   */\n      calldataload\n        /* \"#utility.yul\":69:98   */\n      swap1\n      pop\n        /* \"#utility.yul\":107:140   */\n      tag_135\n        /* \"#utility.yul\":134:139   */\n      dup2\n        /* \"#utility.yul\":107:140   */\n      tag_136\n      jump\t// in\n    tag_135:\n        /* \"#utility.yul\":7:146   */\n      swap3\n      swap2\n      pop\n      pop\n      jump\t// out\n        /* \"#utility.yul\":152:291   */\n    tag_137:\n        /* \"#utility.yul\":198:203   */\n      0x00\n        /* \"#utility.yul\":236:242   */\n      dup2\n        /* \"#utility.yul\":223:243   */\n      calldataload\n        /* \"#utility.yul\":214:243   */\n      swap1\n      pop\n        /* \"#utility.yul\":252:285   */\n      tag_139\n        /* \"#utility.yul\":279:284   */\n      dup2\n        /* \"#utility.yul\":252:285   */\n      tag_140\n      jump\t// in\n    tag_139:\n        /* \"#utility.yul\":152:291   */\n      swap3\n      swap2\n      pop\n      pop\n      jump\t// out\n        /* \"#utility.yul\":297:626   */\n    tag_23:\n        /* \"#utility.yul\":356:362   */\n      0x00\n        /* \"#utility.yul\":405:407   */\n      0x20\n        /* \"#utility.yul\":393:402   */\n      dup3\n        /* \"#utility.yul\":384:391   */\n      dup5\n        /* \"#utility.yul\":380:403   */\n      sub\n        /* \"#utility.yul\":376:408   */\n      slt\n        /* \"#utility.yul\":373:492   */\n      iszero\n      tag_142\n      jumpi\n        /* \"#utility.yul\":411:490   */\n      tag_143\n      tag_144\n      jump\t// in\n    tag_143:\n        /* \"#utility.yul\":373:492   */\n    tag_142:\n        /* \"#utility.yul\":531:532   */\n      0x00\n        /* \"#utility.yul\":556:609   */\n      tag_145\n        /* \"#utility.yul\":601:608   */\n      dup5\n        /* \"#utility.yul\":592:598   */\n      dup3\n        /* \"#utility.yul\":581:590   */\n      dup6\n        /* \"#utility.yul\":577:599   */\n      add\n        /* \"#utility.yul\":556:609   */\n      tag_133\n      jump\t// in\n    tag_145:\n        /* \"#utility.yul\":546:609   */\n      swap2\n      pop\n        /* \"#utility.yul\":502:619   */\n      pop\n        /* \"#utility.yul\":297:626   */\n      swap3\n      swap2\n      pop\n      pop\n      jump\t// out\n        /* \"#utility.yul\":632:1106   */\n    tag_79:\n        /* \"#utility.yul\":700:706   */\n      0x00\n        /* \"#utility.yul\":708:714   */\n      dup1\n        /* \"#utility.yul\":757:759   */\n      0x40\n        /* \"#utility.yul\":745:754   */\n      dup4\n        /* \"#utility.yul\":736:743   */\n      dup6\n        /* \"#utility.yul\":732:755   */\n      sub\n        /* \"#utility.yul\":728:760   */\n      slt\n        /* \"#utility.yul\":725:844   */\n      iszero\n      tag_147\n      jumpi\n        /* \"#utility.yul\":763:842   */\n      tag_148\n      tag_144\n      jump\t// in\n    tag_148:\n        /* \"#utility.yul\":725:844   */\n    tag_147:\n        /* \"#utility.yul\":883:884   */\n      0x00\n        /* \"#utility.yul\":908:961   */\n      tag_149\n        /* \"#utility.yul\":953:960   */\n      dup6\n        /* \"#utility.yul\":944:950   */\n      dup3\n        /* \"#utility.yul\":933:942   */\n      dup7\n        /* \"#utility.yul\":929:951   */\n      add\n        /* \"#utility.yul\":908:961   */\n      tag_133\n      jump\t// in\n    tag_149:\n        /* \"#utility.yul\":898:961   */\n      swap3\n      pop\n        /* \"#utility.yul\":854:971   */\n      pop\n        /* \"#utility.yul\":1010:1012   */\n      0x20\n        /* \"#utility.yul\":1036:1089   */\n      tag_150\n        /* \"#utility.yul\":1081:1088   */\n      dup6\n        /* \"#utility.yul\":1072:1078   */\n      dup3\n        /* \"#utility.yul\":1061:1070   */\n      dup7\n        /* \"#utility.yul\":1057:1079   */\n      add\n        /* \"#utility.yul\":1036:1089   */\n      tag_133\n      jump\t// in\n    tag_150:\n        /* \"#utility.yul\":1026:1089   */\n      swap2\n      pop\n        /* \"#utility.yul\":981:1099   */\n      pop\n        /* \"#utility.yul\":632:1106   */\n      swap3\n      pop\n      swap3\n      swap1\n      pop\n      jump\t// out\n        /* \"#utility.yul\":1112:1731   */\n    tag_48:\n        /* \"#utility.yul\":1189:1195   */\n      0x00\n        /* \"#utility.yul\":1197:1203   */\n      dup1\n        /* \"#utility.yul\":1205:1211   */\n      0x00\n        /* \"#utility.yul\":1254:1256   */\n      0x60\n        /* \"#utility.yul\":1242:1251   */\n      dup5\n        /* \"#utility.yul\":1233:1240   */\n      dup7\n        /* \"#utility.yul\":1229:1252   */\n      sub\n        /* \"#utility.yul\":1225:1257   */\n      slt\n        /* \"#utility.yul\":1222:1341   */\n      iszero\n      tag_152\n      jumpi\n        /* \"#utility.yul\":1260:1339   */\n      tag_153\n      tag_144\n      jump\t// in\n    tag_153:\n        /* \"#utility.yul\":1222:1341   */\n    tag_152:\n        /* \"#utility.yul\":1380:1381   */\n      0x00\n        /* \"#utility.yul\":1405:1458   */\n      tag_154\n        /* \"#utility.yul\":1450:1457   */\n      dup7\n        /* \"#utility.yul\":1441:1447   */\n      dup3\n        /* \"#utility.yul\":1430:1439   */\n      dup8\n        /* \"#utility.yul\":1426:1448   */\n      add\n        /* \"#utility.yul\":1405:1458   */\n      tag_133\n      jump\t// in\n    tag_154:\n        /* \"#utility.yul\":1395:1458   */\n      swap4\n      pop\n        /* \"#utility.yul\":1351:1468   */\n      pop\n        /* \"#utility.yul\":1507:1509   */\n      0x20\n        /* \"#utility.yul\":1533:1586   */\n      tag_155\n        /* \"#utility.yul\":1578:1585   */\n      dup7\n        /* \"#utility.yul\":1569:1575   */\n      dup3\n        /* \"#utility.yul\":1558:1567   */\n      dup8\n        /* \"#utility.yul\":1554:1576   */\n      add\n        /* \"#utility.yul\":1533:1586   */\n      tag_133\n      jump\t// in\n    tag_155:\n        /* \"#utility.yul\":1523:1586   */\n      swap3\n      pop\n        /* \"#utility.yul\":1478:1596   */\n      pop\n        /* \"#utility.yul\":1635:1637   */\n      0x40\n        /* \"#utility.yul\":1661:1714   */\n      tag_156\n        /* \"#utility.yul\":1706:1713   */\n      dup7\n        /* \"#utility.yul\":1697:1703   */\n      dup3\n        /* \"#utility.yul\":1686:1695   */\n      dup8\n        /* \"#utility.yul\":1682:1704   */\n      add\n        /* \"#utility.yul\":1661:1714   */\n      tag_137\n      jump\t// in\n    tag_156:\n        /* \"#utility.yul\":1651:1714   */\n      swap2\n      pop\n        /* \"#utility.yul\":1606:1724   */\n      pop\n        /* \"#utility.yul\":1112:1731   */\n      swap3\n      pop\n      swap3\n      pop\n      swap3\n      jump\t// out\n        /* \"#utility.yul\":1737:2211   */\n    tag_33:\n        /* \"#utility.yul\":1805:1811   */\n      0x00\n        /* \"#utility.yul\":1813:1819   */\n      dup1\n        /* \"#utility.yul\":1862:1864   */\n      0x40\n        /* \"#utility.yul\":1850:1859   */\n      dup4\n        /* \"#utility.yul\":1841:1848   */\n      dup6\n        /* \"#utility.yul\":1837:1860   */\n      sub\n        /* \"#utility.yul\":1833:1865   */\n      slt\n        /* \"#utility.yul\":1830:1949   */\n      iszero\n      tag_158\n      jumpi\n        /* \"#utility.yul\":1868:1947   */\n      tag_159\n      tag_144\n      jump\t// in\n    tag_159:\n        /* \"#utility.yul\":1830:1949   */\n    tag_158:\n        /* \"#utility.yul\":1988:1989   */\n      0x00\n        /* \"#utility.yul\":2013:2066   */\n      tag_160\n        /* \"#utility.yul\":2058:2065   */\n      dup6\n        /* \"#utility.yul\":2049:2055   */\n      dup3\n        /* \"#utility.yul\":2038:2047   */\n      dup7\n        /* \"#utility.yul\":2034:2056   */\n      add\n        /* \"#utility.yul\":2013:2066   */\n      tag_133\n      jump\t// in\n    tag_160:\n        /* \"#utility.yul\":2003:2066   */\n      swap3\n      pop\n        /* \"#utility.yul\":1959:2076   */\n      pop\n        /* \"#utility.yul\":2115:2117   */\n      0x20\n        /* \"#utility.yul\":2141:2194   */\n      tag_161\n        /* \"#utility.yul\":2186:2193   */\n      dup6\n        /* \"#utility.yul\":2177:2183   */\n      dup3\n        /* \"#utility.yul\":2166:2175   */\n      dup7\n        /* \"#utility.yul\":2162:2184   */\n      add\n        /* \"#utility.yul\":2141:2194   */\n      tag_137\n      jump\t// in\n    tag_161:\n        /* \"#utility.yul\":2131:2194   */\n      swap2\n      pop\n        /* \"#utility.yul\":2086:2204   */\n      pop\n        /* \"#utility.yul\":1737:2211   */\n      swap3\n      pop\n      swap3\n      swap1\n      pop\n      jump\t// out\n        /* \"#utility.yul\":2217:2546   */\n    tag_42:\n        /* \"#utility.yul\":2276:2282   */\n      0x00\n        /* \"#utility.yul\":2325:2327   */\n      0x20\n        /* \"#utility.yul\":2313:2322   */\n      dup3\n        /* \"#utility.yul\":2304:2311   */\n      dup5\n        /* \"#utility.yul\":2300:2323   */\n      sub\n        /* \"#utility.yul\":2296:2328   */\n      slt\n        /* \"#utility.yul\":2293:2412   */\n      iszero\n      tag_163\n      jumpi\n        /* \"#utility.yul\":2331:2410   */\n      tag_164\n      tag_144\n      jump\t// in\n    tag_164:\n        /* \"#utility.yul\":2293:2412   */\n    tag_163:\n        /* \"#utility.yul\":2451:2452   */\n      0x00\n        /* \"#utility.yul\":2476:2529   */\n      tag_165\n        /* \"#utility.yul\":2521:2528   */\n      dup5\n        /* \"#utility.yul\":2512:2518   */\n      dup3\n        /* \"#utility.yul\":2501:2510   */\n      dup6\n        /* \"#utility.yul\":2497:2519   */\n      add\n        /* \"#utility.yul\":2476:2529   */\n      tag_137\n      jump\t// in\n    tag_165:\n        /* \"#utility.yul\":2466:2529   */\n      swap2\n      pop\n        /* \"#utility.yul\":2422:2539   */\n      pop\n        /* \"#utility.yul\":2217:2546   */\n      swap3\n      swap2\n      pop\n      pop\n      jump\t// out\n        /* \"#utility.yul\":2552:2670   */\n    tag_166:\n        /* \"#utility.yul\":2639:2663   */\n      tag_168\n        /* \"#utility.yul\":2657:2662   */\n      dup2\n        /* \"#utility.yul\":2639:2663   */\n      tag_169\n      jump\t// in\n    tag_168:\n        /* \"#utility.yul\":2634:2637   */\n      dup3\n        /* \"#utility.yul\":2627:2664   */\n      mstore\n        /* \"#utility.yul\":2552:2670   */\n      pop\n      pop\n      jump\t// out\n        /* \"#utility.yul\":2676:2785   */\n    tag_170:\n        /* \"#utility.yul\":2757:2778   */\n      tag_172\n        /* \"#utility.yul\":2772:2777   */\n      dup2\n        /* \"#utility.yul\":2757:2778   */\n      tag_173\n      jump\t// in\n    tag_172:\n        /* \"#utility.yul\":2752:2755   */\n      dup3\n        /* \"#utility.yul\":2745:2779   */\n      mstore\n        /* \"#utility.yul\":2676:2785   */\n      pop\n      pop\n      jump\t// out\n        /* \"#utility.yul\":2791:3155   */\n    tag_174:\n        /* \"#utility.yul\":2879:2882   */\n      0x00\n        /* \"#utility.yul\":2907:2946   */\n      tag_176\n        /* \"#utility.yul\":2940:2945   */\n      dup3\n        /* \"#utility.yul\":2907:2946   */\n      tag_177\n      jump\t// in\n    tag_176:\n        /* \"#utility.yul\":2962:3033   */\n      tag_178\n        /* \"#utility.yul\":3026:3032   */\n      dup2\n        /* \"#utility.yul\":3021:3024   */\n      dup6\n        /* \"#utility.yul\":2962:3033   */\n      tag_179\n      jump\t// in\n    tag_178:\n        /* \"#utility.yul\":2955:3033   */\n      swap4\n      pop\n        /* \"#utility.yul\":3042:3094   */\n      tag_180\n        /* \"#utility.yul\":3087:3093   */\n      dup2\n        /* \"#utility.yul\":3082:3085   */\n      dup6\n        /* \"#utility.yul\":3075:3079   */\n      0x20\n        /* \"#utility.yul\":3068:3073   */\n      dup7\n        /* \"#utility.yul\":3064:3080   */\n      add\n        /* \"#utility.yul\":3042:3094   */\n      tag_181\n      jump\t// in\n    tag_180:\n        /* \"#utility.yul\":3119:3148   */\n      tag_182\n        /* \"#utility.yul\":3141:3147   */\n      dup2\n        /* \"#utility.yul\":3119:3148   */\n      tag_183\n      jump\t// in\n    tag_182:\n        /* \"#utility.yul\":3114:3117   */\n      dup5\n        /* \"#utility.yul\":3110:3149   */\n      add\n        /* \"#utility.yul\":3103:3149   */\n      swap2\n      pop\n        /* \"#utility.yul\":2883:3155   */\n      pop\n        /* \"#utility.yul\":2791:3155   */\n      swap3\n      swap2\n      pop\n      pop\n      jump\t// out\n        /* \"#utility.yul\":3161:3279   */\n    tag_184:\n        /* \"#utility.yul\":3248:3272   */\n      tag_186\n        /* \"#utility.yul\":3266:3271   */\n      dup2\n        /* \"#utility.yul\":3248:3272   */\n      tag_187\n      jump\t// in\n    tag_186:\n        /* \"#utility.yul\":3243:3246   */\n      dup3\n        /* \"#utility.yul\":3236:3273   */\n      mstore\n        /* \"#utility.yul\":3161:3279   */\n      pop\n      pop\n      jump\t// out\n        /* \"#utility.yul\":3285:3507   */\n    tag_45:\n        /* \"#utility.yul\":3378:3382   */\n      0x00\n        /* \"#utility.yul\":3416:3418   */\n      0x20\n        /* \"#utility.yul\":3405:3414   */\n      dup3\n        /* \"#utility.yul\":3401:3419   */\n      add\n        /* \"#utility.yul\":3393:3419   */\n      swap1\n      pop\n        /* \"#utility.yul\":3429:3500   */\n      tag_189\n        /* \"#utility.yul\":3497:3498   */\n      0x00\n        /* \"#utility.yul\":3486:3495   */\n      dup4\n        /* \"#utility.yul\":3482:3499   */\n      add\n        /* \"#utility.yul\":3473:3479   */\n      dup5\n        /* \"#utility.yul\":3429:3500   */\n      tag_166\n      jump\t// in\n    tag_189:\n        /* \"#utility.yul\":3285:3507   */\n      swap3\n      swap2\n      pop\n      pop\n      jump\t// out\n        /* \"#utility.yul\":3513:3723   */\n    tag_26:\n        /* \"#utility.yul\":3600:3604   */\n      0x00\n        /* \"#utility.yul\":3638:3640   */\n      0x20\n        /* \"#utility.yul\":3627:3636   */\n      dup3\n        /* \"#utility.yul\":3623:3641   */\n      add\n        /* \"#utility.yul\":3615:3641   */\n      swap1\n      pop\n        /* \"#utility.yul\":3651:3716   */\n      tag_191\n        /* \"#utility.yul\":3713:3714   */\n      0x00\n        /* \"#utility.yul\":3702:3711   */\n      dup4\n        /* \"#utility.yul\":3698:3715   */\n      add\n        /* \"#utility.yul\":3689:3695   */\n      dup5\n        /* \"#utility.yul\":3651:3716   */\n      tag_170\n      jump\t// in\n    tag_191:\n        /* \"#utility.yul\":3513:3723   */\n      swap3\n      swap2\n      pop\n      pop\n      jump\t// out\n        /* \"#utility.yul\":3729:4042   */\n    tag_30:\n        /* \"#utility.yul\":3842:3846   */\n      0x00\n        /* \"#utility.yul\":3880:3882   */\n      0x20\n        /* \"#utility.yul\":3869:3878   */\n      dup3\n        /* \"#utility.yul\":3865:3883   */\n      add\n        /* \"#utility.yul\":3857:3883   */\n      swap1\n      pop\n        /* \"#utility.yul\":3929:3938   */\n      dup2\n        /* \"#utility.yul\":3923:3927   */\n      dup2\n        /* \"#utility.yul\":3919:3939   */\n      sub\n        /* \"#utility.yul\":3915:3916   */\n      0x00\n        /* \"#utility.yul\":3904:3913   */\n      dup4\n        /* \"#utility.yul\":3900:3917   */\n      add\n        /* \"#utility.yul\":3893:3940   */\n      mstore\n        /* \"#utility.yul\":3957:4035   */\n      tag_193\n        /* \"#utility.yul\":4030:4034   */\n      dup2\n        /* \"#utility.yul\":4021:4027   */\n      dup5\n        /* \"#utility.yul\":3957:4035   */\n      tag_174\n      jump\t// in\n    tag_193:\n        /* \"#utility.yul\":3949:4035   */\n      swap1\n      pop\n        /* \"#utility.yul\":3729:4042   */\n      swap3\n      swap2\n      pop\n      pop\n      jump\t// out\n        /* \"#utility.yul\":4048:4270   */\n    tag_39:\n        /* \"#utility.yul\":4141:4145   */\n      0x00\n        /* \"#utility.yul\":4179:4181   */\n      0x20\n        /* \"#utility.yul\":4168:4177   */\n      dup3\n        /* \"#utility.yul\":4164:4182   */\n      add\n        /* \"#utility.yul\":4156:4182   */\n      swap1\n      pop\n        /* \"#utility.yul\":4192:4263   */\n      tag_195\n        /* \"#utility.yul\":4260:4261   */\n      0x00\n        /* \"#utility.yul\":4249:4258   */\n      dup4\n        /* \"#utility.yul\":4245:4262   */\n      add\n        /* \"#utility.yul\":4236:4242   */\n      dup5\n        /* \"#utility.yul\":4192:4263   */\n      tag_184\n      jump\t// in\n    tag_195:\n        /* \"#utility.yul\":4048:4270   */\n      swap3\n      swap2\n      pop\n      pop\n      jump\t// out\n        /* \"#utility.yul\":4357:4456   */\n    tag_177:\n        /* \"#utility.yul\":4409:4415   */\n      0x00\n        /* \"#utility.yul\":4443:4448   */\n      dup2\n        /* \"#utility.yul\":4437:4449   */\n      mload\n        /* \"#utility.yul\":4427:4449   */\n      swap1\n      pop\n        /* \"#utility.yul\":4357:4456   */\n      swap2\n      swap1\n      pop\n      jump\t// out\n        /* \"#utility.yul\":4462:4631   */\n    tag_179:\n        /* \"#utility.yul\":4546:4557   */\n      0x00\n        /* \"#utility.yul\":4580:4586   */\n      dup3\n        /* \"#utility.yul\":4575:4578   */\n      dup3\n        /* \"#utility.yul\":4568:4587   */\n      mstore\n        /* \"#utility.yul\":4620:4624   */\n      0x20\n        /* \"#utility.yul\":4615:4618   */\n      dup3\n        /* \"#utility.yul\":4611:4625   */\n      add\n        /* \"#utility.yul\":4596:4625   */\n      swap1\n      pop\n        /* \"#utility.yul\":4462:4631   */\n      swap3\n      swap2\n      pop\n      pop\n      jump\t// out\n        /* \"#utility.yul\":4637:4942   */\n    tag_126:\n        /* \"#utility.yul\":4677:4680   */\n      0x00\n        /* \"#utility.yul\":4696:4716   */\n      tag_201\n        /* \"#utility.yul\":4714:4715   */\n      dup3\n        /* \"#utility.yul\":4696:4716   */\n      tag_187\n      jump\t// in\n    tag_201:\n        /* \"#utility.yul\":4691:4716   */\n      swap2\n      pop\n        /* \"#utility.yul\":4730:4750   */\n      tag_202\n        /* \"#utility.yul\":4748:4749   */\n      dup4\n        /* \"#utility.yul\":4730:4750   */\n      tag_187\n      jump\t// in\n    tag_202:\n        /* \"#utility.yul\":4725:4750   */\n      swap3\n      pop\n        /* \"#utility.yul\":4884:4885   */\n      dup3\n        /* \"#utility.yul\":4816:4882   */\n      0xffffffffffffffffffffffffffffffffffffffffffffffffffffffffffffffff\n        /* \"#utility.yul\":4812:4886   */\n      sub\n        /* \"#utility.yul\":4809:4810   */\n      dup3\n        /* \"#utility.yul\":4806:4887   */\n      gt\n        /* \"#utility.yul\":4803:4910   */\n      iszero\n      tag_203\n      jumpi\n        /* \"#utility.yul\":4890:4908   */\n      tag_204\n      tag_205\n      jump\t// in\n    tag_204:\n        /* \"#utility.yul\":4803:4910   */\n    tag_203:\n        /* \"#utility.yul\":4934:4935   */\n      dup3\n        /* \"#utility.yul\":4931:4932   */\n      dup3\n        /* \"#utility.yul\":4927:4936   */\n      add\n        /* \"#utility.yul\":4920:4936   */\n      swap1\n      pop\n        /* \"#utility.yul\":4637:4942   */\n      swap3\n      swap2\n      pop\n      pop\n      jump\t// out\n        /* \"#utility.yul\":4948:5139   */\n    tag_104:\n        /* \"#utility.yul\":4988:4992   */\n      0x00\n        /* \"#utility.yul\":5008:5028   */\n      tag_207\n        /* \"#utility.yul\":5026:5027   */\n      dup3\n        /* \"#utility.yul\":5008:5028   */\n      tag_187\n      jump\t// in\n    tag_207:\n        /* \"#utility.yul\":5003:5028   */\n      swap2\n      pop\n        /* \"#utility.yul\":5042:5062   */\n      tag_208\n        /* \"#utility.yul\":5060:5061   */\n      dup4\n        /* \"#utility.yul\":5042:5062   */\n      tag_187\n      jump\t// in\n    tag_208:\n        /* \"#utility.yul\":5037:5062   */\n      swap3\n      pop\n        /* \"#utility.yul\":5081:5082   */\n      dup3\n        /* \"#utility.yul\":5078:5079   */\n      dup3\n        /* \"#utility.yul\":5075:5083   */\n      lt\n        /* \"#utility.yul\":5072:5106   */\n      iszero\n      tag_209\n      jumpi\n        /* \"#utility.yul\":5086:5104   */\n      tag_210\n      tag_205\n      jump\t// in\n    tag_210:\n        /* \"#utility.yul\":5072:5106   */\n    tag_209:\n        /* \"#utility.yul\":5131:5132   */\n      dup3\n        /* \"#utility.yul\":5128:5129   */\n      dup3\n        /* \"#utility.yul\":5124:5133   */\n      sub\n        /* \"#utility.yul\":5116:5133   */\n      swap1\n      pop\n        /* \"#utility.yul\":4948:5139   */\n      swap3\n      swap2\n      pop\n      pop\n      jump\t// out\n        /* \"#utility.yul\":5145:5241   */\n    tag_169:\n        /* \"#utility.yul\":5182:5189   */\n      0x00\n        /* \"#utility.yul\":5211:5235   */\n      tag_212\n        /* \"#utility.yul\":5229:5234   */\n      dup3\n        /* \"#utility.yul\":5211:5235   */\n      tag_213\n      jump\t// in\n    tag_212:\n        /* \"#utility.yul\":5200:5235   */\n      swap1\n      pop\n        /* \"#utility.yul\":5145:5241   */\n      swap2\n      swap1\n      pop\n      jump\t// out\n        /* \"#utility.yul\":5247:5337   */\n    tag_173:\n        /* \"#utility.yul\":5281:5288   */\n      0x00\n        /* \"#utility.yul\":5324:5329   */\n      dup2\n        /* \"#utility.yul\":5317:5330   */\n      iszero\n        /* \"#utility.yul\":5310:5331   */\n      iszero\n        /* \"#utility.yul\":5299:5331   */\n      swap1\n      pop\n        /* \"#utility.yul\":5247:5337   */\n      swap2\n      swap1\n      pop\n      jump\t// out\n        /* \"#utility.yul\":5343:5469   */\n    tag_213:\n        /* \"#utility.yul\":5380:5387   */\n      0x00\n        /* \"#utility.yul\":5420:5462   */\n      0xffffffffffffffffffffffffffffffffffffffff\n        /* \"#utility.yul\":5413:5418   */\n      dup3\n        /* \"#utility.yul\":5409:5463   */\n      and\n        /* \"#utility.yul\":5398:5463   */\n      swap1\n      pop\n        /* \"#utility.yul\":5343:5469   */\n      swap2\n      swap1\n      pop\n      jump\t// out\n        /* \"#utility.yul\":5475:5552   */\n    tag_187:\n        /* \"#utility.yul\":5512:5519   */\n      0x00\n        /* \"#utility.yul\":5541:5546   */\n      dup2\n        /* \"#utility.yul\":5530:5546   */\n      swap1\n      pop\n        /* \"#utility.yul\":5475:5552   */\n      swap2\n      swap1\n      pop\n      jump\t// out\n        /* \"#utility.yul\":5558:5865   */\n    tag_181:\n        /* \"#utility.yul\":5626:5627   */\n      0x00\n        /* \"#utility.yul\":5636:5749   */\n    tag_218:\n        /* \"#utility.yul\":5650:5656   */\n      dup4\n        /* \"#utility.yul\":5647:5648   */\n      dup2\n        /* \"#utility.yul\":5644:5657   */\n      lt\n        /* \"#utility.yul\":5636:5749   */\n      iszero\n      tag_220\n      jumpi\n        /* \"#utility.yul\":5735:5736   */\n      dup1\n        /* \"#utility.yul\":5730:5733   */\n      dup3\n        /* \"#utility.yul\":5726:5737   */\n      add\n        /* \"#utility.yul\":5720:5738   */\n      mload\n        /* \"#utility.yul\":5716:5717   */\n      dup2\n        /* \"#utility.yul\":5711:5714   */\n      dup5\n        /* \"#utility.yul\":5707:5718   */\n      add\n        /* \"#utility.yul\":5700:5739   */\n      mstore\n        /* \"#utility.yul\":5672:5674   */\n      0x20\n        /* \"#utility.yul\":5669:5670   */\n      dup2\n        /* \"#utility.yul\":5665:5675   */\n      add\n        /* \"#utility.yul\":5660:5675   */\n      swap1\n      pop\n        /* \"#utility.yul\":5636:5749   */\n      jump(tag_218)\n    tag_220:\n        /* \"#utility.yul\":5767:5773   */\n      dup4\n        /* \"#utility.yul\":5764:5765   */\n      dup2\n        /* \"#utility.yul\":5761:5774   */\n      gt\n        /* \"#utility.yul\":5758:5859   */\n      iszero\n      tag_221\n      jumpi\n        /* \"#utility.yul\":5847:5848   */\n      0x00\n        /* \"#utility.yul\":5838:5844   */\n      dup5\n        /* \"#utility.yul\":5833:5836   */\n      dup5\n        /* \"#utility.yul\":5829:5845   */\n      add\n        /* \"#utility.yul\":5822:5849   */\n      mstore\n        /* \"#utility.yul\":5758:5859   */\n    tag_221:\n        /* \"#utility.yul\":5607:5865   */\n      pop\n        /* \"#utility.yul\":5558:5865   */\n      pop\n      pop\n      pop\n      jump\t// out\n        /* \"#utility.yul\":5871:6191   */\n    tag_90:\n        /* \"#utility.yul\":5915:5921   */\n      0x00\n        /* \"#utility.yul\":5952:5953   */\n      0x02\n        /* \"#utility.yul\":5946:5950   */\n      dup3\n        /* \"#utility.yul\":5942:5954   */\n      div\n        /* \"#utility.yul\":5932:5954   */\n      swap1\n      pop\n        /* \"#utility.yul\":5999:6000   */\n      0x01\n        /* \"#utility.yul\":5993:5997   */\n      dup3\n        /* \"#utility.yul\":5989:6001   */\n      and\n        /* \"#utility.yul\":6020:6038   */\n      dup1\n        /* \"#utility.yul\":6010:6091   */\n      tag_223\n      jumpi\n        /* \"#utility.yul\":6076:6080   */\n      0x7f\n        /* \"#utility.yul\":6068:6074   */\n      dup3\n        /* \"#utility.yul\":6064:6081   */\n      and\n        /* \"#utility.yul\":6054:6081   */\n      swap2\n      pop\n        /* \"#utility.yul\":6010:6091   */\n    tag_223:\n        /* \"#utility.yul\":6138:6140   */\n      0x20\n        /* \"#utility.yul\":6130:6136   */\n      dup3\n        /* \"#utility.yul\":6127:6141   */\n      lt\n        /* \"#utility.yul\":6107:6125   */\n      dup2\n        /* \"#utility.yul\":6104:6142   */\n      eq\n        /* \"#utility.yul\":6101:6185   */\n      iszero\n      tag_224\n      jumpi\n        /* \"#utility.yul\":6157:6175   */\n      tag_225\n      tag_226\n      jump\t// in\n    tag_225:\n        /* \"#utility.yul\":6101:6185   */\n    tag_224:\n        /* \"#utility.yul\":5922:6191   */\n      pop\n        /* \"#utility.yul\":5871:6191   */\n      swap2\n      swap1\n      pop\n      jump\t// out\n        /* \"#utility.yul\":6197:6377   */\n    tag_205:\n        /* \"#utility.yul\":6245:6322   */\n      0x4e487b7100000000000000000000000000000000000000000000000000000000\n        /* \"#utility.yul\":6242:6243   */\n      0x00\n        /* \"#utility.yul\":6235:6323   */\n      mstore\n        /* \"#utility.yul\":6342:6346   */\n      0x11\n        /* \"#utility.yul\":6339:6340   */\n      0x04\n        /* \"#utility.yul\":6332:6347   */\n      mstore\n        /* \"#utility.yul\":6366:6370   */\n      0x24\n        /* \"#utility.yul\":6363:6364   */\n      0x00\n        /* \"#utility.yul\":6356:6371   */\n      revert\n        /* \"#utility.yul\":6383:6563   */\n    tag_226:\n        /* \"#utility.yul\":6431:6508   */\n      0x4e487b7100000000000000000000000000000000000000000000000000000000\n        /* \"#utility.yul\":6428:6429   */\n      0x00\n        /* \"#utility.yul\":6421:6509   */\n      mstore\n        /* \"#utility.yul\":6528:6532   */\n      0x22\n        /* \"#utility.yul\":6525:6526   */\n      0x04\n        /* \"#utility.yul\":6518:6533   */\n      mstore\n        /* \"#utility.yul\":6552:6556   */\n      0x24\n        /* \"#utility.yul\":6549:6550   */\n      0x00\n        /* \"#utility.yul\":6542:6557   */\n      revert\n        /* \"#utility.yul\":6692:6809   */\n    tag_144:\n        /* \"#utility.yul\":6801:6802   */\n      0x00\n        /* \"#utility.yul\":6798:6799   */\n      dup1\n        /* \"#utility.yul\":6791:6803   */\n      revert\n        /* \"#utility.yul\":6815:6917   */\n    tag_183:\n        /* \"#utility.yul\":6856:6862   */\n      0x00\n        /* \"#utility.yul\":6907:6909   */\n      0x1f\n        /* \"#utility.yul\":6903:6910   */\n      not\n        /* \"#utility.yul\":6898:6900   */\n      0x1f\n        /* \"#utility.yul\":6891:6896   */\n      dup4\n        /* \"#utility.yul\":6887:6901   */\n      add\n        /* \"#utility.yul\":6883:6911   */\n      and\n        /* \"#utility.yul\":6873:6911   */\n      swap1\n      pop\n        /* \"#utility.yul\":6815:6917   */\n      swap2\n      swap1\n      pop\n      jump\t// out\n        /* \"#utility.yul\":6923:7045   */\n    tag_136:\n        /* \"#utility.yul\":6996:7020   */\n      tag_234\n        /* \"#utility.yul\":7014:7019   */\n      dup2\n        /* \"#utility.yul\":6996:7020   */\n      tag_169\n      jump\t// in\n    tag_234:\n        /* \"#utility.yul\":6989:6994   */\n      dup2\n        /* \"#utility.yul\":6986:7021   */\n      eq\n        /* \"#utility.yul\":6976:7039   */\n      tag_235\n      jumpi\n        /* \"#utility.yul\":7035:7036   */\n      0x00\n        /* \"#utility.yul\":7032:7033   */\n      dup1\n        /* \"#utility.yul\":7025:7037   */\n      revert\n        /* \"#utility.yul\":6976:7039   */\n    tag_235:\n        /* \"#utility.yul\":6923:7045   */\n      pop\n      jump\t// out\n        /* \"#utility.yul\":7051:7173   */\n    tag_140:\n        /* \"#utility.yul\":7124:7148   */\n      tag_237\n        /* \"#utility.yul\":7142:7147   */\n      dup2\n        /* \"#utility.yul\":7124:7148   */\n      tag_187\n      jump\t// in\n    tag_237:\n        /* \"#utility.yul\":7117:7122   */\n      dup2\n        /* \"#utility.yul\":7114:7149   */\n      eq\n        /* \"#utility.yul\":7104:7167   */\n      tag_238\n      jumpi\n        /* \"#utility.yul\":7163:7164   */\n      0x00\n        /* \"#utility.yul\":7160:7161   */\n      dup1\n        /* \"#utility.yul\":7153:7165   */\n      revert\n        /* \"#utility.yul\":7104:7167   */\n    tag_238:\n        /* \"#utility.yul\":7051:7173   */\n      pop\n      jump\t// out\n\n    auxdata: 0xa264697066735822122008d79fd23056bfa53fd93585863273c96437a44a34ee64bb38dd0d6e1118a44264736f6c63430008070033\n}\n",
				"bytecode": {
					"linkReferences": {},
					"object": "60806040523480156200001157600080fd5b506040518060400160405280600b81526020017f73706f6e736f72436f696e000000000000000000000000000000000000000000815250600090805190602001906200005f9291906200024a565b506040518060400160405280600781526020017f53505f436f696e0000000000000000000000000000000000000000000000000081525060019080519060200190620000ad9291906200024a565b50601260028190555069d3c21bcecceda1000000600381905550620000db33600354620000e260201b60201c565b506200035f565b600081600460008573ffffffffffffffffffffffffffffffffffffffff1673ffffffffffffffffffffffffffffffffffffffff16815260200190815260200160002081905550600860008473ffffffffffffffffffffffffffffffffffffffff1673ffffffffffffffffffffffffffffffffffffffff16815260200190815260200160002060009054906101000a900460ff166200023f576001600860008573ffffffffffffffffffffffffffffffffffffffff1673ffffffffffffffffffffffffffffffffffffffff16815260200190815260200160002060006101000a81548160ff0219169083151502179055506006839080600181540180825580915050600190039060005260206000200160009091909190916101000a81548173ffffffffffffffffffffffffffffffffffffffff021916908373ffffffffffffffffffffffffffffffffffffffff1602179055506001905062000244565b600090505b92915050565b8280546200025890620002fa565b90600052602060002090601f0160209004810192826200027c5760008555620002c8565b82601f106200029757805160ff1916838001178555620002c8565b82800160010185558215620002c8579182015b82811115620002c7578251825591602001919060010190620002aa565b5b509050620002d79190620002db565b5090565b5b80821115620002f6576000816000905550600101620002dc565b5090565b600060028204905060018216806200031357607f821691505b602082108114156200032a576200032962000330565b5b50919050565b7f4e487b7100000000000000000000000000000000000000000000000000000000600052602260045260246000fd5b611105806200036f6000396000f3fe608060405234801561001057600080fd5b50600436106100f55760003560e01c8063313ce5671161009757806395d89b411161006657806395d89b41146102d4578063a9059cbb146102f2578063dd62ed3e14610322578063fd6aad2514610352576100f5565b8063313ce5671461022657806370a08231146102445780637cd380f11461027457806393423e9c146102a4576100f5565b806318160ddd116100d357806318160ddd146101785780631e2eb0881461019657806323b872dd146101c657806329b57c14146101f6576100f5565b8063017df522146100fa57806306fdde031461012a578063095ea7b314610148575b600080fd5b610114600480360381019061010f9190610cd4565b610382565b6040516101219190610e82565b60405180910390f35b6101326103e8565b60405161013f9190610e9d565b60405180910390f35b610162600480360381019061015d9190610d94565b610476565b60405161016f9190610e82565b60405180910390f35b6101806105a1565b60405161018d9190610ebf565b60405180910390f35b6101b060048036038101906101ab9190610dd4565b6105a7565b6040516101bd9190610e67565b60405180910390f35b6101e060048036038101906101db9190610d41565b6105e6565b6040516101ed9190610e82565b60405180910390f35b610210600480360381019061020b9190610cd4565b6107db565b60405161021d9190610e82565b60405180910390f35b61022e610841565b60405161023b9190610ebf565b60405180910390f35b61025e60048036038101906102599190610cd4565b610847565b60405161026b9190610ebf565b60405180910390f35b61028e60048036038101906102899190610cd4565b61085f565b60405161029b9190610e82565b60405180910390f35b6102be60048036038101906102b99190610cd4565b61087f565b6040516102cb9190610ebf565b60405180910390f35b6102dc6108c8565b6040516102e99190610e9d565b60405180910390f35b61030c60048036038101906103079190610d94565b610956565b6040516103199190610e82565b60405180910390f35b61033c60048036038101906103379190610d01565b6109b9565b6040516103499190610ebf565b60405180910390f35b61036c60048036038101906103679190610cd4565b6109de565b6040516103799190610ebf565b60405180910390f35b6000600860008373ffffffffffffffffffffffffffffffffffffffff1673ffffffffffffffffffffffffffffffffffffffff16815260200190815260200160002060009054906101000a900460ff166103de57600090506103e3565b600190505b919050565b600080546103f590610ffb565b80601f016020809104026020016040519081016040528092919081815260200182805461042190610ffb565b801561046e5780601f106104435761010080835404028352916020019161046e565b820191906000526020600020905b81548152906001019060200180831161045157829003601f168201915b505050505081565b60008073ffffffffffffffffffffffffffffffffffffffff168373ffffffffffffffffffffffffffffffffffffffff1614156104b157600080fd5b81600560003373ffffffffffffffffffffffffffffffffffffffff1673ffffffffffffffffffffffffffffffffffffffff16815260200190815260200160002060008573ffffffffffffffffffffffffffffffffffffffff1673ffffffffffffffffffffffffffffffffffffffff168152602001908152602001600020819055508273ffffffffffffffffffffffffffffffffffffffff163373ffffffffffffffffffffffffffffffffffffffff167f8c5be1e5ebec7d5bd14f71427d1e84f3dd0314c0f7b2291e5b200ac8c7c3b9258460405161058f9190610ebf565b60405180910390a36001905092915050565b60035481565b600681815481106105b757600080fd5b906000526020600020016000915054906101000a900473ffffffffffffffffffffffffffffffffffffffff1681565b6000600460008573ffffffffffffffffffffffffffffffffffffffff1673ffffffffffffffffffffffffffffffffffffffff1681526020019081526020016000205482111561063457600080fd5b600560008573ffffffffffffffffffffffffffffffffffffffff1673ffffffffffffffffffffffffffffffffffffffff16815260200190815260200160002060003373ffffffffffffffffffffffffffffffffffffffff1673ffffffffffffffffffffffffffffffffffffffff168152602001908152602001600020548211156106bd57600080fd5b81600560008673ffffffffffffffffffffffffffffffffffffffff1673ffffffffffffffffffffffffffffffffffffffff16815260200190815260200160002060003373ffffffffffffffffffffffffffffffffffffffff1673ffffffffffffffffffffffffffffffffffffffff168152602001908152602001600020546107459190610f4c565b600560008673ffffffffffffffffffffffffffffffffffffffff1673ffffffffffffffffffffffffffffffffffffffff16815260200190815260200160002060003373ffffffffffffffffffffffffffffffffffffffff1673ffffffffffffffffffffffffffffffffffffffff168152602001908152602001600020819055506107d08484846109f6565b600190509392505050565b6000600860008373ffffffffffffffffffffffffffffffffffffffff1673ffffffffffffffffffffffffffffffffffffffff16815260200190815260200160002060009054906101000a900460ff16610837576000905061083c565b600190505b919050565b60025481565b60046020528060005260406000206000915090505481565b60086020528060005260406000206000915054906101000a900460ff1681565b6000600460008373ffffffffffffffffffffffffffffffffffffffff1673ffffffffffffffffffffffffffffffffffffffff168152602001908152602001600020549050919050565b600180546108d590610ffb565b80601f016020809104026020016040519081016040528092919081815260200182805461090190610ffb565b801561094e5780601f106109235761010080835404028352916020019161094e565b820191906000526020600020905b81548152906001019060200180831161093157829003601f168201915b505050505081565b600081600460003373ffffffffffffffffffffffffffffffffffffffff1673ffffffffffffffffffffffffffffffffffffffff1681526020019081526020016000205410156109a457600080fd5b6109af3384846109f6565b6001905092915050565b6005602052816000526040600020602052806000526040600020600091509150505481565b60076020528060005260406000206000915090505481565b600073ffffffffffffffffffffffffffffffffffffffff168273ffffffffffffffffffffffffffffffffffffffff161415610a3057600080fd5b610a848382600460008773ffffffffffffffffffffffffffffffffffffffff1673ffffffffffffffffffffffffffffffffffffffff16815260200190815260200160002054610a7f9190610f4c565b610b44565b50610ad98282600460008673ffffffffffffffffffffffffffffffffffffffff1673ffffffffffffffffffffffffffffffffffffffff16815260200190815260200160002054610ad49190610ef6565b610b44565b508173ffffffffffffffffffffffffffffffffffffffff168373ffffffffffffffffffffffffffffffffffffffff167fddf252ad1be2c89b69c2b068fc378daa952ba7f163c4a11628f55a4df523b3ef83604051610b379190610ebf565b60405180910390a3505050565b600081600460008573ffffffffffffffffffffffffffffffffffffffff1673ffffffffffffffffffffffffffffffffffffffff16815260200190815260200160002081905550600860008473ffffffffffffffffffffffffffffffffffffffff1673ffffffffffffffffffffffffffffffffffffffff16815260200190815260200160002060009054906101000a900460ff16610c9f576001600860008573ffffffffffffffffffffffffffffffffffffffff1673ffffffffffffffffffffffffffffffffffffffff16815260200190815260200160002060006101000a81548160ff0219169083151502179055506006839080600181540180825580915050600190039060005260206000200160009091909190916101000a81548173ffffffffffffffffffffffffffffffffffffffff021916908373ffffffffffffffffffffffffffffffffffffffff16021790555060019050610ca4565b600090505b92915050565b600081359050610cb9816110a1565b92915050565b600081359050610cce816110b8565b92915050565b600060208284031215610cea57610ce961108b565b5b6000610cf884828501610caa565b91505092915050565b60008060408385031215610d1857610d1761108b565b5b6000610d2685828601610caa565b9250506020610d3785828601610caa565b9150509250929050565b600080600060608486031215610d5a57610d5961108b565b5b6000610d6886828701610caa565b9350506020610d7986828701610caa565b9250506040610d8a86828701610cbf565b9150509250925092565b60008060408385031215610dab57610daa61108b565b5b6000610db985828601610caa565b9250506020610dca85828601610cbf565b9150509250929050565b600060208284031215610dea57610de961108b565b5b6000610df884828501610cbf565b91505092915050565b610e0a81610f80565b82525050565b610e1981610f92565b82525050565b6000610e2a82610eda565b610e348185610ee5565b9350610e44818560208601610fc8565b610e4d81611090565b840191505092915050565b610e6181610fbe565b82525050565b6000602082019050610e7c6000830184610e01565b92915050565b6000602082019050610e976000830184610e10565b92915050565b60006020820190508181036000830152610eb78184610e1f565b905092915050565b6000602082019050610ed46000830184610e58565b92915050565b600081519050919050565b600082825260208201905092915050565b6000610f0182610fbe565b9150610f0c83610fbe565b9250827fffffffffffffffffffffffffffffffffffffffffffffffffffffffffffffffff03821115610f4157610f4061102d565b5b828201905092915050565b6000610f5782610fbe565b9150610f6283610fbe565b925082821015610f7557610f7461102d565b5b828203905092915050565b6000610f8b82610f9e565b9050919050565b60008115159050919050565b600073ffffffffffffffffffffffffffffffffffffffff82169050919050565b6000819050919050565b60005b83811015610fe6578082015181840152602081019050610fcb565b83811115610ff5576000848401525b50505050565b6000600282049050600182168061101357607f821691505b602082108114156110275761102661105c565b5b50919050565b7f4e487b7100000000000000000000000000000000000000000000000000000000600052601160045260246000fd5b7f4e487b7100000000000000000000000000000000000000000000000000000000600052602260045260246000fd5b600080fd5b6000601f19601f8301169050919050565b6110aa81610f80565b81146110b557600080fd5b50565b6110c181610fbe565b81146110cc57600080fd5b5056fea264697066735822122008d79fd23056bfa53fd93585863273c96437a44a34ee64bb38dd0d6e1118a44264736f6c63430008070033",
					"opcodes": "PUSH1 0x80 PUSH1 0x40 MSTORE CALLVALUE DUP1 ISZERO PUSH3 0x11 JUMPI PUSH1 0x0 DUP1 REVERT JUMPDEST POP PUSH1 0x40 MLOAD DUP1 PUSH1 0x40 ADD PUSH1 0x40 MSTORE DUP1 PUSH1 0xB DUP2 MSTORE PUSH1 0x20 ADD PUSH32 0x73706F6E736F72436F696E000000000000000000000000000000000000000000 DUP2 MSTORE POP PUSH1 0x0 SWAP1 DUP1 MLOAD SWAP1 PUSH1 0x20 ADD SWAP1 PUSH3 0x5F SWAP3 SWAP2 SWAP1 PUSH3 0x24A JUMP JUMPDEST POP PUSH1 0x40 MLOAD DUP1 PUSH1 0x40 ADD PUSH1 0x40 MSTORE DUP1 PUSH1 0x7 DUP2 MSTORE PUSH1 0x20 ADD PUSH32 0x53505F436F696E00000000000000000000000000000000000000000000000000 DUP2 MSTORE POP PUSH1 0x1 SWAP1 DUP1 MLOAD SWAP1 PUSH1 0x20 ADD SWAP1 PUSH3 0xAD SWAP3 SWAP2 SWAP1 PUSH3 0x24A JUMP JUMPDEST POP PUSH1 0x12 PUSH1 0x2 DUP2 SWAP1 SSTORE POP PUSH10 0xD3C21BCECCEDA1000000 PUSH1 0x3 DUP2 SWAP1 SSTORE POP PUSH3 0xDB CALLER PUSH1 0x3 SLOAD PUSH3 0xE2 PUSH1 0x20 SHL PUSH1 0x20 SHR JUMP JUMPDEST POP PUSH3 0x35F JUMP JUMPDEST PUSH1 0x0 DUP2 PUSH1 0x4 PUSH1 0x0 DUP6 PUSH20 0xFFFFFFFFFFFFFFFFFFFFFFFFFFFFFFFFFFFFFFFF AND PUSH20 0xFFFFFFFFFFFFFFFFFFFFFFFFFFFFFFFFFFFFFFFF AND DUP2 MSTORE PUSH1 0x20 ADD SWAP1 DUP2 MSTORE PUSH1 0x20 ADD PUSH1 0x0 KECCAK256 DUP2 SWAP1 SSTORE POP PUSH1 0x8 PUSH1 0x0 DUP5 PUSH20 0xFFFFFFFFFFFFFFFFFFFFFFFFFFFFFFFFFFFFFFFF AND PUSH20 0xFFFFFFFFFFFFFFFFFFFFFFFFFFFFFFFFFFFFFFFF AND DUP2 MSTORE PUSH1 0x20 ADD SWAP1 DUP2 MSTORE PUSH1 0x20 ADD PUSH1 0x0 KECCAK256 PUSH1 0x0 SWAP1 SLOAD SWAP1 PUSH2 0x100 EXP SWAP1 DIV PUSH1 0xFF AND PUSH3 0x23F JUMPI PUSH1 0x1 PUSH1 0x8 PUSH1 0x0 DUP6 PUSH20 0xFFFFFFFFFFFFFFFFFFFFFFFFFFFFFFFFFFFFFFFF AND PUSH20 0xFFFFFFFFFFFFFFFFFFFFFFFFFFFFFFFFFFFFFFFF AND DUP2 MSTORE PUSH1 0x20 ADD SWAP1 DUP2 MSTORE PUSH1 0x20 ADD PUSH1 0x0 KECCAK256 PUSH1 0x0 PUSH2 0x100 EXP DUP2 SLOAD DUP2 PUSH1 0xFF MUL NOT AND SWAP1 DUP4 ISZERO ISZERO MUL OR SWAP1 SSTORE POP PUSH1 0x6 DUP4 SWAP1 DUP1 PUSH1 0x1 DUP2 SLOAD ADD DUP1 DUP3 SSTORE DUP1 SWAP2 POP POP PUSH1 0x1 SWAP1 SUB SWAP1 PUSH1 0x0 MSTORE PUSH1 0x20 PUSH1 0x0 KECCAK256 ADD PUSH1 0x0 SWAP1 SWAP2 SWAP1 SWAP2 SWAP1 SWAP2 PUSH2 0x100 EXP DUP2 SLOAD DUP2 PUSH20 0xFFFFFFFFFFFFFFFFFFFFFFFFFFFFFFFFFFFFFFFF MUL NOT AND SWAP1 DUP4 PUSH20 0xFFFFFFFFFFFFFFFFFFFFFFFFFFFFFFFFFFFFFFFF AND MUL OR SWAP1 SSTORE POP PUSH1 0x1 SWAP1 POP PUSH3 0x244 JUMP JUMPDEST PUSH1 0x0 SWAP1 POP JUMPDEST SWAP3 SWAP2 POP POP JUMP JUMPDEST DUP3 DUP1 SLOAD PUSH3 0x258 SWAP1 PUSH3 0x2FA JUMP JUMPDEST SWAP1 PUSH1 0x0 MSTORE PUSH1 0x20 PUSH1 0x0 KECCAK256 SWAP1 PUSH1 0x1F ADD PUSH1 0x20 SWAP1 DIV DUP2 ADD SWAP3 DUP3 PUSH3 0x27C JUMPI PUSH1 0x0 DUP6 SSTORE PUSH3 0x2C8 JUMP JUMPDEST DUP3 PUSH1 0x1F LT PUSH3 0x297 JUMPI DUP1 MLOAD PUSH1 0xFF NOT AND DUP4 DUP1 ADD OR DUP6 SSTORE PUSH3 0x2C8 JUMP JUMPDEST DUP3 DUP1 ADD PUSH1 0x1 ADD DUP6 SSTORE DUP3 ISZERO PUSH3 0x2C8 JUMPI SWAP2 DUP3 ADD JUMPDEST DUP3 DUP2 GT ISZERO PUSH3 0x2C7 JUMPI DUP3 MLOAD DUP3 SSTORE SWAP2 PUSH1 0x20 ADD SWAP2 SWAP1 PUSH1 0x1 ADD SWAP1 PUSH3 0x2AA JUMP JUMPDEST JUMPDEST POP SWAP1 POP PUSH3 0x2D7 SWAP2 SWAP1 PUSH3 0x2DB JUMP JUMPDEST POP SWAP1 JUMP JUMPDEST JUMPDEST DUP1 DUP3 GT ISZERO PUSH3 0x2F6 JUMPI PUSH1 0x0 DUP2 PUSH1 0x0 SWAP1 SSTORE POP PUSH1 0x1 ADD PUSH3 0x2DC JUMP JUMPDEST POP SWAP1 JUMP JUMPDEST PUSH1 0x0 PUSH1 0x2 DUP3 DIV SWAP1 POP PUSH1 0x1 DUP3 AND DUP1 PUSH3 0x313 JUMPI PUSH1 0x7F DUP3 AND SWAP2 POP JUMPDEST PUSH1 0x20 DUP3 LT DUP2 EQ ISZERO PUSH3 0x32A JUMPI PUSH3 0x329 PUSH3 0x330 JUMP JUMPDEST JUMPDEST POP SWAP2 SWAP1 POP JUMP JUMPDEST PUSH32 0x4E487B7100000000000000000000000000000000000000000000000000000000 PUSH1 0x0 MSTORE PUSH1 0x22 PUSH1 0x4 MSTORE PUSH1 0x24 PUSH1 0x0 REVERT JUMPDEST PUSH2 0x1105 DUP1 PUSH3 0x36F PUSH1 0x0 CODECOPY PUSH1 0x0 RETURN INVALID PUSH1 0x80 PUSH1 0x40 MSTORE CALLVALUE DUP1 ISZERO PUSH2 0x10 JUMPI PUSH1 0x0 DUP1 REVERT JUMPDEST POP PUSH1 0x4 CALLDATASIZE LT PUSH2 0xF5 JUMPI PUSH1 0x0 CALLDATALOAD PUSH1 0xE0 SHR DUP1 PUSH4 0x313CE567 GT PUSH2 0x97 JUMPI DUP1 PUSH4 0x95D89B41 GT PUSH2 0x66 JUMPI DUP1 PUSH4 0x95D89B41 EQ PUSH2 0x2D4 JUMPI DUP1 PUSH4 0xA9059CBB EQ PUSH2 0x2F2 JUMPI DUP1 PUSH4 0xDD62ED3E EQ PUSH2 0x322 JUMPI DUP1 PUSH4 0xFD6AAD25 EQ PUSH2 0x352 JUMPI PUSH2 0xF5 JUMP JUMPDEST DUP1 PUSH4 0x313CE567 EQ PUSH2 0x226 JUMPI DUP1 PUSH4 0x70A08231 EQ PUSH2 0x244 JUMPI DUP1 PUSH4 0x7CD380F1 EQ PUSH2 0x274 JUMPI DUP1 PUSH4 0x93423E9C EQ PUSH2 0x2A4 JUMPI PUSH2 0xF5 JUMP JUMPDEST DUP1 PUSH4 0x18160DDD GT PUSH2 0xD3 JUMPI DUP1 PUSH4 0x18160DDD EQ PUSH2 0x178 JUMPI DUP1 PUSH4 0x1E2EB088 EQ PUSH2 0x196 JUMPI DUP1 PUSH4 0x23B872DD EQ PUSH2 0x1C6 JUMPI DUP1 PUSH4 0x29B57C14 EQ PUSH2 0x1F6 JUMPI PUSH2 0xF5 JUMP JUMPDEST DUP1 PUSH4 0x17DF522 EQ PUSH2 0xFA JUMPI DUP1 PUSH4 0x6FDDE03 EQ PUSH2 0x12A JUMPI DUP1 PUSH4 0x95EA7B3 EQ PUSH2 0x148 JUMPI JUMPDEST PUSH1 0x0 DUP1 REVERT JUMPDEST PUSH2 0x114 PUSH1 0x4 DUP1 CALLDATASIZE SUB DUP2 ADD SWAP1 PUSH2 0x10F SWAP2 SWAP1 PUSH2 0xCD4 JUMP JUMPDEST PUSH2 0x382 JUMP JUMPDEST PUSH1 0x40 MLOAD PUSH2 0x121 SWAP2 SWAP1 PUSH2 0xE82 JUMP JUMPDEST PUSH1 0x40 MLOAD DUP1 SWAP2 SUB SWAP1 RETURN JUMPDEST PUSH2 0x132 PUSH2 0x3E8 JUMP JUMPDEST PUSH1 0x40 MLOAD PUSH2 0x13F SWAP2 SWAP1 PUSH2 0xE9D JUMP JUMPDEST PUSH1 0x40 MLOAD DUP1 SWAP2 SUB SWAP1 RETURN JUMPDEST PUSH2 0x162 PUSH1 0x4 DUP1 CALLDATASIZE SUB DUP2 ADD SWAP1 PUSH2 0x15D SWAP2 SWAP1 PUSH2 0xD94 JUMP JUMPDEST PUSH2 0x476 JUMP JUMPDEST PUSH1 0x40 MLOAD PUSH2 0x16F SWAP2 SWAP1 PUSH2 0xE82 JUMP JUMPDEST PUSH1 0x40 MLOAD DUP1 SWAP2 SUB SWAP1 RETURN JUMPDEST PUSH2 0x180 PUSH2 0x5A1 JUMP JUMPDEST PUSH1 0x40 MLOAD PUSH2 0x18D SWAP2 SWAP1 PUSH2 0xEBF JUMP JUMPDEST PUSH1 0x40 MLOAD DUP1 SWAP2 SUB SWAP1 RETURN JUMPDEST PUSH2 0x1B0 PUSH1 0x4 DUP1 CALLDATASIZE SUB DUP2 ADD SWAP1 PUSH2 0x1AB SWAP2 SWAP1 PUSH2 0xDD4 JUMP JUMPDEST PUSH2 0x5A7 JUMP JUMPDEST PUSH1 0x40 MLOAD PUSH2 0x1BD SWAP2 SWAP1 PUSH2 0xE67 JUMP JUMPDEST PUSH1 0x40 MLOAD DUP1 SWAP2 SUB SWAP1 RETURN JUMPDEST PUSH2 0x1E0 PUSH1 0x4 DUP1 CALLDATASIZE SUB DUP2 ADD SWAP1 PUSH2 0x1DB SWAP2 SWAP1 PUSH2 0xD41 JUMP JUMPDEST PUSH2 0x5E6 JUMP JUMPDEST PUSH1 0x40 MLOAD PUSH2 0x1ED SWAP2 SWAP1 PUSH2 0xE82 JUMP JUMPDEST PUSH1 0x40 MLOAD DUP1 SWAP2 SUB SWAP1 RETURN JUMPDEST PUSH2 0x210 PUSH1 0x4 DUP1 CALLDATASIZE SUB DUP2 ADD SWAP1 PUSH2 0x20B SWAP2 SWAP1 PUSH2 0xCD4 JUMP JUMPDEST PUSH2 0x7DB JUMP JUMPDEST PUSH1 0x40 MLOAD PUSH2 0x21D SWAP2 SWAP1 PUSH2 0xE82 JUMP JUMPDEST PUSH1 0x40 MLOAD DUP1 SWAP2 SUB SWAP1 RETURN JUMPDEST PUSH2 0x22E PUSH2 0x841 JUMP JUMPDEST PUSH1 0x40 MLOAD PUSH2 0x23B SWAP2 SWAP1 PUSH2 0xEBF JUMP JUMPDEST PUSH1 0x40 MLOAD DUP1 SWAP2 SUB SWAP1 RETURN JUMPDEST PUSH2 0x25E PUSH1 0x4 DUP1 CALLDATASIZE SUB DUP2 ADD SWAP1 PUSH2 0x259 SWAP2 SWAP1 PUSH2 0xCD4 JUMP JUMPDEST PUSH2 0x847 JUMP JUMPDEST PUSH1 0x40 MLOAD PUSH2 0x26B SWAP2 SWAP1 PUSH2 0xEBF JUMP JUMPDEST PUSH1 0x40 MLOAD DUP1 SWAP2 SUB SWAP1 RETURN JUMPDEST PUSH2 0x28E PUSH1 0x4 DUP1 CALLDATASIZE SUB DUP2 ADD SWAP1 PUSH2 0x289 SWAP2 SWAP1 PUSH2 0xCD4 JUMP JUMPDEST PUSH2 0x85F JUMP JUMPDEST PUSH1 0x40 MLOAD PUSH2 0x29B SWAP2 SWAP1 PUSH2 0xE82 JUMP JUMPDEST PUSH1 0x40 MLOAD DUP1 SWAP2 SUB SWAP1 RETURN JUMPDEST PUSH2 0x2BE PUSH1 0x4 DUP1 CALLDATASIZE SUB DUP2 ADD SWAP1 PUSH2 0x2B9 SWAP2 SWAP1 PUSH2 0xCD4 JUMP JUMPDEST PUSH2 0x87F JUMP JUMPDEST PUSH1 0x40 MLOAD PUSH2 0x2CB SWAP2 SWAP1 PUSH2 0xEBF JUMP JUMPDEST PUSH1 0x40 MLOAD DUP1 SWAP2 SUB SWAP1 RETURN JUMPDEST PUSH2 0x2DC PUSH2 0x8C8 JUMP JUMPDEST PUSH1 0x40 MLOAD PUSH2 0x2E9 SWAP2 SWAP1 PUSH2 0xE9D JUMP JUMPDEST PUSH1 0x40 MLOAD DUP1 SWAP2 SUB SWAP1 RETURN JUMPDEST PUSH2 0x30C PUSH1 0x4 DUP1 CALLDATASIZE SUB DUP2 ADD SWAP1 PUSH2 0x307 SWAP2 SWAP1 PUSH2 0xD94 JUMP JUMPDEST PUSH2 0x956 JUMP JUMPDEST PUSH1 0x40 MLOAD PUSH2 0x319 SWAP2 SWAP1 PUSH2 0xE82 JUMP JUMPDEST PUSH1 0x40 MLOAD DUP1 SWAP2 SUB SWAP1 RETURN JUMPDEST PUSH2 0x33C PUSH1 0x4 DUP1 CALLDATASIZE SUB DUP2 ADD SWAP1 PUSH2 0x337 SWAP2 SWAP1 PUSH2 0xD01 JUMP JUMPDEST PUSH2 0x9B9 JUMP JUMPDEST PUSH1 0x40 MLOAD PUSH2 0x349 SWAP2 SWAP1 PUSH2 0xEBF JUMP JUMPDEST PUSH1 0x40 MLOAD DUP1 SWAP2 SUB SWAP1 RETURN JUMPDEST PUSH2 0x36C PUSH1 0x4 DUP1 CALLDATASIZE SUB DUP2 ADD SWAP1 PUSH2 0x367 SWAP2 SWAP1 PUSH2 0xCD4 JUMP JUMPDEST PUSH2 0x9DE JUMP JUMPDEST PUSH1 0x40 MLOAD PUSH2 0x379 SWAP2 SWAP1 PUSH2 0xEBF JUMP JUMPDEST PUSH1 0x40 MLOAD DUP1 SWAP2 SUB SWAP1 RETURN JUMPDEST PUSH1 0x0 PUSH1 0x8 PUSH1 0x0 DUP4 PUSH20 0xFFFFFFFFFFFFFFFFFFFFFFFFFFFFFFFFFFFFFFFF AND PUSH20 0xFFFFFFFFFFFFFFFFFFFFFFFFFFFFFFFFFFFFFFFF AND DUP2 MSTORE PUSH1 0x20 ADD SWAP1 DUP2 MSTORE PUSH1 0x20 ADD PUSH1 0x0 KECCAK256 PUSH1 0x0 SWAP1 SLOAD SWAP1 PUSH2 0x100 EXP SWAP1 DIV PUSH1 0xFF AND PUSH2 0x3DE JUMPI PUSH1 0x0 SWAP1 POP PUSH2 0x3E3 JUMP JUMPDEST PUSH1 0x1 SWAP1 POP JUMPDEST SWAP2 SWAP1 POP JUMP JUMPDEST PUSH1 0x0 DUP1 SLOAD PUSH2 0x3F5 SWAP1 PUSH2 0xFFB JUMP JUMPDEST DUP1 PUSH1 0x1F ADD PUSH1 0x20 DUP1 SWAP2 DIV MUL PUSH1 0x20 ADD PUSH1 0x40 MLOAD SWAP1 DUP2 ADD PUSH1 0x40 MSTORE DUP1 SWAP3 SWAP2 SWAP1 DUP2 DUP2 MSTORE PUSH1 0x20 ADD DUP3 DUP1 SLOAD PUSH2 0x421 SWAP1 PUSH2 0xFFB JUMP JUMPDEST DUP1 ISZERO PUSH2 0x46E JUMPI DUP1 PUSH1 0x1F LT PUSH2 0x443 JUMPI PUSH2 0x100 DUP1 DUP4 SLOAD DIV MUL DUP4 MSTORE SWAP2 PUSH1 0x20 ADD SWAP2 PUSH2 0x46E JUMP JUMPDEST DUP3 ADD SWAP2 SWAP1 PUSH1 0x0 MSTORE PUSH1 0x20 PUSH1 0x0 KECCAK256 SWAP1 JUMPDEST DUP2 SLOAD DUP2 MSTORE SWAP1 PUSH1 0x1 ADD SWAP1 PUSH1 0x20 ADD DUP1 DUP4 GT PUSH2 0x451 JUMPI DUP3 SWAP1 SUB PUSH1 0x1F AND DUP3 ADD SWAP2 JUMPDEST POP POP POP POP POP DUP2 JUMP JUMPDEST PUSH1 0x0 DUP1 PUSH20 0xFFFFFFFFFFFFFFFFFFFFFFFFFFFFFFFFFFFFFFFF AND DUP4 PUSH20 0xFFFFFFFFFFFFFFFFFFFFFFFFFFFFFFFFFFFFFFFF AND EQ ISZERO PUSH2 0x4B1 JUMPI PUSH1 0x0 DUP1 REVERT JUMPDEST DUP2 PUSH1 0x5 PUSH1 0x0 CALLER PUSH20 0xFFFFFFFFFFFFFFFFFFFFFFFFFFFFFFFFFFFFFFFF AND PUSH20 0xFFFFFFFFFFFFFFFFFFFFFFFFFFFFFFFFFFFFFFFF AND DUP2 MSTORE PUSH1 0x20 ADD SWAP1 DUP2 MSTORE PUSH1 0x20 ADD PUSH1 0x0 KECCAK256 PUSH1 0x0 DUP6 PUSH20 0xFFFFFFFFFFFFFFFFFFFFFFFFFFFFFFFFFFFFFFFF AND PUSH20 0xFFFFFFFFFFFFFFFFFFFFFFFFFFFFFFFFFFFFFFFF AND DUP2 MSTORE PUSH1 0x20 ADD SWAP1 DUP2 MSTORE PUSH1 0x20 ADD PUSH1 0x0 KECCAK256 DUP2 SWAP1 SSTORE POP DUP3 PUSH20 0xFFFFFFFFFFFFFFFFFFFFFFFFFFFFFFFFFFFFFFFF AND CALLER PUSH20 0xFFFFFFFFFFFFFFFFFFFFFFFFFFFFFFFFFFFFFFFF AND PUSH32 0x8C5BE1E5EBEC7D5BD14F71427D1E84F3DD0314C0F7B2291E5B200AC8C7C3B925 DUP5 PUSH1 0x40 MLOAD PUSH2 0x58F SWAP2 SWAP1 PUSH2 0xEBF JUMP JUMPDEST PUSH1 0x40 MLOAD DUP1 SWAP2 SUB SWAP1 LOG3 PUSH1 0x1 SWAP1 POP SWAP3 SWAP2 POP POP JUMP JUMPDEST PUSH1 0x3 SLOAD DUP2 JUMP JUMPDEST PUSH1 0x6 DUP2 DUP2 SLOAD DUP2 LT PUSH2 0x5B7 JUMPI PUSH1 0x0 DUP1 REVERT JUMPDEST SWAP1 PUSH1 0x0 MSTORE PUSH1 0x20 PUSH1 0x0 KECCAK256 ADD PUSH1 0x0 SWAP2 POP SLOAD SWAP1 PUSH2 0x100 EXP SWAP1 DIV PUSH20 0xFFFFFFFFFFFFFFFFFFFFFFFFFFFFFFFFFFFFFFFF AND DUP2 JUMP JUMPDEST PUSH1 0x0 PUSH1 0x4 PUSH1 0x0 DUP6 PUSH20 0xFFFFFFFFFFFFFFFFFFFFFFFFFFFFFFFFFFFFFFFF AND PUSH20 0xFFFFFFFFFFFFFFFFFFFFFFFFFFFFFFFFFFFFFFFF AND DUP2 MSTORE PUSH1 0x20 ADD SWAP1 DUP2 MSTORE PUSH1 0x20 ADD PUSH1 0x0 KECCAK256 SLOAD DUP3 GT ISZERO PUSH2 0x634 JUMPI PUSH1 0x0 DUP1 REVERT JUMPDEST PUSH1 0x5 PUSH1 0x0 DUP6 PUSH20 0xFFFFFFFFFFFFFFFFFFFFFFFFFFFFFFFFFFFFFFFF AND PUSH20 0xFFFFFFFFFFFFFFFFFFFFFFFFFFFFFFFFFFFFFFFF AND DUP2 MSTORE PUSH1 0x20 ADD SWAP1 DUP2 MSTORE PUSH1 0x20 ADD PUSH1 0x0 KECCAK256 PUSH1 0x0 CALLER PUSH20 0xFFFFFFFFFFFFFFFFFFFFFFFFFFFFFFFFFFFFFFFF AND PUSH20 0xFFFFFFFFFFFFFFFFFFFFFFFFFFFFFFFFFFFFFFFF AND DUP2 MSTORE PUSH1 0x20 ADD SWAP1 DUP2 MSTORE PUSH1 0x20 ADD PUSH1 0x0 KECCAK256 SLOAD DUP3 GT ISZERO PUSH2 0x6BD JUMPI PUSH1 0x0 DUP1 REVERT JUMPDEST DUP2 PUSH1 0x5 PUSH1 0x0 DUP7 PUSH20 0xFFFFFFFFFFFFFFFFFFFFFFFFFFFFFFFFFFFFFFFF AND PUSH20 0xFFFFFFFFFFFFFFFFFFFFFFFFFFFFFFFFFFFFFFFF AND DUP2 MSTORE PUSH1 0x20 ADD SWAP1 DUP2 MSTORE PUSH1 0x20 ADD PUSH1 0x0 KECCAK256 PUSH1 0x0 CALLER PUSH20 0xFFFFFFFFFFFFFFFFFFFFFFFFFFFFFFFFFFFFFFFF AND PUSH20 0xFFFFFFFFFFFFFFFFFFFFFFFFFFFFFFFFFFFFFFFF AND DUP2 MSTORE PUSH1 0x20 ADD SWAP1 DUP2 MSTORE PUSH1 0x20 ADD PUSH1 0x0 KECCAK256 SLOAD PUSH2 0x745 SWAP2 SWAP1 PUSH2 0xF4C JUMP JUMPDEST PUSH1 0x5 PUSH1 0x0 DUP7 PUSH20 0xFFFFFFFFFFFFFFFFFFFFFFFFFFFFFFFFFFFFFFFF AND PUSH20 0xFFFFFFFFFFFFFFFFFFFFFFFFFFFFFFFFFFFFFFFF AND DUP2 MSTORE PUSH1 0x20 ADD SWAP1 DUP2 MSTORE PUSH1 0x20 ADD PUSH1 0x0 KECCAK256 PUSH1 0x0 CALLER PUSH20 0xFFFFFFFFFFFFFFFFFFFFFFFFFFFFFFFFFFFFFFFF AND PUSH20 0xFFFFFFFFFFFFFFFFFFFFFFFFFFFFFFFFFFFFFFFF AND DUP2 MSTORE PUSH1 0x20 ADD SWAP1 DUP2 MSTORE PUSH1 0x20 ADD PUSH1 0x0 KECCAK256 DUP2 SWAP1 SSTORE POP PUSH2 0x7D0 DUP5 DUP5 DUP5 PUSH2 0x9F6 JUMP JUMPDEST PUSH1 0x1 SWAP1 POP SWAP4 SWAP3 POP POP POP JUMP JUMPDEST PUSH1 0x0 PUSH1 0x8 PUSH1 0x0 DUP4 PUSH20 0xFFFFFFFFFFFFFFFFFFFFFFFFFFFFFFFFFFFFFFFF AND PUSH20 0xFFFFFFFFFFFFFFFFFFFFFFFFFFFFFFFFFFFFFFFF AND DUP2 MSTORE PUSH1 0x20 ADD SWAP1 DUP2 MSTORE PUSH1 0x20 ADD PUSH1 0x0 KECCAK256 PUSH1 0x0 SWAP1 SLOAD SWAP1 PUSH2 0x100 EXP SWAP1 DIV PUSH1 0xFF AND PUSH2 0x837 JUMPI PUSH1 0x0 SWAP1 POP PUSH2 0x83C JUMP JUMPDEST PUSH1 0x1 SWAP1 POP JUMPDEST SWAP2 SWAP1 POP JUMP JUMPDEST PUSH1 0x2 SLOAD DUP2 JUMP JUMPDEST PUSH1 0x4 PUSH1 0x20 MSTORE DUP1 PUSH1 0x0 MSTORE PUSH1 0x40 PUSH1 0x0 KECCAK256 PUSH1 0x0 SWAP2 POP SWAP1 POP SLOAD DUP2 JUMP JUMPDEST PUSH1 0x8 PUSH1 0x20 MSTORE DUP1 PUSH1 0x0 MSTORE PUSH1 0x40 PUSH1 0x0 KECCAK256 PUSH1 0x0 SWAP2 POP SLOAD SWAP1 PUSH2 0x100 EXP SWAP1 DIV PUSH1 0xFF AND DUP2 JUMP JUMPDEST PUSH1 0x0 PUSH1 0x4 PUSH1 0x0 DUP4 PUSH20 0xFFFFFFFFFFFFFFFFFFFFFFFFFFFFFFFFFFFFFFFF AND PUSH20 0xFFFFFFFFFFFFFFFFFFFFFFFFFFFFFFFFFFFFFFFF AND DUP2 MSTORE PUSH1 0x20 ADD SWAP1 DUP2 MSTORE PUSH1 0x20 ADD PUSH1 0x0 KECCAK256 SLOAD SWAP1 POP SWAP2 SWAP1 POP JUMP JUMPDEST PUSH1 0x1 DUP1 SLOAD PUSH2 0x8D5 SWAP1 PUSH2 0xFFB JUMP JUMPDEST DUP1 PUSH1 0x1F ADD PUSH1 0x20 DUP1 SWAP2 DIV MUL PUSH1 0x20 ADD PUSH1 0x40 MLOAD SWAP1 DUP2 ADD PUSH1 0x40 MSTORE DUP1 SWAP3 SWAP2 SWAP1 DUP2 DUP2 MSTORE PUSH1 0x20 ADD DUP3 DUP1 SLOAD PUSH2 0x901 SWAP1 PUSH2 0xFFB JUMP JUMPDEST DUP1 ISZERO PUSH2 0x94E JUMPI DUP1 PUSH1 0x1F LT PUSH2 0x923 JUMPI PUSH2 0x100 DUP1 DUP4 SLOAD DIV MUL DUP4 MSTORE SWAP2 PUSH1 0x20 ADD SWAP2 PUSH2 0x94E JUMP JUMPDEST DUP3 ADD SWAP2 SWAP1 PUSH1 0x0 MSTORE PUSH1 0x20 PUSH1 0x0 KECCAK256 SWAP1 JUMPDEST DUP2 SLOAD DUP2 MSTORE SWAP1 PUSH1 0x1 ADD SWAP1 PUSH1 0x20 ADD DUP1 DUP4 GT PUSH2 0x931 JUMPI DUP3 SWAP1 SUB PUSH1 0x1F AND DUP3 ADD SWAP2 JUMPDEST POP POP POP POP POP DUP2 JUMP JUMPDEST PUSH1 0x0 DUP2 PUSH1 0x4 PUSH1 0x0 CALLER PUSH20 0xFFFFFFFFFFFFFFFFFFFFFFFFFFFFFFFFFFFFFFFF AND PUSH20 0xFFFFFFFFFFFFFFFFFFFFFFFFFFFFFFFFFFFFFFFF AND DUP2 MSTORE PUSH1 0x20 ADD SWAP1 DUP2 MSTORE PUSH1 0x20 ADD PUSH1 0x0 KECCAK256 SLOAD LT ISZERO PUSH2 0x9A4 JUMPI PUSH1 0x0 DUP1 REVERT JUMPDEST PUSH2 0x9AF CALLER DUP5 DUP5 PUSH2 0x9F6 JUMP JUMPDEST PUSH1 0x1 SWAP1 POP SWAP3 SWAP2 POP POP JUMP JUMPDEST PUSH1 0x5 PUSH1 0x20 MSTORE DUP2 PUSH1 0x0 MSTORE PUSH1 0x40 PUSH1 0x0 KECCAK256 PUSH1 0x20 MSTORE DUP1 PUSH1 0x0 MSTORE PUSH1 0x40 PUSH1 0x0 KECCAK256 PUSH1 0x0 SWAP2 POP SWAP2 POP POP SLOAD DUP2 JUMP JUMPDEST PUSH1 0x7 PUSH1 0x20 MSTORE DUP1 PUSH1 0x0 MSTORE PUSH1 0x40 PUSH1 0x0 KECCAK256 PUSH1 0x0 SWAP2 POP SWAP1 POP SLOAD DUP2 JUMP JUMPDEST PUSH1 0x0 PUSH20 0xFFFFFFFFFFFFFFFFFFFFFFFFFFFFFFFFFFFFFFFF AND DUP3 PUSH20 0xFFFFFFFFFFFFFFFFFFFFFFFFFFFFFFFFFFFFFFFF AND EQ ISZERO PUSH2 0xA30 JUMPI PUSH1 0x0 DUP1 REVERT JUMPDEST PUSH2 0xA84 DUP4 DUP3 PUSH1 0x4 PUSH1 0x0 DUP8 PUSH20 0xFFFFFFFFFFFFFFFFFFFFFFFFFFFFFFFFFFFFFFFF AND PUSH20 0xFFFFFFFFFFFFFFFFFFFFFFFFFFFFFFFFFFFFFFFF AND DUP2 MSTORE PUSH1 0x20 ADD SWAP1 DUP2 MSTORE PUSH1 0x20 ADD PUSH1 0x0 KECCAK256 SLOAD PUSH2 0xA7F SWAP2 SWAP1 PUSH2 0xF4C JUMP JUMPDEST PUSH2 0xB44 JUMP JUMPDEST POP PUSH2 0xAD9 DUP3 DUP3 PUSH1 0x4 PUSH1 0x0 DUP7 PUSH20 0xFFFFFFFFFFFFFFFFFFFFFFFFFFFFFFFFFFFFFFFF AND PUSH20 0xFFFFFFFFFFFFFFFFFFFFFFFFFFFFFFFFFFFFFFFF AND DUP2 MSTORE PUSH1 0x20 ADD SWAP1 DUP2 MSTORE PUSH1 0x20 ADD PUSH1 0x0 KECCAK256 SLOAD PUSH2 0xAD4 SWAP2 SWAP1 PUSH2 0xEF6 JUMP JUMPDEST PUSH2 0xB44 JUMP JUMPDEST POP DUP2 PUSH20 0xFFFFFFFFFFFFFFFFFFFFFFFFFFFFFFFFFFFFFFFF AND DUP4 PUSH20 0xFFFFFFFFFFFFFFFFFFFFFFFFFFFFFFFFFFFFFFFF AND PUSH32 0xDDF252AD1BE2C89B69C2B068FC378DAA952BA7F163C4A11628F55A4DF523B3EF DUP4 PUSH1 0x40 MLOAD PUSH2 0xB37 SWAP2 SWAP1 PUSH2 0xEBF JUMP JUMPDEST PUSH1 0x40 MLOAD DUP1 SWAP2 SUB SWAP1 LOG3 POP POP POP JUMP JUMPDEST PUSH1 0x0 DUP2 PUSH1 0x4 PUSH1 0x0 DUP6 PUSH20 0xFFFFFFFFFFFFFFFFFFFFFFFFFFFFFFFFFFFFFFFF AND PUSH20 0xFFFFFFFFFFFFFFFFFFFFFFFFFFFFFFFFFFFFFFFF AND DUP2 MSTORE PUSH1 0x20 ADD SWAP1 DUP2 MSTORE PUSH1 0x20 ADD PUSH1 0x0 KECCAK256 DUP2 SWAP1 SSTORE POP PUSH1 0x8 PUSH1 0x0 DUP5 PUSH20 0xFFFFFFFFFFFFFFFFFFFFFFFFFFFFFFFFFFFFFFFF AND PUSH20 0xFFFFFFFFFFFFFFFFFFFFFFFFFFFFFFFFFFFFFFFF AND DUP2 MSTORE PUSH1 0x20 ADD SWAP1 DUP2 MSTORE PUSH1 0x20 ADD PUSH1 0x0 KECCAK256 PUSH1 0x0 SWAP1 SLOAD SWAP1 PUSH2 0x100 EXP SWAP1 DIV PUSH1 0xFF AND PUSH2 0xC9F JUMPI PUSH1 0x1 PUSH1 0x8 PUSH1 0x0 DUP6 PUSH20 0xFFFFFFFFFFFFFFFFFFFFFFFFFFFFFFFFFFFFFFFF AND PUSH20 0xFFFFFFFFFFFFFFFFFFFFFFFFFFFFFFFFFFFFFFFF AND DUP2 MSTORE PUSH1 0x20 ADD SWAP1 DUP2 MSTORE PUSH1 0x20 ADD PUSH1 0x0 KECCAK256 PUSH1 0x0 PUSH2 0x100 EXP DUP2 SLOAD DUP2 PUSH1 0xFF MUL NOT AND SWAP1 DUP4 ISZERO ISZERO MUL OR SWAP1 SSTORE POP PUSH1 0x6 DUP4 SWAP1 DUP1 PUSH1 0x1 DUP2 SLOAD ADD DUP1 DUP3 SSTORE DUP1 SWAP2 POP POP PUSH1 0x1 SWAP1 SUB SWAP1 PUSH1 0x0 MSTORE PUSH1 0x20 PUSH1 0x0 KECCAK256 ADD PUSH1 0x0 SWAP1 SWAP2 SWAP1 SWAP2 SWAP1 SWAP2 PUSH2 0x100 EXP DUP2 SLOAD DUP2 PUSH20 0xFFFFFFFFFFFFFFFFFFFFFFFFFFFFFFFFFFFFFFFF MUL NOT AND SWAP1 DUP4 PUSH20 0xFFFFFFFFFFFFFFFFFFFFFFFFFFFFFFFFFFFFFFFF AND MUL OR SWAP1 SSTORE POP PUSH1 0x1 SWAP1 POP PUSH2 0xCA4 JUMP JUMPDEST PUSH1 0x0 SWAP1 POP JUMPDEST SWAP3 SWAP2 POP POP JUMP JUMPDEST PUSH1 0x0 DUP2 CALLDATALOAD SWAP1 POP PUSH2 0xCB9 DUP2 PUSH2 0x10A1 JUMP JUMPDEST SWAP3 SWAP2 POP POP JUMP JUMPDEST PUSH1 0x0 DUP2 CALLDATALOAD SWAP1 POP PUSH2 0xCCE DUP2 PUSH2 0x10B8 JUMP JUMPDEST SWAP3 SWAP2 POP POP JUMP JUMPDEST PUSH1 0x0 PUSH1 0x20 DUP3 DUP5 SUB SLT ISZERO PUSH2 0xCEA JUMPI PUSH2 0xCE9 PUSH2 0x108B JUMP JUMPDEST JUMPDEST PUSH1 0x0 PUSH2 0xCF8 DUP5 DUP3 DUP6 ADD PUSH2 0xCAA JUMP JUMPDEST SWAP2 POP POP SWAP3 SWAP2 POP POP JUMP JUMPDEST PUSH1 0x0 DUP1 PUSH1 0x40 DUP4 DUP6 SUB SLT ISZERO PUSH2 0xD18 JUMPI PUSH2 0xD17 PUSH2 0x108B JUMP JUMPDEST JUMPDEST PUSH1 0x0 PUSH2 0xD26 DUP6 DUP3 DUP7 ADD PUSH2 0xCAA JUMP JUMPDEST SWAP3 POP POP PUSH1 0x20 PUSH2 0xD37 DUP6 DUP3 DUP7 ADD PUSH2 0xCAA JUMP JUMPDEST SWAP2 POP POP SWAP3 POP SWAP3 SWAP1 POP JUMP JUMPDEST PUSH1 0x0 DUP1 PUSH1 0x0 PUSH1 0x60 DUP5 DUP7 SUB SLT ISZERO PUSH2 0xD5A JUMPI PUSH2 0xD59 PUSH2 0x108B JUMP JUMPDEST JUMPDEST PUSH1 0x0 PUSH2 0xD68 DUP7 DUP3 DUP8 ADD PUSH2 0xCAA JUMP JUMPDEST SWAP4 POP POP PUSH1 0x20 PUSH2 0xD79 DUP7 DUP3 DUP8 ADD PUSH2 0xCAA JUMP JUMPDEST SWAP3 POP POP PUSH1 0x40 PUSH2 0xD8A DUP7 DUP3 DUP8 ADD PUSH2 0xCBF JUMP JUMPDEST SWAP2 POP POP SWAP3 POP SWAP3 POP SWAP3 JUMP JUMPDEST PUSH1 0x0 DUP1 PUSH1 0x40 DUP4 DUP6 SUB SLT ISZERO PUSH2 0xDAB JUMPI PUSH2 0xDAA PUSH2 0x108B JUMP JUMPDEST JUMPDEST PUSH1 0x0 PUSH2 0xDB9 DUP6 DUP3 DUP7 ADD PUSH2 0xCAA JUMP JUMPDEST SWAP3 POP POP PUSH1 0x20 PUSH2 0xDCA DUP6 DUP3 DUP7 ADD PUSH2 0xCBF JUMP JUMPDEST SWAP2 POP POP SWAP3 POP SWAP3 SWAP1 POP JUMP JUMPDEST PUSH1 0x0 PUSH1 0x20 DUP3 DUP5 SUB SLT ISZERO PUSH2 0xDEA JUMPI PUSH2 0xDE9 PUSH2 0x108B JUMP JUMPDEST JUMPDEST PUSH1 0x0 PUSH2 0xDF8 DUP5 DUP3 DUP6 ADD PUSH2 0xCBF JUMP JUMPDEST SWAP2 POP POP SWAP3 SWAP2 POP POP JUMP JUMPDEST PUSH2 0xE0A DUP2 PUSH2 0xF80 JUMP JUMPDEST DUP3 MSTORE POP POP JUMP JUMPDEST PUSH2 0xE19 DUP2 PUSH2 0xF92 JUMP JUMPDEST DUP3 MSTORE POP POP JUMP JUMPDEST PUSH1 0x0 PUSH2 0xE2A DUP3 PUSH2 0xEDA JUMP JUMPDEST PUSH2 0xE34 DUP2 DUP6 PUSH2 0xEE5 JUMP JUMPDEST SWAP4 POP PUSH2 0xE44 DUP2 DUP6 PUSH1 0x20 DUP7 ADD PUSH2 0xFC8 JUMP JUMPDEST PUSH2 0xE4D DUP2 PUSH2 0x1090 JUMP JUMPDEST DUP5 ADD SWAP2 POP POP SWAP3 SWAP2 POP POP JUMP JUMPDEST PUSH2 0xE61 DUP2 PUSH2 0xFBE JUMP JUMPDEST DUP3 MSTORE POP POP JUMP JUMPDEST PUSH1 0x0 PUSH1 0x20 DUP3 ADD SWAP1 POP PUSH2 0xE7C PUSH1 0x0 DUP4 ADD DUP5 PUSH2 0xE01 JUMP JUMPDEST SWAP3 SWAP2 POP POP JUMP JUMPDEST PUSH1 0x0 PUSH1 0x20 DUP3 ADD SWAP1 POP PUSH2 0xE97 PUSH1 0x0 DUP4 ADD DUP5 PUSH2 0xE10 JUMP JUMPDEST SWAP3 SWAP2 POP POP JUMP JUMPDEST PUSH1 0x0 PUSH1 0x20 DUP3 ADD SWAP1 POP DUP2 DUP2 SUB PUSH1 0x0 DUP4 ADD MSTORE PUSH2 0xEB7 DUP2 DUP5 PUSH2 0xE1F JUMP JUMPDEST SWAP1 POP SWAP3 SWAP2 POP POP JUMP JUMPDEST PUSH1 0x0 PUSH1 0x20 DUP3 ADD SWAP1 POP PUSH2 0xED4 PUSH1 0x0 DUP4 ADD DUP5 PUSH2 0xE58 JUMP JUMPDEST SWAP3 SWAP2 POP POP JUMP JUMPDEST PUSH1 0x0 DUP2 MLOAD SWAP1 POP SWAP2 SWAP1 POP JUMP JUMPDEST PUSH1 0x0 DUP3 DUP3 MSTORE PUSH1 0x20 DUP3 ADD SWAP1 POP SWAP3 SWAP2 POP POP JUMP JUMPDEST PUSH1 0x0 PUSH2 0xF01 DUP3 PUSH2 0xFBE JUMP JUMPDEST SWAP2 POP PUSH2 0xF0C DUP4 PUSH2 0xFBE JUMP JUMPDEST SWAP3 POP DUP3 PUSH32 0xFFFFFFFFFFFFFFFFFFFFFFFFFFFFFFFFFFFFFFFFFFFFFFFFFFFFFFFFFFFFFFFF SUB DUP3 GT ISZERO PUSH2 0xF41 JUMPI PUSH2 0xF40 PUSH2 0x102D JUMP JUMPDEST JUMPDEST DUP3 DUP3 ADD SWAP1 POP SWAP3 SWAP2 POP POP JUMP JUMPDEST PUSH1 0x0 PUSH2 0xF57 DUP3 PUSH2 0xFBE JUMP JUMPDEST SWAP2 POP PUSH2 0xF62 DUP4 PUSH2 0xFBE JUMP JUMPDEST SWAP3 POP DUP3 DUP3 LT ISZERO PUSH2 0xF75 JUMPI PUSH2 0xF74 PUSH2 0x102D JUMP JUMPDEST JUMPDEST DUP3 DUP3 SUB SWAP1 POP SWAP3 SWAP2 POP POP JUMP JUMPDEST PUSH1 0x0 PUSH2 0xF8B DUP3 PUSH2 0xF9E JUMP JUMPDEST SWAP1 POP SWAP2 SWAP1 POP JUMP JUMPDEST PUSH1 0x0 DUP2 ISZERO ISZERO SWAP1 POP SWAP2 SWAP1 POP JUMP JUMPDEST PUSH1 0x0 PUSH20 0xFFFFFFFFFFFFFFFFFFFFFFFFFFFFFFFFFFFFFFFF DUP3 AND SWAP1 POP SWAP2 SWAP1 POP JUMP JUMPDEST PUSH1 0x0 DUP2 SWAP1 POP SWAP2 SWAP1 POP JUMP JUMPDEST PUSH1 0x0 JUMPDEST DUP4 DUP2 LT ISZERO PUSH2 0xFE6 JUMPI DUP1 DUP3 ADD MLOAD DUP2 DUP5 ADD MSTORE PUSH1 0x20 DUP2 ADD SWAP1 POP PUSH2 0xFCB JUMP JUMPDEST DUP4 DUP2 GT ISZERO PUSH2 0xFF5 JUMPI PUSH1 0x0 DUP5 DUP5 ADD MSTORE JUMPDEST POP POP POP POP JUMP JUMPDEST PUSH1 0x0 PUSH1 0x2 DUP3 DIV SWAP1 POP PUSH1 0x1 DUP3 AND DUP1 PUSH2 0x1013 JUMPI PUSH1 0x7F DUP3 AND SWAP2 POP JUMPDEST PUSH1 0x20 DUP3 LT DUP2 EQ ISZERO PUSH2 0x1027 JUMPI PUSH2 0x1026 PUSH2 0x105C JUMP JUMPDEST JUMPDEST POP SWAP2 SWAP1 POP JUMP JUMPDEST PUSH32 0x4E487B7100000000000000000000000000000000000000000000000000000000 PUSH1 0x0 MSTORE PUSH1 0x11 PUSH1 0x4 MSTORE PUSH1 0x24 PUSH1 0x0 REVERT JUMPDEST PUSH32 0x4E487B7100000000000000000000000000000000000000000000000000000000 PUSH1 0x0 MSTORE PUSH1 0x22 PUSH1 0x4 MSTORE PUSH1 0x24 PUSH1 0x0 REVERT JUMPDEST PUSH1 0x0 DUP1 REVERT JUMPDEST PUSH1 0x0 PUSH1 0x1F NOT PUSH1 0x1F DUP4 ADD AND SWAP1 POP SWAP2 SWAP1 POP JUMP JUMPDEST PUSH2 0x10AA DUP2 PUSH2 0xF80 JUMP JUMPDEST DUP2 EQ PUSH2 0x10B5 JUMPI PUSH1 0x0 DUP1 REVERT JUMPDEST POP JUMP JUMPDEST PUSH2 0x10C1 DUP2 PUSH2 0xFBE JUMP JUMPDEST DUP2 EQ PUSH2 0x10CC JUMPI PUSH1 0x0 DUP1 REVERT JUMPDEST POP JUMP INVALID LOG2 PUSH5 0x6970667358 0x22 SLT KECCAK256 ADDMOD 0xD7 SWAP16 0xD2 ADDRESS JUMP 0xBF 0xA5 EXTCODEHASH 0xD9 CALLDATALOAD DUP6 DUP7 ORIGIN PUSH20 0xC96437A44A34EE64BB38DD0D6E1118A44264736F PUSH13 0x63430008070033000000000000 "
				},
				"gasEstimates": {
					"creation": {
						"codeDepositCost": "871400",
						"executionCost": "infinite",
						"totalCost": "infinite"
					},
					"external": {
						"accountKeys(uint256)": "5001",
						"allowance(address,address)": "infinite",
						"approve(address,uint256)": "infinite",
						"balanceOf(address)": "2859",
						"decimals()": "2452",
						"getAccountBalance(address)": "2930",
						"getIndexOf(address)": "2935",
						"indexOf(address)": "2902",
						"inserted(address)": "2912",
						"isInserted(address)": "3000",
						"name()": "infinite",
						"symbol()": "infinite",
						"totalSupply()": "2452",
						"transfer(address,uint256)": "infinite",
						"transferFrom(address,address,uint256)": "infinite"
					},
					"internal": {
						"_transfer(address,address,uint256)": "infinite",
						"setBalance(address,uint256)": "97430"
					}
				},
				"methodIdentifiers": {
					"accountKeys(uint256)": "1e2eb088",
					"allowance(address,address)": "dd62ed3e",
					"approve(address,uint256)": "095ea7b3",
					"balanceOf(address)": "70a08231",
					"decimals()": "313ce567",
					"getAccountBalance(address)": "93423e9c",
					"getIndexOf(address)": "017df522",
					"indexOf(address)": "fd6aad25",
					"inserted(address)": "7cd380f1",
					"isInserted(address)": "29b57c14",
					"name()": "06fdde03",
					"symbol()": "95d89b41",
					"totalSupply()": "18160ddd",
					"transfer(address,uint256)": "a9059cbb",
					"transferFrom(address,address,uint256)": "23b872dd"
				}
			},
			"storageLayout": {
				"storage": [
					{
						"astId": 4,
						"contract": "V1/Contracts/sponsorCoin/SPC_Token.sol:SPC_Token",
						"label": "name",
						"offset": 0,
						"slot": "0",
						"type": "t_string_storage"
					},
					{
						"astId": 6,
						"contract": "V1/Contracts/sponsorCoin/SPC_Token.sol:SPC_Token",
						"label": "symbol",
						"offset": 0,
						"slot": "1",
						"type": "t_string_storage"
					},
					{
						"astId": 8,
						"contract": "V1/Contracts/sponsorCoin/SPC_Token.sol:SPC_Token",
						"label": "decimals",
						"offset": 0,
						"slot": "2",
						"type": "t_uint256"
					},
					{
						"astId": 10,
						"contract": "V1/Contracts/sponsorCoin/SPC_Token.sol:SPC_Token",
						"label": "totalSupply",
						"offset": 0,
						"slot": "3",
						"type": "t_uint256"
					},
					{
						"astId": 14,
						"contract": "V1/Contracts/sponsorCoin/SPC_Token.sol:SPC_Token",
						"label": "balanceOf",
						"offset": 0,
						"slot": "4",
						"type": "t_mapping(t_address,t_uint256)"
					},
					{
						"astId": 20,
						"contract": "V1/Contracts/sponsorCoin/SPC_Token.sol:SPC_Token",
						"label": "allowance",
						"offset": 0,
						"slot": "5",
						"type": "t_mapping(t_address,t_mapping(t_address,t_uint256))"
					},
					{
						"astId": 23,
						"contract": "V1/Contracts/sponsorCoin/SPC_Token.sol:SPC_Token",
						"label": "accountKeys",
						"offset": 0,
						"slot": "6",
						"type": "t_array(t_address)dyn_storage"
					},
					{
						"astId": 27,
						"contract": "V1/Contracts/sponsorCoin/SPC_Token.sol:SPC_Token",
						"label": "indexOf",
						"offset": 0,
						"slot": "7",
						"type": "t_mapping(t_address,t_uint256)"
					},
					{
						"astId": 31,
						"contract": "V1/Contracts/sponsorCoin/SPC_Token.sol:SPC_Token",
						"label": "inserted",
						"offset": 0,
						"slot": "8",
						"type": "t_mapping(t_address,t_bool)"
					}
				],
				"types": {
					"t_address": {
						"encoding": "inplace",
						"label": "address",
						"numberOfBytes": "20"
					},
					"t_array(t_address)dyn_storage": {
						"base": "t_address",
						"encoding": "dynamic_array",
						"label": "address[]",
						"numberOfBytes": "32"
					},
					"t_bool": {
						"encoding": "inplace",
						"label": "bool",
						"numberOfBytes": "1"
					},
					"t_mapping(t_address,t_bool)": {
						"encoding": "mapping",
						"key": "t_address",
						"label": "mapping(address => bool)",
						"numberOfBytes": "32",
						"value": "t_bool"
					},
					"t_mapping(t_address,t_mapping(t_address,t_uint256))": {
						"encoding": "mapping",
						"key": "t_address",
						"label": "mapping(address => mapping(address => uint256))",
						"numberOfBytes": "32",
						"value": "t_mapping(t_address,t_uint256)"
					},
					"t_mapping(t_address,t_uint256)": {
						"encoding": "mapping",
						"key": "t_address",
						"label": "mapping(address => uint256)",
						"numberOfBytes": "32",
						"value": "t_uint256"
					},
					"t_string_storage": {
						"encoding": "bytes",
						"label": "string",
						"numberOfBytes": "32"
					},
					"t_uint256": {
						"encoding": "inplace",
						"label": "uint256",
						"numberOfBytes": "32"
					}
				}
			},
			"userdoc": {
				"kind": "user",
				"methods": {
					"approve(address,uint256)": {
						"notice": "Approve other to spend on your behalf eg an exchange "
					},
					"transfer(address,uint256)": {
						"notice": "transfer amount of tokens to an address"
					},
					"transferFrom(address,address,uint256)": {
						"notice": "transfer by approved person from original address of an amount within approved limit "
					}
				},
				"version": 1
			}
		}
	}
}