{
	"V1/Contracts/sponsorCoin/SPC_Token.sol": {
		"SPC_Token": {
			"abi": [
				{
					"inputs": [],
					"stateMutability": "nonpayable",
					"type": "constructor"
				},
				{
					"anonymous": false,
					"inputs": [
						{
							"indexed": true,
							"internalType": "address",
							"name": "owner",
							"type": "address"
						},
						{
							"indexed": true,
							"internalType": "address",
							"name": "spender",
							"type": "address"
						},
						{
							"indexed": false,
							"internalType": "uint256",
							"name": "value",
							"type": "uint256"
						}
					],
					"name": "Approval",
					"type": "event"
				},
				{
					"anonymous": false,
					"inputs": [
						{
							"indexed": true,
							"internalType": "address",
							"name": "from",
							"type": "address"
						},
						{
							"indexed": true,
							"internalType": "address",
							"name": "to",
							"type": "address"
						},
						{
							"indexed": false,
							"internalType": "uint256",
							"name": "value",
							"type": "uint256"
						}
					],
					"name": "Transfer",
					"type": "event"
				},
				{
					"inputs": [
						{
							"internalType": "uint256",
							"name": "",
							"type": "uint256"
						}
					],
					"name": "accountKeys",
					"outputs": [
						{
							"internalType": "address",
							"name": "",
							"type": "address"
						}
					],
					"stateMutability": "view",
					"type": "function"
				},
				{
					"inputs": [
						{
							"internalType": "address",
							"name": "",
							"type": "address"
						},
						{
							"internalType": "address",
							"name": "",
							"type": "address"
						}
					],
					"name": "allowance",
					"outputs": [
						{
							"internalType": "uint256",
							"name": "",
							"type": "uint256"
						}
					],
					"stateMutability": "view",
					"type": "function"
				},
				{
					"inputs": [
						{
							"internalType": "address",
							"name": "_spender",
							"type": "address"
						},
						{
							"internalType": "uint256",
							"name": "_value",
							"type": "uint256"
						}
					],
					"name": "approve",
					"outputs": [
						{
							"internalType": "bool",
							"name": "",
							"type": "bool"
						}
					],
					"stateMutability": "nonpayable",
					"type": "function"
				},
				{
					"inputs": [
						{
							"internalType": "address",
							"name": "",
							"type": "address"
						}
					],
					"name": "balanceOf",
					"outputs": [
						{
							"internalType": "uint256",
							"name": "",
							"type": "uint256"
						}
					],
					"stateMutability": "view",
					"type": "function"
				},
				{
					"inputs": [],
					"name": "decimals",
					"outputs": [
						{
							"internalType": "uint256",
							"name": "",
							"type": "uint256"
						}
					],
					"stateMutability": "view",
					"type": "function"
				},
				{
					"inputs": [
						{
							"internalType": "address",
							"name": "",
							"type": "address"
						}
					],
					"name": "indexOf",
					"outputs": [
						{
							"internalType": "uint256",
							"name": "",
							"type": "uint256"
						}
					],
					"stateMutability": "view",
					"type": "function"
				},
				{
					"inputs": [
						{
							"internalType": "address",
							"name": "",
							"type": "address"
						}
					],
					"name": "inserted",
					"outputs": [
						{
							"internalType": "bool",
							"name": "",
							"type": "bool"
						}
					],
					"stateMutability": "view",
					"type": "function"
				},
				{
					"inputs": [],
					"name": "name",
					"outputs": [
						{
							"internalType": "string",
							"name": "",
							"type": "string"
						}
					],
					"stateMutability": "view",
					"type": "function"
				},
				{
					"inputs": [],
					"name": "symbol",
					"outputs": [
						{
							"internalType": "string",
							"name": "",
							"type": "string"
						}
					],
					"stateMutability": "view",
					"type": "function"
				},
				{
					"inputs": [],
					"name": "totalSupply",
					"outputs": [
						{
							"internalType": "uint256",
							"name": "",
							"type": "uint256"
						}
					],
					"stateMutability": "view",
					"type": "function"
				},
				{
					"inputs": [
						{
							"internalType": "address",
							"name": "_to",
							"type": "address"
						},
						{
							"internalType": "uint256",
							"name": "_value",
							"type": "uint256"
						}
					],
					"name": "transfer",
					"outputs": [
						{
							"internalType": "bool",
							"name": "success",
							"type": "bool"
						}
					],
					"stateMutability": "nonpayable",
					"type": "function"
				},
				{
					"inputs": [
						{
							"internalType": "address",
							"name": "_from",
							"type": "address"
						},
						{
							"internalType": "address",
							"name": "_to",
							"type": "address"
						},
						{
							"internalType": "uint256",
							"name": "_value",
							"type": "uint256"
						}
					],
					"name": "transferFrom",
					"outputs": [
						{
							"internalType": "bool",
							"name": "",
							"type": "bool"
						}
					],
					"stateMutability": "nonpayable",
					"type": "function"
				}
			],
			"devdoc": {
				"kind": "dev",
				"methods": {
					"approve(address,uint256)": {
						"params": {
							"_spender": "allowed to spend and a max amount allowed to spend",
							"_value": "amount value of token to send"
						},
						"returns": {
							"_0": "true, success once address approved"
						}
					},
					"transfer(address,uint256)": {
						"params": {
							"_to": "receiver of token",
							"_value": "amount value of token to send"
						},
						"returns": {
							"success": "as true, for transfer "
						}
					},
					"transferFrom(address,address,uint256)": {
						"details": "internal helper transfer function with required safety checks",
						"params": {
							"_from": ", address sending to and the amount to send",
							"_to": "receiver of token",
							"_value": "amount value of token to send"
						},
						"returns": {
							"_0": "true, success once transfered from original account    "
						}
					}
				},
				"title": "ERC20 Contract",
				"version": 1
			},
			"evm": {
				"assembly": "    /* \"V1/Contracts/sponsorCoin/SPC_Token.sol\":179:4708  contract SPC_Token {... */\n  mstore(0x40, 0x80)\n    /* \"V1/Contracts/sponsorCoin/SPC_Token.sol\":1399:1596  constructor() {... */\n  callvalue\n  dup1\n  iszero\n  tag_1\n  jumpi\n  0x00\n  dup1\n  revert\ntag_1:\n  pop\n    /* \"V1/Contracts/sponsorCoin/SPC_Token.sol\":1423:1443  name = \"sponsorCoin\" */\n  mload(0x40)\n  dup1\n  0x40\n  add\n  0x40\n  mstore\n  dup1\n  0x0b\n  dup2\n  mstore\n  0x20\n  add\n  0x73706f6e736f72436f696e000000000000000000000000000000000000000000\n  dup2\n  mstore\n  pop\n    /* \"V1/Contracts/sponsorCoin/SPC_Token.sol\":1423:1427  name */\n  0x00\n    /* \"V1/Contracts/sponsorCoin/SPC_Token.sol\":1423:1443  name = \"sponsorCoin\" */\n  swap1\n  dup1\n  mload\n  swap1\n  0x20\n  add\n  swap1\n  tag_4\n  swap3\n  swap2\n  swap1\n  tag_5\n  jump\t// in\ntag_4:\n  pop\n    /* \"V1/Contracts/sponsorCoin/SPC_Token.sol\":1453:1471  symbol = \"SP_Coin\" */\n  mload(0x40)\n  dup1\n  0x40\n  add\n  0x40\n  mstore\n  dup1\n  0x07\n  dup2\n  mstore\n  0x20\n  add\n  0x53505f436f696e00000000000000000000000000000000000000000000000000\n  dup2\n  mstore\n  pop\n    /* \"V1/Contracts/sponsorCoin/SPC_Token.sol\":1453:1459  symbol */\n  0x01\n    /* \"V1/Contracts/sponsorCoin/SPC_Token.sol\":1453:1471  symbol = \"SP_Coin\" */\n  swap1\n  dup1\n  mload\n  swap1\n  0x20\n  add\n  swap1\n  tag_6\n  swap3\n  swap2\n  swap1\n  tag_5\n  jump\t// in\ntag_6:\n  pop\n    /* \"V1/Contracts/sponsorCoin/SPC_Token.sol\":1492:1494  18 */\n  0x12\n    /* \"V1/Contracts/sponsorCoin/SPC_Token.sol\":1481:1489  decimals */\n  0x02\n    /* \"V1/Contracts/sponsorCoin/SPC_Token.sol\":1481:1494  decimals = 18 */\n  dup2\n  swap1\n  sstore\n  pop\n    /* \"V1/Contracts/sponsorCoin/SPC_Token.sol\":1518:1543  1000000000000000000000000 */\n  0xd3c21bcecceda1000000\n    /* \"V1/Contracts/sponsorCoin/SPC_Token.sol\":1504:1515  totalSupply */\n  0x03\n    /* \"V1/Contracts/sponsorCoin/SPC_Token.sol\":1504:1543  totalSupply = 1000000000000000000000000 */\n  dup2\n  swap1\n  sstore\n  pop\n    /* \"V1/Contracts/sponsorCoin/SPC_Token.sol\":1554:1589  setBalance(msg.sender, totalSupply) */\n  tag_7\n    /* \"V1/Contracts/sponsorCoin/SPC_Token.sol\":1565:1575  msg.sender */\n  caller\n    /* \"V1/Contracts/sponsorCoin/SPC_Token.sol\":1577:1588  totalSupply */\n  sload(0x03)\n    /* \"V1/Contracts/sponsorCoin/SPC_Token.sol\":1554:1564  setBalance */\n  shl(0x20, tag_8)\n    /* \"V1/Contracts/sponsorCoin/SPC_Token.sol\":1554:1589  setBalance(msg.sender, totalSupply) */\n  0x20\n  shr\n  jump\t// in\ntag_7:\n    /* \"V1/Contracts/sponsorCoin/SPC_Token.sol\":179:4708  contract SPC_Token {... */\n  jump(tag_9)\n    /* \"V1/Contracts/sponsorCoin/SPC_Token.sol\":1624:1875  function setBalance(address accountKey, uint newBalance ) internal {... */\ntag_8:\n    /* \"V1/Contracts/sponsorCoin/SPC_Token.sol\":1726:1736  newBalance */\n  dup1\n    /* \"V1/Contracts/sponsorCoin/SPC_Token.sol\":1702:1711  balanceOf */\n  0x04\n    /* \"V1/Contracts/sponsorCoin/SPC_Token.sol\":1702:1723  balanceOf[accountKey] */\n  0x00\n    /* \"V1/Contracts/sponsorCoin/SPC_Token.sol\":1712:1722  accountKey */\n  dup5\n    /* \"V1/Contracts/sponsorCoin/SPC_Token.sol\":1702:1723  balanceOf[accountKey] */\n  0xffffffffffffffffffffffffffffffffffffffff\n  and\n  0xffffffffffffffffffffffffffffffffffffffff\n  and\n  dup2\n  mstore\n  0x20\n  add\n  swap1\n  dup2\n  mstore\n  0x20\n  add\n  0x00\n  keccak256\n    /* \"V1/Contracts/sponsorCoin/SPC_Token.sol\":1702:1736  balanceOf[accountKey] = newBalance */\n  dup2\n  swap1\n  sstore\n  pop\n    /* \"V1/Contracts/sponsorCoin/SPC_Token.sol\":1752:1760  inserted */\n  0x08\n    /* \"V1/Contracts/sponsorCoin/SPC_Token.sol\":1752:1772  inserted[accountKey] */\n  0x00\n    /* \"V1/Contracts/sponsorCoin/SPC_Token.sol\":1761:1771  accountKey */\n  dup4\n    /* \"V1/Contracts/sponsorCoin/SPC_Token.sol\":1752:1772  inserted[accountKey] */\n  0xffffffffffffffffffffffffffffffffffffffff\n  and\n  0xffffffffffffffffffffffffffffffffffffffff\n  and\n  dup2\n  mstore\n  0x20\n  add\n  swap1\n  dup2\n  mstore\n  0x20\n  add\n  0x00\n  keccak256\n  0x00\n  swap1\n  sload\n  swap1\n  0x0100\n  exp\n  swap1\n  div\n  0xff\n  and\n    /* \"V1/Contracts/sponsorCoin/SPC_Token.sol\":1747:1868  if (!inserted[accountKey]) {... */\n  tag_11\n  jumpi\n    /* \"V1/Contracts/sponsorCoin/SPC_Token.sol\":1811:1815  true */\n  0x01\n    /* \"V1/Contracts/sponsorCoin/SPC_Token.sol\":1788:1796  inserted */\n  0x08\n    /* \"V1/Contracts/sponsorCoin/SPC_Token.sol\":1788:1808  inserted[accountKey] */\n  0x00\n    /* \"V1/Contracts/sponsorCoin/SPC_Token.sol\":1797:1807  accountKey */\n  dup5\n    /* \"V1/Contracts/sponsorCoin/SPC_Token.sol\":1788:1808  inserted[accountKey] */\n  0xffffffffffffffffffffffffffffffffffffffff\n  and\n  0xffffffffffffffffffffffffffffffffffffffff\n  and\n  dup2\n  mstore\n  0x20\n  add\n  swap1\n  dup2\n  mstore\n  0x20\n  add\n  0x00\n  keccak256\n  0x00\n    /* \"V1/Contracts/sponsorCoin/SPC_Token.sol\":1788:1815  inserted[accountKey] = true */\n  0x0100\n  exp\n  dup2\n  sload\n  dup2\n  0xff\n  mul\n  not\n  and\n  swap1\n  dup4\n  iszero\n  iszero\n  mul\n  or\n  swap1\n  sstore\n  pop\n    /* \"V1/Contracts/sponsorCoin/SPC_Token.sol\":1829:1840  accountKeys */\n  0x06\n    /* \"V1/Contracts/sponsorCoin/SPC_Token.sol\":1846:1856  accountKey */\n  dup3\n    /* \"V1/Contracts/sponsorCoin/SPC_Token.sol\":1829:1857  accountKeys.push(accountKey) */\n  swap1\n  dup1\n  0x01\n  dup2\n  sload\n  add\n  dup1\n  dup3\n  sstore\n  dup1\n  swap2\n  pop\n  pop\n  0x01\n  swap1\n  sub\n  swap1\n  0x00\n  mstore\n  keccak256(0x00, 0x20)\n  add\n  0x00\n  swap1\n  swap2\n  swap1\n  swap2\n  swap1\n  swap2\n  0x0100\n  exp\n  dup2\n  sload\n  dup2\n  0xffffffffffffffffffffffffffffffffffffffff\n  mul\n  not\n  and\n  swap1\n  dup4\n  0xffffffffffffffffffffffffffffffffffffffff\n  and\n  mul\n  or\n  swap1\n  sstore\n  pop\n    /* \"V1/Contracts/sponsorCoin/SPC_Token.sol\":1747:1868  if (!inserted[accountKey]) {... */\ntag_11:\n    /* \"V1/Contracts/sponsorCoin/SPC_Token.sol\":1624:1875  function setBalance(address accountKey, uint newBalance ) internal {... */\n  pop\n  pop\n  jump\t// out\n    /* \"V1/Contracts/sponsorCoin/SPC_Token.sol\":179:4708  contract SPC_Token {... */\ntag_5:\n  dup3\n  dup1\n  sload\n  tag_13\n  swap1\n  tag_14\n  jump\t// in\ntag_13:\n  swap1\n  0x00\n  mstore\n  keccak256(0x00, 0x20)\n  swap1\n  0x1f\n  add\n  0x20\n  swap1\n  div\n  dup2\n  add\n  swap3\n  dup3\n  tag_16\n  jumpi\n  0x00\n  dup6\n  sstore\n  jump(tag_15)\ntag_16:\n  dup3\n  0x1f\n  lt\n  tag_17\n  jumpi\n  dup1\n  mload\n  not(0xff)\n  and\n  dup4\n  dup1\n  add\n  or\n  dup6\n  sstore\n  jump(tag_15)\ntag_17:\n  dup3\n  dup1\n  add\n  0x01\n  add\n  dup6\n  sstore\n  dup3\n  iszero\n  tag_15\n  jumpi\n  swap2\n  dup3\n  add\ntag_18:\n  dup3\n  dup2\n  gt\n  iszero\n  tag_19\n  jumpi\n  dup3\n  mload\n  dup3\n  sstore\n  swap2\n  0x20\n  add\n  swap2\n  swap1\n  0x01\n  add\n  swap1\n  jump(tag_18)\ntag_19:\ntag_15:\n  pop\n  swap1\n  pop\n  tag_20\n  swap2\n  swap1\n  tag_21\n  jump\t// in\ntag_20:\n  pop\n  swap1\n  jump\t// out\ntag_21:\ntag_22:\n  dup1\n  dup3\n  gt\n  iszero\n  tag_23\n  jumpi\n  0x00\n  dup2\n  0x00\n  swap1\n  sstore\n  pop\n  0x01\n  add\n  jump(tag_22)\ntag_23:\n  pop\n  swap1\n  jump\t// out\n    /* \"#utility.yul\":7:187   */\ntag_24:\n    /* \"#utility.yul\":55:132   */\n  0x4e487b7100000000000000000000000000000000000000000000000000000000\n    /* \"#utility.yul\":52:53   */\n  0x00\n    /* \"#utility.yul\":45:133   */\n  mstore\n    /* \"#utility.yul\":152:156   */\n  0x22\n    /* \"#utility.yul\":149:150   */\n  0x04\n    /* \"#utility.yul\":142:157   */\n  mstore\n    /* \"#utility.yul\":176:180   */\n  0x24\n    /* \"#utility.yul\":173:174   */\n  0x00\n    /* \"#utility.yul\":166:181   */\n  revert\n    /* \"#utility.yul\":193:513   */\ntag_14:\n    /* \"#utility.yul\":237:243   */\n  0x00\n    /* \"#utility.yul\":274:275   */\n  0x02\n    /* \"#utility.yul\":268:272   */\n  dup3\n    /* \"#utility.yul\":264:276   */\n  div\n    /* \"#utility.yul\":254:276   */\n  swap1\n  pop\n    /* \"#utility.yul\":321:322   */\n  0x01\n    /* \"#utility.yul\":315:319   */\n  dup3\n    /* \"#utility.yul\":311:323   */\n  and\n    /* \"#utility.yul\":342:360   */\n  dup1\n    /* \"#utility.yul\":332:413   */\n  tag_28\n  jumpi\n    /* \"#utility.yul\":398:402   */\n  0x7f\n    /* \"#utility.yul\":390:396   */\n  dup3\n    /* \"#utility.yul\":386:403   */\n  and\n    /* \"#utility.yul\":376:403   */\n  swap2\n  pop\n    /* \"#utility.yul\":332:413   */\ntag_28:\n    /* \"#utility.yul\":460:462   */\n  0x20\n    /* \"#utility.yul\":452:458   */\n  dup3\n    /* \"#utility.yul\":449:463   */\n  lt\n    /* \"#utility.yul\":429:447   */\n  dup2\n    /* \"#utility.yul\":426:464   */\n  sub\n    /* \"#utility.yul\":423:507   */\n  tag_29\n  jumpi\n    /* \"#utility.yul\":479:497   */\n  tag_30\n  tag_24\n  jump\t// in\ntag_30:\n    /* \"#utility.yul\":423:507   */\ntag_29:\n    /* \"#utility.yul\":244:513   */\n  pop\n    /* \"#utility.yul\":193:513   */\n  swap2\n  swap1\n  pop\n  jump\t// out\n    /* \"V1/Contracts/sponsorCoin/SPC_Token.sol\":179:4708  contract SPC_Token {... */\ntag_9:\n  dataSize(sub_0)\n  dup1\n  dataOffset(sub_0)\n  0x00\n  codecopy\n  0x00\n  return\nstop\n\nsub_0: assembly {\n        /* \"V1/Contracts/sponsorCoin/SPC_Token.sol\":179:4708  contract SPC_Token {... */\n      mstore(0x40, 0x80)\n      callvalue\n      dup1\n      iszero\n      tag_1\n      jumpi\n      0x00\n      dup1\n      revert\n    tag_1:\n      pop\n      jumpi(tag_2, lt(calldatasize, 0x04))\n      shr(0xe0, calldataload(0x00))\n      dup1\n      0x70a08231\n      gt\n      tag_15\n      jumpi\n      dup1\n      0x70a08231\n      eq\n      tag_9\n      jumpi\n      dup1\n      0x7cd380f1\n      eq\n      tag_10\n      jumpi\n      dup1\n      0x95d89b41\n      eq\n      tag_11\n      jumpi\n      dup1\n      0xa9059cbb\n      eq\n      tag_12\n      jumpi\n      dup1\n      0xdd62ed3e\n      eq\n      tag_13\n      jumpi\n      dup1\n      0xfd6aad25\n      eq\n      tag_14\n      jumpi\n      jump(tag_2)\n    tag_15:\n      dup1\n      0x06fdde03\n      eq\n      tag_3\n      jumpi\n      dup1\n      0x095ea7b3\n      eq\n      tag_4\n      jumpi\n      dup1\n      0x18160ddd\n      eq\n      tag_5\n      jumpi\n      dup1\n      0x1e2eb088\n      eq\n      tag_6\n      jumpi\n      dup1\n      0x23b872dd\n      eq\n      tag_7\n      jumpi\n      dup1\n      0x313ce567\n      eq\n      tag_8\n      jumpi\n    tag_2:\n      0x00\n      dup1\n      revert\n        /* \"V1/Contracts/sponsorCoin/SPC_Token.sol\":225:243  string public name */\n    tag_3:\n      tag_16\n      tag_17\n      jump\t// in\n    tag_16:\n      mload(0x40)\n      tag_18\n      swap2\n      swap1\n      tag_19\n      jump\t// in\n    tag_18:\n      mload(0x40)\n      dup1\n      swap2\n      sub\n      swap1\n      return\n        /* \"V1/Contracts/sponsorCoin/SPC_Token.sol\":3653:3900  function approve(address _spender, uint256 _value) external returns (bool) {... */\n    tag_4:\n      tag_20\n      0x04\n      dup1\n      calldatasize\n      sub\n      dup2\n      add\n      swap1\n      tag_21\n      swap2\n      swap1\n      tag_22\n      jump\t// in\n    tag_21:\n      tag_23\n      jump\t// in\n    tag_20:\n      mload(0x40)\n      tag_24\n      swap2\n      swap1\n      tag_25\n      jump\t// in\n    tag_24:\n      mload(0x40)\n      dup1\n      swap2\n      sub\n      swap1\n      return\n        /* \"V1/Contracts/sponsorCoin/SPC_Token.sol\":304:330  uint256 public totalSupply */\n    tag_5:\n      tag_26\n      tag_27\n      jump\t// in\n    tag_26:\n      mload(0x40)\n      tag_28\n      swap2\n      swap1\n      tag_29\n      jump\t// in\n    tag_28:\n      mload(0x40)\n      dup1\n      swap2\n      sub\n      swap1\n      return\n        /* \"V1/Contracts/sponsorCoin/SPC_Token.sol\":728:756  address[] public accountKeys */\n    tag_6:\n      tag_30\n      0x04\n      dup1\n      calldatasize\n      sub\n      dup2\n      add\n      swap1\n      tag_31\n      swap2\n      swap1\n      tag_32\n      jump\t// in\n    tag_31:\n      tag_33\n      jump\t// in\n    tag_30:\n      mload(0x40)\n      tag_34\n      swap2\n      swap1\n      tag_35\n      jump\t// in\n    tag_34:\n      mload(0x40)\n      dup1\n      swap2\n      sub\n      swap1\n      return\n        /* \"V1/Contracts/sponsorCoin/SPC_Token.sol\":4367:4706  function transferFrom(address _from, address _to, uint256 _value) external returns (bool) {... */\n    tag_7:\n      tag_36\n      0x04\n      dup1\n      calldatasize\n      sub\n      dup2\n      add\n      swap1\n      tag_37\n      swap2\n      swap1\n      tag_38\n      jump\t// in\n    tag_37:\n      tag_39\n      jump\t// in\n    tag_36:\n      mload(0x40)\n      tag_40\n      swap2\n      swap1\n      tag_25\n      jump\t// in\n    tag_40:\n      mload(0x40)\n      dup1\n      swap2\n      sub\n      swap1\n      return\n        /* \"V1/Contracts/sponsorCoin/SPC_Token.sol\":275:298  uint256 public decimals */\n    tag_8:\n      tag_41\n      tag_42\n      jump\t// in\n    tag_41:\n      mload(0x40)\n      tag_43\n      swap2\n      swap1\n      tag_29\n      jump\t// in\n    tag_43:\n      mload(0x40)\n      dup1\n      swap2\n      sub\n      swap1\n      return\n        /* \"V1/Contracts/sponsorCoin/SPC_Token.sol\":584:628  mapping(address => uint256) public balanceOf */\n    tag_9:\n      tag_44\n      0x04\n      dup1\n      calldatasize\n      sub\n      dup2\n      add\n      swap1\n      tag_45\n      swap2\n      swap1\n      tag_46\n      jump\t// in\n    tag_45:\n      tag_47\n      jump\t// in\n    tag_44:\n      mload(0x40)\n      tag_48\n      swap2\n      swap1\n      tag_29\n      jump\t// in\n    tag_48:\n      mload(0x40)\n      dup1\n      swap2\n      sub\n      swap1\n      return\n        /* \"V1/Contracts/sponsorCoin/SPC_Token.sol\":807:847  mapping(address => bool) public inserted */\n    tag_10:\n      tag_49\n      0x04\n      dup1\n      calldatasize\n      sub\n      dup2\n      add\n      swap1\n      tag_50\n      swap2\n      swap1\n      tag_46\n      jump\t// in\n    tag_50:\n      tag_51\n      jump\t// in\n    tag_49:\n      mload(0x40)\n      tag_52\n      swap2\n      swap1\n      tag_25\n      jump\t// in\n    tag_52:\n      mload(0x40)\n      dup1\n      swap2\n      sub\n      swap1\n      return\n        /* \"V1/Contracts/sponsorCoin/SPC_Token.sol\":249:269  string public symbol */\n    tag_11:\n      tag_53\n      tag_54\n      jump\t// in\n    tag_53:\n      mload(0x40)\n      tag_55\n      swap2\n      swap1\n      tag_19\n      jump\t// in\n    tag_55:\n      mload(0x40)\n      dup1\n      swap2\n      sub\n      swap1\n      return\n        /* \"V1/Contracts/sponsorCoin/SPC_Token.sol\":2073:2274  function transfer(address _to, uint256 _value) external returns (bool success) {... */\n    tag_12:\n      tag_56\n      0x04\n      dup1\n      calldatasize\n      sub\n      dup2\n      add\n      swap1\n      tag_57\n      swap2\n      swap1\n      tag_22\n      jump\t// in\n    tag_57:\n      tag_58\n      jump\t// in\n    tag_56:\n      mload(0x40)\n      tag_59\n      swap2\n      swap1\n      tag_25\n      jump\t// in\n    tag_59:\n      mload(0x40)\n      dup1\n      swap2\n      sub\n      swap1\n      return\n        /* \"V1/Contracts/sponsorCoin/SPC_Token.sol\":634:698  mapping(address => mapping(address => uint256)) public allowance */\n    tag_13:\n      tag_60\n      0x04\n      dup1\n      calldatasize\n      sub\n      dup2\n      add\n      swap1\n      tag_61\n      swap2\n      swap1\n      tag_62\n      jump\t// in\n    tag_61:\n      tag_63\n      jump\t// in\n    tag_60:\n      mload(0x40)\n      tag_64\n      swap2\n      swap1\n      tag_29\n      jump\t// in\n    tag_64:\n      mload(0x40)\n      dup1\n      swap2\n      sub\n      swap1\n      return\n        /* \"V1/Contracts/sponsorCoin/SPC_Token.sol\":762:801  mapping(address => uint) public indexOf */\n    tag_14:\n      tag_65\n      0x04\n      dup1\n      calldatasize\n      sub\n      dup2\n      add\n      swap1\n      tag_66\n      swap2\n      swap1\n      tag_46\n      jump\t// in\n    tag_66:\n      tag_67\n      jump\t// in\n    tag_65:\n      mload(0x40)\n      tag_68\n      swap2\n      swap1\n      tag_29\n      jump\t// in\n    tag_68:\n      mload(0x40)\n      dup1\n      swap2\n      sub\n      swap1\n      return\n        /* \"V1/Contracts/sponsorCoin/SPC_Token.sol\":225:243  string public name */\n    tag_17:\n      0x00\n      dup1\n      sload\n      tag_69\n      swap1\n      tag_70\n      jump\t// in\n    tag_69:\n      dup1\n      0x1f\n      add\n      0x20\n      dup1\n      swap2\n      div\n      mul\n      0x20\n      add\n      mload(0x40)\n      swap1\n      dup2\n      add\n      0x40\n      mstore\n      dup1\n      swap3\n      swap2\n      swap1\n      dup2\n      dup2\n      mstore\n      0x20\n      add\n      dup3\n      dup1\n      sload\n      tag_71\n      swap1\n      tag_70\n      jump\t// in\n    tag_71:\n      dup1\n      iszero\n      tag_72\n      jumpi\n      dup1\n      0x1f\n      lt\n      tag_73\n      jumpi\n      0x0100\n      dup1\n      dup4\n      sload\n      div\n      mul\n      dup4\n      mstore\n      swap2\n      0x20\n      add\n      swap2\n      jump(tag_72)\n    tag_73:\n      dup3\n      add\n      swap2\n      swap1\n      0x00\n      mstore\n      keccak256(0x00, 0x20)\n      swap1\n    tag_74:\n      dup2\n      sload\n      dup2\n      mstore\n      swap1\n      0x01\n      add\n      swap1\n      0x20\n      add\n      dup1\n      dup4\n      gt\n      tag_74\n      jumpi\n      dup3\n      swap1\n      sub\n      0x1f\n      and\n      dup3\n      add\n      swap2\n    tag_72:\n      pop\n      pop\n      pop\n      pop\n      pop\n      dup2\n      jump\t// out\n        /* \"V1/Contracts/sponsorCoin/SPC_Token.sol\":3653:3900  function approve(address _spender, uint256 _value) external returns (bool) {... */\n    tag_23:\n        /* \"V1/Contracts/sponsorCoin/SPC_Token.sol\":3722:3726  bool */\n      0x00\n        /* \"V1/Contracts/sponsorCoin/SPC_Token.sol\":3766:3767  0 */\n      dup1\n        /* \"V1/Contracts/sponsorCoin/SPC_Token.sol\":3746:3768  _spender != address(0) */\n      0xffffffffffffffffffffffffffffffffffffffff\n      and\n        /* \"V1/Contracts/sponsorCoin/SPC_Token.sol\":3746:3754  _spender */\n      dup4\n        /* \"V1/Contracts/sponsorCoin/SPC_Token.sol\":3746:3768  _spender != address(0) */\n      0xffffffffffffffffffffffffffffffffffffffff\n      and\n      sub\n        /* \"V1/Contracts/sponsorCoin/SPC_Token.sol\":3738:3769  require(_spender != address(0)) */\n      tag_76\n      jumpi\n      0x00\n      dup1\n      revert\n    tag_76:\n        /* \"V1/Contracts/sponsorCoin/SPC_Token.sol\":3813:3819  _value */\n      dup2\n        /* \"V1/Contracts/sponsorCoin/SPC_Token.sol\":3779:3788  allowance */\n      0x05\n        /* \"V1/Contracts/sponsorCoin/SPC_Token.sol\":3779:3800  allowance[msg.sender] */\n      0x00\n        /* \"V1/Contracts/sponsorCoin/SPC_Token.sol\":3789:3799  msg.sender */\n      caller\n        /* \"V1/Contracts/sponsorCoin/SPC_Token.sol\":3779:3800  allowance[msg.sender] */\n      0xffffffffffffffffffffffffffffffffffffffff\n      and\n      0xffffffffffffffffffffffffffffffffffffffff\n      and\n      dup2\n      mstore\n      0x20\n      add\n      swap1\n      dup2\n      mstore\n      0x20\n      add\n      0x00\n      keccak256\n        /* \"V1/Contracts/sponsorCoin/SPC_Token.sol\":3779:3810  allowance[msg.sender][_spender] */\n      0x00\n        /* \"V1/Contracts/sponsorCoin/SPC_Token.sol\":3801:3809  _spender */\n      dup6\n        /* \"V1/Contracts/sponsorCoin/SPC_Token.sol\":3779:3810  allowance[msg.sender][_spender] */\n      0xffffffffffffffffffffffffffffffffffffffff\n      and\n      0xffffffffffffffffffffffffffffffffffffffff\n      and\n      dup2\n      mstore\n      0x20\n      add\n      swap1\n      dup2\n      mstore\n      0x20\n      add\n      0x00\n      keccak256\n        /* \"V1/Contracts/sponsorCoin/SPC_Token.sol\":3779:3819  allowance[msg.sender][_spender] = _value */\n      dup2\n      swap1\n      sstore\n      pop\n        /* \"V1/Contracts/sponsorCoin/SPC_Token.sol\":3855:3863  _spender */\n      dup3\n        /* \"V1/Contracts/sponsorCoin/SPC_Token.sol\":3834:3872  Approval(msg.sender, _spender, _value) */\n      0xffffffffffffffffffffffffffffffffffffffff\n      and\n        /* \"V1/Contracts/sponsorCoin/SPC_Token.sol\":3843:3853  msg.sender */\n      caller\n        /* \"V1/Contracts/sponsorCoin/SPC_Token.sol\":3834:3872  Approval(msg.sender, _spender, _value) */\n      0xffffffffffffffffffffffffffffffffffffffff\n      and\n      0x8c5be1e5ebec7d5bd14f71427d1e84f3dd0314c0f7b2291e5b200ac8c7c3b925\n        /* \"V1/Contracts/sponsorCoin/SPC_Token.sol\":3865:3871  _value */\n      dup5\n        /* \"V1/Contracts/sponsorCoin/SPC_Token.sol\":3834:3872  Approval(msg.sender, _spender, _value) */\n      mload(0x40)\n      tag_77\n      swap2\n      swap1\n      tag_29\n      jump\t// in\n    tag_77:\n      mload(0x40)\n      dup1\n      swap2\n      sub\n      swap1\n      log3\n        /* \"V1/Contracts/sponsorCoin/SPC_Token.sol\":3889:3893  true */\n      0x01\n        /* \"V1/Contracts/sponsorCoin/SPC_Token.sol\":3882:3893  return true */\n      swap1\n      pop\n        /* \"V1/Contracts/sponsorCoin/SPC_Token.sol\":3653:3900  function approve(address _spender, uint256 _value) external returns (bool) {... */\n      swap3\n      swap2\n      pop\n      pop\n      jump\t// out\n        /* \"V1/Contracts/sponsorCoin/SPC_Token.sol\":304:330  uint256 public totalSupply */\n    tag_27:\n      sload(0x03)\n      dup2\n      jump\t// out\n        /* \"V1/Contracts/sponsorCoin/SPC_Token.sol\":728:756  address[] public accountKeys */\n    tag_33:\n      0x06\n      dup2\n      dup2\n      sload\n      dup2\n      lt\n      tag_78\n      jumpi\n      0x00\n      dup1\n      revert\n    tag_78:\n      swap1\n      0x00\n      mstore\n      keccak256(0x00, 0x20)\n      add\n      0x00\n      swap2\n      pop\n      sload\n      swap1\n      0x0100\n      exp\n      swap1\n      div\n      0xffffffffffffffffffffffffffffffffffffffff\n      and\n      dup2\n      jump\t// out\n        /* \"V1/Contracts/sponsorCoin/SPC_Token.sol\":4367:4706  function transferFrom(address _from, address _to, uint256 _value) external returns (bool) {... */\n    tag_39:\n        /* \"V1/Contracts/sponsorCoin/SPC_Token.sol\":4451:4455  bool */\n      0x00\n        /* \"V1/Contracts/sponsorCoin/SPC_Token.sol\":4485:4494  balanceOf */\n      0x04\n        /* \"V1/Contracts/sponsorCoin/SPC_Token.sol\":4485:4501  balanceOf[_from] */\n      0x00\n        /* \"V1/Contracts/sponsorCoin/SPC_Token.sol\":4495:4500  _from */\n      dup6\n        /* \"V1/Contracts/sponsorCoin/SPC_Token.sol\":4485:4501  balanceOf[_from] */\n      0xffffffffffffffffffffffffffffffffffffffff\n      and\n      0xffffffffffffffffffffffffffffffffffffffff\n      and\n      dup2\n      mstore\n      0x20\n      add\n      swap1\n      dup2\n      mstore\n      0x20\n      add\n      0x00\n      keccak256\n      sload\n        /* \"V1/Contracts/sponsorCoin/SPC_Token.sol\":4475:4481  _value */\n      dup3\n        /* \"V1/Contracts/sponsorCoin/SPC_Token.sol\":4475:4501  _value <= balanceOf[_from] */\n      gt\n      iszero\n        /* \"V1/Contracts/sponsorCoin/SPC_Token.sol\":4467:4502  require(_value <= balanceOf[_from]) */\n      tag_81\n      jumpi\n      0x00\n      dup1\n      revert\n    tag_81:\n        /* \"V1/Contracts/sponsorCoin/SPC_Token.sol\":4530:4539  allowance */\n      0x05\n        /* \"V1/Contracts/sponsorCoin/SPC_Token.sol\":4530:4546  allowance[_from] */\n      0x00\n        /* \"V1/Contracts/sponsorCoin/SPC_Token.sol\":4540:4545  _from */\n      dup6\n        /* \"V1/Contracts/sponsorCoin/SPC_Token.sol\":4530:4546  allowance[_from] */\n      0xffffffffffffffffffffffffffffffffffffffff\n      and\n      0xffffffffffffffffffffffffffffffffffffffff\n      and\n      dup2\n      mstore\n      0x20\n      add\n      swap1\n      dup2\n      mstore\n      0x20\n      add\n      0x00\n      keccak256\n        /* \"V1/Contracts/sponsorCoin/SPC_Token.sol\":4530:4558  allowance[_from][msg.sender] */\n      0x00\n        /* \"V1/Contracts/sponsorCoin/SPC_Token.sol\":4547:4557  msg.sender */\n      caller\n        /* \"V1/Contracts/sponsorCoin/SPC_Token.sol\":4530:4558  allowance[_from][msg.sender] */\n      0xffffffffffffffffffffffffffffffffffffffff\n      and\n      0xffffffffffffffffffffffffffffffffffffffff\n      and\n      dup2\n      mstore\n      0x20\n      add\n      swap1\n      dup2\n      mstore\n      0x20\n      add\n      0x00\n      keccak256\n      sload\n        /* \"V1/Contracts/sponsorCoin/SPC_Token.sol\":4520:4526  _value */\n      dup3\n        /* \"V1/Contracts/sponsorCoin/SPC_Token.sol\":4520:4558  _value <= allowance[_from][msg.sender] */\n      gt\n      iszero\n        /* \"V1/Contracts/sponsorCoin/SPC_Token.sol\":4512:4559  require(_value <= allowance[_from][msg.sender]) */\n      tag_82\n      jumpi\n      0x00\n      dup1\n      revert\n    tag_82:\n        /* \"V1/Contracts/sponsorCoin/SPC_Token.sol\":4632:4638  _value */\n      dup2\n        /* \"V1/Contracts/sponsorCoin/SPC_Token.sol\":4600:4609  allowance */\n      0x05\n        /* \"V1/Contracts/sponsorCoin/SPC_Token.sol\":4600:4616  allowance[_from] */\n      0x00\n        /* \"V1/Contracts/sponsorCoin/SPC_Token.sol\":4610:4615  _from */\n      dup7\n        /* \"V1/Contracts/sponsorCoin/SPC_Token.sol\":4600:4616  allowance[_from] */\n      0xffffffffffffffffffffffffffffffffffffffff\n      and\n      0xffffffffffffffffffffffffffffffffffffffff\n      and\n      dup2\n      mstore\n      0x20\n      add\n      swap1\n      dup2\n      mstore\n      0x20\n      add\n      0x00\n      keccak256\n        /* \"V1/Contracts/sponsorCoin/SPC_Token.sol\":4600:4628  allowance[_from][msg.sender] */\n      0x00\n        /* \"V1/Contracts/sponsorCoin/SPC_Token.sol\":4617:4627  msg.sender */\n      caller\n        /* \"V1/Contracts/sponsorCoin/SPC_Token.sol\":4600:4628  allowance[_from][msg.sender] */\n      0xffffffffffffffffffffffffffffffffffffffff\n      and\n      0xffffffffffffffffffffffffffffffffffffffff\n      and\n      dup2\n      mstore\n      0x20\n      add\n      swap1\n      dup2\n      mstore\n      0x20\n      add\n      0x00\n      keccak256\n      sload\n        /* \"V1/Contracts/sponsorCoin/SPC_Token.sol\":4600:4639  allowance[_from][msg.sender] - (_value) */\n      tag_83\n      swap2\n      swap1\n      tag_84\n      jump\t// in\n    tag_83:\n        /* \"V1/Contracts/sponsorCoin/SPC_Token.sol\":4569:4578  allowance */\n      0x05\n        /* \"V1/Contracts/sponsorCoin/SPC_Token.sol\":4569:4585  allowance[_from] */\n      0x00\n        /* \"V1/Contracts/sponsorCoin/SPC_Token.sol\":4579:4584  _from */\n      dup7\n        /* \"V1/Contracts/sponsorCoin/SPC_Token.sol\":4569:4585  allowance[_from] */\n      0xffffffffffffffffffffffffffffffffffffffff\n      and\n      0xffffffffffffffffffffffffffffffffffffffff\n      and\n      dup2\n      mstore\n      0x20\n      add\n      swap1\n      dup2\n      mstore\n      0x20\n      add\n      0x00\n      keccak256\n        /* \"V1/Contracts/sponsorCoin/SPC_Token.sol\":4569:4597  allowance[_from][msg.sender] */\n      0x00\n        /* \"V1/Contracts/sponsorCoin/SPC_Token.sol\":4586:4596  msg.sender */\n      caller\n        /* \"V1/Contracts/sponsorCoin/SPC_Token.sol\":4569:4597  allowance[_from][msg.sender] */\n      0xffffffffffffffffffffffffffffffffffffffff\n      and\n      0xffffffffffffffffffffffffffffffffffffffff\n      and\n      dup2\n      mstore\n      0x20\n      add\n      swap1\n      dup2\n      mstore\n      0x20\n      add\n      0x00\n      keccak256\n        /* \"V1/Contracts/sponsorCoin/SPC_Token.sol\":4569:4639  allowance[_from][msg.sender] = allowance[_from][msg.sender] - (_value) */\n      dup2\n      swap1\n      sstore\n      pop\n        /* \"V1/Contracts/sponsorCoin/SPC_Token.sol\":4649:4678  _transfer(_from, _to, _value) */\n      tag_85\n        /* \"V1/Contracts/sponsorCoin/SPC_Token.sol\":4659:4664  _from */\n      dup5\n        /* \"V1/Contracts/sponsorCoin/SPC_Token.sol\":4666:4669  _to */\n      dup5\n        /* \"V1/Contracts/sponsorCoin/SPC_Token.sol\":4671:4677  _value */\n      dup5\n        /* \"V1/Contracts/sponsorCoin/SPC_Token.sol\":4649:4658  _transfer */\n      tag_86\n        /* \"V1/Contracts/sponsorCoin/SPC_Token.sol\":4649:4678  _transfer(_from, _to, _value) */\n      jump\t// in\n    tag_85:\n        /* \"V1/Contracts/sponsorCoin/SPC_Token.sol\":4695:4699  true */\n      0x01\n        /* \"V1/Contracts/sponsorCoin/SPC_Token.sol\":4688:4699  return true */\n      swap1\n      pop\n        /* \"V1/Contracts/sponsorCoin/SPC_Token.sol\":4367:4706  function transferFrom(address _from, address _to, uint256 _value) external returns (bool) {... */\n      swap4\n      swap3\n      pop\n      pop\n      pop\n      jump\t// out\n        /* \"V1/Contracts/sponsorCoin/SPC_Token.sol\":275:298  uint256 public decimals */\n    tag_42:\n      sload(0x02)\n      dup2\n      jump\t// out\n        /* \"V1/Contracts/sponsorCoin/SPC_Token.sol\":584:628  mapping(address => uint256) public balanceOf */\n    tag_47:\n      mstore(0x20, 0x04)\n      dup1\n      0x00\n      mstore\n      keccak256(0x00, 0x40)\n      0x00\n      swap2\n      pop\n      swap1\n      pop\n      sload\n      dup2\n      jump\t// out\n        /* \"V1/Contracts/sponsorCoin/SPC_Token.sol\":807:847  mapping(address => bool) public inserted */\n    tag_51:\n      mstore(0x20, 0x08)\n      dup1\n      0x00\n      mstore\n      keccak256(0x00, 0x40)\n      0x00\n      swap2\n      pop\n      sload\n      swap1\n      0x0100\n      exp\n      swap1\n      div\n      0xff\n      and\n      dup2\n      jump\t// out\n        /* \"V1/Contracts/sponsorCoin/SPC_Token.sol\":249:269  string public symbol */\n    tag_54:\n      0x01\n      dup1\n      sload\n      tag_87\n      swap1\n      tag_70\n      jump\t// in\n    tag_87:\n      dup1\n      0x1f\n      add\n      0x20\n      dup1\n      swap2\n      div\n      mul\n      0x20\n      add\n      mload(0x40)\n      swap1\n      dup2\n      add\n      0x40\n      mstore\n      dup1\n      swap3\n      swap2\n      swap1\n      dup2\n      dup2\n      mstore\n      0x20\n      add\n      dup3\n      dup1\n      sload\n      tag_88\n      swap1\n      tag_70\n      jump\t// in\n    tag_88:\n      dup1\n      iszero\n      tag_89\n      jumpi\n      dup1\n      0x1f\n      lt\n      tag_90\n      jumpi\n      0x0100\n      dup1\n      dup4\n      sload\n      div\n      mul\n      dup4\n      mstore\n      swap2\n      0x20\n      add\n      swap2\n      jump(tag_89)\n    tag_90:\n      dup3\n      add\n      swap2\n      swap1\n      0x00\n      mstore\n      keccak256(0x00, 0x20)\n      swap1\n    tag_91:\n      dup2\n      sload\n      dup2\n      mstore\n      swap1\n      0x01\n      add\n      swap1\n      0x20\n      add\n      dup1\n      dup4\n      gt\n      tag_91\n      jumpi\n      dup3\n      swap1\n      sub\n      0x1f\n      and\n      dup3\n      add\n      swap2\n    tag_89:\n      pop\n      pop\n      pop\n      pop\n      pop\n      dup2\n      jump\t// out\n        /* \"V1/Contracts/sponsorCoin/SPC_Token.sol\":2073:2274  function transfer(address _to, uint256 _value) external returns (bool success) {... */\n    tag_58:\n        /* \"V1/Contracts/sponsorCoin/SPC_Token.sol\":2138:2150  bool success */\n      0x00\n        /* \"V1/Contracts/sponsorCoin/SPC_Token.sol\":2195:2201  _value */\n      dup2\n        /* \"V1/Contracts/sponsorCoin/SPC_Token.sol\":2170:2179  balanceOf */\n      0x04\n        /* \"V1/Contracts/sponsorCoin/SPC_Token.sol\":2170:2191  balanceOf[msg.sender] */\n      0x00\n        /* \"V1/Contracts/sponsorCoin/SPC_Token.sol\":2180:2190  msg.sender */\n      caller\n        /* \"V1/Contracts/sponsorCoin/SPC_Token.sol\":2170:2191  balanceOf[msg.sender] */\n      0xffffffffffffffffffffffffffffffffffffffff\n      and\n      0xffffffffffffffffffffffffffffffffffffffff\n      and\n      dup2\n      mstore\n      0x20\n      add\n      swap1\n      dup2\n      mstore\n      0x20\n      add\n      0x00\n      keccak256\n      sload\n        /* \"V1/Contracts/sponsorCoin/SPC_Token.sol\":2170:2201  balanceOf[msg.sender] >= _value */\n      lt\n      iszero\n        /* \"V1/Contracts/sponsorCoin/SPC_Token.sol\":2162:2202  require(balanceOf[msg.sender] >= _value) */\n      tag_93\n      jumpi\n      0x00\n      dup1\n      revert\n    tag_93:\n        /* \"V1/Contracts/sponsorCoin/SPC_Token.sol\":2212:2246  _transfer(msg.sender, _to, _value) */\n      tag_94\n        /* \"V1/Contracts/sponsorCoin/SPC_Token.sol\":2222:2232  msg.sender */\n      caller\n        /* \"V1/Contracts/sponsorCoin/SPC_Token.sol\":2234:2237  _to */\n      dup5\n        /* \"V1/Contracts/sponsorCoin/SPC_Token.sol\":2239:2245  _value */\n      dup5\n        /* \"V1/Contracts/sponsorCoin/SPC_Token.sol\":2212:2221  _transfer */\n      tag_86\n        /* \"V1/Contracts/sponsorCoin/SPC_Token.sol\":2212:2246  _transfer(msg.sender, _to, _value) */\n      jump\t// in\n    tag_94:\n        /* \"V1/Contracts/sponsorCoin/SPC_Token.sol\":2263:2267  true */\n      0x01\n        /* \"V1/Contracts/sponsorCoin/SPC_Token.sol\":2256:2267  return true */\n      swap1\n      pop\n        /* \"V1/Contracts/sponsorCoin/SPC_Token.sol\":2073:2274  function transfer(address _to, uint256 _value) external returns (bool success) {... */\n      swap3\n      swap2\n      pop\n      pop\n      jump\t// out\n        /* \"V1/Contracts/sponsorCoin/SPC_Token.sol\":634:698  mapping(address => mapping(address => uint256)) public allowance */\n    tag_63:\n      mstore(0x20, 0x05)\n      dup2\n      0x00\n      mstore\n      mstore(0x20, keccak256(0x00, 0x40))\n      dup1\n      0x00\n      mstore\n      keccak256(0x00, 0x40)\n      0x00\n      swap2\n      pop\n      swap2\n      pop\n      pop\n      sload\n      dup2\n      jump\t// out\n        /* \"V1/Contracts/sponsorCoin/SPC_Token.sol\":762:801  mapping(address => uint) public indexOf */\n    tag_67:\n      mstore(0x20, 0x07)\n      dup1\n      0x00\n      mstore\n      keccak256(0x00, 0x40)\n      0x00\n      swap2\n      pop\n      swap1\n      pop\n      sload\n      dup2\n      jump\t// out\n        /* \"V1/Contracts/sponsorCoin/SPC_Token.sol\":2601:2950  function _transfer(address _from, address _to, uint256 _value) internal {... */\n    tag_86:\n        /* \"V1/Contracts/sponsorCoin/SPC_Token.sol\":2789:2790  0 */\n      0x00\n        /* \"V1/Contracts/sponsorCoin/SPC_Token.sol\":2774:2791  _to != address(0) */\n      0xffffffffffffffffffffffffffffffffffffffff\n      and\n        /* \"V1/Contracts/sponsorCoin/SPC_Token.sol\":2774:2777  _to */\n      dup3\n        /* \"V1/Contracts/sponsorCoin/SPC_Token.sol\":2774:2791  _to != address(0) */\n      0xffffffffffffffffffffffffffffffffffffffff\n      and\n      sub\n        /* \"V1/Contracts/sponsorCoin/SPC_Token.sol\":2766:2792  require(_to != address(0)) */\n      tag_96\n      jumpi\n      0x00\n      dup1\n      revert\n    tag_96:\n        /* \"V1/Contracts/sponsorCoin/SPC_Token.sol\":2841:2847  _value */\n      dup1\n        /* \"V1/Contracts/sponsorCoin/SPC_Token.sol\":2821:2830  balanceOf */\n      0x04\n        /* \"V1/Contracts/sponsorCoin/SPC_Token.sol\":2821:2837  balanceOf[_from] */\n      0x00\n        /* \"V1/Contracts/sponsorCoin/SPC_Token.sol\":2831:2836  _from */\n      dup6\n        /* \"V1/Contracts/sponsorCoin/SPC_Token.sol\":2821:2837  balanceOf[_from] */\n      0xffffffffffffffffffffffffffffffffffffffff\n      and\n      0xffffffffffffffffffffffffffffffffffffffff\n      and\n      dup2\n      mstore\n      0x20\n      add\n      swap1\n      dup2\n      mstore\n      0x20\n      add\n      0x00\n      keccak256\n      sload\n        /* \"V1/Contracts/sponsorCoin/SPC_Token.sol\":2821:2848  balanceOf[_from] - (_value) */\n      tag_97\n      swap2\n      swap1\n      tag_84\n      jump\t// in\n    tag_97:\n        /* \"V1/Contracts/sponsorCoin/SPC_Token.sol\":2802:2811  balanceOf */\n      0x04\n        /* \"V1/Contracts/sponsorCoin/SPC_Token.sol\":2802:2818  balanceOf[_from] */\n      0x00\n        /* \"V1/Contracts/sponsorCoin/SPC_Token.sol\":2812:2817  _from */\n      dup6\n        /* \"V1/Contracts/sponsorCoin/SPC_Token.sol\":2802:2818  balanceOf[_from] */\n      0xffffffffffffffffffffffffffffffffffffffff\n      and\n      0xffffffffffffffffffffffffffffffffffffffff\n      and\n      dup2\n      mstore\n      0x20\n      add\n      swap1\n      dup2\n      mstore\n      0x20\n      add\n      0x00\n      keccak256\n        /* \"V1/Contracts/sponsorCoin/SPC_Token.sol\":2802:2848  balanceOf[_from] = balanceOf[_from] - (_value) */\n      dup2\n      swap1\n      sstore\n      pop\n        /* \"V1/Contracts/sponsorCoin/SPC_Token.sol\":2893:2899  _value */\n      dup1\n        /* \"V1/Contracts/sponsorCoin/SPC_Token.sol\":2875:2884  balanceOf */\n      0x04\n        /* \"V1/Contracts/sponsorCoin/SPC_Token.sol\":2875:2889  balanceOf[_to] */\n      0x00\n        /* \"V1/Contracts/sponsorCoin/SPC_Token.sol\":2885:2888  _to */\n      dup5\n        /* \"V1/Contracts/sponsorCoin/SPC_Token.sol\":2875:2889  balanceOf[_to] */\n      0xffffffffffffffffffffffffffffffffffffffff\n      and\n      0xffffffffffffffffffffffffffffffffffffffff\n      and\n      dup2\n      mstore\n      0x20\n      add\n      swap1\n      dup2\n      mstore\n      0x20\n      add\n      0x00\n      keccak256\n      sload\n        /* \"V1/Contracts/sponsorCoin/SPC_Token.sol\":2875:2900  balanceOf[_to] + (_value) */\n      tag_98\n      swap2\n      swap1\n      tag_99\n      jump\t// in\n    tag_98:\n        /* \"V1/Contracts/sponsorCoin/SPC_Token.sol\":2858:2867  balanceOf */\n      0x04\n        /* \"V1/Contracts/sponsorCoin/SPC_Token.sol\":2858:2872  balanceOf[_to] */\n      0x00\n        /* \"V1/Contracts/sponsorCoin/SPC_Token.sol\":2868:2871  _to */\n      dup5\n        /* \"V1/Contracts/sponsorCoin/SPC_Token.sol\":2858:2872  balanceOf[_to] */\n      0xffffffffffffffffffffffffffffffffffffffff\n      and\n      0xffffffffffffffffffffffffffffffffffffffff\n      and\n      dup2\n      mstore\n      0x20\n      add\n      swap1\n      dup2\n      mstore\n      0x20\n      add\n      0x00\n      keccak256\n        /* \"V1/Contracts/sponsorCoin/SPC_Token.sol\":2858:2900  balanceOf[_to] = balanceOf[_to] + (_value) */\n      dup2\n      swap1\n      sstore\n      pop\n        /* \"V1/Contracts/sponsorCoin/SPC_Token.sol\":2931:2934  _to */\n      dup2\n        /* \"V1/Contracts/sponsorCoin/SPC_Token.sol\":2915:2943  Transfer(_from, _to, _value) */\n      0xffffffffffffffffffffffffffffffffffffffff\n      and\n        /* \"V1/Contracts/sponsorCoin/SPC_Token.sol\":2924:2929  _from */\n      dup4\n        /* \"V1/Contracts/sponsorCoin/SPC_Token.sol\":2915:2943  Transfer(_from, _to, _value) */\n      0xffffffffffffffffffffffffffffffffffffffff\n      and\n      0xddf252ad1be2c89b69c2b068fc378daa952ba7f163c4a11628f55a4df523b3ef\n        /* \"V1/Contracts/sponsorCoin/SPC_Token.sol\":2936:2942  _value */\n      dup4\n        /* \"V1/Contracts/sponsorCoin/SPC_Token.sol\":2915:2943  Transfer(_from, _to, _value) */\n      mload(0x40)\n      tag_100\n      swap2\n      swap1\n      tag_29\n      jump\t// in\n    tag_100:\n      mload(0x40)\n      dup1\n      swap2\n      sub\n      swap1\n      log3\n        /* \"V1/Contracts/sponsorCoin/SPC_Token.sol\":2601:2950  function _transfer(address _from, address _to, uint256 _value) internal {... */\n      pop\n      pop\n      pop\n      jump\t// out\n        /* \"#utility.yul\":7:106   */\n    tag_101:\n        /* \"#utility.yul\":59:65   */\n      0x00\n        /* \"#utility.yul\":93:98   */\n      dup2\n        /* \"#utility.yul\":87:99   */\n      mload\n        /* \"#utility.yul\":77:99   */\n      swap1\n      pop\n        /* \"#utility.yul\":7:106   */\n      swap2\n      swap1\n      pop\n      jump\t// out\n        /* \"#utility.yul\":112:281   */\n    tag_102:\n        /* \"#utility.yul\":196:207   */\n      0x00\n        /* \"#utility.yul\":230:236   */\n      dup3\n        /* \"#utility.yul\":225:228   */\n      dup3\n        /* \"#utility.yul\":218:237   */\n      mstore\n        /* \"#utility.yul\":270:274   */\n      0x20\n        /* \"#utility.yul\":265:268   */\n      dup3\n        /* \"#utility.yul\":261:275   */\n      add\n        /* \"#utility.yul\":246:275   */\n      swap1\n      pop\n        /* \"#utility.yul\":112:281   */\n      swap3\n      swap2\n      pop\n      pop\n      jump\t// out\n        /* \"#utility.yul\":287:594   */\n    tag_103:\n        /* \"#utility.yul\":355:356   */\n      0x00\n        /* \"#utility.yul\":365:478   */\n    tag_126:\n        /* \"#utility.yul\":379:385   */\n      dup4\n        /* \"#utility.yul\":376:377   */\n      dup2\n        /* \"#utility.yul\":373:386   */\n      lt\n        /* \"#utility.yul\":365:478   */\n      iszero\n      tag_128\n      jumpi\n        /* \"#utility.yul\":464:465   */\n      dup1\n        /* \"#utility.yul\":459:462   */\n      dup3\n        /* \"#utility.yul\":455:466   */\n      add\n        /* \"#utility.yul\":449:467   */\n      mload\n        /* \"#utility.yul\":445:446   */\n      dup2\n        /* \"#utility.yul\":440:443   */\n      dup5\n        /* \"#utility.yul\":436:447   */\n      add\n        /* \"#utility.yul\":429:468   */\n      mstore\n        /* \"#utility.yul\":401:403   */\n      0x20\n        /* \"#utility.yul\":398:399   */\n      dup2\n        /* \"#utility.yul\":394:404   */\n      add\n        /* \"#utility.yul\":389:404   */\n      swap1\n      pop\n        /* \"#utility.yul\":365:478   */\n      jump(tag_126)\n    tag_128:\n        /* \"#utility.yul\":496:502   */\n      dup4\n        /* \"#utility.yul\":493:494   */\n      dup2\n        /* \"#utility.yul\":490:503   */\n      gt\n        /* \"#utility.yul\":487:588   */\n      iszero\n      tag_129\n      jumpi\n        /* \"#utility.yul\":576:577   */\n      0x00\n        /* \"#utility.yul\":567:573   */\n      dup5\n        /* \"#utility.yul\":562:565   */\n      dup5\n        /* \"#utility.yul\":558:574   */\n      add\n        /* \"#utility.yul\":551:578   */\n      mstore\n        /* \"#utility.yul\":487:588   */\n    tag_129:\n        /* \"#utility.yul\":336:594   */\n      pop\n        /* \"#utility.yul\":287:594   */\n      pop\n      pop\n      pop\n      jump\t// out\n        /* \"#utility.yul\":600:702   */\n    tag_104:\n        /* \"#utility.yul\":641:647   */\n      0x00\n        /* \"#utility.yul\":692:694   */\n      0x1f\n        /* \"#utility.yul\":688:695   */\n      not\n        /* \"#utility.yul\":683:685   */\n      0x1f\n        /* \"#utility.yul\":676:681   */\n      dup4\n        /* \"#utility.yul\":672:686   */\n      add\n        /* \"#utility.yul\":668:696   */\n      and\n        /* \"#utility.yul\":658:696   */\n      swap1\n      pop\n        /* \"#utility.yul\":600:702   */\n      swap2\n      swap1\n      pop\n      jump\t// out\n        /* \"#utility.yul\":708:1072   */\n    tag_105:\n        /* \"#utility.yul\":796:799   */\n      0x00\n        /* \"#utility.yul\":824:863   */\n      tag_132\n        /* \"#utility.yul\":857:862   */\n      dup3\n        /* \"#utility.yul\":824:863   */\n      tag_101\n      jump\t// in\n    tag_132:\n        /* \"#utility.yul\":879:950   */\n      tag_133\n        /* \"#utility.yul\":943:949   */\n      dup2\n        /* \"#utility.yul\":938:941   */\n      dup6\n        /* \"#utility.yul\":879:950   */\n      tag_102\n      jump\t// in\n    tag_133:\n        /* \"#utility.yul\":872:950   */\n      swap4\n      pop\n        /* \"#utility.yul\":959:1011   */\n      tag_134\n        /* \"#utility.yul\":1004:1010   */\n      dup2\n        /* \"#utility.yul\":999:1002   */\n      dup6\n        /* \"#utility.yul\":992:996   */\n      0x20\n        /* \"#utility.yul\":985:990   */\n      dup7\n        /* \"#utility.yul\":981:997   */\n      add\n        /* \"#utility.yul\":959:1011   */\n      tag_103\n      jump\t// in\n    tag_134:\n        /* \"#utility.yul\":1036:1065   */\n      tag_135\n        /* \"#utility.yul\":1058:1064   */\n      dup2\n        /* \"#utility.yul\":1036:1065   */\n      tag_104\n      jump\t// in\n    tag_135:\n        /* \"#utility.yul\":1031:1034   */\n      dup5\n        /* \"#utility.yul\":1027:1066   */\n      add\n        /* \"#utility.yul\":1020:1066   */\n      swap2\n      pop\n        /* \"#utility.yul\":800:1072   */\n      pop\n        /* \"#utility.yul\":708:1072   */\n      swap3\n      swap2\n      pop\n      pop\n      jump\t// out\n        /* \"#utility.yul\":1078:1391   */\n    tag_19:\n        /* \"#utility.yul\":1191:1195   */\n      0x00\n        /* \"#utility.yul\":1229:1231   */\n      0x20\n        /* \"#utility.yul\":1218:1227   */\n      dup3\n        /* \"#utility.yul\":1214:1232   */\n      add\n        /* \"#utility.yul\":1206:1232   */\n      swap1\n      pop\n        /* \"#utility.yul\":1278:1287   */\n      dup2\n        /* \"#utility.yul\":1272:1276   */\n      dup2\n        /* \"#utility.yul\":1268:1288   */\n      sub\n        /* \"#utility.yul\":1264:1265   */\n      0x00\n        /* \"#utility.yul\":1253:1262   */\n      dup4\n        /* \"#utility.yul\":1249:1266   */\n      add\n        /* \"#utility.yul\":1242:1289   */\n      mstore\n        /* \"#utility.yul\":1306:1384   */\n      tag_137\n        /* \"#utility.yul\":1379:1383   */\n      dup2\n        /* \"#utility.yul\":1370:1376   */\n      dup5\n        /* \"#utility.yul\":1306:1384   */\n      tag_105\n      jump\t// in\n    tag_137:\n        /* \"#utility.yul\":1298:1384   */\n      swap1\n      pop\n        /* \"#utility.yul\":1078:1391   */\n      swap3\n      swap2\n      pop\n      pop\n      jump\t// out\n        /* \"#utility.yul\":1478:1595   */\n    tag_107:\n        /* \"#utility.yul\":1587:1588   */\n      0x00\n        /* \"#utility.yul\":1584:1585   */\n      dup1\n        /* \"#utility.yul\":1577:1589   */\n      revert\n        /* \"#utility.yul\":1724:1850   */\n    tag_109:\n        /* \"#utility.yul\":1761:1768   */\n      0x00\n        /* \"#utility.yul\":1801:1843   */\n      0xffffffffffffffffffffffffffffffffffffffff\n        /* \"#utility.yul\":1794:1799   */\n      dup3\n        /* \"#utility.yul\":1790:1844   */\n      and\n        /* \"#utility.yul\":1779:1844   */\n      swap1\n      pop\n        /* \"#utility.yul\":1724:1850   */\n      swap2\n      swap1\n      pop\n      jump\t// out\n        /* \"#utility.yul\":1856:1952   */\n    tag_110:\n        /* \"#utility.yul\":1893:1900   */\n      0x00\n        /* \"#utility.yul\":1922:1946   */\n      tag_143\n        /* \"#utility.yul\":1940:1945   */\n      dup3\n        /* \"#utility.yul\":1922:1946   */\n      tag_109\n      jump\t// in\n    tag_143:\n        /* \"#utility.yul\":1911:1946   */\n      swap1\n      pop\n        /* \"#utility.yul\":1856:1952   */\n      swap2\n      swap1\n      pop\n      jump\t// out\n        /* \"#utility.yul\":1958:2080   */\n    tag_111:\n        /* \"#utility.yul\":2031:2055   */\n      tag_145\n        /* \"#utility.yul\":2049:2054   */\n      dup2\n        /* \"#utility.yul\":2031:2055   */\n      tag_110\n      jump\t// in\n    tag_145:\n        /* \"#utility.yul\":2024:2029   */\n      dup2\n        /* \"#utility.yul\":2021:2056   */\n      eq\n        /* \"#utility.yul\":2011:2074   */\n      tag_146\n      jumpi\n        /* \"#utility.yul\":2070:2071   */\n      0x00\n        /* \"#utility.yul\":2067:2068   */\n      dup1\n        /* \"#utility.yul\":2060:2072   */\n      revert\n        /* \"#utility.yul\":2011:2074   */\n    tag_146:\n        /* \"#utility.yul\":1958:2080   */\n      pop\n      jump\t// out\n        /* \"#utility.yul\":2086:2225   */\n    tag_112:\n        /* \"#utility.yul\":2132:2137   */\n      0x00\n        /* \"#utility.yul\":2170:2176   */\n      dup2\n        /* \"#utility.yul\":2157:2177   */\n      calldataload\n        /* \"#utility.yul\":2148:2177   */\n      swap1\n      pop\n        /* \"#utility.yul\":2186:2219   */\n      tag_148\n        /* \"#utility.yul\":2213:2218   */\n      dup2\n        /* \"#utility.yul\":2186:2219   */\n      tag_111\n      jump\t// in\n    tag_148:\n        /* \"#utility.yul\":2086:2225   */\n      swap3\n      swap2\n      pop\n      pop\n      jump\t// out\n        /* \"#utility.yul\":2231:2308   */\n    tag_113:\n        /* \"#utility.yul\":2268:2275   */\n      0x00\n        /* \"#utility.yul\":2297:2302   */\n      dup2\n        /* \"#utility.yul\":2286:2302   */\n      swap1\n      pop\n        /* \"#utility.yul\":2231:2308   */\n      swap2\n      swap1\n      pop\n      jump\t// out\n        /* \"#utility.yul\":2314:2436   */\n    tag_114:\n        /* \"#utility.yul\":2387:2411   */\n      tag_151\n        /* \"#utility.yul\":2405:2410   */\n      dup2\n        /* \"#utility.yul\":2387:2411   */\n      tag_113\n      jump\t// in\n    tag_151:\n        /* \"#utility.yul\":2380:2385   */\n      dup2\n        /* \"#utility.yul\":2377:2412   */\n      eq\n        /* \"#utility.yul\":2367:2430   */\n      tag_152\n      jumpi\n        /* \"#utility.yul\":2426:2427   */\n      0x00\n        /* \"#utility.yul\":2423:2424   */\n      dup1\n        /* \"#utility.yul\":2416:2428   */\n      revert\n        /* \"#utility.yul\":2367:2430   */\n    tag_152:\n        /* \"#utility.yul\":2314:2436   */\n      pop\n      jump\t// out\n        /* \"#utility.yul\":2442:2581   */\n    tag_115:\n        /* \"#utility.yul\":2488:2493   */\n      0x00\n        /* \"#utility.yul\":2526:2532   */\n      dup2\n        /* \"#utility.yul\":2513:2533   */\n      calldataload\n        /* \"#utility.yul\":2504:2533   */\n      swap1\n      pop\n        /* \"#utility.yul\":2542:2575   */\n      tag_154\n        /* \"#utility.yul\":2569:2574   */\n      dup2\n        /* \"#utility.yul\":2542:2575   */\n      tag_114\n      jump\t// in\n    tag_154:\n        /* \"#utility.yul\":2442:2581   */\n      swap3\n      swap2\n      pop\n      pop\n      jump\t// out\n        /* \"#utility.yul\":2587:3061   */\n    tag_22:\n        /* \"#utility.yul\":2655:2661   */\n      0x00\n        /* \"#utility.yul\":2663:2669   */\n      dup1\n        /* \"#utility.yul\":2712:2714   */\n      0x40\n        /* \"#utility.yul\":2700:2709   */\n      dup4\n        /* \"#utility.yul\":2691:2698   */\n      dup6\n        /* \"#utility.yul\":2687:2710   */\n      sub\n        /* \"#utility.yul\":2683:2715   */\n      slt\n        /* \"#utility.yul\":2680:2799   */\n      iszero\n      tag_156\n      jumpi\n        /* \"#utility.yul\":2718:2797   */\n      tag_157\n      tag_107\n      jump\t// in\n    tag_157:\n        /* \"#utility.yul\":2680:2799   */\n    tag_156:\n        /* \"#utility.yul\":2838:2839   */\n      0x00\n        /* \"#utility.yul\":2863:2916   */\n      tag_158\n        /* \"#utility.yul\":2908:2915   */\n      dup6\n        /* \"#utility.yul\":2899:2905   */\n      dup3\n        /* \"#utility.yul\":2888:2897   */\n      dup7\n        /* \"#utility.yul\":2884:2906   */\n      add\n        /* \"#utility.yul\":2863:2916   */\n      tag_112\n      jump\t// in\n    tag_158:\n        /* \"#utility.yul\":2853:2916   */\n      swap3\n      pop\n        /* \"#utility.yul\":2809:2926   */\n      pop\n        /* \"#utility.yul\":2965:2967   */\n      0x20\n        /* \"#utility.yul\":2991:3044   */\n      tag_159\n        /* \"#utility.yul\":3036:3043   */\n      dup6\n        /* \"#utility.yul\":3027:3033   */\n      dup3\n        /* \"#utility.yul\":3016:3025   */\n      dup7\n        /* \"#utility.yul\":3012:3034   */\n      add\n        /* \"#utility.yul\":2991:3044   */\n      tag_115\n      jump\t// in\n    tag_159:\n        /* \"#utility.yul\":2981:3044   */\n      swap2\n      pop\n        /* \"#utility.yul\":2936:3054   */\n      pop\n        /* \"#utility.yul\":2587:3061   */\n      swap3\n      pop\n      swap3\n      swap1\n      pop\n      jump\t// out\n        /* \"#utility.yul\":3067:3157   */\n    tag_116:\n        /* \"#utility.yul\":3101:3108   */\n      0x00\n        /* \"#utility.yul\":3144:3149   */\n      dup2\n        /* \"#utility.yul\":3137:3150   */\n      iszero\n        /* \"#utility.yul\":3130:3151   */\n      iszero\n        /* \"#utility.yul\":3119:3151   */\n      swap1\n      pop\n        /* \"#utility.yul\":3067:3157   */\n      swap2\n      swap1\n      pop\n      jump\t// out\n        /* \"#utility.yul\":3163:3272   */\n    tag_117:\n        /* \"#utility.yul\":3244:3265   */\n      tag_162\n        /* \"#utility.yul\":3259:3264   */\n      dup2\n        /* \"#utility.yul\":3244:3265   */\n      tag_116\n      jump\t// in\n    tag_162:\n        /* \"#utility.yul\":3239:3242   */\n      dup3\n        /* \"#utility.yul\":3232:3266   */\n      mstore\n        /* \"#utility.yul\":3163:3272   */\n      pop\n      pop\n      jump\t// out\n        /* \"#utility.yul\":3278:3488   */\n    tag_25:\n        /* \"#utility.yul\":3365:3369   */\n      0x00\n        /* \"#utility.yul\":3403:3405   */\n      0x20\n        /* \"#utility.yul\":3392:3401   */\n      dup3\n        /* \"#utility.yul\":3388:3406   */\n      add\n        /* \"#utility.yul\":3380:3406   */\n      swap1\n      pop\n        /* \"#utility.yul\":3416:3481   */\n      tag_164\n        /* \"#utility.yul\":3478:3479   */\n      0x00\n        /* \"#utility.yul\":3467:3476   */\n      dup4\n        /* \"#utility.yul\":3463:3480   */\n      add\n        /* \"#utility.yul\":3454:3460   */\n      dup5\n        /* \"#utility.yul\":3416:3481   */\n      tag_117\n      jump\t// in\n    tag_164:\n        /* \"#utility.yul\":3278:3488   */\n      swap3\n      swap2\n      pop\n      pop\n      jump\t// out\n        /* \"#utility.yul\":3494:3612   */\n    tag_118:\n        /* \"#utility.yul\":3581:3605   */\n      tag_166\n        /* \"#utility.yul\":3599:3604   */\n      dup2\n        /* \"#utility.yul\":3581:3605   */\n      tag_113\n      jump\t// in\n    tag_166:\n        /* \"#utility.yul\":3576:3579   */\n      dup3\n        /* \"#utility.yul\":3569:3606   */\n      mstore\n        /* \"#utility.yul\":3494:3612   */\n      pop\n      pop\n      jump\t// out\n        /* \"#utility.yul\":3618:3840   */\n    tag_29:\n        /* \"#utility.yul\":3711:3715   */\n      0x00\n        /* \"#utility.yul\":3749:3751   */\n      0x20\n        /* \"#utility.yul\":3738:3747   */\n      dup3\n        /* \"#utility.yul\":3734:3752   */\n      add\n        /* \"#utility.yul\":3726:3752   */\n      swap1\n      pop\n        /* \"#utility.yul\":3762:3833   */\n      tag_168\n        /* \"#utility.yul\":3830:3831   */\n      0x00\n        /* \"#utility.yul\":3819:3828   */\n      dup4\n        /* \"#utility.yul\":3815:3832   */\n      add\n        /* \"#utility.yul\":3806:3812   */\n      dup5\n        /* \"#utility.yul\":3762:3833   */\n      tag_118\n      jump\t// in\n    tag_168:\n        /* \"#utility.yul\":3618:3840   */\n      swap3\n      swap2\n      pop\n      pop\n      jump\t// out\n        /* \"#utility.yul\":3846:4175   */\n    tag_32:\n        /* \"#utility.yul\":3905:3911   */\n      0x00\n        /* \"#utility.yul\":3954:3956   */\n      0x20\n        /* \"#utility.yul\":3942:3951   */\n      dup3\n        /* \"#utility.yul\":3933:3940   */\n      dup5\n        /* \"#utility.yul\":3929:3952   */\n      sub\n        /* \"#utility.yul\":3925:3957   */\n      slt\n        /* \"#utility.yul\":3922:4041   */\n      iszero\n      tag_170\n      jumpi\n        /* \"#utility.yul\":3960:4039   */\n      tag_171\n      tag_107\n      jump\t// in\n    tag_171:\n        /* \"#utility.yul\":3922:4041   */\n    tag_170:\n        /* \"#utility.yul\":4080:4081   */\n      0x00\n        /* \"#utility.yul\":4105:4158   */\n      tag_172\n        /* \"#utility.yul\":4150:4157   */\n      dup5\n        /* \"#utility.yul\":4141:4147   */\n      dup3\n        /* \"#utility.yul\":4130:4139   */\n      dup6\n        /* \"#utility.yul\":4126:4148   */\n      add\n        /* \"#utility.yul\":4105:4158   */\n      tag_115\n      jump\t// in\n    tag_172:\n        /* \"#utility.yul\":4095:4158   */\n      swap2\n      pop\n        /* \"#utility.yul\":4051:4168   */\n      pop\n        /* \"#utility.yul\":3846:4175   */\n      swap3\n      swap2\n      pop\n      pop\n      jump\t// out\n        /* \"#utility.yul\":4181:4299   */\n    tag_119:\n        /* \"#utility.yul\":4268:4292   */\n      tag_174\n        /* \"#utility.yul\":4286:4291   */\n      dup2\n        /* \"#utility.yul\":4268:4292   */\n      tag_110\n      jump\t// in\n    tag_174:\n        /* \"#utility.yul\":4263:4266   */\n      dup3\n        /* \"#utility.yul\":4256:4293   */\n      mstore\n        /* \"#utility.yul\":4181:4299   */\n      pop\n      pop\n      jump\t// out\n        /* \"#utility.yul\":4305:4527   */\n    tag_35:\n        /* \"#utility.yul\":4398:4402   */\n      0x00\n        /* \"#utility.yul\":4436:4438   */\n      0x20\n        /* \"#utility.yul\":4425:4434   */\n      dup3\n        /* \"#utility.yul\":4421:4439   */\n      add\n        /* \"#utility.yul\":4413:4439   */\n      swap1\n      pop\n        /* \"#utility.yul\":4449:4520   */\n      tag_176\n        /* \"#utility.yul\":4517:4518   */\n      0x00\n        /* \"#utility.yul\":4506:4515   */\n      dup4\n        /* \"#utility.yul\":4502:4519   */\n      add\n        /* \"#utility.yul\":4493:4499   */\n      dup5\n        /* \"#utility.yul\":4449:4520   */\n      tag_119\n      jump\t// in\n    tag_176:\n        /* \"#utility.yul\":4305:4527   */\n      swap3\n      swap2\n      pop\n      pop\n      jump\t// out\n        /* \"#utility.yul\":4533:5152   */\n    tag_38:\n        /* \"#utility.yul\":4610:4616   */\n      0x00\n        /* \"#utility.yul\":4618:4624   */\n      dup1\n        /* \"#utility.yul\":4626:4632   */\n      0x00\n        /* \"#utility.yul\":4675:4677   */\n      0x60\n        /* \"#utility.yul\":4663:4672   */\n      dup5\n        /* \"#utility.yul\":4654:4661   */\n      dup7\n        /* \"#utility.yul\":4650:4673   */\n      sub\n        /* \"#utility.yul\":4646:4678   */\n      slt\n        /* \"#utility.yul\":4643:4762   */\n      iszero\n      tag_178\n      jumpi\n        /* \"#utility.yul\":4681:4760   */\n      tag_179\n      tag_107\n      jump\t// in\n    tag_179:\n        /* \"#utility.yul\":4643:4762   */\n    tag_178:\n        /* \"#utility.yul\":4801:4802   */\n      0x00\n        /* \"#utility.yul\":4826:4879   */\n      tag_180\n        /* \"#utility.yul\":4871:4878   */\n      dup7\n        /* \"#utility.yul\":4862:4868   */\n      dup3\n        /* \"#utility.yul\":4851:4860   */\n      dup8\n        /* \"#utility.yul\":4847:4869   */\n      add\n        /* \"#utility.yul\":4826:4879   */\n      tag_112\n      jump\t// in\n    tag_180:\n        /* \"#utility.yul\":4816:4879   */\n      swap4\n      pop\n        /* \"#utility.yul\":4772:4889   */\n      pop\n        /* \"#utility.yul\":4928:4930   */\n      0x20\n        /* \"#utility.yul\":4954:5007   */\n      tag_181\n        /* \"#utility.yul\":4999:5006   */\n      dup7\n        /* \"#utility.yul\":4990:4996   */\n      dup3\n        /* \"#utility.yul\":4979:4988   */\n      dup8\n        /* \"#utility.yul\":4975:4997   */\n      add\n        /* \"#utility.yul\":4954:5007   */\n      tag_112\n      jump\t// in\n    tag_181:\n        /* \"#utility.yul\":4944:5007   */\n      swap3\n      pop\n        /* \"#utility.yul\":4899:5017   */\n      pop\n        /* \"#utility.yul\":5056:5058   */\n      0x40\n        /* \"#utility.yul\":5082:5135   */\n      tag_182\n        /* \"#utility.yul\":5127:5134   */\n      dup7\n        /* \"#utility.yul\":5118:5124   */\n      dup3\n        /* \"#utility.yul\":5107:5116   */\n      dup8\n        /* \"#utility.yul\":5103:5125   */\n      add\n        /* \"#utility.yul\":5082:5135   */\n      tag_115\n      jump\t// in\n    tag_182:\n        /* \"#utility.yul\":5072:5135   */\n      swap2\n      pop\n        /* \"#utility.yul\":5027:5145   */\n      pop\n        /* \"#utility.yul\":4533:5152   */\n      swap3\n      pop\n      swap3\n      pop\n      swap3\n      jump\t// out\n        /* \"#utility.yul\":5158:5487   */\n    tag_46:\n        /* \"#utility.yul\":5217:5223   */\n      0x00\n        /* \"#utility.yul\":5266:5268   */\n      0x20\n        /* \"#utility.yul\":5254:5263   */\n      dup3\n        /* \"#utility.yul\":5245:5252   */\n      dup5\n        /* \"#utility.yul\":5241:5264   */\n      sub\n        /* \"#utility.yul\":5237:5269   */\n      slt\n        /* \"#utility.yul\":5234:5353   */\n      iszero\n      tag_184\n      jumpi\n        /* \"#utility.yul\":5272:5351   */\n      tag_185\n      tag_107\n      jump\t// in\n    tag_185:\n        /* \"#utility.yul\":5234:5353   */\n    tag_184:\n        /* \"#utility.yul\":5392:5393   */\n      0x00\n        /* \"#utility.yul\":5417:5470   */\n      tag_186\n        /* \"#utility.yul\":5462:5469   */\n      dup5\n        /* \"#utility.yul\":5453:5459   */\n      dup3\n        /* \"#utility.yul\":5442:5451   */\n      dup6\n        /* \"#utility.yul\":5438:5460   */\n      add\n        /* \"#utility.yul\":5417:5470   */\n      tag_112\n      jump\t// in\n    tag_186:\n        /* \"#utility.yul\":5407:5470   */\n      swap2\n      pop\n        /* \"#utility.yul\":5363:5480   */\n      pop\n        /* \"#utility.yul\":5158:5487   */\n      swap3\n      swap2\n      pop\n      pop\n      jump\t// out\n        /* \"#utility.yul\":5493:5967   */\n    tag_62:\n        /* \"#utility.yul\":5561:5567   */\n      0x00\n        /* \"#utility.yul\":5569:5575   */\n      dup1\n        /* \"#utility.yul\":5618:5620   */\n      0x40\n        /* \"#utility.yul\":5606:5615   */\n      dup4\n        /* \"#utility.yul\":5597:5604   */\n      dup6\n        /* \"#utility.yul\":5593:5616   */\n      sub\n        /* \"#utility.yul\":5589:5621   */\n      slt\n        /* \"#utility.yul\":5586:5705   */\n      iszero\n      tag_188\n      jumpi\n        /* \"#utility.yul\":5624:5703   */\n      tag_189\n      tag_107\n      jump\t// in\n    tag_189:\n        /* \"#utility.yul\":5586:5705   */\n    tag_188:\n        /* \"#utility.yul\":5744:5745   */\n      0x00\n        /* \"#utility.yul\":5769:5822   */\n      tag_190\n        /* \"#utility.yul\":5814:5821   */\n      dup6\n        /* \"#utility.yul\":5805:5811   */\n      dup3\n        /* \"#utility.yul\":5794:5803   */\n      dup7\n        /* \"#utility.yul\":5790:5812   */\n      add\n        /* \"#utility.yul\":5769:5822   */\n      tag_112\n      jump\t// in\n    tag_190:\n        /* \"#utility.yul\":5759:5822   */\n      swap3\n      pop\n        /* \"#utility.yul\":5715:5832   */\n      pop\n        /* \"#utility.yul\":5871:5873   */\n      0x20\n        /* \"#utility.yul\":5897:5950   */\n      tag_191\n        /* \"#utility.yul\":5942:5949   */\n      dup6\n        /* \"#utility.yul\":5933:5939   */\n      dup3\n        /* \"#utility.yul\":5922:5931   */\n      dup7\n        /* \"#utility.yul\":5918:5940   */\n      add\n        /* \"#utility.yul\":5897:5950   */\n      tag_112\n      jump\t// in\n    tag_191:\n        /* \"#utility.yul\":5887:5950   */\n      swap2\n      pop\n        /* \"#utility.yul\":5842:5960   */\n      pop\n        /* \"#utility.yul\":5493:5967   */\n      swap3\n      pop\n      swap3\n      swap1\n      pop\n      jump\t// out\n        /* \"#utility.yul\":5973:6153   */\n    tag_120:\n        /* \"#utility.yul\":6021:6098   */\n      0x4e487b7100000000000000000000000000000000000000000000000000000000\n        /* \"#utility.yul\":6018:6019   */\n      0x00\n        /* \"#utility.yul\":6011:6099   */\n      mstore\n        /* \"#utility.yul\":6118:6122   */\n      0x22\n        /* \"#utility.yul\":6115:6116   */\n      0x04\n        /* \"#utility.yul\":6108:6123   */\n      mstore\n        /* \"#utility.yul\":6142:6146   */\n      0x24\n        /* \"#utility.yul\":6139:6140   */\n      0x00\n        /* \"#utility.yul\":6132:6147   */\n      revert\n        /* \"#utility.yul\":6159:6479   */\n    tag_70:\n        /* \"#utility.yul\":6203:6209   */\n      0x00\n        /* \"#utility.yul\":6240:6241   */\n      0x02\n        /* \"#utility.yul\":6234:6238   */\n      dup3\n        /* \"#utility.yul\":6230:6242   */\n      div\n        /* \"#utility.yul\":6220:6242   */\n      swap1\n      pop\n        /* \"#utility.yul\":6287:6288   */\n      0x01\n        /* \"#utility.yul\":6281:6285   */\n      dup3\n        /* \"#utility.yul\":6277:6289   */\n      and\n        /* \"#utility.yul\":6308:6326   */\n      dup1\n        /* \"#utility.yul\":6298:6379   */\n      tag_194\n      jumpi\n        /* \"#utility.yul\":6364:6368   */\n      0x7f\n        /* \"#utility.yul\":6356:6362   */\n      dup3\n        /* \"#utility.yul\":6352:6369   */\n      and\n        /* \"#utility.yul\":6342:6369   */\n      swap2\n      pop\n        /* \"#utility.yul\":6298:6379   */\n    tag_194:\n        /* \"#utility.yul\":6426:6428   */\n      0x20\n        /* \"#utility.yul\":6418:6424   */\n      dup3\n        /* \"#utility.yul\":6415:6429   */\n      lt\n        /* \"#utility.yul\":6395:6413   */\n      dup2\n        /* \"#utility.yul\":6392:6430   */\n      sub\n        /* \"#utility.yul\":6389:6473   */\n      tag_195\n      jumpi\n        /* \"#utility.yul\":6445:6463   */\n      tag_196\n      tag_120\n      jump\t// in\n    tag_196:\n        /* \"#utility.yul\":6389:6473   */\n    tag_195:\n        /* \"#utility.yul\":6210:6479   */\n      pop\n        /* \"#utility.yul\":6159:6479   */\n      swap2\n      swap1\n      pop\n      jump\t// out\n        /* \"#utility.yul\":6485:6665   */\n    tag_121:\n        /* \"#utility.yul\":6533:6610   */\n      0x4e487b7100000000000000000000000000000000000000000000000000000000\n        /* \"#utility.yul\":6530:6531   */\n      0x00\n        /* \"#utility.yul\":6523:6611   */\n      mstore\n        /* \"#utility.yul\":6630:6634   */\n      0x11\n        /* \"#utility.yul\":6627:6628   */\n      0x04\n        /* \"#utility.yul\":6620:6635   */\n      mstore\n        /* \"#utility.yul\":6654:6658   */\n      0x24\n        /* \"#utility.yul\":6651:6652   */\n      0x00\n        /* \"#utility.yul\":6644:6659   */\n      revert\n        /* \"#utility.yul\":6671:6862   */\n    tag_84:\n        /* \"#utility.yul\":6711:6715   */\n      0x00\n        /* \"#utility.yul\":6731:6751   */\n      tag_199\n        /* \"#utility.yul\":6749:6750   */\n      dup3\n        /* \"#utility.yul\":6731:6751   */\n      tag_113\n      jump\t// in\n    tag_199:\n        /* \"#utility.yul\":6726:6751   */\n      swap2\n      pop\n        /* \"#utility.yul\":6765:6785   */\n      tag_200\n        /* \"#utility.yul\":6783:6784   */\n      dup4\n        /* \"#utility.yul\":6765:6785   */\n      tag_113\n      jump\t// in\n    tag_200:\n        /* \"#utility.yul\":6760:6785   */\n      swap3\n      pop\n        /* \"#utility.yul\":6804:6805   */\n      dup3\n        /* \"#utility.yul\":6801:6802   */\n      dup3\n        /* \"#utility.yul\":6798:6806   */\n      lt\n        /* \"#utility.yul\":6795:6829   */\n      iszero\n      tag_201\n      jumpi\n        /* \"#utility.yul\":6809:6827   */\n      tag_202\n      tag_121\n      jump\t// in\n    tag_202:\n        /* \"#utility.yul\":6795:6829   */\n    tag_201:\n        /* \"#utility.yul\":6854:6855   */\n      dup3\n        /* \"#utility.yul\":6851:6852   */\n      dup3\n        /* \"#utility.yul\":6847:6856   */\n      sub\n        /* \"#utility.yul\":6839:6856   */\n      swap1\n      pop\n        /* \"#utility.yul\":6671:6862   */\n      swap3\n      swap2\n      pop\n      pop\n      jump\t// out\n        /* \"#utility.yul\":6868:7173   */\n    tag_99:\n        /* \"#utility.yul\":6908:6911   */\n      0x00\n        /* \"#utility.yul\":6927:6947   */\n      tag_204\n        /* \"#utility.yul\":6945:6946   */\n      dup3\n        /* \"#utility.yul\":6927:6947   */\n      tag_113\n      jump\t// in\n    tag_204:\n        /* \"#utility.yul\":6922:6947   */\n      swap2\n      pop\n        /* \"#utility.yul\":6961:6981   */\n      tag_205\n        /* \"#utility.yul\":6979:6980   */\n      dup4\n        /* \"#utility.yul\":6961:6981   */\n      tag_113\n      jump\t// in\n    tag_205:\n        /* \"#utility.yul\":6956:6981   */\n      swap3\n      pop\n        /* \"#utility.yul\":7115:7116   */\n      dup3\n        /* \"#utility.yul\":7047:7113   */\n      0xffffffffffffffffffffffffffffffffffffffffffffffffffffffffffffffff\n        /* \"#utility.yul\":7043:7117   */\n      sub\n        /* \"#utility.yul\":7040:7041   */\n      dup3\n        /* \"#utility.yul\":7037:7118   */\n      gt\n        /* \"#utility.yul\":7034:7141   */\n      iszero\n      tag_206\n      jumpi\n        /* \"#utility.yul\":7121:7139   */\n      tag_207\n      tag_121\n      jump\t// in\n    tag_207:\n        /* \"#utility.yul\":7034:7141   */\n    tag_206:\n        /* \"#utility.yul\":7165:7166   */\n      dup3\n        /* \"#utility.yul\":7162:7163   */\n      dup3\n        /* \"#utility.yul\":7158:7167   */\n      add\n        /* \"#utility.yul\":7151:7167   */\n      swap1\n      pop\n        /* \"#utility.yul\":6868:7173   */\n      swap3\n      swap2\n      pop\n      pop\n      jump\t// out\n\n    auxdata: 0xa2646970667358221220a47711621084775f7088250009848a64b9527c8d4d13e1dc75c04cca5f6c0f3764736f6c634300080d0033\n}\n",
				"bytecode": {
					"linkReferences": {},
					"object": "60806040523480156200001157600080fd5b506040518060400160405280600b81526020017f73706f6e736f72436f696e000000000000000000000000000000000000000000815250600090805190602001906200005f92919062000237565b506040518060400160405280600781526020017f53505f436f696e0000000000000000000000000000000000000000000000000081525060019080519060200190620000ad92919062000237565b50601260028190555069d3c21bcecceda1000000600381905550620000db33600354620000e160201b60201c565b6200034b565b80600460008473ffffffffffffffffffffffffffffffffffffffff1673ffffffffffffffffffffffffffffffffffffffff16815260200190815260200160002081905550600860008373ffffffffffffffffffffffffffffffffffffffff1673ffffffffffffffffffffffffffffffffffffffff16815260200190815260200160002060009054906101000a900460ff1662000233576001600860008473ffffffffffffffffffffffffffffffffffffffff1673ffffffffffffffffffffffffffffffffffffffff16815260200190815260200160002060006101000a81548160ff0219169083151502179055506006829080600181540180825580915050600190039060005260206000200160009091909190916101000a81548173ffffffffffffffffffffffffffffffffffffffff021916908373ffffffffffffffffffffffffffffffffffffffff1602179055505b5050565b828054620002459062000316565b90600052602060002090601f016020900481019282620002695760008555620002b5565b82601f106200028457805160ff1916838001178555620002b5565b82800160010185558215620002b5579182015b82811115620002b457825182559160200191906001019062000297565b5b509050620002c49190620002c8565b5090565b5b80821115620002e3576000816000905550600101620002c9565b5090565b7f4e487b7100000000000000000000000000000000000000000000000000000000600052602260045260246000fd5b600060028204905060018216806200032f57607f821691505b602082108103620003455762000344620002e7565b5b50919050565b610e28806200035b6000396000f3fe608060405234801561001057600080fd5b50600436106100b45760003560e01c806370a082311161007157806370a08231146101a35780637cd380f1146101d357806395d89b4114610203578063a9059cbb14610221578063dd62ed3e14610251578063fd6aad2514610281576100b4565b806306fdde03146100b9578063095ea7b3146100d757806318160ddd146101075780631e2eb0881461012557806323b872dd14610155578063313ce56714610185575b600080fd5b6100c16102b1565b6040516100ce9190610a67565b60405180910390f35b6100f160048036038101906100ec9190610b22565b61033f565b6040516100fe9190610b7d565b60405180910390f35b61010f610469565b60405161011c9190610ba7565b60405180910390f35b61013f600480360381019061013a9190610bc2565b61046f565b60405161014c9190610bfe565b60405180910390f35b61016f600480360381019061016a9190610c19565b6104ae565b60405161017c9190610b7d565b60405180910390f35b61018d6106a3565b60405161019a9190610ba7565b60405180910390f35b6101bd60048036038101906101b89190610c6c565b6106a9565b6040516101ca9190610ba7565b60405180910390f35b6101ed60048036038101906101e89190610c6c565b6106c1565b6040516101fa9190610b7d565b60405180910390f35b61020b6106e1565b6040516102189190610a67565b60405180910390f35b61023b60048036038101906102369190610b22565b61076f565b6040516102489190610b7d565b60405180910390f35b61026b60048036038101906102669190610c99565b6107d2565b6040516102789190610ba7565b60405180910390f35b61029b60048036038101906102969190610c6c565b6107f7565b6040516102a89190610ba7565b60405180910390f35b600080546102be90610d08565b80601f01602080910402602001604051908101604052809291908181526020018280546102ea90610d08565b80156103375780601f1061030c57610100808354040283529160200191610337565b820191906000526020600020905b81548152906001019060200180831161031a57829003601f168201915b505050505081565b60008073ffffffffffffffffffffffffffffffffffffffff168373ffffffffffffffffffffffffffffffffffffffff160361037957600080fd5b81600560003373ffffffffffffffffffffffffffffffffffffffff1673ffffffffffffffffffffffffffffffffffffffff16815260200190815260200160002060008573ffffffffffffffffffffffffffffffffffffffff1673ffffffffffffffffffffffffffffffffffffffff168152602001908152602001600020819055508273ffffffffffffffffffffffffffffffffffffffff163373ffffffffffffffffffffffffffffffffffffffff167f8c5be1e5ebec7d5bd14f71427d1e84f3dd0314c0f7b2291e5b200ac8c7c3b925846040516104579190610ba7565b60405180910390a36001905092915050565b60035481565b6006818154811061047f57600080fd5b906000526020600020016000915054906101000a900473ffffffffffffffffffffffffffffffffffffffff1681565b6000600460008573ffffffffffffffffffffffffffffffffffffffff1673ffffffffffffffffffffffffffffffffffffffff168152602001908152602001600020548211156104fc57600080fd5b600560008573ffffffffffffffffffffffffffffffffffffffff1673ffffffffffffffffffffffffffffffffffffffff16815260200190815260200160002060003373ffffffffffffffffffffffffffffffffffffffff1673ffffffffffffffffffffffffffffffffffffffff1681526020019081526020016000205482111561058557600080fd5b81600560008673ffffffffffffffffffffffffffffffffffffffff1673ffffffffffffffffffffffffffffffffffffffff16815260200190815260200160002060003373ffffffffffffffffffffffffffffffffffffffff1673ffffffffffffffffffffffffffffffffffffffff1681526020019081526020016000205461060d9190610d68565b600560008673ffffffffffffffffffffffffffffffffffffffff1673ffffffffffffffffffffffffffffffffffffffff16815260200190815260200160002060003373ffffffffffffffffffffffffffffffffffffffff1673ffffffffffffffffffffffffffffffffffffffff1681526020019081526020016000208190555061069884848461080f565b600190509392505050565b60025481565b60046020528060005260406000206000915090505481565b60086020528060005260406000206000915054906101000a900460ff1681565b600180546106ee90610d08565b80601f016020809104026020016040519081016040528092919081815260200182805461071a90610d08565b80156107675780601f1061073c57610100808354040283529160200191610767565b820191906000526020600020905b81548152906001019060200180831161074a57829003601f168201915b505050505081565b600081600460003373ffffffffffffffffffffffffffffffffffffffff1673ffffffffffffffffffffffffffffffffffffffff1681526020019081526020016000205410156107bd57600080fd5b6107c833848461080f565b6001905092915050565b6005602052816000526040600020602052806000526040600020600091509150505481565b60076020528060005260406000206000915090505481565b600073ffffffffffffffffffffffffffffffffffffffff168273ffffffffffffffffffffffffffffffffffffffff160361084857600080fd5b80600460008573ffffffffffffffffffffffffffffffffffffffff1673ffffffffffffffffffffffffffffffffffffffff168152602001908152602001600020546108939190610d68565b600460008573ffffffffffffffffffffffffffffffffffffffff1673ffffffffffffffffffffffffffffffffffffffff1681526020019081526020016000208190555080600460008473ffffffffffffffffffffffffffffffffffffffff1673ffffffffffffffffffffffffffffffffffffffff168152602001908152602001600020546109219190610d9c565b600460008473ffffffffffffffffffffffffffffffffffffffff1673ffffffffffffffffffffffffffffffffffffffff168152602001908152602001600020819055508173ffffffffffffffffffffffffffffffffffffffff168373ffffffffffffffffffffffffffffffffffffffff167fddf252ad1be2c89b69c2b068fc378daa952ba7f163c4a11628f55a4df523b3ef836040516109c19190610ba7565b60405180910390a3505050565b600081519050919050565b600082825260208201905092915050565b60005b83811015610a085780820151818401526020810190506109ed565b83811115610a17576000848401525b50505050565b6000601f19601f8301169050919050565b6000610a39826109ce565b610a4381856109d9565b9350610a538185602086016109ea565b610a5c81610a1d565b840191505092915050565b60006020820190508181036000830152610a818184610a2e565b905092915050565b600080fd5b600073ffffffffffffffffffffffffffffffffffffffff82169050919050565b6000610ab982610a8e565b9050919050565b610ac981610aae565b8114610ad457600080fd5b50565b600081359050610ae681610ac0565b92915050565b6000819050919050565b610aff81610aec565b8114610b0a57600080fd5b50565b600081359050610b1c81610af6565b92915050565b60008060408385031215610b3957610b38610a89565b5b6000610b4785828601610ad7565b9250506020610b5885828601610b0d565b9150509250929050565b60008115159050919050565b610b7781610b62565b82525050565b6000602082019050610b926000830184610b6e565b92915050565b610ba181610aec565b82525050565b6000602082019050610bbc6000830184610b98565b92915050565b600060208284031215610bd857610bd7610a89565b5b6000610be684828501610b0d565b91505092915050565b610bf881610aae565b82525050565b6000602082019050610c136000830184610bef565b92915050565b600080600060608486031215610c3257610c31610a89565b5b6000610c4086828701610ad7565b9350506020610c5186828701610ad7565b9250506040610c6286828701610b0d565b9150509250925092565b600060208284031215610c8257610c81610a89565b5b6000610c9084828501610ad7565b91505092915050565b60008060408385031215610cb057610caf610a89565b5b6000610cbe85828601610ad7565b9250506020610ccf85828601610ad7565b9150509250929050565b7f4e487b7100000000000000000000000000000000000000000000000000000000600052602260045260246000fd5b60006002820490506001821680610d2057607f821691505b602082108103610d3357610d32610cd9565b5b50919050565b7f4e487b7100000000000000000000000000000000000000000000000000000000600052601160045260246000fd5b6000610d7382610aec565b9150610d7e83610aec565b925082821015610d9157610d90610d39565b5b828203905092915050565b6000610da782610aec565b9150610db283610aec565b9250827fffffffffffffffffffffffffffffffffffffffffffffffffffffffffffffffff03821115610de757610de6610d39565b5b82820190509291505056fea2646970667358221220a47711621084775f7088250009848a64b9527c8d4d13e1dc75c04cca5f6c0f3764736f6c634300080d0033",
					"opcodes": "PUSH1 0x80 PUSH1 0x40 MSTORE CALLVALUE DUP1 ISZERO PUSH3 0x11 JUMPI PUSH1 0x0 DUP1 REVERT JUMPDEST POP PUSH1 0x40 MLOAD DUP1 PUSH1 0x40 ADD PUSH1 0x40 MSTORE DUP1 PUSH1 0xB DUP2 MSTORE PUSH1 0x20 ADD PUSH32 0x73706F6E736F72436F696E000000000000000000000000000000000000000000 DUP2 MSTORE POP PUSH1 0x0 SWAP1 DUP1 MLOAD SWAP1 PUSH1 0x20 ADD SWAP1 PUSH3 0x5F SWAP3 SWAP2 SWAP1 PUSH3 0x237 JUMP JUMPDEST POP PUSH1 0x40 MLOAD DUP1 PUSH1 0x40 ADD PUSH1 0x40 MSTORE DUP1 PUSH1 0x7 DUP2 MSTORE PUSH1 0x20 ADD PUSH32 0x53505F436F696E00000000000000000000000000000000000000000000000000 DUP2 MSTORE POP PUSH1 0x1 SWAP1 DUP1 MLOAD SWAP1 PUSH1 0x20 ADD SWAP1 PUSH3 0xAD SWAP3 SWAP2 SWAP1 PUSH3 0x237 JUMP JUMPDEST POP PUSH1 0x12 PUSH1 0x2 DUP2 SWAP1 SSTORE POP PUSH10 0xD3C21BCECCEDA1000000 PUSH1 0x3 DUP2 SWAP1 SSTORE POP PUSH3 0xDB CALLER PUSH1 0x3 SLOAD PUSH3 0xE1 PUSH1 0x20 SHL PUSH1 0x20 SHR JUMP JUMPDEST PUSH3 0x34B JUMP JUMPDEST DUP1 PUSH1 0x4 PUSH1 0x0 DUP5 PUSH20 0xFFFFFFFFFFFFFFFFFFFFFFFFFFFFFFFFFFFFFFFF AND PUSH20 0xFFFFFFFFFFFFFFFFFFFFFFFFFFFFFFFFFFFFFFFF AND DUP2 MSTORE PUSH1 0x20 ADD SWAP1 DUP2 MSTORE PUSH1 0x20 ADD PUSH1 0x0 KECCAK256 DUP2 SWAP1 SSTORE POP PUSH1 0x8 PUSH1 0x0 DUP4 PUSH20 0xFFFFFFFFFFFFFFFFFFFFFFFFFFFFFFFFFFFFFFFF AND PUSH20 0xFFFFFFFFFFFFFFFFFFFFFFFFFFFFFFFFFFFFFFFF AND DUP2 MSTORE PUSH1 0x20 ADD SWAP1 DUP2 MSTORE PUSH1 0x20 ADD PUSH1 0x0 KECCAK256 PUSH1 0x0 SWAP1 SLOAD SWAP1 PUSH2 0x100 EXP SWAP1 DIV PUSH1 0xFF AND PUSH3 0x233 JUMPI PUSH1 0x1 PUSH1 0x8 PUSH1 0x0 DUP5 PUSH20 0xFFFFFFFFFFFFFFFFFFFFFFFFFFFFFFFFFFFFFFFF AND PUSH20 0xFFFFFFFFFFFFFFFFFFFFFFFFFFFFFFFFFFFFFFFF AND DUP2 MSTORE PUSH1 0x20 ADD SWAP1 DUP2 MSTORE PUSH1 0x20 ADD PUSH1 0x0 KECCAK256 PUSH1 0x0 PUSH2 0x100 EXP DUP2 SLOAD DUP2 PUSH1 0xFF MUL NOT AND SWAP1 DUP4 ISZERO ISZERO MUL OR SWAP1 SSTORE POP PUSH1 0x6 DUP3 SWAP1 DUP1 PUSH1 0x1 DUP2 SLOAD ADD DUP1 DUP3 SSTORE DUP1 SWAP2 POP POP PUSH1 0x1 SWAP1 SUB SWAP1 PUSH1 0x0 MSTORE PUSH1 0x20 PUSH1 0x0 KECCAK256 ADD PUSH1 0x0 SWAP1 SWAP2 SWAP1 SWAP2 SWAP1 SWAP2 PUSH2 0x100 EXP DUP2 SLOAD DUP2 PUSH20 0xFFFFFFFFFFFFFFFFFFFFFFFFFFFFFFFFFFFFFFFF MUL NOT AND SWAP1 DUP4 PUSH20 0xFFFFFFFFFFFFFFFFFFFFFFFFFFFFFFFFFFFFFFFF AND MUL OR SWAP1 SSTORE POP JUMPDEST POP POP JUMP JUMPDEST DUP3 DUP1 SLOAD PUSH3 0x245 SWAP1 PUSH3 0x316 JUMP JUMPDEST SWAP1 PUSH1 0x0 MSTORE PUSH1 0x20 PUSH1 0x0 KECCAK256 SWAP1 PUSH1 0x1F ADD PUSH1 0x20 SWAP1 DIV DUP2 ADD SWAP3 DUP3 PUSH3 0x269 JUMPI PUSH1 0x0 DUP6 SSTORE PUSH3 0x2B5 JUMP JUMPDEST DUP3 PUSH1 0x1F LT PUSH3 0x284 JUMPI DUP1 MLOAD PUSH1 0xFF NOT AND DUP4 DUP1 ADD OR DUP6 SSTORE PUSH3 0x2B5 JUMP JUMPDEST DUP3 DUP1 ADD PUSH1 0x1 ADD DUP6 SSTORE DUP3 ISZERO PUSH3 0x2B5 JUMPI SWAP2 DUP3 ADD JUMPDEST DUP3 DUP2 GT ISZERO PUSH3 0x2B4 JUMPI DUP3 MLOAD DUP3 SSTORE SWAP2 PUSH1 0x20 ADD SWAP2 SWAP1 PUSH1 0x1 ADD SWAP1 PUSH3 0x297 JUMP JUMPDEST JUMPDEST POP SWAP1 POP PUSH3 0x2C4 SWAP2 SWAP1 PUSH3 0x2C8 JUMP JUMPDEST POP SWAP1 JUMP JUMPDEST JUMPDEST DUP1 DUP3 GT ISZERO PUSH3 0x2E3 JUMPI PUSH1 0x0 DUP2 PUSH1 0x0 SWAP1 SSTORE POP PUSH1 0x1 ADD PUSH3 0x2C9 JUMP JUMPDEST POP SWAP1 JUMP JUMPDEST PUSH32 0x4E487B7100000000000000000000000000000000000000000000000000000000 PUSH1 0x0 MSTORE PUSH1 0x22 PUSH1 0x4 MSTORE PUSH1 0x24 PUSH1 0x0 REVERT JUMPDEST PUSH1 0x0 PUSH1 0x2 DUP3 DIV SWAP1 POP PUSH1 0x1 DUP3 AND DUP1 PUSH3 0x32F JUMPI PUSH1 0x7F DUP3 AND SWAP2 POP JUMPDEST PUSH1 0x20 DUP3 LT DUP2 SUB PUSH3 0x345 JUMPI PUSH3 0x344 PUSH3 0x2E7 JUMP JUMPDEST JUMPDEST POP SWAP2 SWAP1 POP JUMP JUMPDEST PUSH2 0xE28 DUP1 PUSH3 0x35B PUSH1 0x0 CODECOPY PUSH1 0x0 RETURN INVALID PUSH1 0x80 PUSH1 0x40 MSTORE CALLVALUE DUP1 ISZERO PUSH2 0x10 JUMPI PUSH1 0x0 DUP1 REVERT JUMPDEST POP PUSH1 0x4 CALLDATASIZE LT PUSH2 0xB4 JUMPI PUSH1 0x0 CALLDATALOAD PUSH1 0xE0 SHR DUP1 PUSH4 0x70A08231 GT PUSH2 0x71 JUMPI DUP1 PUSH4 0x70A08231 EQ PUSH2 0x1A3 JUMPI DUP1 PUSH4 0x7CD380F1 EQ PUSH2 0x1D3 JUMPI DUP1 PUSH4 0x95D89B41 EQ PUSH2 0x203 JUMPI DUP1 PUSH4 0xA9059CBB EQ PUSH2 0x221 JUMPI DUP1 PUSH4 0xDD62ED3E EQ PUSH2 0x251 JUMPI DUP1 PUSH4 0xFD6AAD25 EQ PUSH2 0x281 JUMPI PUSH2 0xB4 JUMP JUMPDEST DUP1 PUSH4 0x6FDDE03 EQ PUSH2 0xB9 JUMPI DUP1 PUSH4 0x95EA7B3 EQ PUSH2 0xD7 JUMPI DUP1 PUSH4 0x18160DDD EQ PUSH2 0x107 JUMPI DUP1 PUSH4 0x1E2EB088 EQ PUSH2 0x125 JUMPI DUP1 PUSH4 0x23B872DD EQ PUSH2 0x155 JUMPI DUP1 PUSH4 0x313CE567 EQ PUSH2 0x185 JUMPI JUMPDEST PUSH1 0x0 DUP1 REVERT JUMPDEST PUSH2 0xC1 PUSH2 0x2B1 JUMP JUMPDEST PUSH1 0x40 MLOAD PUSH2 0xCE SWAP2 SWAP1 PUSH2 0xA67 JUMP JUMPDEST PUSH1 0x40 MLOAD DUP1 SWAP2 SUB SWAP1 RETURN JUMPDEST PUSH2 0xF1 PUSH1 0x4 DUP1 CALLDATASIZE SUB DUP2 ADD SWAP1 PUSH2 0xEC SWAP2 SWAP1 PUSH2 0xB22 JUMP JUMPDEST PUSH2 0x33F JUMP JUMPDEST PUSH1 0x40 MLOAD PUSH2 0xFE SWAP2 SWAP1 PUSH2 0xB7D JUMP JUMPDEST PUSH1 0x40 MLOAD DUP1 SWAP2 SUB SWAP1 RETURN JUMPDEST PUSH2 0x10F PUSH2 0x469 JUMP JUMPDEST PUSH1 0x40 MLOAD PUSH2 0x11C SWAP2 SWAP1 PUSH2 0xBA7 JUMP JUMPDEST PUSH1 0x40 MLOAD DUP1 SWAP2 SUB SWAP1 RETURN JUMPDEST PUSH2 0x13F PUSH1 0x4 DUP1 CALLDATASIZE SUB DUP2 ADD SWAP1 PUSH2 0x13A SWAP2 SWAP1 PUSH2 0xBC2 JUMP JUMPDEST PUSH2 0x46F JUMP JUMPDEST PUSH1 0x40 MLOAD PUSH2 0x14C SWAP2 SWAP1 PUSH2 0xBFE JUMP JUMPDEST PUSH1 0x40 MLOAD DUP1 SWAP2 SUB SWAP1 RETURN JUMPDEST PUSH2 0x16F PUSH1 0x4 DUP1 CALLDATASIZE SUB DUP2 ADD SWAP1 PUSH2 0x16A SWAP2 SWAP1 PUSH2 0xC19 JUMP JUMPDEST PUSH2 0x4AE JUMP JUMPDEST PUSH1 0x40 MLOAD PUSH2 0x17C SWAP2 SWAP1 PUSH2 0xB7D JUMP JUMPDEST PUSH1 0x40 MLOAD DUP1 SWAP2 SUB SWAP1 RETURN JUMPDEST PUSH2 0x18D PUSH2 0x6A3 JUMP JUMPDEST PUSH1 0x40 MLOAD PUSH2 0x19A SWAP2 SWAP1 PUSH2 0xBA7 JUMP JUMPDEST PUSH1 0x40 MLOAD DUP1 SWAP2 SUB SWAP1 RETURN JUMPDEST PUSH2 0x1BD PUSH1 0x4 DUP1 CALLDATASIZE SUB DUP2 ADD SWAP1 PUSH2 0x1B8 SWAP2 SWAP1 PUSH2 0xC6C JUMP JUMPDEST PUSH2 0x6A9 JUMP JUMPDEST PUSH1 0x40 MLOAD PUSH2 0x1CA SWAP2 SWAP1 PUSH2 0xBA7 JUMP JUMPDEST PUSH1 0x40 MLOAD DUP1 SWAP2 SUB SWAP1 RETURN JUMPDEST PUSH2 0x1ED PUSH1 0x4 DUP1 CALLDATASIZE SUB DUP2 ADD SWAP1 PUSH2 0x1E8 SWAP2 SWAP1 PUSH2 0xC6C JUMP JUMPDEST PUSH2 0x6C1 JUMP JUMPDEST PUSH1 0x40 MLOAD PUSH2 0x1FA SWAP2 SWAP1 PUSH2 0xB7D JUMP JUMPDEST PUSH1 0x40 MLOAD DUP1 SWAP2 SUB SWAP1 RETURN JUMPDEST PUSH2 0x20B PUSH2 0x6E1 JUMP JUMPDEST PUSH1 0x40 MLOAD PUSH2 0x218 SWAP2 SWAP1 PUSH2 0xA67 JUMP JUMPDEST PUSH1 0x40 MLOAD DUP1 SWAP2 SUB SWAP1 RETURN JUMPDEST PUSH2 0x23B PUSH1 0x4 DUP1 CALLDATASIZE SUB DUP2 ADD SWAP1 PUSH2 0x236 SWAP2 SWAP1 PUSH2 0xB22 JUMP JUMPDEST PUSH2 0x76F JUMP JUMPDEST PUSH1 0x40 MLOAD PUSH2 0x248 SWAP2 SWAP1 PUSH2 0xB7D JUMP JUMPDEST PUSH1 0x40 MLOAD DUP1 SWAP2 SUB SWAP1 RETURN JUMPDEST PUSH2 0x26B PUSH1 0x4 DUP1 CALLDATASIZE SUB DUP2 ADD SWAP1 PUSH2 0x266 SWAP2 SWAP1 PUSH2 0xC99 JUMP JUMPDEST PUSH2 0x7D2 JUMP JUMPDEST PUSH1 0x40 MLOAD PUSH2 0x278 SWAP2 SWAP1 PUSH2 0xBA7 JUMP JUMPDEST PUSH1 0x40 MLOAD DUP1 SWAP2 SUB SWAP1 RETURN JUMPDEST PUSH2 0x29B PUSH1 0x4 DUP1 CALLDATASIZE SUB DUP2 ADD SWAP1 PUSH2 0x296 SWAP2 SWAP1 PUSH2 0xC6C JUMP JUMPDEST PUSH2 0x7F7 JUMP JUMPDEST PUSH1 0x40 MLOAD PUSH2 0x2A8 SWAP2 SWAP1 PUSH2 0xBA7 JUMP JUMPDEST PUSH1 0x40 MLOAD DUP1 SWAP2 SUB SWAP1 RETURN JUMPDEST PUSH1 0x0 DUP1 SLOAD PUSH2 0x2BE SWAP1 PUSH2 0xD08 JUMP JUMPDEST DUP1 PUSH1 0x1F ADD PUSH1 0x20 DUP1 SWAP2 DIV MUL PUSH1 0x20 ADD PUSH1 0x40 MLOAD SWAP1 DUP2 ADD PUSH1 0x40 MSTORE DUP1 SWAP3 SWAP2 SWAP1 DUP2 DUP2 MSTORE PUSH1 0x20 ADD DUP3 DUP1 SLOAD PUSH2 0x2EA SWAP1 PUSH2 0xD08 JUMP JUMPDEST DUP1 ISZERO PUSH2 0x337 JUMPI DUP1 PUSH1 0x1F LT PUSH2 0x30C JUMPI PUSH2 0x100 DUP1 DUP4 SLOAD DIV MUL DUP4 MSTORE SWAP2 PUSH1 0x20 ADD SWAP2 PUSH2 0x337 JUMP JUMPDEST DUP3 ADD SWAP2 SWAP1 PUSH1 0x0 MSTORE PUSH1 0x20 PUSH1 0x0 KECCAK256 SWAP1 JUMPDEST DUP2 SLOAD DUP2 MSTORE SWAP1 PUSH1 0x1 ADD SWAP1 PUSH1 0x20 ADD DUP1 DUP4 GT PUSH2 0x31A JUMPI DUP3 SWAP1 SUB PUSH1 0x1F AND DUP3 ADD SWAP2 JUMPDEST POP POP POP POP POP DUP2 JUMP JUMPDEST PUSH1 0x0 DUP1 PUSH20 0xFFFFFFFFFFFFFFFFFFFFFFFFFFFFFFFFFFFFFFFF AND DUP4 PUSH20 0xFFFFFFFFFFFFFFFFFFFFFFFFFFFFFFFFFFFFFFFF AND SUB PUSH2 0x379 JUMPI PUSH1 0x0 DUP1 REVERT JUMPDEST DUP2 PUSH1 0x5 PUSH1 0x0 CALLER PUSH20 0xFFFFFFFFFFFFFFFFFFFFFFFFFFFFFFFFFFFFFFFF AND PUSH20 0xFFFFFFFFFFFFFFFFFFFFFFFFFFFFFFFFFFFFFFFF AND DUP2 MSTORE PUSH1 0x20 ADD SWAP1 DUP2 MSTORE PUSH1 0x20 ADD PUSH1 0x0 KECCAK256 PUSH1 0x0 DUP6 PUSH20 0xFFFFFFFFFFFFFFFFFFFFFFFFFFFFFFFFFFFFFFFF AND PUSH20 0xFFFFFFFFFFFFFFFFFFFFFFFFFFFFFFFFFFFFFFFF AND DUP2 MSTORE PUSH1 0x20 ADD SWAP1 DUP2 MSTORE PUSH1 0x20 ADD PUSH1 0x0 KECCAK256 DUP2 SWAP1 SSTORE POP DUP3 PUSH20 0xFFFFFFFFFFFFFFFFFFFFFFFFFFFFFFFFFFFFFFFF AND CALLER PUSH20 0xFFFFFFFFFFFFFFFFFFFFFFFFFFFFFFFFFFFFFFFF AND PUSH32 0x8C5BE1E5EBEC7D5BD14F71427D1E84F3DD0314C0F7B2291E5B200AC8C7C3B925 DUP5 PUSH1 0x40 MLOAD PUSH2 0x457 SWAP2 SWAP1 PUSH2 0xBA7 JUMP JUMPDEST PUSH1 0x40 MLOAD DUP1 SWAP2 SUB SWAP1 LOG3 PUSH1 0x1 SWAP1 POP SWAP3 SWAP2 POP POP JUMP JUMPDEST PUSH1 0x3 SLOAD DUP2 JUMP JUMPDEST PUSH1 0x6 DUP2 DUP2 SLOAD DUP2 LT PUSH2 0x47F JUMPI PUSH1 0x0 DUP1 REVERT JUMPDEST SWAP1 PUSH1 0x0 MSTORE PUSH1 0x20 PUSH1 0x0 KECCAK256 ADD PUSH1 0x0 SWAP2 POP SLOAD SWAP1 PUSH2 0x100 EXP SWAP1 DIV PUSH20 0xFFFFFFFFFFFFFFFFFFFFFFFFFFFFFFFFFFFFFFFF AND DUP2 JUMP JUMPDEST PUSH1 0x0 PUSH1 0x4 PUSH1 0x0 DUP6 PUSH20 0xFFFFFFFFFFFFFFFFFFFFFFFFFFFFFFFFFFFFFFFF AND PUSH20 0xFFFFFFFFFFFFFFFFFFFFFFFFFFFFFFFFFFFFFFFF AND DUP2 MSTORE PUSH1 0x20 ADD SWAP1 DUP2 MSTORE PUSH1 0x20 ADD PUSH1 0x0 KECCAK256 SLOAD DUP3 GT ISZERO PUSH2 0x4FC JUMPI PUSH1 0x0 DUP1 REVERT JUMPDEST PUSH1 0x5 PUSH1 0x0 DUP6 PUSH20 0xFFFFFFFFFFFFFFFFFFFFFFFFFFFFFFFFFFFFFFFF AND PUSH20 0xFFFFFFFFFFFFFFFFFFFFFFFFFFFFFFFFFFFFFFFF AND DUP2 MSTORE PUSH1 0x20 ADD SWAP1 DUP2 MSTORE PUSH1 0x20 ADD PUSH1 0x0 KECCAK256 PUSH1 0x0 CALLER PUSH20 0xFFFFFFFFFFFFFFFFFFFFFFFFFFFFFFFFFFFFFFFF AND PUSH20 0xFFFFFFFFFFFFFFFFFFFFFFFFFFFFFFFFFFFFFFFF AND DUP2 MSTORE PUSH1 0x20 ADD SWAP1 DUP2 MSTORE PUSH1 0x20 ADD PUSH1 0x0 KECCAK256 SLOAD DUP3 GT ISZERO PUSH2 0x585 JUMPI PUSH1 0x0 DUP1 REVERT JUMPDEST DUP2 PUSH1 0x5 PUSH1 0x0 DUP7 PUSH20 0xFFFFFFFFFFFFFFFFFFFFFFFFFFFFFFFFFFFFFFFF AND PUSH20 0xFFFFFFFFFFFFFFFFFFFFFFFFFFFFFFFFFFFFFFFF AND DUP2 MSTORE PUSH1 0x20 ADD SWAP1 DUP2 MSTORE PUSH1 0x20 ADD PUSH1 0x0 KECCAK256 PUSH1 0x0 CALLER PUSH20 0xFFFFFFFFFFFFFFFFFFFFFFFFFFFFFFFFFFFFFFFF AND PUSH20 0xFFFFFFFFFFFFFFFFFFFFFFFFFFFFFFFFFFFFFFFF AND DUP2 MSTORE PUSH1 0x20 ADD SWAP1 DUP2 MSTORE PUSH1 0x20 ADD PUSH1 0x0 KECCAK256 SLOAD PUSH2 0x60D SWAP2 SWAP1 PUSH2 0xD68 JUMP JUMPDEST PUSH1 0x5 PUSH1 0x0 DUP7 PUSH20 0xFFFFFFFFFFFFFFFFFFFFFFFFFFFFFFFFFFFFFFFF AND PUSH20 0xFFFFFFFFFFFFFFFFFFFFFFFFFFFFFFFFFFFFFFFF AND DUP2 MSTORE PUSH1 0x20 ADD SWAP1 DUP2 MSTORE PUSH1 0x20 ADD PUSH1 0x0 KECCAK256 PUSH1 0x0 CALLER PUSH20 0xFFFFFFFFFFFFFFFFFFFFFFFFFFFFFFFFFFFFFFFF AND PUSH20 0xFFFFFFFFFFFFFFFFFFFFFFFFFFFFFFFFFFFFFFFF AND DUP2 MSTORE PUSH1 0x20 ADD SWAP1 DUP2 MSTORE PUSH1 0x20 ADD PUSH1 0x0 KECCAK256 DUP2 SWAP1 SSTORE POP PUSH2 0x698 DUP5 DUP5 DUP5 PUSH2 0x80F JUMP JUMPDEST PUSH1 0x1 SWAP1 POP SWAP4 SWAP3 POP POP POP JUMP JUMPDEST PUSH1 0x2 SLOAD DUP2 JUMP JUMPDEST PUSH1 0x4 PUSH1 0x20 MSTORE DUP1 PUSH1 0x0 MSTORE PUSH1 0x40 PUSH1 0x0 KECCAK256 PUSH1 0x0 SWAP2 POP SWAP1 POP SLOAD DUP2 JUMP JUMPDEST PUSH1 0x8 PUSH1 0x20 MSTORE DUP1 PUSH1 0x0 MSTORE PUSH1 0x40 PUSH1 0x0 KECCAK256 PUSH1 0x0 SWAP2 POP SLOAD SWAP1 PUSH2 0x100 EXP SWAP1 DIV PUSH1 0xFF AND DUP2 JUMP JUMPDEST PUSH1 0x1 DUP1 SLOAD PUSH2 0x6EE SWAP1 PUSH2 0xD08 JUMP JUMPDEST DUP1 PUSH1 0x1F ADD PUSH1 0x20 DUP1 SWAP2 DIV MUL PUSH1 0x20 ADD PUSH1 0x40 MLOAD SWAP1 DUP2 ADD PUSH1 0x40 MSTORE DUP1 SWAP3 SWAP2 SWAP1 DUP2 DUP2 MSTORE PUSH1 0x20 ADD DUP3 DUP1 SLOAD PUSH2 0x71A SWAP1 PUSH2 0xD08 JUMP JUMPDEST DUP1 ISZERO PUSH2 0x767 JUMPI DUP1 PUSH1 0x1F LT PUSH2 0x73C JUMPI PUSH2 0x100 DUP1 DUP4 SLOAD DIV MUL DUP4 MSTORE SWAP2 PUSH1 0x20 ADD SWAP2 PUSH2 0x767 JUMP JUMPDEST DUP3 ADD SWAP2 SWAP1 PUSH1 0x0 MSTORE PUSH1 0x20 PUSH1 0x0 KECCAK256 SWAP1 JUMPDEST DUP2 SLOAD DUP2 MSTORE SWAP1 PUSH1 0x1 ADD SWAP1 PUSH1 0x20 ADD DUP1 DUP4 GT PUSH2 0x74A JUMPI DUP3 SWAP1 SUB PUSH1 0x1F AND DUP3 ADD SWAP2 JUMPDEST POP POP POP POP POP DUP2 JUMP JUMPDEST PUSH1 0x0 DUP2 PUSH1 0x4 PUSH1 0x0 CALLER PUSH20 0xFFFFFFFFFFFFFFFFFFFFFFFFFFFFFFFFFFFFFFFF AND PUSH20 0xFFFFFFFFFFFFFFFFFFFFFFFFFFFFFFFFFFFFFFFF AND DUP2 MSTORE PUSH1 0x20 ADD SWAP1 DUP2 MSTORE PUSH1 0x20 ADD PUSH1 0x0 KECCAK256 SLOAD LT ISZERO PUSH2 0x7BD JUMPI PUSH1 0x0 DUP1 REVERT JUMPDEST PUSH2 0x7C8 CALLER DUP5 DUP5 PUSH2 0x80F JUMP JUMPDEST PUSH1 0x1 SWAP1 POP SWAP3 SWAP2 POP POP JUMP JUMPDEST PUSH1 0x5 PUSH1 0x20 MSTORE DUP2 PUSH1 0x0 MSTORE PUSH1 0x40 PUSH1 0x0 KECCAK256 PUSH1 0x20 MSTORE DUP1 PUSH1 0x0 MSTORE PUSH1 0x40 PUSH1 0x0 KECCAK256 PUSH1 0x0 SWAP2 POP SWAP2 POP POP SLOAD DUP2 JUMP JUMPDEST PUSH1 0x7 PUSH1 0x20 MSTORE DUP1 PUSH1 0x0 MSTORE PUSH1 0x40 PUSH1 0x0 KECCAK256 PUSH1 0x0 SWAP2 POP SWAP1 POP SLOAD DUP2 JUMP JUMPDEST PUSH1 0x0 PUSH20 0xFFFFFFFFFFFFFFFFFFFFFFFFFFFFFFFFFFFFFFFF AND DUP3 PUSH20 0xFFFFFFFFFFFFFFFFFFFFFFFFFFFFFFFFFFFFFFFF AND SUB PUSH2 0x848 JUMPI PUSH1 0x0 DUP1 REVERT JUMPDEST DUP1 PUSH1 0x4 PUSH1 0x0 DUP6 PUSH20 0xFFFFFFFFFFFFFFFFFFFFFFFFFFFFFFFFFFFFFFFF AND PUSH20 0xFFFFFFFFFFFFFFFFFFFFFFFFFFFFFFFFFFFFFFFF AND DUP2 MSTORE PUSH1 0x20 ADD SWAP1 DUP2 MSTORE PUSH1 0x20 ADD PUSH1 0x0 KECCAK256 SLOAD PUSH2 0x893 SWAP2 SWAP1 PUSH2 0xD68 JUMP JUMPDEST PUSH1 0x4 PUSH1 0x0 DUP6 PUSH20 0xFFFFFFFFFFFFFFFFFFFFFFFFFFFFFFFFFFFFFFFF AND PUSH20 0xFFFFFFFFFFFFFFFFFFFFFFFFFFFFFFFFFFFFFFFF AND DUP2 MSTORE PUSH1 0x20 ADD SWAP1 DUP2 MSTORE PUSH1 0x20 ADD PUSH1 0x0 KECCAK256 DUP2 SWAP1 SSTORE POP DUP1 PUSH1 0x4 PUSH1 0x0 DUP5 PUSH20 0xFFFFFFFFFFFFFFFFFFFFFFFFFFFFFFFFFFFFFFFF AND PUSH20 0xFFFFFFFFFFFFFFFFFFFFFFFFFFFFFFFFFFFFFFFF AND DUP2 MSTORE PUSH1 0x20 ADD SWAP1 DUP2 MSTORE PUSH1 0x20 ADD PUSH1 0x0 KECCAK256 SLOAD PUSH2 0x921 SWAP2 SWAP1 PUSH2 0xD9C JUMP JUMPDEST PUSH1 0x4 PUSH1 0x0 DUP5 PUSH20 0xFFFFFFFFFFFFFFFFFFFFFFFFFFFFFFFFFFFFFFFF AND PUSH20 0xFFFFFFFFFFFFFFFFFFFFFFFFFFFFFFFFFFFFFFFF AND DUP2 MSTORE PUSH1 0x20 ADD SWAP1 DUP2 MSTORE PUSH1 0x20 ADD PUSH1 0x0 KECCAK256 DUP2 SWAP1 SSTORE POP DUP2 PUSH20 0xFFFFFFFFFFFFFFFFFFFFFFFFFFFFFFFFFFFFFFFF AND DUP4 PUSH20 0xFFFFFFFFFFFFFFFFFFFFFFFFFFFFFFFFFFFFFFFF AND PUSH32 0xDDF252AD1BE2C89B69C2B068FC378DAA952BA7F163C4A11628F55A4DF523B3EF DUP4 PUSH1 0x40 MLOAD PUSH2 0x9C1 SWAP2 SWAP1 PUSH2 0xBA7 JUMP JUMPDEST PUSH1 0x40 MLOAD DUP1 SWAP2 SUB SWAP1 LOG3 POP POP POP JUMP JUMPDEST PUSH1 0x0 DUP2 MLOAD SWAP1 POP SWAP2 SWAP1 POP JUMP JUMPDEST PUSH1 0x0 DUP3 DUP3 MSTORE PUSH1 0x20 DUP3 ADD SWAP1 POP SWAP3 SWAP2 POP POP JUMP JUMPDEST PUSH1 0x0 JUMPDEST DUP4 DUP2 LT ISZERO PUSH2 0xA08 JUMPI DUP1 DUP3 ADD MLOAD DUP2 DUP5 ADD MSTORE PUSH1 0x20 DUP2 ADD SWAP1 POP PUSH2 0x9ED JUMP JUMPDEST DUP4 DUP2 GT ISZERO PUSH2 0xA17 JUMPI PUSH1 0x0 DUP5 DUP5 ADD MSTORE JUMPDEST POP POP POP POP JUMP JUMPDEST PUSH1 0x0 PUSH1 0x1F NOT PUSH1 0x1F DUP4 ADD AND SWAP1 POP SWAP2 SWAP1 POP JUMP JUMPDEST PUSH1 0x0 PUSH2 0xA39 DUP3 PUSH2 0x9CE JUMP JUMPDEST PUSH2 0xA43 DUP2 DUP6 PUSH2 0x9D9 JUMP JUMPDEST SWAP4 POP PUSH2 0xA53 DUP2 DUP6 PUSH1 0x20 DUP7 ADD PUSH2 0x9EA JUMP JUMPDEST PUSH2 0xA5C DUP2 PUSH2 0xA1D JUMP JUMPDEST DUP5 ADD SWAP2 POP POP SWAP3 SWAP2 POP POP JUMP JUMPDEST PUSH1 0x0 PUSH1 0x20 DUP3 ADD SWAP1 POP DUP2 DUP2 SUB PUSH1 0x0 DUP4 ADD MSTORE PUSH2 0xA81 DUP2 DUP5 PUSH2 0xA2E JUMP JUMPDEST SWAP1 POP SWAP3 SWAP2 POP POP JUMP JUMPDEST PUSH1 0x0 DUP1 REVERT JUMPDEST PUSH1 0x0 PUSH20 0xFFFFFFFFFFFFFFFFFFFFFFFFFFFFFFFFFFFFFFFF DUP3 AND SWAP1 POP SWAP2 SWAP1 POP JUMP JUMPDEST PUSH1 0x0 PUSH2 0xAB9 DUP3 PUSH2 0xA8E JUMP JUMPDEST SWAP1 POP SWAP2 SWAP1 POP JUMP JUMPDEST PUSH2 0xAC9 DUP2 PUSH2 0xAAE JUMP JUMPDEST DUP2 EQ PUSH2 0xAD4 JUMPI PUSH1 0x0 DUP1 REVERT JUMPDEST POP JUMP JUMPDEST PUSH1 0x0 DUP2 CALLDATALOAD SWAP1 POP PUSH2 0xAE6 DUP2 PUSH2 0xAC0 JUMP JUMPDEST SWAP3 SWAP2 POP POP JUMP JUMPDEST PUSH1 0x0 DUP2 SWAP1 POP SWAP2 SWAP1 POP JUMP JUMPDEST PUSH2 0xAFF DUP2 PUSH2 0xAEC JUMP JUMPDEST DUP2 EQ PUSH2 0xB0A JUMPI PUSH1 0x0 DUP1 REVERT JUMPDEST POP JUMP JUMPDEST PUSH1 0x0 DUP2 CALLDATALOAD SWAP1 POP PUSH2 0xB1C DUP2 PUSH2 0xAF6 JUMP JUMPDEST SWAP3 SWAP2 POP POP JUMP JUMPDEST PUSH1 0x0 DUP1 PUSH1 0x40 DUP4 DUP6 SUB SLT ISZERO PUSH2 0xB39 JUMPI PUSH2 0xB38 PUSH2 0xA89 JUMP JUMPDEST JUMPDEST PUSH1 0x0 PUSH2 0xB47 DUP6 DUP3 DUP7 ADD PUSH2 0xAD7 JUMP JUMPDEST SWAP3 POP POP PUSH1 0x20 PUSH2 0xB58 DUP6 DUP3 DUP7 ADD PUSH2 0xB0D JUMP JUMPDEST SWAP2 POP POP SWAP3 POP SWAP3 SWAP1 POP JUMP JUMPDEST PUSH1 0x0 DUP2 ISZERO ISZERO SWAP1 POP SWAP2 SWAP1 POP JUMP JUMPDEST PUSH2 0xB77 DUP2 PUSH2 0xB62 JUMP JUMPDEST DUP3 MSTORE POP POP JUMP JUMPDEST PUSH1 0x0 PUSH1 0x20 DUP3 ADD SWAP1 POP PUSH2 0xB92 PUSH1 0x0 DUP4 ADD DUP5 PUSH2 0xB6E JUMP JUMPDEST SWAP3 SWAP2 POP POP JUMP JUMPDEST PUSH2 0xBA1 DUP2 PUSH2 0xAEC JUMP JUMPDEST DUP3 MSTORE POP POP JUMP JUMPDEST PUSH1 0x0 PUSH1 0x20 DUP3 ADD SWAP1 POP PUSH2 0xBBC PUSH1 0x0 DUP4 ADD DUP5 PUSH2 0xB98 JUMP JUMPDEST SWAP3 SWAP2 POP POP JUMP JUMPDEST PUSH1 0x0 PUSH1 0x20 DUP3 DUP5 SUB SLT ISZERO PUSH2 0xBD8 JUMPI PUSH2 0xBD7 PUSH2 0xA89 JUMP JUMPDEST JUMPDEST PUSH1 0x0 PUSH2 0xBE6 DUP5 DUP3 DUP6 ADD PUSH2 0xB0D JUMP JUMPDEST SWAP2 POP POP SWAP3 SWAP2 POP POP JUMP JUMPDEST PUSH2 0xBF8 DUP2 PUSH2 0xAAE JUMP JUMPDEST DUP3 MSTORE POP POP JUMP JUMPDEST PUSH1 0x0 PUSH1 0x20 DUP3 ADD SWAP1 POP PUSH2 0xC13 PUSH1 0x0 DUP4 ADD DUP5 PUSH2 0xBEF JUMP JUMPDEST SWAP3 SWAP2 POP POP JUMP JUMPDEST PUSH1 0x0 DUP1 PUSH1 0x0 PUSH1 0x60 DUP5 DUP7 SUB SLT ISZERO PUSH2 0xC32 JUMPI PUSH2 0xC31 PUSH2 0xA89 JUMP JUMPDEST JUMPDEST PUSH1 0x0 PUSH2 0xC40 DUP7 DUP3 DUP8 ADD PUSH2 0xAD7 JUMP JUMPDEST SWAP4 POP POP PUSH1 0x20 PUSH2 0xC51 DUP7 DUP3 DUP8 ADD PUSH2 0xAD7 JUMP JUMPDEST SWAP3 POP POP PUSH1 0x40 PUSH2 0xC62 DUP7 DUP3 DUP8 ADD PUSH2 0xB0D JUMP JUMPDEST SWAP2 POP POP SWAP3 POP SWAP3 POP SWAP3 JUMP JUMPDEST PUSH1 0x0 PUSH1 0x20 DUP3 DUP5 SUB SLT ISZERO PUSH2 0xC82 JUMPI PUSH2 0xC81 PUSH2 0xA89 JUMP JUMPDEST JUMPDEST PUSH1 0x0 PUSH2 0xC90 DUP5 DUP3 DUP6 ADD PUSH2 0xAD7 JUMP JUMPDEST SWAP2 POP POP SWAP3 SWAP2 POP POP JUMP JUMPDEST PUSH1 0x0 DUP1 PUSH1 0x40 DUP4 DUP6 SUB SLT ISZERO PUSH2 0xCB0 JUMPI PUSH2 0xCAF PUSH2 0xA89 JUMP JUMPDEST JUMPDEST PUSH1 0x0 PUSH2 0xCBE DUP6 DUP3 DUP7 ADD PUSH2 0xAD7 JUMP JUMPDEST SWAP3 POP POP PUSH1 0x20 PUSH2 0xCCF DUP6 DUP3 DUP7 ADD PUSH2 0xAD7 JUMP JUMPDEST SWAP2 POP POP SWAP3 POP SWAP3 SWAP1 POP JUMP JUMPDEST PUSH32 0x4E487B7100000000000000000000000000000000000000000000000000000000 PUSH1 0x0 MSTORE PUSH1 0x22 PUSH1 0x4 MSTORE PUSH1 0x24 PUSH1 0x0 REVERT JUMPDEST PUSH1 0x0 PUSH1 0x2 DUP3 DIV SWAP1 POP PUSH1 0x1 DUP3 AND DUP1 PUSH2 0xD20 JUMPI PUSH1 0x7F DUP3 AND SWAP2 POP JUMPDEST PUSH1 0x20 DUP3 LT DUP2 SUB PUSH2 0xD33 JUMPI PUSH2 0xD32 PUSH2 0xCD9 JUMP JUMPDEST JUMPDEST POP SWAP2 SWAP1 POP JUMP JUMPDEST PUSH32 0x4E487B7100000000000000000000000000000000000000000000000000000000 PUSH1 0x0 MSTORE PUSH1 0x11 PUSH1 0x4 MSTORE PUSH1 0x24 PUSH1 0x0 REVERT JUMPDEST PUSH1 0x0 PUSH2 0xD73 DUP3 PUSH2 0xAEC JUMP JUMPDEST SWAP2 POP PUSH2 0xD7E DUP4 PUSH2 0xAEC JUMP JUMPDEST SWAP3 POP DUP3 DUP3 LT ISZERO PUSH2 0xD91 JUMPI PUSH2 0xD90 PUSH2 0xD39 JUMP JUMPDEST JUMPDEST DUP3 DUP3 SUB SWAP1 POP SWAP3 SWAP2 POP POP JUMP JUMPDEST PUSH1 0x0 PUSH2 0xDA7 DUP3 PUSH2 0xAEC JUMP JUMPDEST SWAP2 POP PUSH2 0xDB2 DUP4 PUSH2 0xAEC JUMP JUMPDEST SWAP3 POP DUP3 PUSH32 0xFFFFFFFFFFFFFFFFFFFFFFFFFFFFFFFFFFFFFFFFFFFFFFFFFFFFFFFFFFFFFFFF SUB DUP3 GT ISZERO PUSH2 0xDE7 JUMPI PUSH2 0xDE6 PUSH2 0xD39 JUMP JUMPDEST JUMPDEST DUP3 DUP3 ADD SWAP1 POP SWAP3 SWAP2 POP POP JUMP INVALID LOG2 PUSH5 0x6970667358 0x22 SLT KECCAK256 LOG4 PUSH24 0x11621084775F7088250009848A64B9527C8D4D13E1DC75C0 0x4C 0xCA 0x5F PUSH13 0xF3764736F6C634300080D0033 "
				},
				"gasEstimates": {
					"creation": {
						"codeDepositCost": "724800",
						"executionCost": "infinite",
						"totalCost": "infinite"
					},
					"external": {
						"accountKeys(uint256)": "5023",
						"allowance(address,address)": "infinite",
						"approve(address,uint256)": "infinite",
						"balanceOf(address)": "2814",
						"decimals()": "2540",
						"indexOf(address)": "2924",
						"inserted(address)": "2867",
						"name()": "infinite",
						"symbol()": "infinite",
						"totalSupply()": "2474",
						"transfer(address,uint256)": "infinite",
						"transferFrom(address,address,uint256)": "infinite"
					},
					"internal": {
						"_transfer(address,address,uint256)": "infinite",
						"_transfer_OLD(address,address,uint256)": "infinite",
						"setBalance(address,uint256)": "infinite"
					}
				},
				"methodIdentifiers": {
					"accountKeys(uint256)": "1e2eb088",
					"allowance(address,address)": "dd62ed3e",
					"approve(address,uint256)": "095ea7b3",
					"balanceOf(address)": "70a08231",
					"decimals()": "313ce567",
					"indexOf(address)": "fd6aad25",
					"inserted(address)": "7cd380f1",
					"name()": "06fdde03",
					"symbol()": "95d89b41",
					"totalSupply()": "18160ddd",
					"transfer(address,uint256)": "a9059cbb",
					"transferFrom(address,address,uint256)": "23b872dd"
				}
			},
			"storageLayout": {
				"storage": [
					{
						"astId": 4,
						"contract": "V1/Contracts/sponsorCoin/SPC_Token.sol:SPC_Token",
						"label": "name",
						"offset": 0,
						"slot": "0",
						"type": "t_string_storage"
					},
					{
						"astId": 6,
						"contract": "V1/Contracts/sponsorCoin/SPC_Token.sol:SPC_Token",
						"label": "symbol",
						"offset": 0,
						"slot": "1",
						"type": "t_string_storage"
					},
					{
						"astId": 8,
						"contract": "V1/Contracts/sponsorCoin/SPC_Token.sol:SPC_Token",
						"label": "decimals",
						"offset": 0,
						"slot": "2",
						"type": "t_uint256"
					},
					{
						"astId": 10,
						"contract": "V1/Contracts/sponsorCoin/SPC_Token.sol:SPC_Token",
						"label": "totalSupply",
						"offset": 0,
						"slot": "3",
						"type": "t_uint256"
					},
					{
						"astId": 14,
						"contract": "V1/Contracts/sponsorCoin/SPC_Token.sol:SPC_Token",
						"label": "balanceOf",
						"offset": 0,
						"slot": "4",
						"type": "t_mapping(t_address,t_uint256)"
					},
					{
						"astId": 20,
						"contract": "V1/Contracts/sponsorCoin/SPC_Token.sol:SPC_Token",
						"label": "allowance",
						"offset": 0,
						"slot": "5",
						"type": "t_mapping(t_address,t_mapping(t_address,t_uint256))"
					},
					{
						"astId": 23,
						"contract": "V1/Contracts/sponsorCoin/SPC_Token.sol:SPC_Token",
						"label": "accountKeys",
						"offset": 0,
						"slot": "6",
						"type": "t_array(t_address)dyn_storage"
					},
					{
						"astId": 27,
						"contract": "V1/Contracts/sponsorCoin/SPC_Token.sol:SPC_Token",
						"label": "indexOf",
						"offset": 0,
						"slot": "7",
						"type": "t_mapping(t_address,t_uint256)"
					},
					{
						"astId": 31,
						"contract": "V1/Contracts/sponsorCoin/SPC_Token.sol:SPC_Token",
						"label": "inserted",
						"offset": 0,
						"slot": "8",
						"type": "t_mapping(t_address,t_bool)"
					}
				],
				"types": {
					"t_address": {
						"encoding": "inplace",
						"label": "address",
						"numberOfBytes": "20"
					},
					"t_array(t_address)dyn_storage": {
						"base": "t_address",
						"encoding": "dynamic_array",
						"label": "address[]",
						"numberOfBytes": "32"
					},
					"t_bool": {
						"encoding": "inplace",
						"label": "bool",
						"numberOfBytes": "1"
					},
					"t_mapping(t_address,t_bool)": {
						"encoding": "mapping",
						"key": "t_address",
						"label": "mapping(address => bool)",
						"numberOfBytes": "32",
						"value": "t_bool"
					},
					"t_mapping(t_address,t_mapping(t_address,t_uint256))": {
						"encoding": "mapping",
						"key": "t_address",
						"label": "mapping(address => mapping(address => uint256))",
						"numberOfBytes": "32",
						"value": "t_mapping(t_address,t_uint256)"
					},
					"t_mapping(t_address,t_uint256)": {
						"encoding": "mapping",
						"key": "t_address",
						"label": "mapping(address => uint256)",
						"numberOfBytes": "32",
						"value": "t_uint256"
					},
					"t_string_storage": {
						"encoding": "bytes",
						"label": "string",
						"numberOfBytes": "32"
					},
					"t_uint256": {
						"encoding": "inplace",
						"label": "uint256",
						"numberOfBytes": "32"
					}
				}
			},
			"userdoc": {
				"kind": "user",
				"methods": {
					"approve(address,uint256)": {
						"notice": "Approve other to spend on your behalf eg an exchange "
					},
					"transfer(address,uint256)": {
						"notice": "transfer amount of tokens to an address"
					},
					"transferFrom(address,address,uint256)": {
						"notice": "transfer by approved person from original address of an amount within approved limit "
					}
				},
				"version": 1
			}
		}
	}
}