{
	"V1/Contracts/sponsorCoin/SPC_Token.sol": {
		"SPC_Token": {
			"abi": [
				{
					"inputs": [],
					"stateMutability": "nonpayable",
					"type": "constructor"
				},
				{
					"anonymous": false,
					"inputs": [
						{
							"indexed": true,
							"internalType": "address",
							"name": "owner",
							"type": "address"
						},
						{
							"indexed": true,
							"internalType": "address",
							"name": "spender",
							"type": "address"
						},
						{
							"indexed": false,
							"internalType": "uint256",
							"name": "value",
							"type": "uint256"
						}
					],
					"name": "Approval",
					"type": "event"
				},
				{
					"anonymous": false,
					"inputs": [
						{
							"indexed": true,
							"internalType": "address",
							"name": "from",
							"type": "address"
						},
						{
							"indexed": true,
							"internalType": "address",
							"name": "to",
							"type": "address"
						},
						{
							"indexed": false,
							"internalType": "uint256",
							"name": "value",
							"type": "uint256"
						}
					],
					"name": "Transfer",
					"type": "event"
				},
				{
					"inputs": [
						{
							"internalType": "uint256",
							"name": "",
							"type": "uint256"
						}
					],
					"name": "accountKeys",
					"outputs": [
						{
							"internalType": "address",
							"name": "",
							"type": "address"
						}
					],
					"stateMutability": "view",
					"type": "function"
				},
				{
					"inputs": [
						{
							"internalType": "address",
							"name": "",
							"type": "address"
						},
						{
							"internalType": "address",
							"name": "",
							"type": "address"
						}
					],
					"name": "allowance",
					"outputs": [
						{
							"internalType": "uint256",
							"name": "",
							"type": "uint256"
						}
					],
					"stateMutability": "view",
					"type": "function"
				},
				{
					"inputs": [
						{
							"internalType": "address",
							"name": "_spender",
							"type": "address"
						},
						{
							"internalType": "uint256",
							"name": "_value",
							"type": "uint256"
						}
					],
					"name": "approve",
					"outputs": [
						{
							"internalType": "bool",
							"name": "",
							"type": "bool"
						}
					],
					"stateMutability": "nonpayable",
					"type": "function"
				},
				{
					"inputs": [
						{
							"internalType": "address",
							"name": "_accountKey",
							"type": "address"
						}
					],
					"name": "getAccountBalance",
					"outputs": [
						{
							"internalType": "uint256",
							"name": "",
							"type": "uint256"
						}
					],
					"stateMutability": "view",
					"type": "function"
				},
				{
					"inputs": [
						{
							"internalType": "address",
							"name": "_accountKey",
							"type": "address"
						}
					],
					"name": "getIndexOf",
					"outputs": [
						{
							"internalType": "uint256",
							"name": "",
							"type": "uint256"
						}
					],
					"stateMutability": "view",
					"type": "function"
				},
				{
					"inputs": [
						{
							"internalType": "address",
							"name": "",
							"type": "address"
						}
					],
					"name": "indexOf",
					"outputs": [
						{
							"internalType": "uint256",
							"name": "",
							"type": "uint256"
						}
					],
					"stateMutability": "view",
					"type": "function"
				},
				{
					"inputs": [
						{
							"internalType": "address",
							"name": "_accountKey",
							"type": "address"
						}
					],
					"name": "isInserted",
					"outputs": [
						{
							"internalType": "bool",
							"name": "",
							"type": "bool"
						}
					],
					"stateMutability": "view",
					"type": "function"
				},
				{
					"inputs": [],
					"name": "name",
					"outputs": [
						{
							"internalType": "string",
							"name": "",
							"type": "string"
						}
					],
					"stateMutability": "view",
					"type": "function"
				},
				{
					"inputs": [],
					"name": "symbol",
					"outputs": [
						{
							"internalType": "string",
							"name": "",
							"type": "string"
						}
					],
					"stateMutability": "view",
					"type": "function"
				},
				{
					"inputs": [],
					"name": "totalSupply",
					"outputs": [
						{
							"internalType": "uint256",
							"name": "",
							"type": "uint256"
						}
					],
					"stateMutability": "view",
					"type": "function"
				},
				{
					"inputs": [
						{
							"internalType": "address",
							"name": "_to",
							"type": "address"
						},
						{
							"internalType": "uint256",
							"name": "_value",
							"type": "uint256"
						}
					],
					"name": "transfer",
					"outputs": [
						{
							"internalType": "bool",
							"name": "success",
							"type": "bool"
						}
					],
					"stateMutability": "nonpayable",
					"type": "function"
				},
				{
					"inputs": [
						{
							"internalType": "address",
							"name": "_from",
							"type": "address"
						},
						{
							"internalType": "address",
							"name": "_to",
							"type": "address"
						},
						{
							"internalType": "uint256",
							"name": "_value",
							"type": "uint256"
						}
					],
					"name": "transferFrom",
					"outputs": [
						{
							"internalType": "bool",
							"name": "",
							"type": "bool"
						}
					],
					"stateMutability": "nonpayable",
					"type": "function"
				}
			],
			"devdoc": {
				"kind": "dev",
				"methods": {
					"approve(address,uint256)": {
						"params": {
							"_spender": "allowed to spend and a max amount allowed to spend",
							"_value": "amount value of token to send"
						},
						"returns": {
							"_0": "true, success once address approved"
						}
					},
					"isInserted(address)": {
						"params": {
							"_accountKey": "public account key to set new balance"
						}
					},
					"transfer(address,uint256)": {
						"params": {
							"_to": "receiver of token",
							"_value": "amount value of token to send"
						},
						"returns": {
							"success": "as true, for transfer "
						}
					},
					"transferFrom(address,address,uint256)": {
						"details": "internal helper transfer function with required safety checks",
						"params": {
							"_from": ", address sending to and the amount to send",
							"_to": "receiver of token",
							"_value": "amount value of token to send"
						},
						"returns": {
							"_0": "true, success once transfered from original account    "
						}
					}
				},
				"title": "ERC20 Contract",
				"version": 1
			},
			"evm": {
				"assembly": "    /* \"V1/Contracts/sponsorCoin/SPC_Token.sol\":179:5713  contract SPC_Token {... */\n  mstore(0x40, 0x80)\n    /* \"V1/Contracts/sponsorCoin/SPC_Token.sol\":1023:1220  constructor() {... */\n  callvalue\n  dup1\n  iszero\n  tag_1\n  jumpi\n  0x00\n  dup1\n  revert\ntag_1:\n  pop\n    /* \"V1/Contracts/sponsorCoin/SPC_Token.sol\":1047:1067  name = \"sponsorCoin\" */\n  mload(0x40)\n  dup1\n  0x40\n  add\n  0x40\n  mstore\n  dup1\n  0x0b\n  dup2\n  mstore\n  0x20\n  add\n  0x73706f6e736f72436f696e000000000000000000000000000000000000000000\n  dup2\n  mstore\n  pop\n    /* \"V1/Contracts/sponsorCoin/SPC_Token.sol\":1047:1051  name */\n  0x00\n    /* \"V1/Contracts/sponsorCoin/SPC_Token.sol\":1047:1067  name = \"sponsorCoin\" */\n  swap1\n  dup1\n  mload\n  swap1\n  0x20\n  add\n  swap1\n  tag_4\n  swap3\n  swap2\n  swap1\n  tag_5\n  jump\t// in\ntag_4:\n  pop\n    /* \"V1/Contracts/sponsorCoin/SPC_Token.sol\":1077:1095  symbol = \"SP_Coin\" */\n  mload(0x40)\n  dup1\n  0x40\n  add\n  0x40\n  mstore\n  dup1\n  0x07\n  dup2\n  mstore\n  0x20\n  add\n  0x53505f436f696e00000000000000000000000000000000000000000000000000\n  dup2\n  mstore\n  pop\n    /* \"V1/Contracts/sponsorCoin/SPC_Token.sol\":1077:1083  symbol */\n  0x01\n    /* \"V1/Contracts/sponsorCoin/SPC_Token.sol\":1077:1095  symbol = \"SP_Coin\" */\n  swap1\n  dup1\n  mload\n  swap1\n  0x20\n  add\n  swap1\n  tag_6\n  swap3\n  swap2\n  swap1\n  tag_5\n  jump\t// in\ntag_6:\n  pop\n    /* \"V1/Contracts/sponsorCoin/SPC_Token.sol\":1116:1118  18 */\n  0x12\n    /* \"V1/Contracts/sponsorCoin/SPC_Token.sol\":1105:1113  decimals */\n  0x02\n    /* \"V1/Contracts/sponsorCoin/SPC_Token.sol\":1105:1118  decimals = 18 */\n  dup2\n  swap1\n  sstore\n  pop\n    /* \"V1/Contracts/sponsorCoin/SPC_Token.sol\":1142:1167  1000000000000000000000000 */\n  0xd3c21bcecceda1000000\n    /* \"V1/Contracts/sponsorCoin/SPC_Token.sol\":1128:1139  totalSupply */\n  0x03\n    /* \"V1/Contracts/sponsorCoin/SPC_Token.sol\":1128:1167  totalSupply = 1000000000000000000000000 */\n  dup2\n  swap1\n  sstore\n  pop\n    /* \"V1/Contracts/sponsorCoin/SPC_Token.sol\":1178:1213  setBalance(msg.sender, totalSupply) */\n  tag_7\n    /* \"V1/Contracts/sponsorCoin/SPC_Token.sol\":1189:1199  msg.sender */\n  caller\n    /* \"V1/Contracts/sponsorCoin/SPC_Token.sol\":1201:1212  totalSupply */\n  sload(0x03)\n    /* \"V1/Contracts/sponsorCoin/SPC_Token.sol\":1178:1188  setBalance */\n  shl(0x20, tag_8)\n    /* \"V1/Contracts/sponsorCoin/SPC_Token.sol\":1178:1213  setBalance(msg.sender, totalSupply) */\n  0x20\n  shr\n  jump\t// in\ntag_7:\n  pop\n    /* \"V1/Contracts/sponsorCoin/SPC_Token.sol\":179:5713  contract SPC_Token {... */\n  jump(tag_9)\n    /* \"V1/Contracts/sponsorCoin/SPC_Token.sol\":4671:5066  function setBalance(address _accountKey, uint _newBalance ) internal returns (bool) {... */\ntag_8:\n    /* \"V1/Contracts/sponsorCoin/SPC_Token.sol\":4749:4753  bool */\n  0x00\n    /* \"V1/Contracts/sponsorCoin/SPC_Token.sol\":4791:4802  _newBalance */\n  dup2\n    /* \"V1/Contracts/sponsorCoin/SPC_Token.sol\":4766:4775  balanceOf */\n  0x04\n    /* \"V1/Contracts/sponsorCoin/SPC_Token.sol\":4766:4788  balanceOf[_accountKey] */\n  0x00\n    /* \"V1/Contracts/sponsorCoin/SPC_Token.sol\":4776:4787  _accountKey */\n  dup6\n    /* \"V1/Contracts/sponsorCoin/SPC_Token.sol\":4766:4788  balanceOf[_accountKey] */\n  0xffffffffffffffffffffffffffffffffffffffff\n  and\n  0xffffffffffffffffffffffffffffffffffffffff\n  and\n  dup2\n  mstore\n  0x20\n  add\n  swap1\n  dup2\n  mstore\n  0x20\n  add\n  0x00\n  keccak256\n    /* \"V1/Contracts/sponsorCoin/SPC_Token.sol\":4766:4802  balanceOf[_accountKey] = _newBalance */\n  dup2\n  swap1\n  sstore\n  pop\n    /* \"V1/Contracts/sponsorCoin/SPC_Token.sol\":4818:4826  inserted */\n  0x08\n    /* \"V1/Contracts/sponsorCoin/SPC_Token.sol\":4818:4839  inserted[_accountKey] */\n  0x00\n    /* \"V1/Contracts/sponsorCoin/SPC_Token.sol\":4827:4838  _accountKey */\n  dup5\n    /* \"V1/Contracts/sponsorCoin/SPC_Token.sol\":4818:4839  inserted[_accountKey] */\n  0xffffffffffffffffffffffffffffffffffffffff\n  and\n  0xffffffffffffffffffffffffffffffffffffffff\n  and\n  dup2\n  mstore\n  0x20\n  add\n  swap1\n  dup2\n  mstore\n  0x20\n  add\n  0x00\n  keccak256\n  0x00\n  swap1\n  sload\n  swap1\n  0x0100\n  exp\n  swap1\n  div\n  0xff\n  and\n    /* \"V1/Contracts/sponsorCoin/SPC_Token.sol\":4813:5058  if (!inserted[_accountKey]) {... */\n  tag_11\n  jumpi\n    /* \"V1/Contracts/sponsorCoin/SPC_Token.sol\":4879:4883  true */\n  0x01\n    /* \"V1/Contracts/sponsorCoin/SPC_Token.sol\":4855:4863  inserted */\n  0x08\n    /* \"V1/Contracts/sponsorCoin/SPC_Token.sol\":4855:4876  inserted[_accountKey] */\n  0x00\n    /* \"V1/Contracts/sponsorCoin/SPC_Token.sol\":4864:4875  _accountKey */\n  dup6\n    /* \"V1/Contracts/sponsorCoin/SPC_Token.sol\":4855:4876  inserted[_accountKey] */\n  0xffffffffffffffffffffffffffffffffffffffff\n  and\n  0xffffffffffffffffffffffffffffffffffffffff\n  and\n  dup2\n  mstore\n  0x20\n  add\n  swap1\n  dup2\n  mstore\n  0x20\n  add\n  0x00\n  keccak256\n  0x00\n    /* \"V1/Contracts/sponsorCoin/SPC_Token.sol\":4855:4883  inserted[_accountKey] = true */\n  0x0100\n  exp\n  dup2\n  sload\n  dup2\n  0xff\n  mul\n  not\n  and\n  swap1\n  dup4\n  iszero\n  iszero\n  mul\n  or\n  swap1\n  sstore\n  pop\n    /* \"V1/Contracts/sponsorCoin/SPC_Token.sol\":4897:4908  accountKeys */\n  0x06\n    /* \"V1/Contracts/sponsorCoin/SPC_Token.sol\":4914:4925  _accountKey */\n  dup4\n    /* \"V1/Contracts/sponsorCoin/SPC_Token.sol\":4897:4926  accountKeys.push(_accountKey) */\n  swap1\n  dup1\n  0x01\n  dup2\n  sload\n  add\n  dup1\n  dup3\n  sstore\n  dup1\n  swap2\n  pop\n  pop\n  0x01\n  swap1\n  sub\n  swap1\n  0x00\n  mstore\n  keccak256(0x00, 0x20)\n  add\n  0x00\n  swap1\n  swap2\n  swap1\n  swap2\n  swap1\n  swap2\n  0x0100\n  exp\n  dup2\n  sload\n  dup2\n  0xffffffffffffffffffffffffffffffffffffffff\n  mul\n  not\n  and\n  swap1\n  dup4\n  0xffffffffffffffffffffffffffffffffffffffff\n  and\n  mul\n  or\n  swap1\n  sstore\n  pop\n    /* \"V1/Contracts/sponsorCoin/SPC_Token.sol\":4963:4974  accountKeys */\n  0x06\n    /* \"V1/Contracts/sponsorCoin/SPC_Token.sol\":4963:4981  accountKeys.length */\n  dup1\n  sload\n  swap1\n  pop\n    /* \"V1/Contracts/sponsorCoin/SPC_Token.sol\":4940:4947  indexOf */\n  0x07\n    /* \"V1/Contracts/sponsorCoin/SPC_Token.sol\":4940:4960  indexOf[_accountKey] */\n  0x00\n    /* \"V1/Contracts/sponsorCoin/SPC_Token.sol\":4948:4959  _accountKey */\n  dup6\n    /* \"V1/Contracts/sponsorCoin/SPC_Token.sol\":4940:4960  indexOf[_accountKey] */\n  0xffffffffffffffffffffffffffffffffffffffff\n  and\n  0xffffffffffffffffffffffffffffffffffffffff\n  and\n  dup2\n  mstore\n  0x20\n  add\n  swap1\n  dup2\n  mstore\n  0x20\n  add\n  0x00\n  keccak256\n    /* \"V1/Contracts/sponsorCoin/SPC_Token.sol\":4940:4981  indexOf[_accountKey] = accountKeys.length */\n  dup2\n  swap1\n  sstore\n  pop\n    /* \"V1/Contracts/sponsorCoin/SPC_Token.sol\":5003:5007  true */\n  0x01\n    /* \"V1/Contracts/sponsorCoin/SPC_Token.sol\":4996:5007  return true */\n  swap1\n  pop\n  jump(tag_10)\n    /* \"V1/Contracts/sponsorCoin/SPC_Token.sol\":4813:5058  if (!inserted[_accountKey]) {... */\ntag_11:\n    /* \"V1/Contracts/sponsorCoin/SPC_Token.sol\":5053:5058  false */\n  0x00\n    /* \"V1/Contracts/sponsorCoin/SPC_Token.sol\":5046:5058  return false */\n  swap1\n  pop\n    /* \"V1/Contracts/sponsorCoin/SPC_Token.sol\":4671:5066  function setBalance(address _accountKey, uint _newBalance ) internal returns (bool) {... */\ntag_10:\n  swap3\n  swap2\n  pop\n  pop\n  jump\t// out\n    /* \"V1/Contracts/sponsorCoin/SPC_Token.sol\":179:5713  contract SPC_Token {... */\ntag_5:\n  dup3\n  dup1\n  sload\n  tag_14\n  swap1\n  tag_15\n  jump\t// in\ntag_14:\n  swap1\n  0x00\n  mstore\n  keccak256(0x00, 0x20)\n  swap1\n  0x1f\n  add\n  0x20\n  swap1\n  div\n  dup2\n  add\n  swap3\n  dup3\n  tag_17\n  jumpi\n  0x00\n  dup6\n  sstore\n  jump(tag_16)\ntag_17:\n  dup3\n  0x1f\n  lt\n  tag_18\n  jumpi\n  dup1\n  mload\n  not(0xff)\n  and\n  dup4\n  dup1\n  add\n  or\n  dup6\n  sstore\n  jump(tag_16)\ntag_18:\n  dup3\n  dup1\n  add\n  0x01\n  add\n  dup6\n  sstore\n  dup3\n  iszero\n  tag_16\n  jumpi\n  swap2\n  dup3\n  add\ntag_19:\n  dup3\n  dup2\n  gt\n  iszero\n  tag_20\n  jumpi\n  dup3\n  mload\n  dup3\n  sstore\n  swap2\n  0x20\n  add\n  swap2\n  swap1\n  0x01\n  add\n  swap1\n  jump(tag_19)\ntag_20:\ntag_16:\n  pop\n  swap1\n  pop\n  tag_21\n  swap2\n  swap1\n  tag_22\n  jump\t// in\ntag_21:\n  pop\n  swap1\n  jump\t// out\ntag_22:\ntag_23:\n  dup1\n  dup3\n  gt\n  iszero\n  tag_24\n  jumpi\n  0x00\n  dup2\n  0x00\n  swap1\n  sstore\n  pop\n  0x01\n  add\n  jump(tag_23)\ntag_24:\n  pop\n  swap1\n  jump\t// out\n    /* \"#utility.yul\":7:327   */\ntag_15:\n    /* \"#utility.yul\":51:57   */\n  0x00\n    /* \"#utility.yul\":88:89   */\n  0x02\n    /* \"#utility.yul\":82:86   */\n  dup3\n    /* \"#utility.yul\":78:90   */\n  div\n    /* \"#utility.yul\":68:90   */\n  swap1\n  pop\n    /* \"#utility.yul\":135:136   */\n  0x01\n    /* \"#utility.yul\":129:133   */\n  dup3\n    /* \"#utility.yul\":125:137   */\n  and\n    /* \"#utility.yul\":156:174   */\n  dup1\n    /* \"#utility.yul\":146:227   */\n  tag_27\n  jumpi\n    /* \"#utility.yul\":212:216   */\n  0x7f\n    /* \"#utility.yul\":204:210   */\n  dup3\n    /* \"#utility.yul\":200:217   */\n  and\n    /* \"#utility.yul\":190:217   */\n  swap2\n  pop\n    /* \"#utility.yul\":146:227   */\ntag_27:\n    /* \"#utility.yul\":274:276   */\n  0x20\n    /* \"#utility.yul\":266:272   */\n  dup3\n    /* \"#utility.yul\":263:277   */\n  lt\n    /* \"#utility.yul\":243:261   */\n  dup2\n    /* \"#utility.yul\":240:278   */\n  eq\n    /* \"#utility.yul\":237:321   */\n  iszero\n  tag_28\n  jumpi\n    /* \"#utility.yul\":293:311   */\n  tag_29\n  tag_30\n  jump\t// in\ntag_29:\n    /* \"#utility.yul\":237:321   */\ntag_28:\n    /* \"#utility.yul\":58:327   */\n  pop\n    /* \"#utility.yul\":7:327   */\n  swap2\n  swap1\n  pop\n  jump\t// out\n    /* \"#utility.yul\":333:513   */\ntag_30:\n    /* \"#utility.yul\":381:458   */\n  0x4e487b7100000000000000000000000000000000000000000000000000000000\n    /* \"#utility.yul\":378:379   */\n  0x00\n    /* \"#utility.yul\":371:459   */\n  mstore\n    /* \"#utility.yul\":478:482   */\n  0x22\n    /* \"#utility.yul\":475:476   */\n  0x04\n    /* \"#utility.yul\":468:483   */\n  mstore\n    /* \"#utility.yul\":502:506   */\n  0x24\n    /* \"#utility.yul\":499:500   */\n  0x00\n    /* \"#utility.yul\":492:507   */\n  revert\n    /* \"V1/Contracts/sponsorCoin/SPC_Token.sol\":179:5713  contract SPC_Token {... */\ntag_9:\n  dataSize(sub_0)\n  dup1\n  dataOffset(sub_0)\n  0x00\n  codecopy\n  0x00\n  return\nstop\n\nsub_0: assembly {\n        /* \"V1/Contracts/sponsorCoin/SPC_Token.sol\":179:5713  contract SPC_Token {... */\n      mstore(0x40, 0x80)\n      callvalue\n      dup1\n      iszero\n      tag_1\n      jumpi\n      0x00\n      dup1\n      revert\n    tag_1:\n      pop\n      jumpi(tag_2, lt(calldatasize, 0x04))\n      shr(0xe0, calldataload(0x00))\n      dup1\n      0x29b57c14\n      gt\n      tag_15\n      jumpi\n      dup1\n      0x29b57c14\n      eq\n      tag_9\n      jumpi\n      dup1\n      0x93423e9c\n      eq\n      tag_10\n      jumpi\n      dup1\n      0x95d89b41\n      eq\n      tag_11\n      jumpi\n      dup1\n      0xa9059cbb\n      eq\n      tag_12\n      jumpi\n      dup1\n      0xdd62ed3e\n      eq\n      tag_13\n      jumpi\n      dup1\n      0xfd6aad25\n      eq\n      tag_14\n      jumpi\n      jump(tag_2)\n    tag_15:\n      dup1\n      0x017df522\n      eq\n      tag_3\n      jumpi\n      dup1\n      0x06fdde03\n      eq\n      tag_4\n      jumpi\n      dup1\n      0x095ea7b3\n      eq\n      tag_5\n      jumpi\n      dup1\n      0x18160ddd\n      eq\n      tag_6\n      jumpi\n      dup1\n      0x1e2eb088\n      eq\n      tag_7\n      jumpi\n      dup1\n      0x23b872dd\n      eq\n      tag_8\n      jumpi\n    tag_2:\n      0x00\n      dup1\n      revert\n        /* \"V1/Contracts/sponsorCoin/SPC_Token.sol\":5321:5510  function getIndexOf(address _accountKey) public view returns (uint) {... */\n    tag_3:\n      tag_16\n      0x04\n      dup1\n      calldatasize\n      sub\n      dup2\n      add\n      swap1\n      tag_17\n      swap2\n      swap1\n      tag_18\n      jump\t// in\n    tag_17:\n      tag_19\n      jump\t// in\n    tag_16:\n      mload(0x40)\n      tag_20\n      swap2\n      swap1\n      tag_21\n      jump\t// in\n    tag_20:\n      mload(0x40)\n      dup1\n      swap2\n      sub\n      swap1\n      return\n        /* \"V1/Contracts/sponsorCoin/SPC_Token.sol\":225:243  string public name */\n    tag_4:\n      tag_22\n      tag_23\n      jump\t// in\n    tag_22:\n      mload(0x40)\n      tag_24\n      swap2\n      swap1\n      tag_25\n      jump\t// in\n    tag_24:\n      mload(0x40)\n      dup1\n      swap2\n      sub\n      swap1\n      return\n        /* \"V1/Contracts/sponsorCoin/SPC_Token.sol\":2639:2886  function approve(address _spender, uint256 _value) external returns (bool) {... */\n    tag_5:\n      tag_26\n      0x04\n      dup1\n      calldatasize\n      sub\n      dup2\n      add\n      swap1\n      tag_27\n      swap2\n      swap1\n      tag_28\n      jump\t// in\n    tag_27:\n      tag_29\n      jump\t// in\n    tag_26:\n      mload(0x40)\n      tag_30\n      swap2\n      swap1\n      tag_31\n      jump\t// in\n    tag_30:\n      mload(0x40)\n      dup1\n      swap2\n      sub\n      swap1\n      return\n        /* \"V1/Contracts/sponsorCoin/SPC_Token.sol\":298:324  uint256 public totalSupply */\n    tag_6:\n      tag_32\n      tag_33\n      jump\t// in\n    tag_32:\n      mload(0x40)\n      tag_34\n      swap2\n      swap1\n      tag_21\n      jump\t// in\n    tag_34:\n      mload(0x40)\n      dup1\n      swap2\n      sub\n      swap1\n      return\n        /* \"V1/Contracts/sponsorCoin/SPC_Token.sol\":4043:4071  address[] public accountKeys */\n    tag_7:\n      tag_35\n      0x04\n      dup1\n      calldatasize\n      sub\n      dup2\n      add\n      swap1\n      tag_36\n      swap2\n      swap1\n      tag_37\n      jump\t// in\n    tag_36:\n      tag_38\n      jump\t// in\n    tag_35:\n      mload(0x40)\n      tag_39\n      swap2\n      swap1\n      tag_40\n      jump\t// in\n    tag_39:\n      mload(0x40)\n      dup1\n      swap2\n      sub\n      swap1\n      return\n        /* \"V1/Contracts/sponsorCoin/SPC_Token.sol\":3353:3692  function transferFrom(address _from, address _to, uint256 _value) external returns (bool) {... */\n    tag_8:\n      tag_41\n      0x04\n      dup1\n      calldatasize\n      sub\n      dup2\n      add\n      swap1\n      tag_42\n      swap2\n      swap1\n      tag_43\n      jump\t// in\n    tag_42:\n      tag_44\n      jump\t// in\n    tag_41:\n      mload(0x40)\n      tag_45\n      swap2\n      swap1\n      tag_31\n      jump\t// in\n    tag_45:\n      mload(0x40)\n      dup1\n      swap2\n      sub\n      swap1\n      return\n        /* \"V1/Contracts/sponsorCoin/SPC_Token.sol\":5137:5314  function isInserted(address _accountKey) public view returns (bool) {... */\n    tag_9:\n      tag_46\n      0x04\n      dup1\n      calldatasize\n      sub\n      dup2\n      add\n      swap1\n      tag_47\n      swap2\n      swap1\n      tag_18\n      jump\t// in\n    tag_47:\n      tag_48\n      jump\t// in\n    tag_46:\n      mload(0x40)\n      tag_49\n      swap2\n      swap1\n      tag_31\n      jump\t// in\n    tag_49:\n      mload(0x40)\n      dup1\n      swap2\n      sub\n      swap1\n      return\n        /* \"V1/Contracts/sponsorCoin/SPC_Token.sol\":5516:5711  function getAccountBalance(address _accountKey) public view returns (uint) {... */\n    tag_10:\n      tag_50\n      0x04\n      dup1\n      calldatasize\n      sub\n      dup2\n      add\n      swap1\n      tag_51\n      swap2\n      swap1\n      tag_18\n      jump\t// in\n    tag_51:\n      tag_52\n      jump\t// in\n    tag_50:\n      mload(0x40)\n      tag_53\n      swap2\n      swap1\n      tag_21\n      jump\t// in\n    tag_53:\n      mload(0x40)\n      dup1\n      swap2\n      sub\n      swap1\n      return\n        /* \"V1/Contracts/sponsorCoin/SPC_Token.sol\":249:269  string public symbol */\n    tag_11:\n      tag_54\n      tag_55\n      jump\t// in\n    tag_54:\n      mload(0x40)\n      tag_56\n      swap2\n      swap1\n      tag_25\n      jump\t// in\n    tag_56:\n      mload(0x40)\n      dup1\n      swap2\n      sub\n      swap1\n      return\n        /* \"V1/Contracts/sponsorCoin/SPC_Token.sol\":1418:1619  function transfer(address _to, uint256 _value) external returns (bool success) {... */\n    tag_12:\n      tag_57\n      0x04\n      dup1\n      calldatasize\n      sub\n      dup2\n      add\n      swap1\n      tag_58\n      swap2\n      swap1\n      tag_28\n      jump\t// in\n    tag_58:\n      tag_59\n      jump\t// in\n    tag_57:\n      mload(0x40)\n      tag_60\n      swap2\n      swap1\n      tag_31\n      jump\t// in\n    tag_60:\n      mload(0x40)\n      dup1\n      swap2\n      sub\n      swap1\n      return\n        /* \"V1/Contracts/sponsorCoin/SPC_Token.sol\":426:490  mapping(address => mapping(address => uint256)) public allowance */\n    tag_13:\n      tag_61\n      0x04\n      dup1\n      calldatasize\n      sub\n      dup2\n      add\n      swap1\n      tag_62\n      swap2\n      swap1\n      tag_63\n      jump\t// in\n    tag_62:\n      tag_64\n      jump\t// in\n    tag_61:\n      mload(0x40)\n      tag_65\n      swap2\n      swap1\n      tag_21\n      jump\t// in\n    tag_65:\n      mload(0x40)\n      dup1\n      swap2\n      sub\n      swap1\n      return\n        /* \"V1/Contracts/sponsorCoin/SPC_Token.sol\":4077:4116  mapping(address => uint) public indexOf */\n    tag_14:\n      tag_66\n      0x04\n      dup1\n      calldatasize\n      sub\n      dup2\n      add\n      swap1\n      tag_67\n      swap2\n      swap1\n      tag_18\n      jump\t// in\n    tag_67:\n      tag_68\n      jump\t// in\n    tag_66:\n      mload(0x40)\n      tag_69\n      swap2\n      swap1\n      tag_21\n      jump\t// in\n    tag_69:\n      mload(0x40)\n      dup1\n      swap2\n      sub\n      swap1\n      return\n        /* \"V1/Contracts/sponsorCoin/SPC_Token.sol\":5321:5510  function getIndexOf(address _accountKey) public view returns (uint) {... */\n    tag_19:\n        /* \"V1/Contracts/sponsorCoin/SPC_Token.sol\":5383:5387  uint */\n      0x00\n        /* \"V1/Contracts/sponsorCoin/SPC_Token.sol\":5404:5412  inserted */\n      0x08\n        /* \"V1/Contracts/sponsorCoin/SPC_Token.sol\":5404:5425  inserted[_accountKey] */\n      0x00\n        /* \"V1/Contracts/sponsorCoin/SPC_Token.sol\":5413:5424  _accountKey */\n      dup4\n        /* \"V1/Contracts/sponsorCoin/SPC_Token.sol\":5404:5425  inserted[_accountKey] */\n      0xffffffffffffffffffffffffffffffffffffffff\n      and\n      0xffffffffffffffffffffffffffffffffffffffff\n      and\n      dup2\n      mstore\n      0x20\n      add\n      swap1\n      dup2\n      mstore\n      0x20\n      add\n      0x00\n      keccak256\n      0x00\n      swap1\n      sload\n      swap1\n      0x0100\n      exp\n      swap1\n      div\n      0xff\n      and\n        /* \"V1/Contracts/sponsorCoin/SPC_Token.sol\":5399:5501  if (!inserted[_accountKey])... */\n      tag_71\n      jumpi\n        /* \"V1/Contracts/sponsorCoin/SPC_Token.sol\":5446:5447  0 */\n      0x00\n        /* \"V1/Contracts/sponsorCoin/SPC_Token.sol\":5439:5447  return 0 */\n      swap1\n      pop\n      jump(tag_70)\n        /* \"V1/Contracts/sponsorCoin/SPC_Token.sol\":5399:5501  if (!inserted[_accountKey])... */\n    tag_71:\n        /* \"V1/Contracts/sponsorCoin/SPC_Token.sol\":5481:5488  indexOf */\n      0x07\n        /* \"V1/Contracts/sponsorCoin/SPC_Token.sol\":5481:5501  indexOf[_accountKey] */\n      0x00\n        /* \"V1/Contracts/sponsorCoin/SPC_Token.sol\":5489:5500  _accountKey */\n      dup4\n        /* \"V1/Contracts/sponsorCoin/SPC_Token.sol\":5481:5501  indexOf[_accountKey] */\n      0xffffffffffffffffffffffffffffffffffffffff\n      and\n      0xffffffffffffffffffffffffffffffffffffffff\n      and\n      dup2\n      mstore\n      0x20\n      add\n      swap1\n      dup2\n      mstore\n      0x20\n      add\n      0x00\n      keccak256\n      sload\n        /* \"V1/Contracts/sponsorCoin/SPC_Token.sol\":5474:5501  return indexOf[_accountKey] */\n      swap1\n      pop\n        /* \"V1/Contracts/sponsorCoin/SPC_Token.sol\":5321:5510  function getIndexOf(address _accountKey) public view returns (uint) {... */\n    tag_70:\n      swap2\n      swap1\n      pop\n      jump\t// out\n        /* \"V1/Contracts/sponsorCoin/SPC_Token.sol\":225:243  string public name */\n    tag_23:\n      0x00\n      dup1\n      sload\n      tag_73\n      swap1\n      tag_74\n      jump\t// in\n    tag_73:\n      dup1\n      0x1f\n      add\n      0x20\n      dup1\n      swap2\n      div\n      mul\n      0x20\n      add\n      mload(0x40)\n      swap1\n      dup2\n      add\n      0x40\n      mstore\n      dup1\n      swap3\n      swap2\n      swap1\n      dup2\n      dup2\n      mstore\n      0x20\n      add\n      dup3\n      dup1\n      sload\n      tag_75\n      swap1\n      tag_74\n      jump\t// in\n    tag_75:\n      dup1\n      iszero\n      tag_76\n      jumpi\n      dup1\n      0x1f\n      lt\n      tag_77\n      jumpi\n      0x0100\n      dup1\n      dup4\n      sload\n      div\n      mul\n      dup4\n      mstore\n      swap2\n      0x20\n      add\n      swap2\n      jump(tag_76)\n    tag_77:\n      dup3\n      add\n      swap2\n      swap1\n      0x00\n      mstore\n      keccak256(0x00, 0x20)\n      swap1\n    tag_78:\n      dup2\n      sload\n      dup2\n      mstore\n      swap1\n      0x01\n      add\n      swap1\n      0x20\n      add\n      dup1\n      dup4\n      gt\n      tag_78\n      jumpi\n      dup3\n      swap1\n      sub\n      0x1f\n      and\n      dup3\n      add\n      swap2\n    tag_76:\n      pop\n      pop\n      pop\n      pop\n      pop\n      dup2\n      jump\t// out\n        /* \"V1/Contracts/sponsorCoin/SPC_Token.sol\":2639:2886  function approve(address _spender, uint256 _value) external returns (bool) {... */\n    tag_29:\n        /* \"V1/Contracts/sponsorCoin/SPC_Token.sol\":2708:2712  bool */\n      0x00\n        /* \"V1/Contracts/sponsorCoin/SPC_Token.sol\":2752:2753  0 */\n      dup1\n        /* \"V1/Contracts/sponsorCoin/SPC_Token.sol\":2732:2754  _spender != address(0) */\n      0xffffffffffffffffffffffffffffffffffffffff\n      and\n        /* \"V1/Contracts/sponsorCoin/SPC_Token.sol\":2732:2740  _spender */\n      dup4\n        /* \"V1/Contracts/sponsorCoin/SPC_Token.sol\":2732:2754  _spender != address(0) */\n      0xffffffffffffffffffffffffffffffffffffffff\n      and\n      eq\n      iszero\n        /* \"V1/Contracts/sponsorCoin/SPC_Token.sol\":2724:2755  require(_spender != address(0)) */\n      tag_80\n      jumpi\n      0x00\n      dup1\n      revert\n    tag_80:\n        /* \"V1/Contracts/sponsorCoin/SPC_Token.sol\":2799:2805  _value */\n      dup2\n        /* \"V1/Contracts/sponsorCoin/SPC_Token.sol\":2765:2774  allowance */\n      0x05\n        /* \"V1/Contracts/sponsorCoin/SPC_Token.sol\":2765:2786  allowance[msg.sender] */\n      0x00\n        /* \"V1/Contracts/sponsorCoin/SPC_Token.sol\":2775:2785  msg.sender */\n      caller\n        /* \"V1/Contracts/sponsorCoin/SPC_Token.sol\":2765:2786  allowance[msg.sender] */\n      0xffffffffffffffffffffffffffffffffffffffff\n      and\n      0xffffffffffffffffffffffffffffffffffffffff\n      and\n      dup2\n      mstore\n      0x20\n      add\n      swap1\n      dup2\n      mstore\n      0x20\n      add\n      0x00\n      keccak256\n        /* \"V1/Contracts/sponsorCoin/SPC_Token.sol\":2765:2796  allowance[msg.sender][_spender] */\n      0x00\n        /* \"V1/Contracts/sponsorCoin/SPC_Token.sol\":2787:2795  _spender */\n      dup6\n        /* \"V1/Contracts/sponsorCoin/SPC_Token.sol\":2765:2796  allowance[msg.sender][_spender] */\n      0xffffffffffffffffffffffffffffffffffffffff\n      and\n      0xffffffffffffffffffffffffffffffffffffffff\n      and\n      dup2\n      mstore\n      0x20\n      add\n      swap1\n      dup2\n      mstore\n      0x20\n      add\n      0x00\n      keccak256\n        /* \"V1/Contracts/sponsorCoin/SPC_Token.sol\":2765:2805  allowance[msg.sender][_spender] = _value */\n      dup2\n      swap1\n      sstore\n      pop\n        /* \"V1/Contracts/sponsorCoin/SPC_Token.sol\":2841:2849  _spender */\n      dup3\n        /* \"V1/Contracts/sponsorCoin/SPC_Token.sol\":2820:2858  Approval(msg.sender, _spender, _value) */\n      0xffffffffffffffffffffffffffffffffffffffff\n      and\n        /* \"V1/Contracts/sponsorCoin/SPC_Token.sol\":2829:2839  msg.sender */\n      caller\n        /* \"V1/Contracts/sponsorCoin/SPC_Token.sol\":2820:2858  Approval(msg.sender, _spender, _value) */\n      0xffffffffffffffffffffffffffffffffffffffff\n      and\n      0x8c5be1e5ebec7d5bd14f71427d1e84f3dd0314c0f7b2291e5b200ac8c7c3b925\n        /* \"V1/Contracts/sponsorCoin/SPC_Token.sol\":2851:2857  _value */\n      dup5\n        /* \"V1/Contracts/sponsorCoin/SPC_Token.sol\":2820:2858  Approval(msg.sender, _spender, _value) */\n      mload(0x40)\n      tag_81\n      swap2\n      swap1\n      tag_21\n      jump\t// in\n    tag_81:\n      mload(0x40)\n      dup1\n      swap2\n      sub\n      swap1\n      log3\n        /* \"V1/Contracts/sponsorCoin/SPC_Token.sol\":2875:2879  true */\n      0x01\n        /* \"V1/Contracts/sponsorCoin/SPC_Token.sol\":2868:2879  return true */\n      swap1\n      pop\n        /* \"V1/Contracts/sponsorCoin/SPC_Token.sol\":2639:2886  function approve(address _spender, uint256 _value) external returns (bool) {... */\n      swap3\n      swap2\n      pop\n      pop\n      jump\t// out\n        /* \"V1/Contracts/sponsorCoin/SPC_Token.sol\":298:324  uint256 public totalSupply */\n    tag_33:\n      sload(0x03)\n      dup2\n      jump\t// out\n        /* \"V1/Contracts/sponsorCoin/SPC_Token.sol\":4043:4071  address[] public accountKeys */\n    tag_38:\n      0x06\n      dup2\n      dup2\n      sload\n      dup2\n      lt\n      tag_82\n      jumpi\n      0x00\n      dup1\n      revert\n    tag_82:\n      swap1\n      0x00\n      mstore\n      keccak256(0x00, 0x20)\n      add\n      0x00\n      swap2\n      pop\n      sload\n      swap1\n      0x0100\n      exp\n      swap1\n      div\n      0xffffffffffffffffffffffffffffffffffffffff\n      and\n      dup2\n      jump\t// out\n        /* \"V1/Contracts/sponsorCoin/SPC_Token.sol\":3353:3692  function transferFrom(address _from, address _to, uint256 _value) external returns (bool) {... */\n    tag_44:\n        /* \"V1/Contracts/sponsorCoin/SPC_Token.sol\":3437:3441  bool */\n      0x00\n        /* \"V1/Contracts/sponsorCoin/SPC_Token.sol\":3471:3480  balanceOf */\n      0x04\n        /* \"V1/Contracts/sponsorCoin/SPC_Token.sol\":3471:3487  balanceOf[_from] */\n      0x00\n        /* \"V1/Contracts/sponsorCoin/SPC_Token.sol\":3481:3486  _from */\n      dup6\n        /* \"V1/Contracts/sponsorCoin/SPC_Token.sol\":3471:3487  balanceOf[_from] */\n      0xffffffffffffffffffffffffffffffffffffffff\n      and\n      0xffffffffffffffffffffffffffffffffffffffff\n      and\n      dup2\n      mstore\n      0x20\n      add\n      swap1\n      dup2\n      mstore\n      0x20\n      add\n      0x00\n      keccak256\n      sload\n        /* \"V1/Contracts/sponsorCoin/SPC_Token.sol\":3461:3467  _value */\n      dup3\n        /* \"V1/Contracts/sponsorCoin/SPC_Token.sol\":3461:3487  _value <= balanceOf[_from] */\n      gt\n      iszero\n        /* \"V1/Contracts/sponsorCoin/SPC_Token.sol\":3453:3488  require(_value <= balanceOf[_from]) */\n      tag_85\n      jumpi\n      0x00\n      dup1\n      revert\n    tag_85:\n        /* \"V1/Contracts/sponsorCoin/SPC_Token.sol\":3516:3525  allowance */\n      0x05\n        /* \"V1/Contracts/sponsorCoin/SPC_Token.sol\":3516:3532  allowance[_from] */\n      0x00\n        /* \"V1/Contracts/sponsorCoin/SPC_Token.sol\":3526:3531  _from */\n      dup6\n        /* \"V1/Contracts/sponsorCoin/SPC_Token.sol\":3516:3532  allowance[_from] */\n      0xffffffffffffffffffffffffffffffffffffffff\n      and\n      0xffffffffffffffffffffffffffffffffffffffff\n      and\n      dup2\n      mstore\n      0x20\n      add\n      swap1\n      dup2\n      mstore\n      0x20\n      add\n      0x00\n      keccak256\n        /* \"V1/Contracts/sponsorCoin/SPC_Token.sol\":3516:3544  allowance[_from][msg.sender] */\n      0x00\n        /* \"V1/Contracts/sponsorCoin/SPC_Token.sol\":3533:3543  msg.sender */\n      caller\n        /* \"V1/Contracts/sponsorCoin/SPC_Token.sol\":3516:3544  allowance[_from][msg.sender] */\n      0xffffffffffffffffffffffffffffffffffffffff\n      and\n      0xffffffffffffffffffffffffffffffffffffffff\n      and\n      dup2\n      mstore\n      0x20\n      add\n      swap1\n      dup2\n      mstore\n      0x20\n      add\n      0x00\n      keccak256\n      sload\n        /* \"V1/Contracts/sponsorCoin/SPC_Token.sol\":3506:3512  _value */\n      dup3\n        /* \"V1/Contracts/sponsorCoin/SPC_Token.sol\":3506:3544  _value <= allowance[_from][msg.sender] */\n      gt\n      iszero\n        /* \"V1/Contracts/sponsorCoin/SPC_Token.sol\":3498:3545  require(_value <= allowance[_from][msg.sender]) */\n      tag_86\n      jumpi\n      0x00\n      dup1\n      revert\n    tag_86:\n        /* \"V1/Contracts/sponsorCoin/SPC_Token.sol\":3618:3624  _value */\n      dup2\n        /* \"V1/Contracts/sponsorCoin/SPC_Token.sol\":3586:3595  allowance */\n      0x05\n        /* \"V1/Contracts/sponsorCoin/SPC_Token.sol\":3586:3602  allowance[_from] */\n      0x00\n        /* \"V1/Contracts/sponsorCoin/SPC_Token.sol\":3596:3601  _from */\n      dup7\n        /* \"V1/Contracts/sponsorCoin/SPC_Token.sol\":3586:3602  allowance[_from] */\n      0xffffffffffffffffffffffffffffffffffffffff\n      and\n      0xffffffffffffffffffffffffffffffffffffffff\n      and\n      dup2\n      mstore\n      0x20\n      add\n      swap1\n      dup2\n      mstore\n      0x20\n      add\n      0x00\n      keccak256\n        /* \"V1/Contracts/sponsorCoin/SPC_Token.sol\":3586:3614  allowance[_from][msg.sender] */\n      0x00\n        /* \"V1/Contracts/sponsorCoin/SPC_Token.sol\":3603:3613  msg.sender */\n      caller\n        /* \"V1/Contracts/sponsorCoin/SPC_Token.sol\":3586:3614  allowance[_from][msg.sender] */\n      0xffffffffffffffffffffffffffffffffffffffff\n      and\n      0xffffffffffffffffffffffffffffffffffffffff\n      and\n      dup2\n      mstore\n      0x20\n      add\n      swap1\n      dup2\n      mstore\n      0x20\n      add\n      0x00\n      keccak256\n      sload\n        /* \"V1/Contracts/sponsorCoin/SPC_Token.sol\":3586:3625  allowance[_from][msg.sender] - (_value) */\n      tag_87\n      swap2\n      swap1\n      tag_88\n      jump\t// in\n    tag_87:\n        /* \"V1/Contracts/sponsorCoin/SPC_Token.sol\":3555:3564  allowance */\n      0x05\n        /* \"V1/Contracts/sponsorCoin/SPC_Token.sol\":3555:3571  allowance[_from] */\n      0x00\n        /* \"V1/Contracts/sponsorCoin/SPC_Token.sol\":3565:3570  _from */\n      dup7\n        /* \"V1/Contracts/sponsorCoin/SPC_Token.sol\":3555:3571  allowance[_from] */\n      0xffffffffffffffffffffffffffffffffffffffff\n      and\n      0xffffffffffffffffffffffffffffffffffffffff\n      and\n      dup2\n      mstore\n      0x20\n      add\n      swap1\n      dup2\n      mstore\n      0x20\n      add\n      0x00\n      keccak256\n        /* \"V1/Contracts/sponsorCoin/SPC_Token.sol\":3555:3583  allowance[_from][msg.sender] */\n      0x00\n        /* \"V1/Contracts/sponsorCoin/SPC_Token.sol\":3572:3582  msg.sender */\n      caller\n        /* \"V1/Contracts/sponsorCoin/SPC_Token.sol\":3555:3583  allowance[_from][msg.sender] */\n      0xffffffffffffffffffffffffffffffffffffffff\n      and\n      0xffffffffffffffffffffffffffffffffffffffff\n      and\n      dup2\n      mstore\n      0x20\n      add\n      swap1\n      dup2\n      mstore\n      0x20\n      add\n      0x00\n      keccak256\n        /* \"V1/Contracts/sponsorCoin/SPC_Token.sol\":3555:3625  allowance[_from][msg.sender] = allowance[_from][msg.sender] - (_value) */\n      dup2\n      swap1\n      sstore\n      pop\n        /* \"V1/Contracts/sponsorCoin/SPC_Token.sol\":3635:3664  _transfer(_from, _to, _value) */\n      tag_89\n        /* \"V1/Contracts/sponsorCoin/SPC_Token.sol\":3645:3650  _from */\n      dup5\n        /* \"V1/Contracts/sponsorCoin/SPC_Token.sol\":3652:3655  _to */\n      dup5\n        /* \"V1/Contracts/sponsorCoin/SPC_Token.sol\":3657:3663  _value */\n      dup5\n        /* \"V1/Contracts/sponsorCoin/SPC_Token.sol\":3635:3644  _transfer */\n      tag_90\n        /* \"V1/Contracts/sponsorCoin/SPC_Token.sol\":3635:3664  _transfer(_from, _to, _value) */\n      jump\t// in\n    tag_89:\n        /* \"V1/Contracts/sponsorCoin/SPC_Token.sol\":3681:3685  true */\n      0x01\n        /* \"V1/Contracts/sponsorCoin/SPC_Token.sol\":3674:3685  return true */\n      swap1\n      pop\n        /* \"V1/Contracts/sponsorCoin/SPC_Token.sol\":3353:3692  function transferFrom(address _from, address _to, uint256 _value) external returns (bool) {... */\n      swap4\n      swap3\n      pop\n      pop\n      pop\n      jump\t// out\n        /* \"V1/Contracts/sponsorCoin/SPC_Token.sol\":5137:5314  function isInserted(address _accountKey) public view returns (bool) {... */\n    tag_48:\n        /* \"V1/Contracts/sponsorCoin/SPC_Token.sol\":5199:5203  bool */\n      0x00\n        /* \"V1/Contracts/sponsorCoin/SPC_Token.sol\":5220:5228  inserted */\n      0x08\n        /* \"V1/Contracts/sponsorCoin/SPC_Token.sol\":5220:5241  inserted[_accountKey] */\n      0x00\n        /* \"V1/Contracts/sponsorCoin/SPC_Token.sol\":5229:5240  _accountKey */\n      dup4\n        /* \"V1/Contracts/sponsorCoin/SPC_Token.sol\":5220:5241  inserted[_accountKey] */\n      0xffffffffffffffffffffffffffffffffffffffff\n      and\n      0xffffffffffffffffffffffffffffffffffffffff\n      and\n      dup2\n      mstore\n      0x20\n      add\n      swap1\n      dup2\n      mstore\n      0x20\n      add\n      0x00\n      keccak256\n      0x00\n      swap1\n      sload\n      swap1\n      0x0100\n      exp\n      swap1\n      div\n      0xff\n      and\n        /* \"V1/Contracts/sponsorCoin/SPC_Token.sol\":5215:5305  if (!inserted[_accountKey])... */\n      tag_92\n      jumpi\n        /* \"V1/Contracts/sponsorCoin/SPC_Token.sol\":5262:5267  false */\n      0x00\n        /* \"V1/Contracts/sponsorCoin/SPC_Token.sol\":5255:5267  return false */\n      swap1\n      pop\n      jump(tag_91)\n        /* \"V1/Contracts/sponsorCoin/SPC_Token.sol\":5215:5305  if (!inserted[_accountKey])... */\n    tag_92:\n        /* \"V1/Contracts/sponsorCoin/SPC_Token.sol\":5301:5305  true */\n      0x01\n        /* \"V1/Contracts/sponsorCoin/SPC_Token.sol\":5294:5305  return true */\n      swap1\n      pop\n        /* \"V1/Contracts/sponsorCoin/SPC_Token.sol\":5137:5314  function isInserted(address _accountKey) public view returns (bool) {... */\n    tag_91:\n      swap2\n      swap1\n      pop\n      jump\t// out\n        /* \"V1/Contracts/sponsorCoin/SPC_Token.sol\":5516:5711  function getAccountBalance(address _accountKey) public view returns (uint) {... */\n    tag_52:\n        /* \"V1/Contracts/sponsorCoin/SPC_Token.sol\":5585:5589  uint */\n      0x00\n        /* \"V1/Contracts/sponsorCoin/SPC_Token.sol\":5606:5614  inserted */\n      0x08\n        /* \"V1/Contracts/sponsorCoin/SPC_Token.sol\":5606:5627  inserted[_accountKey] */\n      0x00\n        /* \"V1/Contracts/sponsorCoin/SPC_Token.sol\":5615:5626  _accountKey */\n      dup4\n        /* \"V1/Contracts/sponsorCoin/SPC_Token.sol\":5606:5627  inserted[_accountKey] */\n      0xffffffffffffffffffffffffffffffffffffffff\n      and\n      0xffffffffffffffffffffffffffffffffffffffff\n      and\n      dup2\n      mstore\n      0x20\n      add\n      swap1\n      dup2\n      mstore\n      0x20\n      add\n      0x00\n      keccak256\n      0x00\n      swap1\n      sload\n      swap1\n      0x0100\n      exp\n      swap1\n      div\n      0xff\n      and\n        /* \"V1/Contracts/sponsorCoin/SPC_Token.sol\":5601:5704  if (!inserted[_accountKey])... */\n      tag_95\n      jumpi\n        /* \"V1/Contracts/sponsorCoin/SPC_Token.sol\":5648:5649  0 */\n      0x00\n        /* \"V1/Contracts/sponsorCoin/SPC_Token.sol\":5641:5649  return 0 */\n      swap1\n      pop\n      jump(tag_94)\n        /* \"V1/Contracts/sponsorCoin/SPC_Token.sol\":5601:5704  if (!inserted[_accountKey])... */\n    tag_95:\n        /* \"V1/Contracts/sponsorCoin/SPC_Token.sol\":5682:5691  balanceOf */\n      0x04\n        /* \"V1/Contracts/sponsorCoin/SPC_Token.sol\":5682:5704  balanceOf[_accountKey] */\n      0x00\n        /* \"V1/Contracts/sponsorCoin/SPC_Token.sol\":5692:5703  _accountKey */\n      dup4\n        /* \"V1/Contracts/sponsorCoin/SPC_Token.sol\":5682:5704  balanceOf[_accountKey] */\n      0xffffffffffffffffffffffffffffffffffffffff\n      and\n      0xffffffffffffffffffffffffffffffffffffffff\n      and\n      dup2\n      mstore\n      0x20\n      add\n      swap1\n      dup2\n      mstore\n      0x20\n      add\n      0x00\n      keccak256\n      sload\n        /* \"V1/Contracts/sponsorCoin/SPC_Token.sol\":5675:5704  return balanceOf[_accountKey] */\n      swap1\n      pop\n        /* \"V1/Contracts/sponsorCoin/SPC_Token.sol\":5516:5711  function getAccountBalance(address _accountKey) public view returns (uint) {... */\n    tag_94:\n      swap2\n      swap1\n      pop\n      jump\t// out\n        /* \"V1/Contracts/sponsorCoin/SPC_Token.sol\":249:269  string public symbol */\n    tag_55:\n      0x01\n      dup1\n      sload\n      tag_97\n      swap1\n      tag_74\n      jump\t// in\n    tag_97:\n      dup1\n      0x1f\n      add\n      0x20\n      dup1\n      swap2\n      div\n      mul\n      0x20\n      add\n      mload(0x40)\n      swap1\n      dup2\n      add\n      0x40\n      mstore\n      dup1\n      swap3\n      swap2\n      swap1\n      dup2\n      dup2\n      mstore\n      0x20\n      add\n      dup3\n      dup1\n      sload\n      tag_98\n      swap1\n      tag_74\n      jump\t// in\n    tag_98:\n      dup1\n      iszero\n      tag_99\n      jumpi\n      dup1\n      0x1f\n      lt\n      tag_100\n      jumpi\n      0x0100\n      dup1\n      dup4\n      sload\n      div\n      mul\n      dup4\n      mstore\n      swap2\n      0x20\n      add\n      swap2\n      jump(tag_99)\n    tag_100:\n      dup3\n      add\n      swap2\n      swap1\n      0x00\n      mstore\n      keccak256(0x00, 0x20)\n      swap1\n    tag_101:\n      dup2\n      sload\n      dup2\n      mstore\n      swap1\n      0x01\n      add\n      swap1\n      0x20\n      add\n      dup1\n      dup4\n      gt\n      tag_101\n      jumpi\n      dup3\n      swap1\n      sub\n      0x1f\n      and\n      dup3\n      add\n      swap2\n    tag_99:\n      pop\n      pop\n      pop\n      pop\n      pop\n      dup2\n      jump\t// out\n        /* \"V1/Contracts/sponsorCoin/SPC_Token.sol\":1418:1619  function transfer(address _to, uint256 _value) external returns (bool success) {... */\n    tag_59:\n        /* \"V1/Contracts/sponsorCoin/SPC_Token.sol\":1483:1495  bool success */\n      0x00\n        /* \"V1/Contracts/sponsorCoin/SPC_Token.sol\":1540:1546  _value */\n      dup2\n        /* \"V1/Contracts/sponsorCoin/SPC_Token.sol\":1515:1524  balanceOf */\n      0x04\n        /* \"V1/Contracts/sponsorCoin/SPC_Token.sol\":1515:1536  balanceOf[msg.sender] */\n      0x00\n        /* \"V1/Contracts/sponsorCoin/SPC_Token.sol\":1525:1535  msg.sender */\n      caller\n        /* \"V1/Contracts/sponsorCoin/SPC_Token.sol\":1515:1536  balanceOf[msg.sender] */\n      0xffffffffffffffffffffffffffffffffffffffff\n      and\n      0xffffffffffffffffffffffffffffffffffffffff\n      and\n      dup2\n      mstore\n      0x20\n      add\n      swap1\n      dup2\n      mstore\n      0x20\n      add\n      0x00\n      keccak256\n      sload\n        /* \"V1/Contracts/sponsorCoin/SPC_Token.sol\":1515:1546  balanceOf[msg.sender] >= _value */\n      lt\n      iszero\n        /* \"V1/Contracts/sponsorCoin/SPC_Token.sol\":1507:1547  require(balanceOf[msg.sender] >= _value) */\n      tag_103\n      jumpi\n      0x00\n      dup1\n      revert\n    tag_103:\n        /* \"V1/Contracts/sponsorCoin/SPC_Token.sol\":1557:1591  _transfer(msg.sender, _to, _value) */\n      tag_104\n        /* \"V1/Contracts/sponsorCoin/SPC_Token.sol\":1567:1577  msg.sender */\n      caller\n        /* \"V1/Contracts/sponsorCoin/SPC_Token.sol\":1579:1582  _to */\n      dup5\n        /* \"V1/Contracts/sponsorCoin/SPC_Token.sol\":1584:1590  _value */\n      dup5\n        /* \"V1/Contracts/sponsorCoin/SPC_Token.sol\":1557:1566  _transfer */\n      tag_90\n        /* \"V1/Contracts/sponsorCoin/SPC_Token.sol\":1557:1591  _transfer(msg.sender, _to, _value) */\n      jump\t// in\n    tag_104:\n        /* \"V1/Contracts/sponsorCoin/SPC_Token.sol\":1608:1612  true */\n      0x01\n        /* \"V1/Contracts/sponsorCoin/SPC_Token.sol\":1601:1612  return true */\n      swap1\n      pop\n        /* \"V1/Contracts/sponsorCoin/SPC_Token.sol\":1418:1619  function transfer(address _to, uint256 _value) external returns (bool success) {... */\n      swap3\n      swap2\n      pop\n      pop\n      jump\t// out\n        /* \"V1/Contracts/sponsorCoin/SPC_Token.sol\":426:490  mapping(address => mapping(address => uint256)) public allowance */\n    tag_64:\n      mstore(0x20, 0x05)\n      dup2\n      0x00\n      mstore\n      mstore(0x20, keccak256(0x00, 0x40))\n      dup1\n      0x00\n      mstore\n      keccak256(0x00, 0x40)\n      0x00\n      swap2\n      pop\n      swap2\n      pop\n      pop\n      sload\n      dup2\n      jump\t// out\n        /* \"V1/Contracts/sponsorCoin/SPC_Token.sol\":4077:4116  mapping(address => uint) public indexOf */\n    tag_68:\n      mstore(0x20, 0x07)\n      dup1\n      0x00\n      mstore\n      keccak256(0x00, 0x40)\n      0x00\n      swap2\n      pop\n      swap1\n      pop\n      sload\n      dup2\n      jump\t// out\n        /* \"V1/Contracts/sponsorCoin/SPC_Token.sol\":1945:2291  function _transfer(address _from, address _to, uint256 _value) internal {... */\n    tag_90:\n        /* \"V1/Contracts/sponsorCoin/SPC_Token.sol\":2133:2134  0 */\n      0x00\n        /* \"V1/Contracts/sponsorCoin/SPC_Token.sol\":2118:2135  _to != address(0) */\n      0xffffffffffffffffffffffffffffffffffffffff\n      and\n        /* \"V1/Contracts/sponsorCoin/SPC_Token.sol\":2118:2121  _to */\n      dup3\n        /* \"V1/Contracts/sponsorCoin/SPC_Token.sol\":2118:2135  _to != address(0) */\n      0xffffffffffffffffffffffffffffffffffffffff\n      and\n      eq\n      iszero\n        /* \"V1/Contracts/sponsorCoin/SPC_Token.sol\":2110:2136  require(_to != address(0)) */\n      tag_106\n      jumpi\n      0x00\n      dup1\n      revert\n    tag_106:\n        /* \"V1/Contracts/sponsorCoin/SPC_Token.sol\":2146:2190  setBalance(_from, balanceOf[_from] - _value) */\n      tag_107\n        /* \"V1/Contracts/sponsorCoin/SPC_Token.sol\":2157:2162  _from */\n      dup4\n        /* \"V1/Contracts/sponsorCoin/SPC_Token.sol\":2183:2189  _value */\n      dup3\n        /* \"V1/Contracts/sponsorCoin/SPC_Token.sol\":2164:2173  balanceOf */\n      0x04\n        /* \"V1/Contracts/sponsorCoin/SPC_Token.sol\":2164:2180  balanceOf[_from] */\n      0x00\n        /* \"V1/Contracts/sponsorCoin/SPC_Token.sol\":2174:2179  _from */\n      dup8\n        /* \"V1/Contracts/sponsorCoin/SPC_Token.sol\":2164:2180  balanceOf[_from] */\n      0xffffffffffffffffffffffffffffffffffffffff\n      and\n      0xffffffffffffffffffffffffffffffffffffffff\n      and\n      dup2\n      mstore\n      0x20\n      add\n      swap1\n      dup2\n      mstore\n      0x20\n      add\n      0x00\n      keccak256\n      sload\n        /* \"V1/Contracts/sponsorCoin/SPC_Token.sol\":2164:2189  balanceOf[_from] - _value */\n      tag_108\n      swap2\n      swap1\n      tag_88\n      jump\t// in\n    tag_108:\n        /* \"V1/Contracts/sponsorCoin/SPC_Token.sol\":2146:2156  setBalance */\n      tag_109\n        /* \"V1/Contracts/sponsorCoin/SPC_Token.sol\":2146:2190  setBalance(_from, balanceOf[_from] - _value) */\n      jump\t// in\n    tag_107:\n      pop\n        /* \"V1/Contracts/sponsorCoin/SPC_Token.sol\":2200:2241  setBalance(_to,  balanceOf[_to] + _value) */\n      tag_110\n        /* \"V1/Contracts/sponsorCoin/SPC_Token.sol\":2211:2214  _to */\n      dup3\n        /* \"V1/Contracts/sponsorCoin/SPC_Token.sol\":2234:2240  _value */\n      dup3\n        /* \"V1/Contracts/sponsorCoin/SPC_Token.sol\":2217:2226  balanceOf */\n      0x04\n        /* \"V1/Contracts/sponsorCoin/SPC_Token.sol\":2217:2231  balanceOf[_to] */\n      0x00\n        /* \"V1/Contracts/sponsorCoin/SPC_Token.sol\":2227:2230  _to */\n      dup7\n        /* \"V1/Contracts/sponsorCoin/SPC_Token.sol\":2217:2231  balanceOf[_to] */\n      0xffffffffffffffffffffffffffffffffffffffff\n      and\n      0xffffffffffffffffffffffffffffffffffffffff\n      and\n      dup2\n      mstore\n      0x20\n      add\n      swap1\n      dup2\n      mstore\n      0x20\n      add\n      0x00\n      keccak256\n      sload\n        /* \"V1/Contracts/sponsorCoin/SPC_Token.sol\":2217:2240  balanceOf[_to] + _value */\n      tag_111\n      swap2\n      swap1\n      tag_112\n      jump\t// in\n    tag_111:\n        /* \"V1/Contracts/sponsorCoin/SPC_Token.sol\":2200:2210  setBalance */\n      tag_109\n        /* \"V1/Contracts/sponsorCoin/SPC_Token.sol\":2200:2241  setBalance(_to,  balanceOf[_to] + _value) */\n      jump\t// in\n    tag_110:\n      pop\n        /* \"V1/Contracts/sponsorCoin/SPC_Token.sol\":2272:2275  _to */\n      dup2\n        /* \"V1/Contracts/sponsorCoin/SPC_Token.sol\":2256:2284  Transfer(_from, _to, _value) */\n      0xffffffffffffffffffffffffffffffffffffffff\n      and\n        /* \"V1/Contracts/sponsorCoin/SPC_Token.sol\":2265:2270  _from */\n      dup4\n        /* \"V1/Contracts/sponsorCoin/SPC_Token.sol\":2256:2284  Transfer(_from, _to, _value) */\n      0xffffffffffffffffffffffffffffffffffffffff\n      and\n      0xddf252ad1be2c89b69c2b068fc378daa952ba7f163c4a11628f55a4df523b3ef\n        /* \"V1/Contracts/sponsorCoin/SPC_Token.sol\":2277:2283  _value */\n      dup4\n        /* \"V1/Contracts/sponsorCoin/SPC_Token.sol\":2256:2284  Transfer(_from, _to, _value) */\n      mload(0x40)\n      tag_113\n      swap2\n      swap1\n      tag_21\n      jump\t// in\n    tag_113:\n      mload(0x40)\n      dup1\n      swap2\n      sub\n      swap1\n      log3\n        /* \"V1/Contracts/sponsorCoin/SPC_Token.sol\":1945:2291  function _transfer(address _from, address _to, uint256 _value) internal {... */\n      pop\n      pop\n      pop\n      jump\t// out\n        /* \"V1/Contracts/sponsorCoin/SPC_Token.sol\":4671:5066  function setBalance(address _accountKey, uint _newBalance ) internal returns (bool) {... */\n    tag_109:\n        /* \"V1/Contracts/sponsorCoin/SPC_Token.sol\":4749:4753  bool */\n      0x00\n        /* \"V1/Contracts/sponsorCoin/SPC_Token.sol\":4791:4802  _newBalance */\n      dup2\n        /* \"V1/Contracts/sponsorCoin/SPC_Token.sol\":4766:4775  balanceOf */\n      0x04\n        /* \"V1/Contracts/sponsorCoin/SPC_Token.sol\":4766:4788  balanceOf[_accountKey] */\n      0x00\n        /* \"V1/Contracts/sponsorCoin/SPC_Token.sol\":4776:4787  _accountKey */\n      dup6\n        /* \"V1/Contracts/sponsorCoin/SPC_Token.sol\":4766:4788  balanceOf[_accountKey] */\n      0xffffffffffffffffffffffffffffffffffffffff\n      and\n      0xffffffffffffffffffffffffffffffffffffffff\n      and\n      dup2\n      mstore\n      0x20\n      add\n      swap1\n      dup2\n      mstore\n      0x20\n      add\n      0x00\n      keccak256\n        /* \"V1/Contracts/sponsorCoin/SPC_Token.sol\":4766:4802  balanceOf[_accountKey] = _newBalance */\n      dup2\n      swap1\n      sstore\n      pop\n        /* \"V1/Contracts/sponsorCoin/SPC_Token.sol\":4818:4826  inserted */\n      0x08\n        /* \"V1/Contracts/sponsorCoin/SPC_Token.sol\":4818:4839  inserted[_accountKey] */\n      0x00\n        /* \"V1/Contracts/sponsorCoin/SPC_Token.sol\":4827:4838  _accountKey */\n      dup5\n        /* \"V1/Contracts/sponsorCoin/SPC_Token.sol\":4818:4839  inserted[_accountKey] */\n      0xffffffffffffffffffffffffffffffffffffffff\n      and\n      0xffffffffffffffffffffffffffffffffffffffff\n      and\n      dup2\n      mstore\n      0x20\n      add\n      swap1\n      dup2\n      mstore\n      0x20\n      add\n      0x00\n      keccak256\n      0x00\n      swap1\n      sload\n      swap1\n      0x0100\n      exp\n      swap1\n      div\n      0xff\n      and\n        /* \"V1/Contracts/sponsorCoin/SPC_Token.sol\":4813:5058  if (!inserted[_accountKey]) {... */\n      tag_115\n      jumpi\n        /* \"V1/Contracts/sponsorCoin/SPC_Token.sol\":4879:4883  true */\n      0x01\n        /* \"V1/Contracts/sponsorCoin/SPC_Token.sol\":4855:4863  inserted */\n      0x08\n        /* \"V1/Contracts/sponsorCoin/SPC_Token.sol\":4855:4876  inserted[_accountKey] */\n      0x00\n        /* \"V1/Contracts/sponsorCoin/SPC_Token.sol\":4864:4875  _accountKey */\n      dup6\n        /* \"V1/Contracts/sponsorCoin/SPC_Token.sol\":4855:4876  inserted[_accountKey] */\n      0xffffffffffffffffffffffffffffffffffffffff\n      and\n      0xffffffffffffffffffffffffffffffffffffffff\n      and\n      dup2\n      mstore\n      0x20\n      add\n      swap1\n      dup2\n      mstore\n      0x20\n      add\n      0x00\n      keccak256\n      0x00\n        /* \"V1/Contracts/sponsorCoin/SPC_Token.sol\":4855:4883  inserted[_accountKey] = true */\n      0x0100\n      exp\n      dup2\n      sload\n      dup2\n      0xff\n      mul\n      not\n      and\n      swap1\n      dup4\n      iszero\n      iszero\n      mul\n      or\n      swap1\n      sstore\n      pop\n        /* \"V1/Contracts/sponsorCoin/SPC_Token.sol\":4897:4908  accountKeys */\n      0x06\n        /* \"V1/Contracts/sponsorCoin/SPC_Token.sol\":4914:4925  _accountKey */\n      dup4\n        /* \"V1/Contracts/sponsorCoin/SPC_Token.sol\":4897:4926  accountKeys.push(_accountKey) */\n      swap1\n      dup1\n      0x01\n      dup2\n      sload\n      add\n      dup1\n      dup3\n      sstore\n      dup1\n      swap2\n      pop\n      pop\n      0x01\n      swap1\n      sub\n      swap1\n      0x00\n      mstore\n      keccak256(0x00, 0x20)\n      add\n      0x00\n      swap1\n      swap2\n      swap1\n      swap2\n      swap1\n      swap2\n      0x0100\n      exp\n      dup2\n      sload\n      dup2\n      0xffffffffffffffffffffffffffffffffffffffff\n      mul\n      not\n      and\n      swap1\n      dup4\n      0xffffffffffffffffffffffffffffffffffffffff\n      and\n      mul\n      or\n      swap1\n      sstore\n      pop\n        /* \"V1/Contracts/sponsorCoin/SPC_Token.sol\":4963:4974  accountKeys */\n      0x06\n        /* \"V1/Contracts/sponsorCoin/SPC_Token.sol\":4963:4981  accountKeys.length */\n      dup1\n      sload\n      swap1\n      pop\n        /* \"V1/Contracts/sponsorCoin/SPC_Token.sol\":4940:4947  indexOf */\n      0x07\n        /* \"V1/Contracts/sponsorCoin/SPC_Token.sol\":4940:4960  indexOf[_accountKey] */\n      0x00\n        /* \"V1/Contracts/sponsorCoin/SPC_Token.sol\":4948:4959  _accountKey */\n      dup6\n        /* \"V1/Contracts/sponsorCoin/SPC_Token.sol\":4940:4960  indexOf[_accountKey] */\n      0xffffffffffffffffffffffffffffffffffffffff\n      and\n      0xffffffffffffffffffffffffffffffffffffffff\n      and\n      dup2\n      mstore\n      0x20\n      add\n      swap1\n      dup2\n      mstore\n      0x20\n      add\n      0x00\n      keccak256\n        /* \"V1/Contracts/sponsorCoin/SPC_Token.sol\":4940:4981  indexOf[_accountKey] = accountKeys.length */\n      dup2\n      swap1\n      sstore\n      pop\n        /* \"V1/Contracts/sponsorCoin/SPC_Token.sol\":5003:5007  true */\n      0x01\n        /* \"V1/Contracts/sponsorCoin/SPC_Token.sol\":4996:5007  return true */\n      swap1\n      pop\n      jump(tag_114)\n        /* \"V1/Contracts/sponsorCoin/SPC_Token.sol\":4813:5058  if (!inserted[_accountKey]) {... */\n    tag_115:\n        /* \"V1/Contracts/sponsorCoin/SPC_Token.sol\":5053:5058  false */\n      0x00\n        /* \"V1/Contracts/sponsorCoin/SPC_Token.sol\":5046:5058  return false */\n      swap1\n      pop\n        /* \"V1/Contracts/sponsorCoin/SPC_Token.sol\":4671:5066  function setBalance(address _accountKey, uint _newBalance ) internal returns (bool) {... */\n    tag_114:\n      swap3\n      swap2\n      pop\n      pop\n      jump\t// out\n        /* \"#utility.yul\":7:146   */\n    tag_119:\n        /* \"#utility.yul\":53:58   */\n      0x00\n        /* \"#utility.yul\":91:97   */\n      dup2\n        /* \"#utility.yul\":78:98   */\n      calldataload\n        /* \"#utility.yul\":69:98   */\n      swap1\n      pop\n        /* \"#utility.yul\":107:140   */\n      tag_121\n        /* \"#utility.yul\":134:139   */\n      dup2\n        /* \"#utility.yul\":107:140   */\n      tag_122\n      jump\t// in\n    tag_121:\n        /* \"#utility.yul\":7:146   */\n      swap3\n      swap2\n      pop\n      pop\n      jump\t// out\n        /* \"#utility.yul\":152:291   */\n    tag_123:\n        /* \"#utility.yul\":198:203   */\n      0x00\n        /* \"#utility.yul\":236:242   */\n      dup2\n        /* \"#utility.yul\":223:243   */\n      calldataload\n        /* \"#utility.yul\":214:243   */\n      swap1\n      pop\n        /* \"#utility.yul\":252:285   */\n      tag_125\n        /* \"#utility.yul\":279:284   */\n      dup2\n        /* \"#utility.yul\":252:285   */\n      tag_126\n      jump\t// in\n    tag_125:\n        /* \"#utility.yul\":152:291   */\n      swap3\n      swap2\n      pop\n      pop\n      jump\t// out\n        /* \"#utility.yul\":297:626   */\n    tag_18:\n        /* \"#utility.yul\":356:362   */\n      0x00\n        /* \"#utility.yul\":405:407   */\n      0x20\n        /* \"#utility.yul\":393:402   */\n      dup3\n        /* \"#utility.yul\":384:391   */\n      dup5\n        /* \"#utility.yul\":380:403   */\n      sub\n        /* \"#utility.yul\":376:408   */\n      slt\n        /* \"#utility.yul\":373:492   */\n      iszero\n      tag_128\n      jumpi\n        /* \"#utility.yul\":411:490   */\n      tag_129\n      tag_130\n      jump\t// in\n    tag_129:\n        /* \"#utility.yul\":373:492   */\n    tag_128:\n        /* \"#utility.yul\":531:532   */\n      0x00\n        /* \"#utility.yul\":556:609   */\n      tag_131\n        /* \"#utility.yul\":601:608   */\n      dup5\n        /* \"#utility.yul\":592:598   */\n      dup3\n        /* \"#utility.yul\":581:590   */\n      dup6\n        /* \"#utility.yul\":577:599   */\n      add\n        /* \"#utility.yul\":556:609   */\n      tag_119\n      jump\t// in\n    tag_131:\n        /* \"#utility.yul\":546:609   */\n      swap2\n      pop\n        /* \"#utility.yul\":502:619   */\n      pop\n        /* \"#utility.yul\":297:626   */\n      swap3\n      swap2\n      pop\n      pop\n      jump\t// out\n        /* \"#utility.yul\":632:1106   */\n    tag_63:\n        /* \"#utility.yul\":700:706   */\n      0x00\n        /* \"#utility.yul\":708:714   */\n      dup1\n        /* \"#utility.yul\":757:759   */\n      0x40\n        /* \"#utility.yul\":745:754   */\n      dup4\n        /* \"#utility.yul\":736:743   */\n      dup6\n        /* \"#utility.yul\":732:755   */\n      sub\n        /* \"#utility.yul\":728:760   */\n      slt\n        /* \"#utility.yul\":725:844   */\n      iszero\n      tag_133\n      jumpi\n        /* \"#utility.yul\":763:842   */\n      tag_134\n      tag_130\n      jump\t// in\n    tag_134:\n        /* \"#utility.yul\":725:844   */\n    tag_133:\n        /* \"#utility.yul\":883:884   */\n      0x00\n        /* \"#utility.yul\":908:961   */\n      tag_135\n        /* \"#utility.yul\":953:960   */\n      dup6\n        /* \"#utility.yul\":944:950   */\n      dup3\n        /* \"#utility.yul\":933:942   */\n      dup7\n        /* \"#utility.yul\":929:951   */\n      add\n        /* \"#utility.yul\":908:961   */\n      tag_119\n      jump\t// in\n    tag_135:\n        /* \"#utility.yul\":898:961   */\n      swap3\n      pop\n        /* \"#utility.yul\":854:971   */\n      pop\n        /* \"#utility.yul\":1010:1012   */\n      0x20\n        /* \"#utility.yul\":1036:1089   */\n      tag_136\n        /* \"#utility.yul\":1081:1088   */\n      dup6\n        /* \"#utility.yul\":1072:1078   */\n      dup3\n        /* \"#utility.yul\":1061:1070   */\n      dup7\n        /* \"#utility.yul\":1057:1079   */\n      add\n        /* \"#utility.yul\":1036:1089   */\n      tag_119\n      jump\t// in\n    tag_136:\n        /* \"#utility.yul\":1026:1089   */\n      swap2\n      pop\n        /* \"#utility.yul\":981:1099   */\n      pop\n        /* \"#utility.yul\":632:1106   */\n      swap3\n      pop\n      swap3\n      swap1\n      pop\n      jump\t// out\n        /* \"#utility.yul\":1112:1731   */\n    tag_43:\n        /* \"#utility.yul\":1189:1195   */\n      0x00\n        /* \"#utility.yul\":1197:1203   */\n      dup1\n        /* \"#utility.yul\":1205:1211   */\n      0x00\n        /* \"#utility.yul\":1254:1256   */\n      0x60\n        /* \"#utility.yul\":1242:1251   */\n      dup5\n        /* \"#utility.yul\":1233:1240   */\n      dup7\n        /* \"#utility.yul\":1229:1252   */\n      sub\n        /* \"#utility.yul\":1225:1257   */\n      slt\n        /* \"#utility.yul\":1222:1341   */\n      iszero\n      tag_138\n      jumpi\n        /* \"#utility.yul\":1260:1339   */\n      tag_139\n      tag_130\n      jump\t// in\n    tag_139:\n        /* \"#utility.yul\":1222:1341   */\n    tag_138:\n        /* \"#utility.yul\":1380:1381   */\n      0x00\n        /* \"#utility.yul\":1405:1458   */\n      tag_140\n        /* \"#utility.yul\":1450:1457   */\n      dup7\n        /* \"#utility.yul\":1441:1447   */\n      dup3\n        /* \"#utility.yul\":1430:1439   */\n      dup8\n        /* \"#utility.yul\":1426:1448   */\n      add\n        /* \"#utility.yul\":1405:1458   */\n      tag_119\n      jump\t// in\n    tag_140:\n        /* \"#utility.yul\":1395:1458   */\n      swap4\n      pop\n        /* \"#utility.yul\":1351:1468   */\n      pop\n        /* \"#utility.yul\":1507:1509   */\n      0x20\n        /* \"#utility.yul\":1533:1586   */\n      tag_141\n        /* \"#utility.yul\":1578:1585   */\n      dup7\n        /* \"#utility.yul\":1569:1575   */\n      dup3\n        /* \"#utility.yul\":1558:1567   */\n      dup8\n        /* \"#utility.yul\":1554:1576   */\n      add\n        /* \"#utility.yul\":1533:1586   */\n      tag_119\n      jump\t// in\n    tag_141:\n        /* \"#utility.yul\":1523:1586   */\n      swap3\n      pop\n        /* \"#utility.yul\":1478:1596   */\n      pop\n        /* \"#utility.yul\":1635:1637   */\n      0x40\n        /* \"#utility.yul\":1661:1714   */\n      tag_142\n        /* \"#utility.yul\":1706:1713   */\n      dup7\n        /* \"#utility.yul\":1697:1703   */\n      dup3\n        /* \"#utility.yul\":1686:1695   */\n      dup8\n        /* \"#utility.yul\":1682:1704   */\n      add\n        /* \"#utility.yul\":1661:1714   */\n      tag_123\n      jump\t// in\n    tag_142:\n        /* \"#utility.yul\":1651:1714   */\n      swap2\n      pop\n        /* \"#utility.yul\":1606:1724   */\n      pop\n        /* \"#utility.yul\":1112:1731   */\n      swap3\n      pop\n      swap3\n      pop\n      swap3\n      jump\t// out\n        /* \"#utility.yul\":1737:2211   */\n    tag_28:\n        /* \"#utility.yul\":1805:1811   */\n      0x00\n        /* \"#utility.yul\":1813:1819   */\n      dup1\n        /* \"#utility.yul\":1862:1864   */\n      0x40\n        /* \"#utility.yul\":1850:1859   */\n      dup4\n        /* \"#utility.yul\":1841:1848   */\n      dup6\n        /* \"#utility.yul\":1837:1860   */\n      sub\n        /* \"#utility.yul\":1833:1865   */\n      slt\n        /* \"#utility.yul\":1830:1949   */\n      iszero\n      tag_144\n      jumpi\n        /* \"#utility.yul\":1868:1947   */\n      tag_145\n      tag_130\n      jump\t// in\n    tag_145:\n        /* \"#utility.yul\":1830:1949   */\n    tag_144:\n        /* \"#utility.yul\":1988:1989   */\n      0x00\n        /* \"#utility.yul\":2013:2066   */\n      tag_146\n        /* \"#utility.yul\":2058:2065   */\n      dup6\n        /* \"#utility.yul\":2049:2055   */\n      dup3\n        /* \"#utility.yul\":2038:2047   */\n      dup7\n        /* \"#utility.yul\":2034:2056   */\n      add\n        /* \"#utility.yul\":2013:2066   */\n      tag_119\n      jump\t// in\n    tag_146:\n        /* \"#utility.yul\":2003:2066   */\n      swap3\n      pop\n        /* \"#utility.yul\":1959:2076   */\n      pop\n        /* \"#utility.yul\":2115:2117   */\n      0x20\n        /* \"#utility.yul\":2141:2194   */\n      tag_147\n        /* \"#utility.yul\":2186:2193   */\n      dup6\n        /* \"#utility.yul\":2177:2183   */\n      dup3\n        /* \"#utility.yul\":2166:2175   */\n      dup7\n        /* \"#utility.yul\":2162:2184   */\n      add\n        /* \"#utility.yul\":2141:2194   */\n      tag_123\n      jump\t// in\n    tag_147:\n        /* \"#utility.yul\":2131:2194   */\n      swap2\n      pop\n        /* \"#utility.yul\":2086:2204   */\n      pop\n        /* \"#utility.yul\":1737:2211   */\n      swap3\n      pop\n      swap3\n      swap1\n      pop\n      jump\t// out\n        /* \"#utility.yul\":2217:2546   */\n    tag_37:\n        /* \"#utility.yul\":2276:2282   */\n      0x00\n        /* \"#utility.yul\":2325:2327   */\n      0x20\n        /* \"#utility.yul\":2313:2322   */\n      dup3\n        /* \"#utility.yul\":2304:2311   */\n      dup5\n        /* \"#utility.yul\":2300:2323   */\n      sub\n        /* \"#utility.yul\":2296:2328   */\n      slt\n        /* \"#utility.yul\":2293:2412   */\n      iszero\n      tag_149\n      jumpi\n        /* \"#utility.yul\":2331:2410   */\n      tag_150\n      tag_130\n      jump\t// in\n    tag_150:\n        /* \"#utility.yul\":2293:2412   */\n    tag_149:\n        /* \"#utility.yul\":2451:2452   */\n      0x00\n        /* \"#utility.yul\":2476:2529   */\n      tag_151\n        /* \"#utility.yul\":2521:2528   */\n      dup5\n        /* \"#utility.yul\":2512:2518   */\n      dup3\n        /* \"#utility.yul\":2501:2510   */\n      dup6\n        /* \"#utility.yul\":2497:2519   */\n      add\n        /* \"#utility.yul\":2476:2529   */\n      tag_123\n      jump\t// in\n    tag_151:\n        /* \"#utility.yul\":2466:2529   */\n      swap2\n      pop\n        /* \"#utility.yul\":2422:2539   */\n      pop\n        /* \"#utility.yul\":2217:2546   */\n      swap3\n      swap2\n      pop\n      pop\n      jump\t// out\n        /* \"#utility.yul\":2552:2670   */\n    tag_152:\n        /* \"#utility.yul\":2639:2663   */\n      tag_154\n        /* \"#utility.yul\":2657:2662   */\n      dup2\n        /* \"#utility.yul\":2639:2663   */\n      tag_155\n      jump\t// in\n    tag_154:\n        /* \"#utility.yul\":2634:2637   */\n      dup3\n        /* \"#utility.yul\":2627:2664   */\n      mstore\n        /* \"#utility.yul\":2552:2670   */\n      pop\n      pop\n      jump\t// out\n        /* \"#utility.yul\":2676:2785   */\n    tag_156:\n        /* \"#utility.yul\":2757:2778   */\n      tag_158\n        /* \"#utility.yul\":2772:2777   */\n      dup2\n        /* \"#utility.yul\":2757:2778   */\n      tag_159\n      jump\t// in\n    tag_158:\n        /* \"#utility.yul\":2752:2755   */\n      dup3\n        /* \"#utility.yul\":2745:2779   */\n      mstore\n        /* \"#utility.yul\":2676:2785   */\n      pop\n      pop\n      jump\t// out\n        /* \"#utility.yul\":2791:3155   */\n    tag_160:\n        /* \"#utility.yul\":2879:2882   */\n      0x00\n        /* \"#utility.yul\":2907:2946   */\n      tag_162\n        /* \"#utility.yul\":2940:2945   */\n      dup3\n        /* \"#utility.yul\":2907:2946   */\n      tag_163\n      jump\t// in\n    tag_162:\n        /* \"#utility.yul\":2962:3033   */\n      tag_164\n        /* \"#utility.yul\":3026:3032   */\n      dup2\n        /* \"#utility.yul\":3021:3024   */\n      dup6\n        /* \"#utility.yul\":2962:3033   */\n      tag_165\n      jump\t// in\n    tag_164:\n        /* \"#utility.yul\":2955:3033   */\n      swap4\n      pop\n        /* \"#utility.yul\":3042:3094   */\n      tag_166\n        /* \"#utility.yul\":3087:3093   */\n      dup2\n        /* \"#utility.yul\":3082:3085   */\n      dup6\n        /* \"#utility.yul\":3075:3079   */\n      0x20\n        /* \"#utility.yul\":3068:3073   */\n      dup7\n        /* \"#utility.yul\":3064:3080   */\n      add\n        /* \"#utility.yul\":3042:3094   */\n      tag_167\n      jump\t// in\n    tag_166:\n        /* \"#utility.yul\":3119:3148   */\n      tag_168\n        /* \"#utility.yul\":3141:3147   */\n      dup2\n        /* \"#utility.yul\":3119:3148   */\n      tag_169\n      jump\t// in\n    tag_168:\n        /* \"#utility.yul\":3114:3117   */\n      dup5\n        /* \"#utility.yul\":3110:3149   */\n      add\n        /* \"#utility.yul\":3103:3149   */\n      swap2\n      pop\n        /* \"#utility.yul\":2883:3155   */\n      pop\n        /* \"#utility.yul\":2791:3155   */\n      swap3\n      swap2\n      pop\n      pop\n      jump\t// out\n        /* \"#utility.yul\":3161:3279   */\n    tag_170:\n        /* \"#utility.yul\":3248:3272   */\n      tag_172\n        /* \"#utility.yul\":3266:3271   */\n      dup2\n        /* \"#utility.yul\":3248:3272   */\n      tag_173\n      jump\t// in\n    tag_172:\n        /* \"#utility.yul\":3243:3246   */\n      dup3\n        /* \"#utility.yul\":3236:3273   */\n      mstore\n        /* \"#utility.yul\":3161:3279   */\n      pop\n      pop\n      jump\t// out\n        /* \"#utility.yul\":3285:3507   */\n    tag_40:\n        /* \"#utility.yul\":3378:3382   */\n      0x00\n        /* \"#utility.yul\":3416:3418   */\n      0x20\n        /* \"#utility.yul\":3405:3414   */\n      dup3\n        /* \"#utility.yul\":3401:3419   */\n      add\n        /* \"#utility.yul\":3393:3419   */\n      swap1\n      pop\n        /* \"#utility.yul\":3429:3500   */\n      tag_175\n        /* \"#utility.yul\":3497:3498   */\n      0x00\n        /* \"#utility.yul\":3486:3495   */\n      dup4\n        /* \"#utility.yul\":3482:3499   */\n      add\n        /* \"#utility.yul\":3473:3479   */\n      dup5\n        /* \"#utility.yul\":3429:3500   */\n      tag_152\n      jump\t// in\n    tag_175:\n        /* \"#utility.yul\":3285:3507   */\n      swap3\n      swap2\n      pop\n      pop\n      jump\t// out\n        /* \"#utility.yul\":3513:3723   */\n    tag_31:\n        /* \"#utility.yul\":3600:3604   */\n      0x00\n        /* \"#utility.yul\":3638:3640   */\n      0x20\n        /* \"#utility.yul\":3627:3636   */\n      dup3\n        /* \"#utility.yul\":3623:3641   */\n      add\n        /* \"#utility.yul\":3615:3641   */\n      swap1\n      pop\n        /* \"#utility.yul\":3651:3716   */\n      tag_177\n        /* \"#utility.yul\":3713:3714   */\n      0x00\n        /* \"#utility.yul\":3702:3711   */\n      dup4\n        /* \"#utility.yul\":3698:3715   */\n      add\n        /* \"#utility.yul\":3689:3695   */\n      dup5\n        /* \"#utility.yul\":3651:3716   */\n      tag_156\n      jump\t// in\n    tag_177:\n        /* \"#utility.yul\":3513:3723   */\n      swap3\n      swap2\n      pop\n      pop\n      jump\t// out\n        /* \"#utility.yul\":3729:4042   */\n    tag_25:\n        /* \"#utility.yul\":3842:3846   */\n      0x00\n        /* \"#utility.yul\":3880:3882   */\n      0x20\n        /* \"#utility.yul\":3869:3878   */\n      dup3\n        /* \"#utility.yul\":3865:3883   */\n      add\n        /* \"#utility.yul\":3857:3883   */\n      swap1\n      pop\n        /* \"#utility.yul\":3929:3938   */\n      dup2\n        /* \"#utility.yul\":3923:3927   */\n      dup2\n        /* \"#utility.yul\":3919:3939   */\n      sub\n        /* \"#utility.yul\":3915:3916   */\n      0x00\n        /* \"#utility.yul\":3904:3913   */\n      dup4\n        /* \"#utility.yul\":3900:3917   */\n      add\n        /* \"#utility.yul\":3893:3940   */\n      mstore\n        /* \"#utility.yul\":3957:4035   */\n      tag_179\n        /* \"#utility.yul\":4030:4034   */\n      dup2\n        /* \"#utility.yul\":4021:4027   */\n      dup5\n        /* \"#utility.yul\":3957:4035   */\n      tag_160\n      jump\t// in\n    tag_179:\n        /* \"#utility.yul\":3949:4035   */\n      swap1\n      pop\n        /* \"#utility.yul\":3729:4042   */\n      swap3\n      swap2\n      pop\n      pop\n      jump\t// out\n        /* \"#utility.yul\":4048:4270   */\n    tag_21:\n        /* \"#utility.yul\":4141:4145   */\n      0x00\n        /* \"#utility.yul\":4179:4181   */\n      0x20\n        /* \"#utility.yul\":4168:4177   */\n      dup3\n        /* \"#utility.yul\":4164:4182   */\n      add\n        /* \"#utility.yul\":4156:4182   */\n      swap1\n      pop\n        /* \"#utility.yul\":4192:4263   */\n      tag_181\n        /* \"#utility.yul\":4260:4261   */\n      0x00\n        /* \"#utility.yul\":4249:4258   */\n      dup4\n        /* \"#utility.yul\":4245:4262   */\n      add\n        /* \"#utility.yul\":4236:4242   */\n      dup5\n        /* \"#utility.yul\":4192:4263   */\n      tag_170\n      jump\t// in\n    tag_181:\n        /* \"#utility.yul\":4048:4270   */\n      swap3\n      swap2\n      pop\n      pop\n      jump\t// out\n        /* \"#utility.yul\":4357:4456   */\n    tag_163:\n        /* \"#utility.yul\":4409:4415   */\n      0x00\n        /* \"#utility.yul\":4443:4448   */\n      dup2\n        /* \"#utility.yul\":4437:4449   */\n      mload\n        /* \"#utility.yul\":4427:4449   */\n      swap1\n      pop\n        /* \"#utility.yul\":4357:4456   */\n      swap2\n      swap1\n      pop\n      jump\t// out\n        /* \"#utility.yul\":4462:4631   */\n    tag_165:\n        /* \"#utility.yul\":4546:4557   */\n      0x00\n        /* \"#utility.yul\":4580:4586   */\n      dup3\n        /* \"#utility.yul\":4575:4578   */\n      dup3\n        /* \"#utility.yul\":4568:4587   */\n      mstore\n        /* \"#utility.yul\":4620:4624   */\n      0x20\n        /* \"#utility.yul\":4615:4618   */\n      dup3\n        /* \"#utility.yul\":4611:4625   */\n      add\n        /* \"#utility.yul\":4596:4625   */\n      swap1\n      pop\n        /* \"#utility.yul\":4462:4631   */\n      swap3\n      swap2\n      pop\n      pop\n      jump\t// out\n        /* \"#utility.yul\":4637:4942   */\n    tag_112:\n        /* \"#utility.yul\":4677:4680   */\n      0x00\n        /* \"#utility.yul\":4696:4716   */\n      tag_187\n        /* \"#utility.yul\":4714:4715   */\n      dup3\n        /* \"#utility.yul\":4696:4716   */\n      tag_173\n      jump\t// in\n    tag_187:\n        /* \"#utility.yul\":4691:4716   */\n      swap2\n      pop\n        /* \"#utility.yul\":4730:4750   */\n      tag_188\n        /* \"#utility.yul\":4748:4749   */\n      dup4\n        /* \"#utility.yul\":4730:4750   */\n      tag_173\n      jump\t// in\n    tag_188:\n        /* \"#utility.yul\":4725:4750   */\n      swap3\n      pop\n        /* \"#utility.yul\":4884:4885   */\n      dup3\n        /* \"#utility.yul\":4816:4882   */\n      0xffffffffffffffffffffffffffffffffffffffffffffffffffffffffffffffff\n        /* \"#utility.yul\":4812:4886   */\n      sub\n        /* \"#utility.yul\":4809:4810   */\n      dup3\n        /* \"#utility.yul\":4806:4887   */\n      gt\n        /* \"#utility.yul\":4803:4910   */\n      iszero\n      tag_189\n      jumpi\n        /* \"#utility.yul\":4890:4908   */\n      tag_190\n      tag_191\n      jump\t// in\n    tag_190:\n        /* \"#utility.yul\":4803:4910   */\n    tag_189:\n        /* \"#utility.yul\":4934:4935   */\n      dup3\n        /* \"#utility.yul\":4931:4932   */\n      dup3\n        /* \"#utility.yul\":4927:4936   */\n      add\n        /* \"#utility.yul\":4920:4936   */\n      swap1\n      pop\n        /* \"#utility.yul\":4637:4942   */\n      swap3\n      swap2\n      pop\n      pop\n      jump\t// out\n        /* \"#utility.yul\":4948:5139   */\n    tag_88:\n        /* \"#utility.yul\":4988:4992   */\n      0x00\n        /* \"#utility.yul\":5008:5028   */\n      tag_193\n        /* \"#utility.yul\":5026:5027   */\n      dup3\n        /* \"#utility.yul\":5008:5028   */\n      tag_173\n      jump\t// in\n    tag_193:\n        /* \"#utility.yul\":5003:5028   */\n      swap2\n      pop\n        /* \"#utility.yul\":5042:5062   */\n      tag_194\n        /* \"#utility.yul\":5060:5061   */\n      dup4\n        /* \"#utility.yul\":5042:5062   */\n      tag_173\n      jump\t// in\n    tag_194:\n        /* \"#utility.yul\":5037:5062   */\n      swap3\n      pop\n        /* \"#utility.yul\":5081:5082   */\n      dup3\n        /* \"#utility.yul\":5078:5079   */\n      dup3\n        /* \"#utility.yul\":5075:5083   */\n      lt\n        /* \"#utility.yul\":5072:5106   */\n      iszero\n      tag_195\n      jumpi\n        /* \"#utility.yul\":5086:5104   */\n      tag_196\n      tag_191\n      jump\t// in\n    tag_196:\n        /* \"#utility.yul\":5072:5106   */\n    tag_195:\n        /* \"#utility.yul\":5131:5132   */\n      dup3\n        /* \"#utility.yul\":5128:5129   */\n      dup3\n        /* \"#utility.yul\":5124:5133   */\n      sub\n        /* \"#utility.yul\":5116:5133   */\n      swap1\n      pop\n        /* \"#utility.yul\":4948:5139   */\n      swap3\n      swap2\n      pop\n      pop\n      jump\t// out\n        /* \"#utility.yul\":5145:5241   */\n    tag_155:\n        /* \"#utility.yul\":5182:5189   */\n      0x00\n        /* \"#utility.yul\":5211:5235   */\n      tag_198\n        /* \"#utility.yul\":5229:5234   */\n      dup3\n        /* \"#utility.yul\":5211:5235   */\n      tag_199\n      jump\t// in\n    tag_198:\n        /* \"#utility.yul\":5200:5235   */\n      swap1\n      pop\n        /* \"#utility.yul\":5145:5241   */\n      swap2\n      swap1\n      pop\n      jump\t// out\n        /* \"#utility.yul\":5247:5337   */\n    tag_159:\n        /* \"#utility.yul\":5281:5288   */\n      0x00\n        /* \"#utility.yul\":5324:5329   */\n      dup2\n        /* \"#utility.yul\":5317:5330   */\n      iszero\n        /* \"#utility.yul\":5310:5331   */\n      iszero\n        /* \"#utility.yul\":5299:5331   */\n      swap1\n      pop\n        /* \"#utility.yul\":5247:5337   */\n      swap2\n      swap1\n      pop\n      jump\t// out\n        /* \"#utility.yul\":5343:5469   */\n    tag_199:\n        /* \"#utility.yul\":5380:5387   */\n      0x00\n        /* \"#utility.yul\":5420:5462   */\n      0xffffffffffffffffffffffffffffffffffffffff\n        /* \"#utility.yul\":5413:5418   */\n      dup3\n        /* \"#utility.yul\":5409:5463   */\n      and\n        /* \"#utility.yul\":5398:5463   */\n      swap1\n      pop\n        /* \"#utility.yul\":5343:5469   */\n      swap2\n      swap1\n      pop\n      jump\t// out\n        /* \"#utility.yul\":5475:5552   */\n    tag_173:\n        /* \"#utility.yul\":5512:5519   */\n      0x00\n        /* \"#utility.yul\":5541:5546   */\n      dup2\n        /* \"#utility.yul\":5530:5546   */\n      swap1\n      pop\n        /* \"#utility.yul\":5475:5552   */\n      swap2\n      swap1\n      pop\n      jump\t// out\n        /* \"#utility.yul\":5558:5865   */\n    tag_167:\n        /* \"#utility.yul\":5626:5627   */\n      0x00\n        /* \"#utility.yul\":5636:5749   */\n    tag_204:\n        /* \"#utility.yul\":5650:5656   */\n      dup4\n        /* \"#utility.yul\":5647:5648   */\n      dup2\n        /* \"#utility.yul\":5644:5657   */\n      lt\n        /* \"#utility.yul\":5636:5749   */\n      iszero\n      tag_206\n      jumpi\n        /* \"#utility.yul\":5735:5736   */\n      dup1\n        /* \"#utility.yul\":5730:5733   */\n      dup3\n        /* \"#utility.yul\":5726:5737   */\n      add\n        /* \"#utility.yul\":5720:5738   */\n      mload\n        /* \"#utility.yul\":5716:5717   */\n      dup2\n        /* \"#utility.yul\":5711:5714   */\n      dup5\n        /* \"#utility.yul\":5707:5718   */\n      add\n        /* \"#utility.yul\":5700:5739   */\n      mstore\n        /* \"#utility.yul\":5672:5674   */\n      0x20\n        /* \"#utility.yul\":5669:5670   */\n      dup2\n        /* \"#utility.yul\":5665:5675   */\n      add\n        /* \"#utility.yul\":5660:5675   */\n      swap1\n      pop\n        /* \"#utility.yul\":5636:5749   */\n      jump(tag_204)\n    tag_206:\n        /* \"#utility.yul\":5767:5773   */\n      dup4\n        /* \"#utility.yul\":5764:5765   */\n      dup2\n        /* \"#utility.yul\":5761:5774   */\n      gt\n        /* \"#utility.yul\":5758:5859   */\n      iszero\n      tag_207\n      jumpi\n        /* \"#utility.yul\":5847:5848   */\n      0x00\n        /* \"#utility.yul\":5838:5844   */\n      dup5\n        /* \"#utility.yul\":5833:5836   */\n      dup5\n        /* \"#utility.yul\":5829:5845   */\n      add\n        /* \"#utility.yul\":5822:5849   */\n      mstore\n        /* \"#utility.yul\":5758:5859   */\n    tag_207:\n        /* \"#utility.yul\":5607:5865   */\n      pop\n        /* \"#utility.yul\":5558:5865   */\n      pop\n      pop\n      pop\n      jump\t// out\n        /* \"#utility.yul\":5871:6191   */\n    tag_74:\n        /* \"#utility.yul\":5915:5921   */\n      0x00\n        /* \"#utility.yul\":5952:5953   */\n      0x02\n        /* \"#utility.yul\":5946:5950   */\n      dup3\n        /* \"#utility.yul\":5942:5954   */\n      div\n        /* \"#utility.yul\":5932:5954   */\n      swap1\n      pop\n        /* \"#utility.yul\":5999:6000   */\n      0x01\n        /* \"#utility.yul\":5993:5997   */\n      dup3\n        /* \"#utility.yul\":5989:6001   */\n      and\n        /* \"#utility.yul\":6020:6038   */\n      dup1\n        /* \"#utility.yul\":6010:6091   */\n      tag_209\n      jumpi\n        /* \"#utility.yul\":6076:6080   */\n      0x7f\n        /* \"#utility.yul\":6068:6074   */\n      dup3\n        /* \"#utility.yul\":6064:6081   */\n      and\n        /* \"#utility.yul\":6054:6081   */\n      swap2\n      pop\n        /* \"#utility.yul\":6010:6091   */\n    tag_209:\n        /* \"#utility.yul\":6138:6140   */\n      0x20\n        /* \"#utility.yul\":6130:6136   */\n      dup3\n        /* \"#utility.yul\":6127:6141   */\n      lt\n        /* \"#utility.yul\":6107:6125   */\n      dup2\n        /* \"#utility.yul\":6104:6142   */\n      eq\n        /* \"#utility.yul\":6101:6185   */\n      iszero\n      tag_210\n      jumpi\n        /* \"#utility.yul\":6157:6175   */\n      tag_211\n      tag_212\n      jump\t// in\n    tag_211:\n        /* \"#utility.yul\":6101:6185   */\n    tag_210:\n        /* \"#utility.yul\":5922:6191   */\n      pop\n        /* \"#utility.yul\":5871:6191   */\n      swap2\n      swap1\n      pop\n      jump\t// out\n        /* \"#utility.yul\":6197:6377   */\n    tag_191:\n        /* \"#utility.yul\":6245:6322   */\n      0x4e487b7100000000000000000000000000000000000000000000000000000000\n        /* \"#utility.yul\":6242:6243   */\n      0x00\n        /* \"#utility.yul\":6235:6323   */\n      mstore\n        /* \"#utility.yul\":6342:6346   */\n      0x11\n        /* \"#utility.yul\":6339:6340   */\n      0x04\n        /* \"#utility.yul\":6332:6347   */\n      mstore\n        /* \"#utility.yul\":6366:6370   */\n      0x24\n        /* \"#utility.yul\":6363:6364   */\n      0x00\n        /* \"#utility.yul\":6356:6371   */\n      revert\n        /* \"#utility.yul\":6383:6563   */\n    tag_212:\n        /* \"#utility.yul\":6431:6508   */\n      0x4e487b7100000000000000000000000000000000000000000000000000000000\n        /* \"#utility.yul\":6428:6429   */\n      0x00\n        /* \"#utility.yul\":6421:6509   */\n      mstore\n        /* \"#utility.yul\":6528:6532   */\n      0x22\n        /* \"#utility.yul\":6525:6526   */\n      0x04\n        /* \"#utility.yul\":6518:6533   */\n      mstore\n        /* \"#utility.yul\":6552:6556   */\n      0x24\n        /* \"#utility.yul\":6549:6550   */\n      0x00\n        /* \"#utility.yul\":6542:6557   */\n      revert\n        /* \"#utility.yul\":6692:6809   */\n    tag_130:\n        /* \"#utility.yul\":6801:6802   */\n      0x00\n        /* \"#utility.yul\":6798:6799   */\n      dup1\n        /* \"#utility.yul\":6791:6803   */\n      revert\n        /* \"#utility.yul\":6815:6917   */\n    tag_169:\n        /* \"#utility.yul\":6856:6862   */\n      0x00\n        /* \"#utility.yul\":6907:6909   */\n      0x1f\n        /* \"#utility.yul\":6903:6910   */\n      not\n        /* \"#utility.yul\":6898:6900   */\n      0x1f\n        /* \"#utility.yul\":6891:6896   */\n      dup4\n        /* \"#utility.yul\":6887:6901   */\n      add\n        /* \"#utility.yul\":6883:6911   */\n      and\n        /* \"#utility.yul\":6873:6911   */\n      swap1\n      pop\n        /* \"#utility.yul\":6815:6917   */\n      swap2\n      swap1\n      pop\n      jump\t// out\n        /* \"#utility.yul\":6923:7045   */\n    tag_122:\n        /* \"#utility.yul\":6996:7020   */\n      tag_220\n        /* \"#utility.yul\":7014:7019   */\n      dup2\n        /* \"#utility.yul\":6996:7020   */\n      tag_155\n      jump\t// in\n    tag_220:\n        /* \"#utility.yul\":6989:6994   */\n      dup2\n        /* \"#utility.yul\":6986:7021   */\n      eq\n        /* \"#utility.yul\":6976:7039   */\n      tag_221\n      jumpi\n        /* \"#utility.yul\":7035:7036   */\n      0x00\n        /* \"#utility.yul\":7032:7033   */\n      dup1\n        /* \"#utility.yul\":7025:7037   */\n      revert\n        /* \"#utility.yul\":6976:7039   */\n    tag_221:\n        /* \"#utility.yul\":6923:7045   */\n      pop\n      jump\t// out\n        /* \"#utility.yul\":7051:7173   */\n    tag_126:\n        /* \"#utility.yul\":7124:7148   */\n      tag_223\n        /* \"#utility.yul\":7142:7147   */\n      dup2\n        /* \"#utility.yul\":7124:7148   */\n      tag_173\n      jump\t// in\n    tag_223:\n        /* \"#utility.yul\":7117:7122   */\n      dup2\n        /* \"#utility.yul\":7114:7149   */\n      eq\n        /* \"#utility.yul\":7104:7167   */\n      tag_224\n      jumpi\n        /* \"#utility.yul\":7163:7164   */\n      0x00\n        /* \"#utility.yul\":7160:7161   */\n      dup1\n        /* \"#utility.yul\":7153:7165   */\n      revert\n        /* \"#utility.yul\":7104:7167   */\n    tag_224:\n        /* \"#utility.yul\":7051:7173   */\n      pop\n      jump\t// out\n\n    auxdata: 0xa2646970667358221220e6a948ce27924a398f6ab282acdc134593abe7bc7f172e13f5e61fcd62a38b7164736f6c63430008070033\n}\n",
				"bytecode": {
					"linkReferences": {},
					"object": "60806040523480156200001157600080fd5b506040518060400160405280600b81526020017f73706f6e736f72436f696e000000000000000000000000000000000000000000815250600090805190602001906200005f92919062000293565b506040518060400160405280600781526020017f53505f436f696e0000000000000000000000000000000000000000000000000081525060019080519060200190620000ad92919062000293565b50601260028190555069d3c21bcecceda1000000600381905550620000db33600354620000e260201b60201c565b50620003a8565b600081600460008573ffffffffffffffffffffffffffffffffffffffff1673ffffffffffffffffffffffffffffffffffffffff16815260200190815260200160002081905550600860008473ffffffffffffffffffffffffffffffffffffffff1673ffffffffffffffffffffffffffffffffffffffff16815260200190815260200160002060009054906101000a900460ff1662000288576001600860008573ffffffffffffffffffffffffffffffffffffffff1673ffffffffffffffffffffffffffffffffffffffff16815260200190815260200160002060006101000a81548160ff0219169083151502179055506006839080600181540180825580915050600190039060005260206000200160009091909190916101000a81548173ffffffffffffffffffffffffffffffffffffffff021916908373ffffffffffffffffffffffffffffffffffffffff160217905550600680549050600760008573ffffffffffffffffffffffffffffffffffffffff1673ffffffffffffffffffffffffffffffffffffffff16815260200190815260200160002081905550600190506200028d565b600090505b92915050565b828054620002a19062000343565b90600052602060002090601f016020900481019282620002c5576000855562000311565b82601f10620002e057805160ff191683800117855562000311565b8280016001018555821562000311579182015b8281111562000310578251825591602001919060010190620002f3565b5b50905062000320919062000324565b5090565b5b808211156200033f57600081600090555060010162000325565b5090565b600060028204905060018216806200035c57607f821691505b6020821081141562000373576200037262000379565b5b50919050565b7f4e487b7100000000000000000000000000000000000000000000000000000000600052602260045260246000fd5b6110ea80620003b86000396000f3fe608060405234801561001057600080fd5b50600436106100b45760003560e01c806329b57c141161007157806329b57c14146101b557806393423e9c146101e557806395d89b4114610215578063a9059cbb14610233578063dd62ed3e14610263578063fd6aad2514610293576100b4565b8063017df522146100b957806306fdde03146100e9578063095ea7b31461010757806318160ddd146101375780631e2eb0881461015557806323b872dd14610185575b600080fd5b6100d360048036038101906100ce9190610cb9565b6102c3565b6040516100e09190610ea4565b60405180910390f35b6100f1610367565b6040516100fe9190610e82565b60405180910390f35b610121600480360381019061011c9190610d79565b6103f5565b60405161012e9190610e67565b60405180910390f35b61013f610520565b60405161014c9190610ea4565b60405180910390f35b61016f600480360381019061016a9190610db9565b610526565b60405161017c9190610e4c565b60405180910390f35b61019f600480360381019061019a9190610d26565b610565565b6040516101ac9190610e67565b60405180910390f35b6101cf60048036038101906101ca9190610cb9565b61075a565b6040516101dc9190610e67565b60405180910390f35b6101ff60048036038101906101fa9190610cb9565b6107c0565b60405161020c9190610ea4565b60405180910390f35b61021d610864565b60405161022a9190610e82565b60405180910390f35b61024d60048036038101906102489190610d79565b6108f2565b60405161025a9190610e67565b60405180910390f35b61027d60048036038101906102789190610ce6565b610955565b60405161028a9190610ea4565b60405180910390f35b6102ad60048036038101906102a89190610cb9565b61097a565b6040516102ba9190610ea4565b60405180910390f35b6000600860008373ffffffffffffffffffffffffffffffffffffffff1673ffffffffffffffffffffffffffffffffffffffff16815260200190815260200160002060009054906101000a900460ff1661031f5760009050610362565b600760008373ffffffffffffffffffffffffffffffffffffffff1673ffffffffffffffffffffffffffffffffffffffff1681526020019081526020016000205490505b919050565b6000805461037490610fe0565b80601f01602080910402602001604051908101604052809291908181526020018280546103a090610fe0565b80156103ed5780601f106103c2576101008083540402835291602001916103ed565b820191906000526020600020905b8154815290600101906020018083116103d057829003601f168201915b505050505081565b60008073ffffffffffffffffffffffffffffffffffffffff168373ffffffffffffffffffffffffffffffffffffffff16141561043057600080fd5b81600560003373ffffffffffffffffffffffffffffffffffffffff1673ffffffffffffffffffffffffffffffffffffffff16815260200190815260200160002060008573ffffffffffffffffffffffffffffffffffffffff1673ffffffffffffffffffffffffffffffffffffffff168152602001908152602001600020819055508273ffffffffffffffffffffffffffffffffffffffff163373ffffffffffffffffffffffffffffffffffffffff167f8c5be1e5ebec7d5bd14f71427d1e84f3dd0314c0f7b2291e5b200ac8c7c3b9258460405161050e9190610ea4565b60405180910390a36001905092915050565b60035481565b6006818154811061053657600080fd5b906000526020600020016000915054906101000a900473ffffffffffffffffffffffffffffffffffffffff1681565b6000600460008573ffffffffffffffffffffffffffffffffffffffff1673ffffffffffffffffffffffffffffffffffffffff168152602001908152602001600020548211156105b357600080fd5b600560008573ffffffffffffffffffffffffffffffffffffffff1673ffffffffffffffffffffffffffffffffffffffff16815260200190815260200160002060003373ffffffffffffffffffffffffffffffffffffffff1673ffffffffffffffffffffffffffffffffffffffff1681526020019081526020016000205482111561063c57600080fd5b81600560008673ffffffffffffffffffffffffffffffffffffffff1673ffffffffffffffffffffffffffffffffffffffff16815260200190815260200160002060003373ffffffffffffffffffffffffffffffffffffffff1673ffffffffffffffffffffffffffffffffffffffff168152602001908152602001600020546106c49190610f31565b600560008673ffffffffffffffffffffffffffffffffffffffff1673ffffffffffffffffffffffffffffffffffffffff16815260200190815260200160002060003373ffffffffffffffffffffffffffffffffffffffff1673ffffffffffffffffffffffffffffffffffffffff1681526020019081526020016000208190555061074f848484610992565b600190509392505050565b6000600860008373ffffffffffffffffffffffffffffffffffffffff1673ffffffffffffffffffffffffffffffffffffffff16815260200190815260200160002060009054906101000a900460ff166107b657600090506107bb565b600190505b919050565b6000600860008373ffffffffffffffffffffffffffffffffffffffff1673ffffffffffffffffffffffffffffffffffffffff16815260200190815260200160002060009054906101000a900460ff1661081c576000905061085f565b600460008373ffffffffffffffffffffffffffffffffffffffff1673ffffffffffffffffffffffffffffffffffffffff1681526020019081526020016000205490505b919050565b6001805461087190610fe0565b80601f016020809104026020016040519081016040528092919081815260200182805461089d90610fe0565b80156108ea5780601f106108bf576101008083540402835291602001916108ea565b820191906000526020600020905b8154815290600101906020018083116108cd57829003601f168201915b505050505081565b600081600460003373ffffffffffffffffffffffffffffffffffffffff1673ffffffffffffffffffffffffffffffffffffffff16815260200190815260200160002054101561094057600080fd5b61094b338484610992565b6001905092915050565b6005602052816000526040600020602052806000526040600020600091509150505481565b60076020528060005260406000206000915090505481565b600073ffffffffffffffffffffffffffffffffffffffff168273ffffffffffffffffffffffffffffffffffffffff1614156109cc57600080fd5b610a208382600460008773ffffffffffffffffffffffffffffffffffffffff1673ffffffffffffffffffffffffffffffffffffffff16815260200190815260200160002054610a1b9190610f31565b610ae0565b50610a758282600460008673ffffffffffffffffffffffffffffffffffffffff1673ffffffffffffffffffffffffffffffffffffffff16815260200190815260200160002054610a709190610edb565b610ae0565b508173ffffffffffffffffffffffffffffffffffffffff168373ffffffffffffffffffffffffffffffffffffffff167fddf252ad1be2c89b69c2b068fc378daa952ba7f163c4a11628f55a4df523b3ef83604051610ad39190610ea4565b60405180910390a3505050565b600081600460008573ffffffffffffffffffffffffffffffffffffffff1673ffffffffffffffffffffffffffffffffffffffff16815260200190815260200160002081905550600860008473ffffffffffffffffffffffffffffffffffffffff1673ffffffffffffffffffffffffffffffffffffffff16815260200190815260200160002060009054906101000a900460ff16610c84576001600860008573ffffffffffffffffffffffffffffffffffffffff1673ffffffffffffffffffffffffffffffffffffffff16815260200190815260200160002060006101000a81548160ff0219169083151502179055506006839080600181540180825580915050600190039060005260206000200160009091909190916101000a81548173ffffffffffffffffffffffffffffffffffffffff021916908373ffffffffffffffffffffffffffffffffffffffff160217905550600680549050600760008573ffffffffffffffffffffffffffffffffffffffff1673ffffffffffffffffffffffffffffffffffffffff1681526020019081526020016000208190555060019050610c89565b600090505b92915050565b600081359050610c9e81611086565b92915050565b600081359050610cb38161109d565b92915050565b600060208284031215610ccf57610cce611070565b5b6000610cdd84828501610c8f565b91505092915050565b60008060408385031215610cfd57610cfc611070565b5b6000610d0b85828601610c8f565b9250506020610d1c85828601610c8f565b9150509250929050565b600080600060608486031215610d3f57610d3e611070565b5b6000610d4d86828701610c8f565b9350506020610d5e86828701610c8f565b9250506040610d6f86828701610ca4565b9150509250925092565b60008060408385031215610d9057610d8f611070565b5b6000610d9e85828601610c8f565b9250506020610daf85828601610ca4565b9150509250929050565b600060208284031215610dcf57610dce611070565b5b6000610ddd84828501610ca4565b91505092915050565b610def81610f65565b82525050565b610dfe81610f77565b82525050565b6000610e0f82610ebf565b610e198185610eca565b9350610e29818560208601610fad565b610e3281611075565b840191505092915050565b610e4681610fa3565b82525050565b6000602082019050610e616000830184610de6565b92915050565b6000602082019050610e7c6000830184610df5565b92915050565b60006020820190508181036000830152610e9c8184610e04565b905092915050565b6000602082019050610eb96000830184610e3d565b92915050565b600081519050919050565b600082825260208201905092915050565b6000610ee682610fa3565b9150610ef183610fa3565b9250827fffffffffffffffffffffffffffffffffffffffffffffffffffffffffffffffff03821115610f2657610f25611012565b5b828201905092915050565b6000610f3c82610fa3565b9150610f4783610fa3565b925082821015610f5a57610f59611012565b5b828203905092915050565b6000610f7082610f83565b9050919050565b60008115159050919050565b600073ffffffffffffffffffffffffffffffffffffffff82169050919050565b6000819050919050565b60005b83811015610fcb578082015181840152602081019050610fb0565b83811115610fda576000848401525b50505050565b60006002820490506001821680610ff857607f821691505b6020821081141561100c5761100b611041565b5b50919050565b7f4e487b7100000000000000000000000000000000000000000000000000000000600052601160045260246000fd5b7f4e487b7100000000000000000000000000000000000000000000000000000000600052602260045260246000fd5b600080fd5b6000601f19601f8301169050919050565b61108f81610f65565b811461109a57600080fd5b50565b6110a681610fa3565b81146110b157600080fd5b5056fea2646970667358221220e6a948ce27924a398f6ab282acdc134593abe7bc7f172e13f5e61fcd62a38b7164736f6c63430008070033",
					"opcodes": "PUSH1 0x80 PUSH1 0x40 MSTORE CALLVALUE DUP1 ISZERO PUSH3 0x11 JUMPI PUSH1 0x0 DUP1 REVERT JUMPDEST POP PUSH1 0x40 MLOAD DUP1 PUSH1 0x40 ADD PUSH1 0x40 MSTORE DUP1 PUSH1 0xB DUP2 MSTORE PUSH1 0x20 ADD PUSH32 0x73706F6E736F72436F696E000000000000000000000000000000000000000000 DUP2 MSTORE POP PUSH1 0x0 SWAP1 DUP1 MLOAD SWAP1 PUSH1 0x20 ADD SWAP1 PUSH3 0x5F SWAP3 SWAP2 SWAP1 PUSH3 0x293 JUMP JUMPDEST POP PUSH1 0x40 MLOAD DUP1 PUSH1 0x40 ADD PUSH1 0x40 MSTORE DUP1 PUSH1 0x7 DUP2 MSTORE PUSH1 0x20 ADD PUSH32 0x53505F436F696E00000000000000000000000000000000000000000000000000 DUP2 MSTORE POP PUSH1 0x1 SWAP1 DUP1 MLOAD SWAP1 PUSH1 0x20 ADD SWAP1 PUSH3 0xAD SWAP3 SWAP2 SWAP1 PUSH3 0x293 JUMP JUMPDEST POP PUSH1 0x12 PUSH1 0x2 DUP2 SWAP1 SSTORE POP PUSH10 0xD3C21BCECCEDA1000000 PUSH1 0x3 DUP2 SWAP1 SSTORE POP PUSH3 0xDB CALLER PUSH1 0x3 SLOAD PUSH3 0xE2 PUSH1 0x20 SHL PUSH1 0x20 SHR JUMP JUMPDEST POP PUSH3 0x3A8 JUMP JUMPDEST PUSH1 0x0 DUP2 PUSH1 0x4 PUSH1 0x0 DUP6 PUSH20 0xFFFFFFFFFFFFFFFFFFFFFFFFFFFFFFFFFFFFFFFF AND PUSH20 0xFFFFFFFFFFFFFFFFFFFFFFFFFFFFFFFFFFFFFFFF AND DUP2 MSTORE PUSH1 0x20 ADD SWAP1 DUP2 MSTORE PUSH1 0x20 ADD PUSH1 0x0 KECCAK256 DUP2 SWAP1 SSTORE POP PUSH1 0x8 PUSH1 0x0 DUP5 PUSH20 0xFFFFFFFFFFFFFFFFFFFFFFFFFFFFFFFFFFFFFFFF AND PUSH20 0xFFFFFFFFFFFFFFFFFFFFFFFFFFFFFFFFFFFFFFFF AND DUP2 MSTORE PUSH1 0x20 ADD SWAP1 DUP2 MSTORE PUSH1 0x20 ADD PUSH1 0x0 KECCAK256 PUSH1 0x0 SWAP1 SLOAD SWAP1 PUSH2 0x100 EXP SWAP1 DIV PUSH1 0xFF AND PUSH3 0x288 JUMPI PUSH1 0x1 PUSH1 0x8 PUSH1 0x0 DUP6 PUSH20 0xFFFFFFFFFFFFFFFFFFFFFFFFFFFFFFFFFFFFFFFF AND PUSH20 0xFFFFFFFFFFFFFFFFFFFFFFFFFFFFFFFFFFFFFFFF AND DUP2 MSTORE PUSH1 0x20 ADD SWAP1 DUP2 MSTORE PUSH1 0x20 ADD PUSH1 0x0 KECCAK256 PUSH1 0x0 PUSH2 0x100 EXP DUP2 SLOAD DUP2 PUSH1 0xFF MUL NOT AND SWAP1 DUP4 ISZERO ISZERO MUL OR SWAP1 SSTORE POP PUSH1 0x6 DUP4 SWAP1 DUP1 PUSH1 0x1 DUP2 SLOAD ADD DUP1 DUP3 SSTORE DUP1 SWAP2 POP POP PUSH1 0x1 SWAP1 SUB SWAP1 PUSH1 0x0 MSTORE PUSH1 0x20 PUSH1 0x0 KECCAK256 ADD PUSH1 0x0 SWAP1 SWAP2 SWAP1 SWAP2 SWAP1 SWAP2 PUSH2 0x100 EXP DUP2 SLOAD DUP2 PUSH20 0xFFFFFFFFFFFFFFFFFFFFFFFFFFFFFFFFFFFFFFFF MUL NOT AND SWAP1 DUP4 PUSH20 0xFFFFFFFFFFFFFFFFFFFFFFFFFFFFFFFFFFFFFFFF AND MUL OR SWAP1 SSTORE POP PUSH1 0x6 DUP1 SLOAD SWAP1 POP PUSH1 0x7 PUSH1 0x0 DUP6 PUSH20 0xFFFFFFFFFFFFFFFFFFFFFFFFFFFFFFFFFFFFFFFF AND PUSH20 0xFFFFFFFFFFFFFFFFFFFFFFFFFFFFFFFFFFFFFFFF AND DUP2 MSTORE PUSH1 0x20 ADD SWAP1 DUP2 MSTORE PUSH1 0x20 ADD PUSH1 0x0 KECCAK256 DUP2 SWAP1 SSTORE POP PUSH1 0x1 SWAP1 POP PUSH3 0x28D JUMP JUMPDEST PUSH1 0x0 SWAP1 POP JUMPDEST SWAP3 SWAP2 POP POP JUMP JUMPDEST DUP3 DUP1 SLOAD PUSH3 0x2A1 SWAP1 PUSH3 0x343 JUMP JUMPDEST SWAP1 PUSH1 0x0 MSTORE PUSH1 0x20 PUSH1 0x0 KECCAK256 SWAP1 PUSH1 0x1F ADD PUSH1 0x20 SWAP1 DIV DUP2 ADD SWAP3 DUP3 PUSH3 0x2C5 JUMPI PUSH1 0x0 DUP6 SSTORE PUSH3 0x311 JUMP JUMPDEST DUP3 PUSH1 0x1F LT PUSH3 0x2E0 JUMPI DUP1 MLOAD PUSH1 0xFF NOT AND DUP4 DUP1 ADD OR DUP6 SSTORE PUSH3 0x311 JUMP JUMPDEST DUP3 DUP1 ADD PUSH1 0x1 ADD DUP6 SSTORE DUP3 ISZERO PUSH3 0x311 JUMPI SWAP2 DUP3 ADD JUMPDEST DUP3 DUP2 GT ISZERO PUSH3 0x310 JUMPI DUP3 MLOAD DUP3 SSTORE SWAP2 PUSH1 0x20 ADD SWAP2 SWAP1 PUSH1 0x1 ADD SWAP1 PUSH3 0x2F3 JUMP JUMPDEST JUMPDEST POP SWAP1 POP PUSH3 0x320 SWAP2 SWAP1 PUSH3 0x324 JUMP JUMPDEST POP SWAP1 JUMP JUMPDEST JUMPDEST DUP1 DUP3 GT ISZERO PUSH3 0x33F JUMPI PUSH1 0x0 DUP2 PUSH1 0x0 SWAP1 SSTORE POP PUSH1 0x1 ADD PUSH3 0x325 JUMP JUMPDEST POP SWAP1 JUMP JUMPDEST PUSH1 0x0 PUSH1 0x2 DUP3 DIV SWAP1 POP PUSH1 0x1 DUP3 AND DUP1 PUSH3 0x35C JUMPI PUSH1 0x7F DUP3 AND SWAP2 POP JUMPDEST PUSH1 0x20 DUP3 LT DUP2 EQ ISZERO PUSH3 0x373 JUMPI PUSH3 0x372 PUSH3 0x379 JUMP JUMPDEST JUMPDEST POP SWAP2 SWAP1 POP JUMP JUMPDEST PUSH32 0x4E487B7100000000000000000000000000000000000000000000000000000000 PUSH1 0x0 MSTORE PUSH1 0x22 PUSH1 0x4 MSTORE PUSH1 0x24 PUSH1 0x0 REVERT JUMPDEST PUSH2 0x10EA DUP1 PUSH3 0x3B8 PUSH1 0x0 CODECOPY PUSH1 0x0 RETURN INVALID PUSH1 0x80 PUSH1 0x40 MSTORE CALLVALUE DUP1 ISZERO PUSH2 0x10 JUMPI PUSH1 0x0 DUP1 REVERT JUMPDEST POP PUSH1 0x4 CALLDATASIZE LT PUSH2 0xB4 JUMPI PUSH1 0x0 CALLDATALOAD PUSH1 0xE0 SHR DUP1 PUSH4 0x29B57C14 GT PUSH2 0x71 JUMPI DUP1 PUSH4 0x29B57C14 EQ PUSH2 0x1B5 JUMPI DUP1 PUSH4 0x93423E9C EQ PUSH2 0x1E5 JUMPI DUP1 PUSH4 0x95D89B41 EQ PUSH2 0x215 JUMPI DUP1 PUSH4 0xA9059CBB EQ PUSH2 0x233 JUMPI DUP1 PUSH4 0xDD62ED3E EQ PUSH2 0x263 JUMPI DUP1 PUSH4 0xFD6AAD25 EQ PUSH2 0x293 JUMPI PUSH2 0xB4 JUMP JUMPDEST DUP1 PUSH4 0x17DF522 EQ PUSH2 0xB9 JUMPI DUP1 PUSH4 0x6FDDE03 EQ PUSH2 0xE9 JUMPI DUP1 PUSH4 0x95EA7B3 EQ PUSH2 0x107 JUMPI DUP1 PUSH4 0x18160DDD EQ PUSH2 0x137 JUMPI DUP1 PUSH4 0x1E2EB088 EQ PUSH2 0x155 JUMPI DUP1 PUSH4 0x23B872DD EQ PUSH2 0x185 JUMPI JUMPDEST PUSH1 0x0 DUP1 REVERT JUMPDEST PUSH2 0xD3 PUSH1 0x4 DUP1 CALLDATASIZE SUB DUP2 ADD SWAP1 PUSH2 0xCE SWAP2 SWAP1 PUSH2 0xCB9 JUMP JUMPDEST PUSH2 0x2C3 JUMP JUMPDEST PUSH1 0x40 MLOAD PUSH2 0xE0 SWAP2 SWAP1 PUSH2 0xEA4 JUMP JUMPDEST PUSH1 0x40 MLOAD DUP1 SWAP2 SUB SWAP1 RETURN JUMPDEST PUSH2 0xF1 PUSH2 0x367 JUMP JUMPDEST PUSH1 0x40 MLOAD PUSH2 0xFE SWAP2 SWAP1 PUSH2 0xE82 JUMP JUMPDEST PUSH1 0x40 MLOAD DUP1 SWAP2 SUB SWAP1 RETURN JUMPDEST PUSH2 0x121 PUSH1 0x4 DUP1 CALLDATASIZE SUB DUP2 ADD SWAP1 PUSH2 0x11C SWAP2 SWAP1 PUSH2 0xD79 JUMP JUMPDEST PUSH2 0x3F5 JUMP JUMPDEST PUSH1 0x40 MLOAD PUSH2 0x12E SWAP2 SWAP1 PUSH2 0xE67 JUMP JUMPDEST PUSH1 0x40 MLOAD DUP1 SWAP2 SUB SWAP1 RETURN JUMPDEST PUSH2 0x13F PUSH2 0x520 JUMP JUMPDEST PUSH1 0x40 MLOAD PUSH2 0x14C SWAP2 SWAP1 PUSH2 0xEA4 JUMP JUMPDEST PUSH1 0x40 MLOAD DUP1 SWAP2 SUB SWAP1 RETURN JUMPDEST PUSH2 0x16F PUSH1 0x4 DUP1 CALLDATASIZE SUB DUP2 ADD SWAP1 PUSH2 0x16A SWAP2 SWAP1 PUSH2 0xDB9 JUMP JUMPDEST PUSH2 0x526 JUMP JUMPDEST PUSH1 0x40 MLOAD PUSH2 0x17C SWAP2 SWAP1 PUSH2 0xE4C JUMP JUMPDEST PUSH1 0x40 MLOAD DUP1 SWAP2 SUB SWAP1 RETURN JUMPDEST PUSH2 0x19F PUSH1 0x4 DUP1 CALLDATASIZE SUB DUP2 ADD SWAP1 PUSH2 0x19A SWAP2 SWAP1 PUSH2 0xD26 JUMP JUMPDEST PUSH2 0x565 JUMP JUMPDEST PUSH1 0x40 MLOAD PUSH2 0x1AC SWAP2 SWAP1 PUSH2 0xE67 JUMP JUMPDEST PUSH1 0x40 MLOAD DUP1 SWAP2 SUB SWAP1 RETURN JUMPDEST PUSH2 0x1CF PUSH1 0x4 DUP1 CALLDATASIZE SUB DUP2 ADD SWAP1 PUSH2 0x1CA SWAP2 SWAP1 PUSH2 0xCB9 JUMP JUMPDEST PUSH2 0x75A JUMP JUMPDEST PUSH1 0x40 MLOAD PUSH2 0x1DC SWAP2 SWAP1 PUSH2 0xE67 JUMP JUMPDEST PUSH1 0x40 MLOAD DUP1 SWAP2 SUB SWAP1 RETURN JUMPDEST PUSH2 0x1FF PUSH1 0x4 DUP1 CALLDATASIZE SUB DUP2 ADD SWAP1 PUSH2 0x1FA SWAP2 SWAP1 PUSH2 0xCB9 JUMP JUMPDEST PUSH2 0x7C0 JUMP JUMPDEST PUSH1 0x40 MLOAD PUSH2 0x20C SWAP2 SWAP1 PUSH2 0xEA4 JUMP JUMPDEST PUSH1 0x40 MLOAD DUP1 SWAP2 SUB SWAP1 RETURN JUMPDEST PUSH2 0x21D PUSH2 0x864 JUMP JUMPDEST PUSH1 0x40 MLOAD PUSH2 0x22A SWAP2 SWAP1 PUSH2 0xE82 JUMP JUMPDEST PUSH1 0x40 MLOAD DUP1 SWAP2 SUB SWAP1 RETURN JUMPDEST PUSH2 0x24D PUSH1 0x4 DUP1 CALLDATASIZE SUB DUP2 ADD SWAP1 PUSH2 0x248 SWAP2 SWAP1 PUSH2 0xD79 JUMP JUMPDEST PUSH2 0x8F2 JUMP JUMPDEST PUSH1 0x40 MLOAD PUSH2 0x25A SWAP2 SWAP1 PUSH2 0xE67 JUMP JUMPDEST PUSH1 0x40 MLOAD DUP1 SWAP2 SUB SWAP1 RETURN JUMPDEST PUSH2 0x27D PUSH1 0x4 DUP1 CALLDATASIZE SUB DUP2 ADD SWAP1 PUSH2 0x278 SWAP2 SWAP1 PUSH2 0xCE6 JUMP JUMPDEST PUSH2 0x955 JUMP JUMPDEST PUSH1 0x40 MLOAD PUSH2 0x28A SWAP2 SWAP1 PUSH2 0xEA4 JUMP JUMPDEST PUSH1 0x40 MLOAD DUP1 SWAP2 SUB SWAP1 RETURN JUMPDEST PUSH2 0x2AD PUSH1 0x4 DUP1 CALLDATASIZE SUB DUP2 ADD SWAP1 PUSH2 0x2A8 SWAP2 SWAP1 PUSH2 0xCB9 JUMP JUMPDEST PUSH2 0x97A JUMP JUMPDEST PUSH1 0x40 MLOAD PUSH2 0x2BA SWAP2 SWAP1 PUSH2 0xEA4 JUMP JUMPDEST PUSH1 0x40 MLOAD DUP1 SWAP2 SUB SWAP1 RETURN JUMPDEST PUSH1 0x0 PUSH1 0x8 PUSH1 0x0 DUP4 PUSH20 0xFFFFFFFFFFFFFFFFFFFFFFFFFFFFFFFFFFFFFFFF AND PUSH20 0xFFFFFFFFFFFFFFFFFFFFFFFFFFFFFFFFFFFFFFFF AND DUP2 MSTORE PUSH1 0x20 ADD SWAP1 DUP2 MSTORE PUSH1 0x20 ADD PUSH1 0x0 KECCAK256 PUSH1 0x0 SWAP1 SLOAD SWAP1 PUSH2 0x100 EXP SWAP1 DIV PUSH1 0xFF AND PUSH2 0x31F JUMPI PUSH1 0x0 SWAP1 POP PUSH2 0x362 JUMP JUMPDEST PUSH1 0x7 PUSH1 0x0 DUP4 PUSH20 0xFFFFFFFFFFFFFFFFFFFFFFFFFFFFFFFFFFFFFFFF AND PUSH20 0xFFFFFFFFFFFFFFFFFFFFFFFFFFFFFFFFFFFFFFFF AND DUP2 MSTORE PUSH1 0x20 ADD SWAP1 DUP2 MSTORE PUSH1 0x20 ADD PUSH1 0x0 KECCAK256 SLOAD SWAP1 POP JUMPDEST SWAP2 SWAP1 POP JUMP JUMPDEST PUSH1 0x0 DUP1 SLOAD PUSH2 0x374 SWAP1 PUSH2 0xFE0 JUMP JUMPDEST DUP1 PUSH1 0x1F ADD PUSH1 0x20 DUP1 SWAP2 DIV MUL PUSH1 0x20 ADD PUSH1 0x40 MLOAD SWAP1 DUP2 ADD PUSH1 0x40 MSTORE DUP1 SWAP3 SWAP2 SWAP1 DUP2 DUP2 MSTORE PUSH1 0x20 ADD DUP3 DUP1 SLOAD PUSH2 0x3A0 SWAP1 PUSH2 0xFE0 JUMP JUMPDEST DUP1 ISZERO PUSH2 0x3ED JUMPI DUP1 PUSH1 0x1F LT PUSH2 0x3C2 JUMPI PUSH2 0x100 DUP1 DUP4 SLOAD DIV MUL DUP4 MSTORE SWAP2 PUSH1 0x20 ADD SWAP2 PUSH2 0x3ED JUMP JUMPDEST DUP3 ADD SWAP2 SWAP1 PUSH1 0x0 MSTORE PUSH1 0x20 PUSH1 0x0 KECCAK256 SWAP1 JUMPDEST DUP2 SLOAD DUP2 MSTORE SWAP1 PUSH1 0x1 ADD SWAP1 PUSH1 0x20 ADD DUP1 DUP4 GT PUSH2 0x3D0 JUMPI DUP3 SWAP1 SUB PUSH1 0x1F AND DUP3 ADD SWAP2 JUMPDEST POP POP POP POP POP DUP2 JUMP JUMPDEST PUSH1 0x0 DUP1 PUSH20 0xFFFFFFFFFFFFFFFFFFFFFFFFFFFFFFFFFFFFFFFF AND DUP4 PUSH20 0xFFFFFFFFFFFFFFFFFFFFFFFFFFFFFFFFFFFFFFFF AND EQ ISZERO PUSH2 0x430 JUMPI PUSH1 0x0 DUP1 REVERT JUMPDEST DUP2 PUSH1 0x5 PUSH1 0x0 CALLER PUSH20 0xFFFFFFFFFFFFFFFFFFFFFFFFFFFFFFFFFFFFFFFF AND PUSH20 0xFFFFFFFFFFFFFFFFFFFFFFFFFFFFFFFFFFFFFFFF AND DUP2 MSTORE PUSH1 0x20 ADD SWAP1 DUP2 MSTORE PUSH1 0x20 ADD PUSH1 0x0 KECCAK256 PUSH1 0x0 DUP6 PUSH20 0xFFFFFFFFFFFFFFFFFFFFFFFFFFFFFFFFFFFFFFFF AND PUSH20 0xFFFFFFFFFFFFFFFFFFFFFFFFFFFFFFFFFFFFFFFF AND DUP2 MSTORE PUSH1 0x20 ADD SWAP1 DUP2 MSTORE PUSH1 0x20 ADD PUSH1 0x0 KECCAK256 DUP2 SWAP1 SSTORE POP DUP3 PUSH20 0xFFFFFFFFFFFFFFFFFFFFFFFFFFFFFFFFFFFFFFFF AND CALLER PUSH20 0xFFFFFFFFFFFFFFFFFFFFFFFFFFFFFFFFFFFFFFFF AND PUSH32 0x8C5BE1E5EBEC7D5BD14F71427D1E84F3DD0314C0F7B2291E5B200AC8C7C3B925 DUP5 PUSH1 0x40 MLOAD PUSH2 0x50E SWAP2 SWAP1 PUSH2 0xEA4 JUMP JUMPDEST PUSH1 0x40 MLOAD DUP1 SWAP2 SUB SWAP1 LOG3 PUSH1 0x1 SWAP1 POP SWAP3 SWAP2 POP POP JUMP JUMPDEST PUSH1 0x3 SLOAD DUP2 JUMP JUMPDEST PUSH1 0x6 DUP2 DUP2 SLOAD DUP2 LT PUSH2 0x536 JUMPI PUSH1 0x0 DUP1 REVERT JUMPDEST SWAP1 PUSH1 0x0 MSTORE PUSH1 0x20 PUSH1 0x0 KECCAK256 ADD PUSH1 0x0 SWAP2 POP SLOAD SWAP1 PUSH2 0x100 EXP SWAP1 DIV PUSH20 0xFFFFFFFFFFFFFFFFFFFFFFFFFFFFFFFFFFFFFFFF AND DUP2 JUMP JUMPDEST PUSH1 0x0 PUSH1 0x4 PUSH1 0x0 DUP6 PUSH20 0xFFFFFFFFFFFFFFFFFFFFFFFFFFFFFFFFFFFFFFFF AND PUSH20 0xFFFFFFFFFFFFFFFFFFFFFFFFFFFFFFFFFFFFFFFF AND DUP2 MSTORE PUSH1 0x20 ADD SWAP1 DUP2 MSTORE PUSH1 0x20 ADD PUSH1 0x0 KECCAK256 SLOAD DUP3 GT ISZERO PUSH2 0x5B3 JUMPI PUSH1 0x0 DUP1 REVERT JUMPDEST PUSH1 0x5 PUSH1 0x0 DUP6 PUSH20 0xFFFFFFFFFFFFFFFFFFFFFFFFFFFFFFFFFFFFFFFF AND PUSH20 0xFFFFFFFFFFFFFFFFFFFFFFFFFFFFFFFFFFFFFFFF AND DUP2 MSTORE PUSH1 0x20 ADD SWAP1 DUP2 MSTORE PUSH1 0x20 ADD PUSH1 0x0 KECCAK256 PUSH1 0x0 CALLER PUSH20 0xFFFFFFFFFFFFFFFFFFFFFFFFFFFFFFFFFFFFFFFF AND PUSH20 0xFFFFFFFFFFFFFFFFFFFFFFFFFFFFFFFFFFFFFFFF AND DUP2 MSTORE PUSH1 0x20 ADD SWAP1 DUP2 MSTORE PUSH1 0x20 ADD PUSH1 0x0 KECCAK256 SLOAD DUP3 GT ISZERO PUSH2 0x63C JUMPI PUSH1 0x0 DUP1 REVERT JUMPDEST DUP2 PUSH1 0x5 PUSH1 0x0 DUP7 PUSH20 0xFFFFFFFFFFFFFFFFFFFFFFFFFFFFFFFFFFFFFFFF AND PUSH20 0xFFFFFFFFFFFFFFFFFFFFFFFFFFFFFFFFFFFFFFFF AND DUP2 MSTORE PUSH1 0x20 ADD SWAP1 DUP2 MSTORE PUSH1 0x20 ADD PUSH1 0x0 KECCAK256 PUSH1 0x0 CALLER PUSH20 0xFFFFFFFFFFFFFFFFFFFFFFFFFFFFFFFFFFFFFFFF AND PUSH20 0xFFFFFFFFFFFFFFFFFFFFFFFFFFFFFFFFFFFFFFFF AND DUP2 MSTORE PUSH1 0x20 ADD SWAP1 DUP2 MSTORE PUSH1 0x20 ADD PUSH1 0x0 KECCAK256 SLOAD PUSH2 0x6C4 SWAP2 SWAP1 PUSH2 0xF31 JUMP JUMPDEST PUSH1 0x5 PUSH1 0x0 DUP7 PUSH20 0xFFFFFFFFFFFFFFFFFFFFFFFFFFFFFFFFFFFFFFFF AND PUSH20 0xFFFFFFFFFFFFFFFFFFFFFFFFFFFFFFFFFFFFFFFF AND DUP2 MSTORE PUSH1 0x20 ADD SWAP1 DUP2 MSTORE PUSH1 0x20 ADD PUSH1 0x0 KECCAK256 PUSH1 0x0 CALLER PUSH20 0xFFFFFFFFFFFFFFFFFFFFFFFFFFFFFFFFFFFFFFFF AND PUSH20 0xFFFFFFFFFFFFFFFFFFFFFFFFFFFFFFFFFFFFFFFF AND DUP2 MSTORE PUSH1 0x20 ADD SWAP1 DUP2 MSTORE PUSH1 0x20 ADD PUSH1 0x0 KECCAK256 DUP2 SWAP1 SSTORE POP PUSH2 0x74F DUP5 DUP5 DUP5 PUSH2 0x992 JUMP JUMPDEST PUSH1 0x1 SWAP1 POP SWAP4 SWAP3 POP POP POP JUMP JUMPDEST PUSH1 0x0 PUSH1 0x8 PUSH1 0x0 DUP4 PUSH20 0xFFFFFFFFFFFFFFFFFFFFFFFFFFFFFFFFFFFFFFFF AND PUSH20 0xFFFFFFFFFFFFFFFFFFFFFFFFFFFFFFFFFFFFFFFF AND DUP2 MSTORE PUSH1 0x20 ADD SWAP1 DUP2 MSTORE PUSH1 0x20 ADD PUSH1 0x0 KECCAK256 PUSH1 0x0 SWAP1 SLOAD SWAP1 PUSH2 0x100 EXP SWAP1 DIV PUSH1 0xFF AND PUSH2 0x7B6 JUMPI PUSH1 0x0 SWAP1 POP PUSH2 0x7BB JUMP JUMPDEST PUSH1 0x1 SWAP1 POP JUMPDEST SWAP2 SWAP1 POP JUMP JUMPDEST PUSH1 0x0 PUSH1 0x8 PUSH1 0x0 DUP4 PUSH20 0xFFFFFFFFFFFFFFFFFFFFFFFFFFFFFFFFFFFFFFFF AND PUSH20 0xFFFFFFFFFFFFFFFFFFFFFFFFFFFFFFFFFFFFFFFF AND DUP2 MSTORE PUSH1 0x20 ADD SWAP1 DUP2 MSTORE PUSH1 0x20 ADD PUSH1 0x0 KECCAK256 PUSH1 0x0 SWAP1 SLOAD SWAP1 PUSH2 0x100 EXP SWAP1 DIV PUSH1 0xFF AND PUSH2 0x81C JUMPI PUSH1 0x0 SWAP1 POP PUSH2 0x85F JUMP JUMPDEST PUSH1 0x4 PUSH1 0x0 DUP4 PUSH20 0xFFFFFFFFFFFFFFFFFFFFFFFFFFFFFFFFFFFFFFFF AND PUSH20 0xFFFFFFFFFFFFFFFFFFFFFFFFFFFFFFFFFFFFFFFF AND DUP2 MSTORE PUSH1 0x20 ADD SWAP1 DUP2 MSTORE PUSH1 0x20 ADD PUSH1 0x0 KECCAK256 SLOAD SWAP1 POP JUMPDEST SWAP2 SWAP1 POP JUMP JUMPDEST PUSH1 0x1 DUP1 SLOAD PUSH2 0x871 SWAP1 PUSH2 0xFE0 JUMP JUMPDEST DUP1 PUSH1 0x1F ADD PUSH1 0x20 DUP1 SWAP2 DIV MUL PUSH1 0x20 ADD PUSH1 0x40 MLOAD SWAP1 DUP2 ADD PUSH1 0x40 MSTORE DUP1 SWAP3 SWAP2 SWAP1 DUP2 DUP2 MSTORE PUSH1 0x20 ADD DUP3 DUP1 SLOAD PUSH2 0x89D SWAP1 PUSH2 0xFE0 JUMP JUMPDEST DUP1 ISZERO PUSH2 0x8EA JUMPI DUP1 PUSH1 0x1F LT PUSH2 0x8BF JUMPI PUSH2 0x100 DUP1 DUP4 SLOAD DIV MUL DUP4 MSTORE SWAP2 PUSH1 0x20 ADD SWAP2 PUSH2 0x8EA JUMP JUMPDEST DUP3 ADD SWAP2 SWAP1 PUSH1 0x0 MSTORE PUSH1 0x20 PUSH1 0x0 KECCAK256 SWAP1 JUMPDEST DUP2 SLOAD DUP2 MSTORE SWAP1 PUSH1 0x1 ADD SWAP1 PUSH1 0x20 ADD DUP1 DUP4 GT PUSH2 0x8CD JUMPI DUP3 SWAP1 SUB PUSH1 0x1F AND DUP3 ADD SWAP2 JUMPDEST POP POP POP POP POP DUP2 JUMP JUMPDEST PUSH1 0x0 DUP2 PUSH1 0x4 PUSH1 0x0 CALLER PUSH20 0xFFFFFFFFFFFFFFFFFFFFFFFFFFFFFFFFFFFFFFFF AND PUSH20 0xFFFFFFFFFFFFFFFFFFFFFFFFFFFFFFFFFFFFFFFF AND DUP2 MSTORE PUSH1 0x20 ADD SWAP1 DUP2 MSTORE PUSH1 0x20 ADD PUSH1 0x0 KECCAK256 SLOAD LT ISZERO PUSH2 0x940 JUMPI PUSH1 0x0 DUP1 REVERT JUMPDEST PUSH2 0x94B CALLER DUP5 DUP5 PUSH2 0x992 JUMP JUMPDEST PUSH1 0x1 SWAP1 POP SWAP3 SWAP2 POP POP JUMP JUMPDEST PUSH1 0x5 PUSH1 0x20 MSTORE DUP2 PUSH1 0x0 MSTORE PUSH1 0x40 PUSH1 0x0 KECCAK256 PUSH1 0x20 MSTORE DUP1 PUSH1 0x0 MSTORE PUSH1 0x40 PUSH1 0x0 KECCAK256 PUSH1 0x0 SWAP2 POP SWAP2 POP POP SLOAD DUP2 JUMP JUMPDEST PUSH1 0x7 PUSH1 0x20 MSTORE DUP1 PUSH1 0x0 MSTORE PUSH1 0x40 PUSH1 0x0 KECCAK256 PUSH1 0x0 SWAP2 POP SWAP1 POP SLOAD DUP2 JUMP JUMPDEST PUSH1 0x0 PUSH20 0xFFFFFFFFFFFFFFFFFFFFFFFFFFFFFFFFFFFFFFFF AND DUP3 PUSH20 0xFFFFFFFFFFFFFFFFFFFFFFFFFFFFFFFFFFFFFFFF AND EQ ISZERO PUSH2 0x9CC JUMPI PUSH1 0x0 DUP1 REVERT JUMPDEST PUSH2 0xA20 DUP4 DUP3 PUSH1 0x4 PUSH1 0x0 DUP8 PUSH20 0xFFFFFFFFFFFFFFFFFFFFFFFFFFFFFFFFFFFFFFFF AND PUSH20 0xFFFFFFFFFFFFFFFFFFFFFFFFFFFFFFFFFFFFFFFF AND DUP2 MSTORE PUSH1 0x20 ADD SWAP1 DUP2 MSTORE PUSH1 0x20 ADD PUSH1 0x0 KECCAK256 SLOAD PUSH2 0xA1B SWAP2 SWAP1 PUSH2 0xF31 JUMP JUMPDEST PUSH2 0xAE0 JUMP JUMPDEST POP PUSH2 0xA75 DUP3 DUP3 PUSH1 0x4 PUSH1 0x0 DUP7 PUSH20 0xFFFFFFFFFFFFFFFFFFFFFFFFFFFFFFFFFFFFFFFF AND PUSH20 0xFFFFFFFFFFFFFFFFFFFFFFFFFFFFFFFFFFFFFFFF AND DUP2 MSTORE PUSH1 0x20 ADD SWAP1 DUP2 MSTORE PUSH1 0x20 ADD PUSH1 0x0 KECCAK256 SLOAD PUSH2 0xA70 SWAP2 SWAP1 PUSH2 0xEDB JUMP JUMPDEST PUSH2 0xAE0 JUMP JUMPDEST POP DUP2 PUSH20 0xFFFFFFFFFFFFFFFFFFFFFFFFFFFFFFFFFFFFFFFF AND DUP4 PUSH20 0xFFFFFFFFFFFFFFFFFFFFFFFFFFFFFFFFFFFFFFFF AND PUSH32 0xDDF252AD1BE2C89B69C2B068FC378DAA952BA7F163C4A11628F55A4DF523B3EF DUP4 PUSH1 0x40 MLOAD PUSH2 0xAD3 SWAP2 SWAP1 PUSH2 0xEA4 JUMP JUMPDEST PUSH1 0x40 MLOAD DUP1 SWAP2 SUB SWAP1 LOG3 POP POP POP JUMP JUMPDEST PUSH1 0x0 DUP2 PUSH1 0x4 PUSH1 0x0 DUP6 PUSH20 0xFFFFFFFFFFFFFFFFFFFFFFFFFFFFFFFFFFFFFFFF AND PUSH20 0xFFFFFFFFFFFFFFFFFFFFFFFFFFFFFFFFFFFFFFFF AND DUP2 MSTORE PUSH1 0x20 ADD SWAP1 DUP2 MSTORE PUSH1 0x20 ADD PUSH1 0x0 KECCAK256 DUP2 SWAP1 SSTORE POP PUSH1 0x8 PUSH1 0x0 DUP5 PUSH20 0xFFFFFFFFFFFFFFFFFFFFFFFFFFFFFFFFFFFFFFFF AND PUSH20 0xFFFFFFFFFFFFFFFFFFFFFFFFFFFFFFFFFFFFFFFF AND DUP2 MSTORE PUSH1 0x20 ADD SWAP1 DUP2 MSTORE PUSH1 0x20 ADD PUSH1 0x0 KECCAK256 PUSH1 0x0 SWAP1 SLOAD SWAP1 PUSH2 0x100 EXP SWAP1 DIV PUSH1 0xFF AND PUSH2 0xC84 JUMPI PUSH1 0x1 PUSH1 0x8 PUSH1 0x0 DUP6 PUSH20 0xFFFFFFFFFFFFFFFFFFFFFFFFFFFFFFFFFFFFFFFF AND PUSH20 0xFFFFFFFFFFFFFFFFFFFFFFFFFFFFFFFFFFFFFFFF AND DUP2 MSTORE PUSH1 0x20 ADD SWAP1 DUP2 MSTORE PUSH1 0x20 ADD PUSH1 0x0 KECCAK256 PUSH1 0x0 PUSH2 0x100 EXP DUP2 SLOAD DUP2 PUSH1 0xFF MUL NOT AND SWAP1 DUP4 ISZERO ISZERO MUL OR SWAP1 SSTORE POP PUSH1 0x6 DUP4 SWAP1 DUP1 PUSH1 0x1 DUP2 SLOAD ADD DUP1 DUP3 SSTORE DUP1 SWAP2 POP POP PUSH1 0x1 SWAP1 SUB SWAP1 PUSH1 0x0 MSTORE PUSH1 0x20 PUSH1 0x0 KECCAK256 ADD PUSH1 0x0 SWAP1 SWAP2 SWAP1 SWAP2 SWAP1 SWAP2 PUSH2 0x100 EXP DUP2 SLOAD DUP2 PUSH20 0xFFFFFFFFFFFFFFFFFFFFFFFFFFFFFFFFFFFFFFFF MUL NOT AND SWAP1 DUP4 PUSH20 0xFFFFFFFFFFFFFFFFFFFFFFFFFFFFFFFFFFFFFFFF AND MUL OR SWAP1 SSTORE POP PUSH1 0x6 DUP1 SLOAD SWAP1 POP PUSH1 0x7 PUSH1 0x0 DUP6 PUSH20 0xFFFFFFFFFFFFFFFFFFFFFFFFFFFFFFFFFFFFFFFF AND PUSH20 0xFFFFFFFFFFFFFFFFFFFFFFFFFFFFFFFFFFFFFFFF AND DUP2 MSTORE PUSH1 0x20 ADD SWAP1 DUP2 MSTORE PUSH1 0x20 ADD PUSH1 0x0 KECCAK256 DUP2 SWAP1 SSTORE POP PUSH1 0x1 SWAP1 POP PUSH2 0xC89 JUMP JUMPDEST PUSH1 0x0 SWAP1 POP JUMPDEST SWAP3 SWAP2 POP POP JUMP JUMPDEST PUSH1 0x0 DUP2 CALLDATALOAD SWAP1 POP PUSH2 0xC9E DUP2 PUSH2 0x1086 JUMP JUMPDEST SWAP3 SWAP2 POP POP JUMP JUMPDEST PUSH1 0x0 DUP2 CALLDATALOAD SWAP1 POP PUSH2 0xCB3 DUP2 PUSH2 0x109D JUMP JUMPDEST SWAP3 SWAP2 POP POP JUMP JUMPDEST PUSH1 0x0 PUSH1 0x20 DUP3 DUP5 SUB SLT ISZERO PUSH2 0xCCF JUMPI PUSH2 0xCCE PUSH2 0x1070 JUMP JUMPDEST JUMPDEST PUSH1 0x0 PUSH2 0xCDD DUP5 DUP3 DUP6 ADD PUSH2 0xC8F JUMP JUMPDEST SWAP2 POP POP SWAP3 SWAP2 POP POP JUMP JUMPDEST PUSH1 0x0 DUP1 PUSH1 0x40 DUP4 DUP6 SUB SLT ISZERO PUSH2 0xCFD JUMPI PUSH2 0xCFC PUSH2 0x1070 JUMP JUMPDEST JUMPDEST PUSH1 0x0 PUSH2 0xD0B DUP6 DUP3 DUP7 ADD PUSH2 0xC8F JUMP JUMPDEST SWAP3 POP POP PUSH1 0x20 PUSH2 0xD1C DUP6 DUP3 DUP7 ADD PUSH2 0xC8F JUMP JUMPDEST SWAP2 POP POP SWAP3 POP SWAP3 SWAP1 POP JUMP JUMPDEST PUSH1 0x0 DUP1 PUSH1 0x0 PUSH1 0x60 DUP5 DUP7 SUB SLT ISZERO PUSH2 0xD3F JUMPI PUSH2 0xD3E PUSH2 0x1070 JUMP JUMPDEST JUMPDEST PUSH1 0x0 PUSH2 0xD4D DUP7 DUP3 DUP8 ADD PUSH2 0xC8F JUMP JUMPDEST SWAP4 POP POP PUSH1 0x20 PUSH2 0xD5E DUP7 DUP3 DUP8 ADD PUSH2 0xC8F JUMP JUMPDEST SWAP3 POP POP PUSH1 0x40 PUSH2 0xD6F DUP7 DUP3 DUP8 ADD PUSH2 0xCA4 JUMP JUMPDEST SWAP2 POP POP SWAP3 POP SWAP3 POP SWAP3 JUMP JUMPDEST PUSH1 0x0 DUP1 PUSH1 0x40 DUP4 DUP6 SUB SLT ISZERO PUSH2 0xD90 JUMPI PUSH2 0xD8F PUSH2 0x1070 JUMP JUMPDEST JUMPDEST PUSH1 0x0 PUSH2 0xD9E DUP6 DUP3 DUP7 ADD PUSH2 0xC8F JUMP JUMPDEST SWAP3 POP POP PUSH1 0x20 PUSH2 0xDAF DUP6 DUP3 DUP7 ADD PUSH2 0xCA4 JUMP JUMPDEST SWAP2 POP POP SWAP3 POP SWAP3 SWAP1 POP JUMP JUMPDEST PUSH1 0x0 PUSH1 0x20 DUP3 DUP5 SUB SLT ISZERO PUSH2 0xDCF JUMPI PUSH2 0xDCE PUSH2 0x1070 JUMP JUMPDEST JUMPDEST PUSH1 0x0 PUSH2 0xDDD DUP5 DUP3 DUP6 ADD PUSH2 0xCA4 JUMP JUMPDEST SWAP2 POP POP SWAP3 SWAP2 POP POP JUMP JUMPDEST PUSH2 0xDEF DUP2 PUSH2 0xF65 JUMP JUMPDEST DUP3 MSTORE POP POP JUMP JUMPDEST PUSH2 0xDFE DUP2 PUSH2 0xF77 JUMP JUMPDEST DUP3 MSTORE POP POP JUMP JUMPDEST PUSH1 0x0 PUSH2 0xE0F DUP3 PUSH2 0xEBF JUMP JUMPDEST PUSH2 0xE19 DUP2 DUP6 PUSH2 0xECA JUMP JUMPDEST SWAP4 POP PUSH2 0xE29 DUP2 DUP6 PUSH1 0x20 DUP7 ADD PUSH2 0xFAD JUMP JUMPDEST PUSH2 0xE32 DUP2 PUSH2 0x1075 JUMP JUMPDEST DUP5 ADD SWAP2 POP POP SWAP3 SWAP2 POP POP JUMP JUMPDEST PUSH2 0xE46 DUP2 PUSH2 0xFA3 JUMP JUMPDEST DUP3 MSTORE POP POP JUMP JUMPDEST PUSH1 0x0 PUSH1 0x20 DUP3 ADD SWAP1 POP PUSH2 0xE61 PUSH1 0x0 DUP4 ADD DUP5 PUSH2 0xDE6 JUMP JUMPDEST SWAP3 SWAP2 POP POP JUMP JUMPDEST PUSH1 0x0 PUSH1 0x20 DUP3 ADD SWAP1 POP PUSH2 0xE7C PUSH1 0x0 DUP4 ADD DUP5 PUSH2 0xDF5 JUMP JUMPDEST SWAP3 SWAP2 POP POP JUMP JUMPDEST PUSH1 0x0 PUSH1 0x20 DUP3 ADD SWAP1 POP DUP2 DUP2 SUB PUSH1 0x0 DUP4 ADD MSTORE PUSH2 0xE9C DUP2 DUP5 PUSH2 0xE04 JUMP JUMPDEST SWAP1 POP SWAP3 SWAP2 POP POP JUMP JUMPDEST PUSH1 0x0 PUSH1 0x20 DUP3 ADD SWAP1 POP PUSH2 0xEB9 PUSH1 0x0 DUP4 ADD DUP5 PUSH2 0xE3D JUMP JUMPDEST SWAP3 SWAP2 POP POP JUMP JUMPDEST PUSH1 0x0 DUP2 MLOAD SWAP1 POP SWAP2 SWAP1 POP JUMP JUMPDEST PUSH1 0x0 DUP3 DUP3 MSTORE PUSH1 0x20 DUP3 ADD SWAP1 POP SWAP3 SWAP2 POP POP JUMP JUMPDEST PUSH1 0x0 PUSH2 0xEE6 DUP3 PUSH2 0xFA3 JUMP JUMPDEST SWAP2 POP PUSH2 0xEF1 DUP4 PUSH2 0xFA3 JUMP JUMPDEST SWAP3 POP DUP3 PUSH32 0xFFFFFFFFFFFFFFFFFFFFFFFFFFFFFFFFFFFFFFFFFFFFFFFFFFFFFFFFFFFFFFFF SUB DUP3 GT ISZERO PUSH2 0xF26 JUMPI PUSH2 0xF25 PUSH2 0x1012 JUMP JUMPDEST JUMPDEST DUP3 DUP3 ADD SWAP1 POP SWAP3 SWAP2 POP POP JUMP JUMPDEST PUSH1 0x0 PUSH2 0xF3C DUP3 PUSH2 0xFA3 JUMP JUMPDEST SWAP2 POP PUSH2 0xF47 DUP4 PUSH2 0xFA3 JUMP JUMPDEST SWAP3 POP DUP3 DUP3 LT ISZERO PUSH2 0xF5A JUMPI PUSH2 0xF59 PUSH2 0x1012 JUMP JUMPDEST JUMPDEST DUP3 DUP3 SUB SWAP1 POP SWAP3 SWAP2 POP POP JUMP JUMPDEST PUSH1 0x0 PUSH2 0xF70 DUP3 PUSH2 0xF83 JUMP JUMPDEST SWAP1 POP SWAP2 SWAP1 POP JUMP JUMPDEST PUSH1 0x0 DUP2 ISZERO ISZERO SWAP1 POP SWAP2 SWAP1 POP JUMP JUMPDEST PUSH1 0x0 PUSH20 0xFFFFFFFFFFFFFFFFFFFFFFFFFFFFFFFFFFFFFFFF DUP3 AND SWAP1 POP SWAP2 SWAP1 POP JUMP JUMPDEST PUSH1 0x0 DUP2 SWAP1 POP SWAP2 SWAP1 POP JUMP JUMPDEST PUSH1 0x0 JUMPDEST DUP4 DUP2 LT ISZERO PUSH2 0xFCB JUMPI DUP1 DUP3 ADD MLOAD DUP2 DUP5 ADD MSTORE PUSH1 0x20 DUP2 ADD SWAP1 POP PUSH2 0xFB0 JUMP JUMPDEST DUP4 DUP2 GT ISZERO PUSH2 0xFDA JUMPI PUSH1 0x0 DUP5 DUP5 ADD MSTORE JUMPDEST POP POP POP POP JUMP JUMPDEST PUSH1 0x0 PUSH1 0x2 DUP3 DIV SWAP1 POP PUSH1 0x1 DUP3 AND DUP1 PUSH2 0xFF8 JUMPI PUSH1 0x7F DUP3 AND SWAP2 POP JUMPDEST PUSH1 0x20 DUP3 LT DUP2 EQ ISZERO PUSH2 0x100C JUMPI PUSH2 0x100B PUSH2 0x1041 JUMP JUMPDEST JUMPDEST POP SWAP2 SWAP1 POP JUMP JUMPDEST PUSH32 0x4E487B7100000000000000000000000000000000000000000000000000000000 PUSH1 0x0 MSTORE PUSH1 0x11 PUSH1 0x4 MSTORE PUSH1 0x24 PUSH1 0x0 REVERT JUMPDEST PUSH32 0x4E487B7100000000000000000000000000000000000000000000000000000000 PUSH1 0x0 MSTORE PUSH1 0x22 PUSH1 0x4 MSTORE PUSH1 0x24 PUSH1 0x0 REVERT JUMPDEST PUSH1 0x0 DUP1 REVERT JUMPDEST PUSH1 0x0 PUSH1 0x1F NOT PUSH1 0x1F DUP4 ADD AND SWAP1 POP SWAP2 SWAP1 POP JUMP JUMPDEST PUSH2 0x108F DUP2 PUSH2 0xF65 JUMP JUMPDEST DUP2 EQ PUSH2 0x109A JUMPI PUSH1 0x0 DUP1 REVERT JUMPDEST POP JUMP JUMPDEST PUSH2 0x10A6 DUP2 PUSH2 0xFA3 JUMP JUMPDEST DUP2 EQ PUSH2 0x10B1 JUMPI PUSH1 0x0 DUP1 REVERT JUMPDEST POP JUMP INVALID LOG2 PUSH5 0x6970667358 0x22 SLT KECCAK256 0xE6 0xA9 BASEFEE 0xCE 0x27 SWAP3 0x4A CODECOPY DUP16 PUSH11 0xB282ACDC134593ABE7BC7F OR 0x2E SGT CREATE2 0xE6 0x1F 0xCD PUSH3 0xA38B71 PUSH5 0x736F6C6343 STOP ADDMOD SMOD STOP CALLER "
				},
				"gasEstimates": {
					"creation": {
						"codeDepositCost": "866000",
						"executionCost": "infinite",
						"totalCost": "infinite"
					},
					"external": {
						"accountKeys(uint256)": "5045",
						"allowance(address,address)": "infinite",
						"approve(address,uint256)": "infinite",
						"getAccountBalance(address)": "5107",
						"getIndexOf(address)": "5086",
						"indexOf(address)": "2924",
						"isInserted(address)": "2911",
						"name()": "infinite",
						"symbol()": "infinite",
						"totalSupply()": "2496",
						"transfer(address,uint256)": "infinite",
						"transferFrom(address,address,uint256)": "infinite"
					},
					"internal": {
						"_transfer(address,address,uint256)": "infinite",
						"setBalance(address,uint256)": "121742"
					}
				},
				"methodIdentifiers": {
					"accountKeys(uint256)": "1e2eb088",
					"allowance(address,address)": "dd62ed3e",
					"approve(address,uint256)": "095ea7b3",
					"getAccountBalance(address)": "93423e9c",
					"getIndexOf(address)": "017df522",
					"indexOf(address)": "fd6aad25",
					"isInserted(address)": "29b57c14",
					"name()": "06fdde03",
					"symbol()": "95d89b41",
					"totalSupply()": "18160ddd",
					"transfer(address,uint256)": "a9059cbb",
					"transferFrom(address,address,uint256)": "23b872dd"
				}
			},
			"storageLayout": {
				"storage": [
					{
						"astId": 4,
						"contract": "V1/Contracts/sponsorCoin/SPC_Token.sol:SPC_Token",
						"label": "name",
						"offset": 0,
						"slot": "0",
						"type": "t_string_storage"
					},
					{
						"astId": 6,
						"contract": "V1/Contracts/sponsorCoin/SPC_Token.sol:SPC_Token",
						"label": "symbol",
						"offset": 0,
						"slot": "1",
						"type": "t_string_storage"
					},
					{
						"astId": 8,
						"contract": "V1/Contracts/sponsorCoin/SPC_Token.sol:SPC_Token",
						"label": "decimals",
						"offset": 0,
						"slot": "2",
						"type": "t_uint256"
					},
					{
						"astId": 10,
						"contract": "V1/Contracts/sponsorCoin/SPC_Token.sol:SPC_Token",
						"label": "totalSupply",
						"offset": 0,
						"slot": "3",
						"type": "t_uint256"
					},
					{
						"astId": 14,
						"contract": "V1/Contracts/sponsorCoin/SPC_Token.sol:SPC_Token",
						"label": "balanceOf",
						"offset": 0,
						"slot": "4",
						"type": "t_mapping(t_address,t_uint256)"
					},
					{
						"astId": 20,
						"contract": "V1/Contracts/sponsorCoin/SPC_Token.sol:SPC_Token",
						"label": "allowance",
						"offset": 0,
						"slot": "5",
						"type": "t_mapping(t_address,t_mapping(t_address,t_uint256))"
					},
					{
						"astId": 233,
						"contract": "V1/Contracts/sponsorCoin/SPC_Token.sol:SPC_Token",
						"label": "accountKeys",
						"offset": 0,
						"slot": "6",
						"type": "t_array(t_address)dyn_storage"
					},
					{
						"astId": 237,
						"contract": "V1/Contracts/sponsorCoin/SPC_Token.sol:SPC_Token",
						"label": "indexOf",
						"offset": 0,
						"slot": "7",
						"type": "t_mapping(t_address,t_uint256)"
					},
					{
						"astId": 241,
						"contract": "V1/Contracts/sponsorCoin/SPC_Token.sol:SPC_Token",
						"label": "inserted",
						"offset": 0,
						"slot": "8",
						"type": "t_mapping(t_address,t_bool)"
					}
				],
				"types": {
					"t_address": {
						"encoding": "inplace",
						"label": "address",
						"numberOfBytes": "20"
					},
					"t_array(t_address)dyn_storage": {
						"base": "t_address",
						"encoding": "dynamic_array",
						"label": "address[]",
						"numberOfBytes": "32"
					},
					"t_bool": {
						"encoding": "inplace",
						"label": "bool",
						"numberOfBytes": "1"
					},
					"t_mapping(t_address,t_bool)": {
						"encoding": "mapping",
						"key": "t_address",
						"label": "mapping(address => bool)",
						"numberOfBytes": "32",
						"value": "t_bool"
					},
					"t_mapping(t_address,t_mapping(t_address,t_uint256))": {
						"encoding": "mapping",
						"key": "t_address",
						"label": "mapping(address => mapping(address => uint256))",
						"numberOfBytes": "32",
						"value": "t_mapping(t_address,t_uint256)"
					},
					"t_mapping(t_address,t_uint256)": {
						"encoding": "mapping",
						"key": "t_address",
						"label": "mapping(address => uint256)",
						"numberOfBytes": "32",
						"value": "t_uint256"
					},
					"t_string_storage": {
						"encoding": "bytes",
						"label": "string",
						"numberOfBytes": "32"
					},
					"t_uint256": {
						"encoding": "inplace",
						"label": "uint256",
						"numberOfBytes": "32"
					}
				}
			},
			"userdoc": {
				"kind": "user",
				"methods": {
					"approve(address,uint256)": {
						"notice": "Approve other to spend on your behalf eg an exchange "
					},
					"transfer(address,uint256)": {
						"notice": "transfer amount of tokens to an address"
					},
					"transferFrom(address,address,uint256)": {
						"notice": "transfer by approved person from original address of an amount within approved limit "
					}
				},
				"version": 1
			}
		}
	}
}