{
	"V1/Contracts/sponsorCoin/SPC_Token.sol": {
		"SPC_Token": {
			"abi": [
				{
					"inputs": [],
					"stateMutability": "nonpayable",
					"type": "constructor"
				},
				{
					"anonymous": false,
					"inputs": [
						{
							"indexed": true,
							"internalType": "address",
							"name": "owner",
							"type": "address"
						},
						{
							"indexed": true,
							"internalType": "address",
							"name": "spender",
							"type": "address"
						},
						{
							"indexed": false,
							"internalType": "uint256",
							"name": "value",
							"type": "uint256"
						}
					],
					"name": "Approval",
					"type": "event"
				},
				{
					"anonymous": false,
					"inputs": [
						{
							"indexed": true,
							"internalType": "address",
							"name": "from",
							"type": "address"
						},
						{
							"indexed": true,
							"internalType": "address",
							"name": "to",
							"type": "address"
						},
						{
							"indexed": false,
							"internalType": "uint256",
							"name": "value",
							"type": "uint256"
						}
					],
					"name": "Transfer",
					"type": "event"
				},
				{
					"inputs": [
						{
							"internalType": "uint256",
							"name": "",
							"type": "uint256"
						}
					],
					"name": "accountKeys",
					"outputs": [
						{
							"internalType": "address",
							"name": "",
							"type": "address"
						}
					],
					"stateMutability": "view",
					"type": "function"
				},
				{
					"inputs": [
						{
							"internalType": "address",
							"name": "",
							"type": "address"
						},
						{
							"internalType": "address",
							"name": "",
							"type": "address"
						}
					],
					"name": "allowance",
					"outputs": [
						{
							"internalType": "uint256",
							"name": "",
							"type": "uint256"
						}
					],
					"stateMutability": "view",
					"type": "function"
				},
				{
					"inputs": [
						{
							"internalType": "address",
							"name": "_spender",
							"type": "address"
						},
						{
							"internalType": "uint256",
							"name": "_value",
							"type": "uint256"
						}
					],
					"name": "approve",
					"outputs": [
						{
							"internalType": "bool",
							"name": "",
							"type": "bool"
						}
					],
					"stateMutability": "nonpayable",
					"type": "function"
				},
				{
					"inputs": [
						{
							"internalType": "address",
							"name": "",
							"type": "address"
						}
					],
					"name": "balanceOf",
					"outputs": [
						{
							"internalType": "uint256",
							"name": "",
							"type": "uint256"
						}
					],
					"stateMutability": "view",
					"type": "function"
				},
				{
					"inputs": [],
					"name": "decimals",
					"outputs": [
						{
							"internalType": "uint256",
							"name": "",
							"type": "uint256"
						}
					],
					"stateMutability": "view",
					"type": "function"
				},
				{
					"inputs": [
						{
							"internalType": "address",
							"name": "",
							"type": "address"
						}
					],
					"name": "indexOf",
					"outputs": [
						{
							"internalType": "uint256",
							"name": "",
							"type": "uint256"
						}
					],
					"stateMutability": "view",
					"type": "function"
				},
				{
					"inputs": [
						{
							"internalType": "address",
							"name": "accountKey",
							"type": "address"
						}
					],
					"name": "isInserted",
					"outputs": [
						{
							"internalType": "bool",
							"name": "",
							"type": "bool"
						}
					],
					"stateMutability": "view",
					"type": "function"
				},
				{
					"inputs": [],
					"name": "name",
					"outputs": [
						{
							"internalType": "string",
							"name": "",
							"type": "string"
						}
					],
					"stateMutability": "view",
					"type": "function"
				},
				{
					"inputs": [],
					"name": "symbol",
					"outputs": [
						{
							"internalType": "string",
							"name": "",
							"type": "string"
						}
					],
					"stateMutability": "view",
					"type": "function"
				},
				{
					"inputs": [],
					"name": "totalSupply",
					"outputs": [
						{
							"internalType": "uint256",
							"name": "",
							"type": "uint256"
						}
					],
					"stateMutability": "view",
					"type": "function"
				},
				{
					"inputs": [
						{
							"internalType": "address",
							"name": "_to",
							"type": "address"
						},
						{
							"internalType": "uint256",
							"name": "_value",
							"type": "uint256"
						}
					],
					"name": "transfer",
					"outputs": [
						{
							"internalType": "bool",
							"name": "success",
							"type": "bool"
						}
					],
					"stateMutability": "nonpayable",
					"type": "function"
				},
				{
					"inputs": [
						{
							"internalType": "address",
							"name": "_from",
							"type": "address"
						},
						{
							"internalType": "address",
							"name": "_to",
							"type": "address"
						},
						{
							"internalType": "uint256",
							"name": "_value",
							"type": "uint256"
						}
					],
					"name": "transferFrom",
					"outputs": [
						{
							"internalType": "bool",
							"name": "",
							"type": "bool"
						}
					],
					"stateMutability": "nonpayable",
					"type": "function"
				}
			],
			"devdoc": {
				"kind": "dev",
				"methods": {
					"approve(address,uint256)": {
						"params": {
							"_spender": "allowed to spend and a max amount allowed to spend",
							"_value": "amount value of token to send"
						},
						"returns": {
							"_0": "true, success once address approved"
						}
					},
					"transfer(address,uint256)": {
						"params": {
							"_to": "receiver of token",
							"_value": "amount value of token to send"
						},
						"returns": {
							"success": "as true, for transfer "
						}
					},
					"transferFrom(address,address,uint256)": {
						"details": "internal helper transfer function with required safety checks",
						"params": {
							"_from": ", address sending to and the amount to send",
							"_to": "receiver of token",
							"_value": "amount value of token to send"
						},
						"returns": {
							"_0": "true, success once transfered from original account    "
						}
					}
				},
				"title": "ERC20 Contract",
				"version": 1
			},
			"evm": {
				"assembly": "    /* \"V1/Contracts/sponsorCoin/SPC_Token.sol\":179:4767  contract SPC_Token {... */\n  mstore(0x40, 0x80)\n    /* \"V1/Contracts/sponsorCoin/SPC_Token.sol\":1392:1589  constructor() {... */\n  callvalue\n  dup1\n  iszero\n  tag_1\n  jumpi\n  0x00\n  dup1\n  revert\ntag_1:\n  pop\n    /* \"V1/Contracts/sponsorCoin/SPC_Token.sol\":1416:1436  name = \"sponsorCoin\" */\n  mload(0x40)\n  dup1\n  0x40\n  add\n  0x40\n  mstore\n  dup1\n  0x0b\n  dup2\n  mstore\n  0x20\n  add\n  0x73706f6e736f72436f696e000000000000000000000000000000000000000000\n  dup2\n  mstore\n  pop\n    /* \"V1/Contracts/sponsorCoin/SPC_Token.sol\":1416:1420  name */\n  0x00\n    /* \"V1/Contracts/sponsorCoin/SPC_Token.sol\":1416:1436  name = \"sponsorCoin\" */\n  swap1\n  dup1\n  mload\n  swap1\n  0x20\n  add\n  swap1\n  tag_4\n  swap3\n  swap2\n  swap1\n  tag_5\n  jump\t// in\ntag_4:\n  pop\n    /* \"V1/Contracts/sponsorCoin/SPC_Token.sol\":1446:1464  symbol = \"SP_Coin\" */\n  mload(0x40)\n  dup1\n  0x40\n  add\n  0x40\n  mstore\n  dup1\n  0x07\n  dup2\n  mstore\n  0x20\n  add\n  0x53505f436f696e00000000000000000000000000000000000000000000000000\n  dup2\n  mstore\n  pop\n    /* \"V1/Contracts/sponsorCoin/SPC_Token.sol\":1446:1452  symbol */\n  0x01\n    /* \"V1/Contracts/sponsorCoin/SPC_Token.sol\":1446:1464  symbol = \"SP_Coin\" */\n  swap1\n  dup1\n  mload\n  swap1\n  0x20\n  add\n  swap1\n  tag_6\n  swap3\n  swap2\n  swap1\n  tag_5\n  jump\t// in\ntag_6:\n  pop\n    /* \"V1/Contracts/sponsorCoin/SPC_Token.sol\":1485:1487  18 */\n  0x12\n    /* \"V1/Contracts/sponsorCoin/SPC_Token.sol\":1474:1482  decimals */\n  0x02\n    /* \"V1/Contracts/sponsorCoin/SPC_Token.sol\":1474:1487  decimals = 18 */\n  dup2\n  swap1\n  sstore\n  pop\n    /* \"V1/Contracts/sponsorCoin/SPC_Token.sol\":1511:1536  1000000000000000000000000 */\n  0xd3c21bcecceda1000000\n    /* \"V1/Contracts/sponsorCoin/SPC_Token.sol\":1497:1508  totalSupply */\n  0x03\n    /* \"V1/Contracts/sponsorCoin/SPC_Token.sol\":1497:1536  totalSupply = 1000000000000000000000000 */\n  dup2\n  swap1\n  sstore\n  pop\n    /* \"V1/Contracts/sponsorCoin/SPC_Token.sol\":1547:1582  setBalance(msg.sender, totalSupply) */\n  tag_7\n    /* \"V1/Contracts/sponsorCoin/SPC_Token.sol\":1558:1568  msg.sender */\n  caller\n    /* \"V1/Contracts/sponsorCoin/SPC_Token.sol\":1570:1581  totalSupply */\n  sload(0x03)\n    /* \"V1/Contracts/sponsorCoin/SPC_Token.sol\":1547:1557  setBalance */\n  shl(0x20, tag_8)\n    /* \"V1/Contracts/sponsorCoin/SPC_Token.sol\":1547:1582  setBalance(msg.sender, totalSupply) */\n  0x20\n  shr\n  jump\t// in\ntag_7:\n  pop\n    /* \"V1/Contracts/sponsorCoin/SPC_Token.sol\":179:4767  contract SPC_Token {... */\n  jump(tag_9)\n    /* \"V1/Contracts/sponsorCoin/SPC_Token.sol\":1825:2112  function setBalance(address accountKey, uint newBalance ) internal returns (bool) {... */\ntag_8:\n    /* \"V1/Contracts/sponsorCoin/SPC_Token.sol\":1901:1905  bool */\n  0x00\n    /* \"V1/Contracts/sponsorCoin/SPC_Token.sol\":1942:1952  newBalance */\n  dup2\n    /* \"V1/Contracts/sponsorCoin/SPC_Token.sol\":1918:1927  balanceOf */\n  0x04\n    /* \"V1/Contracts/sponsorCoin/SPC_Token.sol\":1918:1939  balanceOf[accountKey] */\n  0x00\n    /* \"V1/Contracts/sponsorCoin/SPC_Token.sol\":1928:1938  accountKey */\n  dup6\n    /* \"V1/Contracts/sponsorCoin/SPC_Token.sol\":1918:1939  balanceOf[accountKey] */\n  0xffffffffffffffffffffffffffffffffffffffff\n  and\n  0xffffffffffffffffffffffffffffffffffffffff\n  and\n  dup2\n  mstore\n  0x20\n  add\n  swap1\n  dup2\n  mstore\n  0x20\n  add\n  0x00\n  keccak256\n    /* \"V1/Contracts/sponsorCoin/SPC_Token.sol\":1918:1952  balanceOf[accountKey] = newBalance */\n  dup2\n  swap1\n  sstore\n  pop\n    /* \"V1/Contracts/sponsorCoin/SPC_Token.sol\":1968:1976  inserted */\n  0x08\n    /* \"V1/Contracts/sponsorCoin/SPC_Token.sol\":1968:1988  inserted[accountKey] */\n  0x00\n    /* \"V1/Contracts/sponsorCoin/SPC_Token.sol\":1977:1987  accountKey */\n  dup5\n    /* \"V1/Contracts/sponsorCoin/SPC_Token.sol\":1968:1988  inserted[accountKey] */\n  0xffffffffffffffffffffffffffffffffffffffff\n  and\n  0xffffffffffffffffffffffffffffffffffffffff\n  and\n  dup2\n  mstore\n  0x20\n  add\n  swap1\n  dup2\n  mstore\n  0x20\n  add\n  0x00\n  keccak256\n  0x00\n  swap1\n  sload\n  swap1\n  0x0100\n  exp\n  swap1\n  div\n  0xff\n  and\n    /* \"V1/Contracts/sponsorCoin/SPC_Token.sol\":1963:2084  if (!inserted[accountKey]) {... */\n  tag_11\n  jumpi\n    /* \"V1/Contracts/sponsorCoin/SPC_Token.sol\":2027:2031  true */\n  0x01\n    /* \"V1/Contracts/sponsorCoin/SPC_Token.sol\":2004:2012  inserted */\n  0x08\n    /* \"V1/Contracts/sponsorCoin/SPC_Token.sol\":2004:2024  inserted[accountKey] */\n  0x00\n    /* \"V1/Contracts/sponsorCoin/SPC_Token.sol\":2013:2023  accountKey */\n  dup6\n    /* \"V1/Contracts/sponsorCoin/SPC_Token.sol\":2004:2024  inserted[accountKey] */\n  0xffffffffffffffffffffffffffffffffffffffff\n  and\n  0xffffffffffffffffffffffffffffffffffffffff\n  and\n  dup2\n  mstore\n  0x20\n  add\n  swap1\n  dup2\n  mstore\n  0x20\n  add\n  0x00\n  keccak256\n  0x00\n    /* \"V1/Contracts/sponsorCoin/SPC_Token.sol\":2004:2031  inserted[accountKey] = true */\n  0x0100\n  exp\n  dup2\n  sload\n  dup2\n  0xff\n  mul\n  not\n  and\n  swap1\n  dup4\n  iszero\n  iszero\n  mul\n  or\n  swap1\n  sstore\n  pop\n    /* \"V1/Contracts/sponsorCoin/SPC_Token.sol\":2045:2056  accountKeys */\n  0x06\n    /* \"V1/Contracts/sponsorCoin/SPC_Token.sol\":2062:2072  accountKey */\n  dup4\n    /* \"V1/Contracts/sponsorCoin/SPC_Token.sol\":2045:2073  accountKeys.push(accountKey) */\n  swap1\n  dup1\n  0x01\n  dup2\n  sload\n  add\n  dup1\n  dup3\n  sstore\n  dup1\n  swap2\n  pop\n  pop\n  0x01\n  swap1\n  sub\n  swap1\n  0x00\n  mstore\n  keccak256(0x00, 0x20)\n  add\n  0x00\n  swap1\n  swap2\n  swap1\n  swap2\n  swap1\n  swap2\n  0x0100\n  exp\n  dup2\n  sload\n  dup2\n  0xffffffffffffffffffffffffffffffffffffffff\n  mul\n  not\n  and\n  swap1\n  dup4\n  0xffffffffffffffffffffffffffffffffffffffff\n  and\n  mul\n  or\n  swap1\n  sstore\n  pop\n    /* \"V1/Contracts/sponsorCoin/SPC_Token.sol\":1963:2084  if (!inserted[accountKey]) {... */\ntag_11:\n    /* \"V1/Contracts/sponsorCoin/SPC_Token.sol\":2100:2104  true */\n  0x01\n    /* \"V1/Contracts/sponsorCoin/SPC_Token.sol\":2093:2104  return true */\n  swap1\n  pop\n    /* \"V1/Contracts/sponsorCoin/SPC_Token.sol\":1825:2112  function setBalance(address accountKey, uint newBalance ) internal returns (bool) {... */\n  swap3\n  swap2\n  pop\n  pop\n  jump\t// out\n    /* \"V1/Contracts/sponsorCoin/SPC_Token.sol\":179:4767  contract SPC_Token {... */\ntag_5:\n  dup3\n  dup1\n  sload\n  tag_13\n  swap1\n  tag_14\n  jump\t// in\ntag_13:\n  swap1\n  0x00\n  mstore\n  keccak256(0x00, 0x20)\n  swap1\n  0x1f\n  add\n  0x20\n  swap1\n  div\n  dup2\n  add\n  swap3\n  dup3\n  tag_16\n  jumpi\n  0x00\n  dup6\n  sstore\n  jump(tag_15)\ntag_16:\n  dup3\n  0x1f\n  lt\n  tag_17\n  jumpi\n  dup1\n  mload\n  not(0xff)\n  and\n  dup4\n  dup1\n  add\n  or\n  dup6\n  sstore\n  jump(tag_15)\ntag_17:\n  dup3\n  dup1\n  add\n  0x01\n  add\n  dup6\n  sstore\n  dup3\n  iszero\n  tag_15\n  jumpi\n  swap2\n  dup3\n  add\ntag_18:\n  dup3\n  dup2\n  gt\n  iszero\n  tag_19\n  jumpi\n  dup3\n  mload\n  dup3\n  sstore\n  swap2\n  0x20\n  add\n  swap2\n  swap1\n  0x01\n  add\n  swap1\n  jump(tag_18)\ntag_19:\ntag_15:\n  pop\n  swap1\n  pop\n  tag_20\n  swap2\n  swap1\n  tag_21\n  jump\t// in\ntag_20:\n  pop\n  swap1\n  jump\t// out\ntag_21:\ntag_22:\n  dup1\n  dup3\n  gt\n  iszero\n  tag_23\n  jumpi\n  0x00\n  dup2\n  0x00\n  swap1\n  sstore\n  pop\n  0x01\n  add\n  jump(tag_22)\ntag_23:\n  pop\n  swap1\n  jump\t// out\n    /* \"#utility.yul\":7:327   */\ntag_14:\n    /* \"#utility.yul\":51:57   */\n  0x00\n    /* \"#utility.yul\":88:89   */\n  0x02\n    /* \"#utility.yul\":82:86   */\n  dup3\n    /* \"#utility.yul\":78:90   */\n  div\n    /* \"#utility.yul\":68:90   */\n  swap1\n  pop\n    /* \"#utility.yul\":135:136   */\n  0x01\n    /* \"#utility.yul\":129:133   */\n  dup3\n    /* \"#utility.yul\":125:137   */\n  and\n    /* \"#utility.yul\":156:174   */\n  dup1\n    /* \"#utility.yul\":146:227   */\n  tag_26\n  jumpi\n    /* \"#utility.yul\":212:216   */\n  0x7f\n    /* \"#utility.yul\":204:210   */\n  dup3\n    /* \"#utility.yul\":200:217   */\n  and\n    /* \"#utility.yul\":190:217   */\n  swap2\n  pop\n    /* \"#utility.yul\":146:227   */\ntag_26:\n    /* \"#utility.yul\":274:276   */\n  0x20\n    /* \"#utility.yul\":266:272   */\n  dup3\n    /* \"#utility.yul\":263:277   */\n  lt\n    /* \"#utility.yul\":243:261   */\n  dup2\n    /* \"#utility.yul\":240:278   */\n  eq\n    /* \"#utility.yul\":237:321   */\n  iszero\n  tag_27\n  jumpi\n    /* \"#utility.yul\":293:311   */\n  tag_28\n  tag_29\n  jump\t// in\ntag_28:\n    /* \"#utility.yul\":237:321   */\ntag_27:\n    /* \"#utility.yul\":58:327   */\n  pop\n    /* \"#utility.yul\":7:327   */\n  swap2\n  swap1\n  pop\n  jump\t// out\n    /* \"#utility.yul\":333:513   */\ntag_29:\n    /* \"#utility.yul\":381:458   */\n  0x4e487b7100000000000000000000000000000000000000000000000000000000\n    /* \"#utility.yul\":378:379   */\n  0x00\n    /* \"#utility.yul\":371:459   */\n  mstore\n    /* \"#utility.yul\":478:482   */\n  0x22\n    /* \"#utility.yul\":475:476   */\n  0x04\n    /* \"#utility.yul\":468:483   */\n  mstore\n    /* \"#utility.yul\":502:506   */\n  0x24\n    /* \"#utility.yul\":499:500   */\n  0x00\n    /* \"#utility.yul\":492:507   */\n  revert\n    /* \"V1/Contracts/sponsorCoin/SPC_Token.sol\":179:4767  contract SPC_Token {... */\ntag_9:\n  dataSize(sub_0)\n  dup1\n  dataOffset(sub_0)\n  0x00\n  codecopy\n  0x00\n  return\nstop\n\nsub_0: assembly {\n        /* \"V1/Contracts/sponsorCoin/SPC_Token.sol\":179:4767  contract SPC_Token {... */\n      mstore(0x40, 0x80)\n      callvalue\n      dup1\n      iszero\n      tag_1\n      jumpi\n      0x00\n      dup1\n      revert\n    tag_1:\n      pop\n      jumpi(tag_2, lt(calldatasize, 0x04))\n      shr(0xe0, calldataload(0x00))\n      dup1\n      0x313ce567\n      gt\n      tag_15\n      jumpi\n      dup1\n      0x313ce567\n      eq\n      tag_9\n      jumpi\n      dup1\n      0x70a08231\n      eq\n      tag_10\n      jumpi\n      dup1\n      0x95d89b41\n      eq\n      tag_11\n      jumpi\n      dup1\n      0xa9059cbb\n      eq\n      tag_12\n      jumpi\n      dup1\n      0xdd62ed3e\n      eq\n      tag_13\n      jumpi\n      dup1\n      0xfd6aad25\n      eq\n      tag_14\n      jumpi\n      jump(tag_2)\n    tag_15:\n      dup1\n      0x06fdde03\n      eq\n      tag_3\n      jumpi\n      dup1\n      0x095ea7b3\n      eq\n      tag_4\n      jumpi\n      dup1\n      0x18160ddd\n      eq\n      tag_5\n      jumpi\n      dup1\n      0x1e2eb088\n      eq\n      tag_6\n      jumpi\n      dup1\n      0x23b872dd\n      eq\n      tag_7\n      jumpi\n      dup1\n      0x29b57c14\n      eq\n      tag_8\n      jumpi\n    tag_2:\n      0x00\n      dup1\n      revert\n        /* \"V1/Contracts/sponsorCoin/SPC_Token.sol\":421:439  string public name */\n    tag_3:\n      tag_16\n      tag_17\n      jump\t// in\n    tag_16:\n      mload(0x40)\n      tag_18\n      swap2\n      swap1\n      tag_19\n      jump\t// in\n    tag_18:\n      mload(0x40)\n      dup1\n      swap2\n      sub\n      swap1\n      return\n        /* \"V1/Contracts/sponsorCoin/SPC_Token.sol\":3712:3959  function approve(address _spender, uint256 _value) external returns (bool) {... */\n    tag_4:\n      tag_20\n      0x04\n      dup1\n      calldatasize\n      sub\n      dup2\n      add\n      swap1\n      tag_21\n      swap2\n      swap1\n      tag_22\n      jump\t// in\n    tag_21:\n      tag_23\n      jump\t// in\n    tag_20:\n      mload(0x40)\n      tag_24\n      swap2\n      swap1\n      tag_25\n      jump\t// in\n    tag_24:\n      mload(0x40)\n      dup1\n      swap2\n      sub\n      swap1\n      return\n        /* \"V1/Contracts/sponsorCoin/SPC_Token.sol\":500:526  uint256 public totalSupply */\n    tag_5:\n      tag_26\n      tag_27\n      jump\t// in\n    tag_26:\n      mload(0x40)\n      tag_28\n      swap2\n      swap1\n      tag_29\n      jump\t// in\n    tag_28:\n      mload(0x40)\n      dup1\n      swap2\n      sub\n      swap1\n      return\n        /* \"V1/Contracts/sponsorCoin/SPC_Token.sol\":728:756  address[] public accountKeys */\n    tag_6:\n      tag_30\n      0x04\n      dup1\n      calldatasize\n      sub\n      dup2\n      add\n      swap1\n      tag_31\n      swap2\n      swap1\n      tag_32\n      jump\t// in\n    tag_31:\n      tag_33\n      jump\t// in\n    tag_30:\n      mload(0x40)\n      tag_34\n      swap2\n      swap1\n      tag_35\n      jump\t// in\n    tag_34:\n      mload(0x40)\n      dup1\n      swap2\n      sub\n      swap1\n      return\n        /* \"V1/Contracts/sponsorCoin/SPC_Token.sol\":4426:4765  function transferFrom(address _from, address _to, uint256 _value) external returns (bool) {... */\n    tag_7:\n      tag_36\n      0x04\n      dup1\n      calldatasize\n      sub\n      dup2\n      add\n      swap1\n      tag_37\n      swap2\n      swap1\n      tag_38\n      jump\t// in\n    tag_37:\n      tag_39\n      jump\t// in\n    tag_36:\n      mload(0x40)\n      tag_40\n      swap2\n      swap1\n      tag_25\n      jump\t// in\n    tag_40:\n      mload(0x40)\n      dup1\n      swap2\n      sub\n      swap1\n      return\n        /* \"V1/Contracts/sponsorCoin/SPC_Token.sol\":2118:2293  function isInserted(address accountKey) public view returns (bool) {... */\n    tag_8:\n      tag_41\n      0x04\n      dup1\n      calldatasize\n      sub\n      dup2\n      add\n      swap1\n      tag_42\n      swap2\n      swap1\n      tag_43\n      jump\t// in\n    tag_42:\n      tag_44\n      jump\t// in\n    tag_41:\n      mload(0x40)\n      tag_45\n      swap2\n      swap1\n      tag_25\n      jump\t// in\n    tag_45:\n      mload(0x40)\n      dup1\n      swap2\n      sub\n      swap1\n      return\n        /* \"V1/Contracts/sponsorCoin/SPC_Token.sol\":471:494  uint256 public decimals */\n    tag_9:\n      tag_46\n      tag_47\n      jump\t// in\n    tag_46:\n      mload(0x40)\n      tag_48\n      swap2\n      swap1\n      tag_29\n      jump\t// in\n    tag_48:\n      mload(0x40)\n      dup1\n      swap2\n      sub\n      swap1\n      return\n        /* \"V1/Contracts/sponsorCoin/SPC_Token.sol\":584:628  mapping(address => uint256) public balanceOf */\n    tag_10:\n      tag_49\n      0x04\n      dup1\n      calldatasize\n      sub\n      dup2\n      add\n      swap1\n      tag_50\n      swap2\n      swap1\n      tag_43\n      jump\t// in\n    tag_50:\n      tag_51\n      jump\t// in\n    tag_49:\n      mload(0x40)\n      tag_52\n      swap2\n      swap1\n      tag_29\n      jump\t// in\n    tag_52:\n      mload(0x40)\n      dup1\n      swap2\n      sub\n      swap1\n      return\n        /* \"V1/Contracts/sponsorCoin/SPC_Token.sol\":445:465  string public symbol */\n    tag_11:\n      tag_53\n      tag_54\n      jump\t// in\n    tag_53:\n      mload(0x40)\n      tag_55\n      swap2\n      swap1\n      tag_19\n      jump\t// in\n    tag_55:\n      mload(0x40)\n      dup1\n      swap2\n      sub\n      swap1\n      return\n        /* \"V1/Contracts/sponsorCoin/SPC_Token.sol\":2491:2692  function transfer(address _to, uint256 _value) external returns (bool success) {... */\n    tag_12:\n      tag_56\n      0x04\n      dup1\n      calldatasize\n      sub\n      dup2\n      add\n      swap1\n      tag_57\n      swap2\n      swap1\n      tag_22\n      jump\t// in\n    tag_57:\n      tag_58\n      jump\t// in\n    tag_56:\n      mload(0x40)\n      tag_59\n      swap2\n      swap1\n      tag_25\n      jump\t// in\n    tag_59:\n      mload(0x40)\n      dup1\n      swap2\n      sub\n      swap1\n      return\n        /* \"V1/Contracts/sponsorCoin/SPC_Token.sol\":634:698  mapping(address => mapping(address => uint256)) public allowance */\n    tag_13:\n      tag_60\n      0x04\n      dup1\n      calldatasize\n      sub\n      dup2\n      add\n      swap1\n      tag_61\n      swap2\n      swap1\n      tag_62\n      jump\t// in\n    tag_61:\n      tag_63\n      jump\t// in\n    tag_60:\n      mload(0x40)\n      tag_64\n      swap2\n      swap1\n      tag_29\n      jump\t// in\n    tag_64:\n      mload(0x40)\n      dup1\n      swap2\n      sub\n      swap1\n      return\n        /* \"V1/Contracts/sponsorCoin/SPC_Token.sol\":762:801  mapping(address => uint) public indexOf */\n    tag_14:\n      tag_65\n      0x04\n      dup1\n      calldatasize\n      sub\n      dup2\n      add\n      swap1\n      tag_66\n      swap2\n      swap1\n      tag_43\n      jump\t// in\n    tag_66:\n      tag_67\n      jump\t// in\n    tag_65:\n      mload(0x40)\n      tag_68\n      swap2\n      swap1\n      tag_29\n      jump\t// in\n    tag_68:\n      mload(0x40)\n      dup1\n      swap2\n      sub\n      swap1\n      return\n        /* \"V1/Contracts/sponsorCoin/SPC_Token.sol\":421:439  string public name */\n    tag_17:\n      0x00\n      dup1\n      sload\n      tag_69\n      swap1\n      tag_70\n      jump\t// in\n    tag_69:\n      dup1\n      0x1f\n      add\n      0x20\n      dup1\n      swap2\n      div\n      mul\n      0x20\n      add\n      mload(0x40)\n      swap1\n      dup2\n      add\n      0x40\n      mstore\n      dup1\n      swap3\n      swap2\n      swap1\n      dup2\n      dup2\n      mstore\n      0x20\n      add\n      dup3\n      dup1\n      sload\n      tag_71\n      swap1\n      tag_70\n      jump\t// in\n    tag_71:\n      dup1\n      iszero\n      tag_72\n      jumpi\n      dup1\n      0x1f\n      lt\n      tag_73\n      jumpi\n      0x0100\n      dup1\n      dup4\n      sload\n      div\n      mul\n      dup4\n      mstore\n      swap2\n      0x20\n      add\n      swap2\n      jump(tag_72)\n    tag_73:\n      dup3\n      add\n      swap2\n      swap1\n      0x00\n      mstore\n      keccak256(0x00, 0x20)\n      swap1\n    tag_74:\n      dup2\n      sload\n      dup2\n      mstore\n      swap1\n      0x01\n      add\n      swap1\n      0x20\n      add\n      dup1\n      dup4\n      gt\n      tag_74\n      jumpi\n      dup3\n      swap1\n      sub\n      0x1f\n      and\n      dup3\n      add\n      swap2\n    tag_72:\n      pop\n      pop\n      pop\n      pop\n      pop\n      dup2\n      jump\t// out\n        /* \"V1/Contracts/sponsorCoin/SPC_Token.sol\":3712:3959  function approve(address _spender, uint256 _value) external returns (bool) {... */\n    tag_23:\n        /* \"V1/Contracts/sponsorCoin/SPC_Token.sol\":3781:3785  bool */\n      0x00\n        /* \"V1/Contracts/sponsorCoin/SPC_Token.sol\":3825:3826  0 */\n      dup1\n        /* \"V1/Contracts/sponsorCoin/SPC_Token.sol\":3805:3827  _spender != address(0) */\n      0xffffffffffffffffffffffffffffffffffffffff\n      and\n        /* \"V1/Contracts/sponsorCoin/SPC_Token.sol\":3805:3813  _spender */\n      dup4\n        /* \"V1/Contracts/sponsorCoin/SPC_Token.sol\":3805:3827  _spender != address(0) */\n      0xffffffffffffffffffffffffffffffffffffffff\n      and\n      eq\n      iszero\n        /* \"V1/Contracts/sponsorCoin/SPC_Token.sol\":3797:3828  require(_spender != address(0)) */\n      tag_76\n      jumpi\n      0x00\n      dup1\n      revert\n    tag_76:\n        /* \"V1/Contracts/sponsorCoin/SPC_Token.sol\":3872:3878  _value */\n      dup2\n        /* \"V1/Contracts/sponsorCoin/SPC_Token.sol\":3838:3847  allowance */\n      0x05\n        /* \"V1/Contracts/sponsorCoin/SPC_Token.sol\":3838:3859  allowance[msg.sender] */\n      0x00\n        /* \"V1/Contracts/sponsorCoin/SPC_Token.sol\":3848:3858  msg.sender */\n      caller\n        /* \"V1/Contracts/sponsorCoin/SPC_Token.sol\":3838:3859  allowance[msg.sender] */\n      0xffffffffffffffffffffffffffffffffffffffff\n      and\n      0xffffffffffffffffffffffffffffffffffffffff\n      and\n      dup2\n      mstore\n      0x20\n      add\n      swap1\n      dup2\n      mstore\n      0x20\n      add\n      0x00\n      keccak256\n        /* \"V1/Contracts/sponsorCoin/SPC_Token.sol\":3838:3869  allowance[msg.sender][_spender] */\n      0x00\n        /* \"V1/Contracts/sponsorCoin/SPC_Token.sol\":3860:3868  _spender */\n      dup6\n        /* \"V1/Contracts/sponsorCoin/SPC_Token.sol\":3838:3869  allowance[msg.sender][_spender] */\n      0xffffffffffffffffffffffffffffffffffffffff\n      and\n      0xffffffffffffffffffffffffffffffffffffffff\n      and\n      dup2\n      mstore\n      0x20\n      add\n      swap1\n      dup2\n      mstore\n      0x20\n      add\n      0x00\n      keccak256\n        /* \"V1/Contracts/sponsorCoin/SPC_Token.sol\":3838:3878  allowance[msg.sender][_spender] = _value */\n      dup2\n      swap1\n      sstore\n      pop\n        /* \"V1/Contracts/sponsorCoin/SPC_Token.sol\":3914:3922  _spender */\n      dup3\n        /* \"V1/Contracts/sponsorCoin/SPC_Token.sol\":3893:3931  Approval(msg.sender, _spender, _value) */\n      0xffffffffffffffffffffffffffffffffffffffff\n      and\n        /* \"V1/Contracts/sponsorCoin/SPC_Token.sol\":3902:3912  msg.sender */\n      caller\n        /* \"V1/Contracts/sponsorCoin/SPC_Token.sol\":3893:3931  Approval(msg.sender, _spender, _value) */\n      0xffffffffffffffffffffffffffffffffffffffff\n      and\n      0x8c5be1e5ebec7d5bd14f71427d1e84f3dd0314c0f7b2291e5b200ac8c7c3b925\n        /* \"V1/Contracts/sponsorCoin/SPC_Token.sol\":3924:3930  _value */\n      dup5\n        /* \"V1/Contracts/sponsorCoin/SPC_Token.sol\":3893:3931  Approval(msg.sender, _spender, _value) */\n      mload(0x40)\n      tag_77\n      swap2\n      swap1\n      tag_29\n      jump\t// in\n    tag_77:\n      mload(0x40)\n      dup1\n      swap2\n      sub\n      swap1\n      log3\n        /* \"V1/Contracts/sponsorCoin/SPC_Token.sol\":3948:3952  true */\n      0x01\n        /* \"V1/Contracts/sponsorCoin/SPC_Token.sol\":3941:3952  return true */\n      swap1\n      pop\n        /* \"V1/Contracts/sponsorCoin/SPC_Token.sol\":3712:3959  function approve(address _spender, uint256 _value) external returns (bool) {... */\n      swap3\n      swap2\n      pop\n      pop\n      jump\t// out\n        /* \"V1/Contracts/sponsorCoin/SPC_Token.sol\":500:526  uint256 public totalSupply */\n    tag_27:\n      sload(0x03)\n      dup2\n      jump\t// out\n        /* \"V1/Contracts/sponsorCoin/SPC_Token.sol\":728:756  address[] public accountKeys */\n    tag_33:\n      0x06\n      dup2\n      dup2\n      sload\n      dup2\n      lt\n      tag_78\n      jumpi\n      0x00\n      dup1\n      revert\n    tag_78:\n      swap1\n      0x00\n      mstore\n      keccak256(0x00, 0x20)\n      add\n      0x00\n      swap2\n      pop\n      sload\n      swap1\n      0x0100\n      exp\n      swap1\n      div\n      0xffffffffffffffffffffffffffffffffffffffff\n      and\n      dup2\n      jump\t// out\n        /* \"V1/Contracts/sponsorCoin/SPC_Token.sol\":4426:4765  function transferFrom(address _from, address _to, uint256 _value) external returns (bool) {... */\n    tag_39:\n        /* \"V1/Contracts/sponsorCoin/SPC_Token.sol\":4510:4514  bool */\n      0x00\n        /* \"V1/Contracts/sponsorCoin/SPC_Token.sol\":4544:4553  balanceOf */\n      0x04\n        /* \"V1/Contracts/sponsorCoin/SPC_Token.sol\":4544:4560  balanceOf[_from] */\n      0x00\n        /* \"V1/Contracts/sponsorCoin/SPC_Token.sol\":4554:4559  _from */\n      dup6\n        /* \"V1/Contracts/sponsorCoin/SPC_Token.sol\":4544:4560  balanceOf[_from] */\n      0xffffffffffffffffffffffffffffffffffffffff\n      and\n      0xffffffffffffffffffffffffffffffffffffffff\n      and\n      dup2\n      mstore\n      0x20\n      add\n      swap1\n      dup2\n      mstore\n      0x20\n      add\n      0x00\n      keccak256\n      sload\n        /* \"V1/Contracts/sponsorCoin/SPC_Token.sol\":4534:4540  _value */\n      dup3\n        /* \"V1/Contracts/sponsorCoin/SPC_Token.sol\":4534:4560  _value <= balanceOf[_from] */\n      gt\n      iszero\n        /* \"V1/Contracts/sponsorCoin/SPC_Token.sol\":4526:4561  require(_value <= balanceOf[_from]) */\n      tag_81\n      jumpi\n      0x00\n      dup1\n      revert\n    tag_81:\n        /* \"V1/Contracts/sponsorCoin/SPC_Token.sol\":4589:4598  allowance */\n      0x05\n        /* \"V1/Contracts/sponsorCoin/SPC_Token.sol\":4589:4605  allowance[_from] */\n      0x00\n        /* \"V1/Contracts/sponsorCoin/SPC_Token.sol\":4599:4604  _from */\n      dup6\n        /* \"V1/Contracts/sponsorCoin/SPC_Token.sol\":4589:4605  allowance[_from] */\n      0xffffffffffffffffffffffffffffffffffffffff\n      and\n      0xffffffffffffffffffffffffffffffffffffffff\n      and\n      dup2\n      mstore\n      0x20\n      add\n      swap1\n      dup2\n      mstore\n      0x20\n      add\n      0x00\n      keccak256\n        /* \"V1/Contracts/sponsorCoin/SPC_Token.sol\":4589:4617  allowance[_from][msg.sender] */\n      0x00\n        /* \"V1/Contracts/sponsorCoin/SPC_Token.sol\":4606:4616  msg.sender */\n      caller\n        /* \"V1/Contracts/sponsorCoin/SPC_Token.sol\":4589:4617  allowance[_from][msg.sender] */\n      0xffffffffffffffffffffffffffffffffffffffff\n      and\n      0xffffffffffffffffffffffffffffffffffffffff\n      and\n      dup2\n      mstore\n      0x20\n      add\n      swap1\n      dup2\n      mstore\n      0x20\n      add\n      0x00\n      keccak256\n      sload\n        /* \"V1/Contracts/sponsorCoin/SPC_Token.sol\":4579:4585  _value */\n      dup3\n        /* \"V1/Contracts/sponsorCoin/SPC_Token.sol\":4579:4617  _value <= allowance[_from][msg.sender] */\n      gt\n      iszero\n        /* \"V1/Contracts/sponsorCoin/SPC_Token.sol\":4571:4618  require(_value <= allowance[_from][msg.sender]) */\n      tag_82\n      jumpi\n      0x00\n      dup1\n      revert\n    tag_82:\n        /* \"V1/Contracts/sponsorCoin/SPC_Token.sol\":4691:4697  _value */\n      dup2\n        /* \"V1/Contracts/sponsorCoin/SPC_Token.sol\":4659:4668  allowance */\n      0x05\n        /* \"V1/Contracts/sponsorCoin/SPC_Token.sol\":4659:4675  allowance[_from] */\n      0x00\n        /* \"V1/Contracts/sponsorCoin/SPC_Token.sol\":4669:4674  _from */\n      dup7\n        /* \"V1/Contracts/sponsorCoin/SPC_Token.sol\":4659:4675  allowance[_from] */\n      0xffffffffffffffffffffffffffffffffffffffff\n      and\n      0xffffffffffffffffffffffffffffffffffffffff\n      and\n      dup2\n      mstore\n      0x20\n      add\n      swap1\n      dup2\n      mstore\n      0x20\n      add\n      0x00\n      keccak256\n        /* \"V1/Contracts/sponsorCoin/SPC_Token.sol\":4659:4687  allowance[_from][msg.sender] */\n      0x00\n        /* \"V1/Contracts/sponsorCoin/SPC_Token.sol\":4676:4686  msg.sender */\n      caller\n        /* \"V1/Contracts/sponsorCoin/SPC_Token.sol\":4659:4687  allowance[_from][msg.sender] */\n      0xffffffffffffffffffffffffffffffffffffffff\n      and\n      0xffffffffffffffffffffffffffffffffffffffff\n      and\n      dup2\n      mstore\n      0x20\n      add\n      swap1\n      dup2\n      mstore\n      0x20\n      add\n      0x00\n      keccak256\n      sload\n        /* \"V1/Contracts/sponsorCoin/SPC_Token.sol\":4659:4698  allowance[_from][msg.sender] - (_value) */\n      tag_83\n      swap2\n      swap1\n      tag_84\n      jump\t// in\n    tag_83:\n        /* \"V1/Contracts/sponsorCoin/SPC_Token.sol\":4628:4637  allowance */\n      0x05\n        /* \"V1/Contracts/sponsorCoin/SPC_Token.sol\":4628:4644  allowance[_from] */\n      0x00\n        /* \"V1/Contracts/sponsorCoin/SPC_Token.sol\":4638:4643  _from */\n      dup7\n        /* \"V1/Contracts/sponsorCoin/SPC_Token.sol\":4628:4644  allowance[_from] */\n      0xffffffffffffffffffffffffffffffffffffffff\n      and\n      0xffffffffffffffffffffffffffffffffffffffff\n      and\n      dup2\n      mstore\n      0x20\n      add\n      swap1\n      dup2\n      mstore\n      0x20\n      add\n      0x00\n      keccak256\n        /* \"V1/Contracts/sponsorCoin/SPC_Token.sol\":4628:4656  allowance[_from][msg.sender] */\n      0x00\n        /* \"V1/Contracts/sponsorCoin/SPC_Token.sol\":4645:4655  msg.sender */\n      caller\n        /* \"V1/Contracts/sponsorCoin/SPC_Token.sol\":4628:4656  allowance[_from][msg.sender] */\n      0xffffffffffffffffffffffffffffffffffffffff\n      and\n      0xffffffffffffffffffffffffffffffffffffffff\n      and\n      dup2\n      mstore\n      0x20\n      add\n      swap1\n      dup2\n      mstore\n      0x20\n      add\n      0x00\n      keccak256\n        /* \"V1/Contracts/sponsorCoin/SPC_Token.sol\":4628:4698  allowance[_from][msg.sender] = allowance[_from][msg.sender] - (_value) */\n      dup2\n      swap1\n      sstore\n      pop\n        /* \"V1/Contracts/sponsorCoin/SPC_Token.sol\":4708:4737  _transfer(_from, _to, _value) */\n      tag_85\n        /* \"V1/Contracts/sponsorCoin/SPC_Token.sol\":4718:4723  _from */\n      dup5\n        /* \"V1/Contracts/sponsorCoin/SPC_Token.sol\":4725:4728  _to */\n      dup5\n        /* \"V1/Contracts/sponsorCoin/SPC_Token.sol\":4730:4736  _value */\n      dup5\n        /* \"V1/Contracts/sponsorCoin/SPC_Token.sol\":4708:4717  _transfer */\n      tag_86\n        /* \"V1/Contracts/sponsorCoin/SPC_Token.sol\":4708:4737  _transfer(_from, _to, _value) */\n      jump\t// in\n    tag_85:\n        /* \"V1/Contracts/sponsorCoin/SPC_Token.sol\":4754:4758  true */\n      0x01\n        /* \"V1/Contracts/sponsorCoin/SPC_Token.sol\":4747:4758  return true */\n      swap1\n      pop\n        /* \"V1/Contracts/sponsorCoin/SPC_Token.sol\":4426:4765  function transferFrom(address _from, address _to, uint256 _value) external returns (bool) {... */\n      swap4\n      swap3\n      pop\n      pop\n      pop\n      jump\t// out\n        /* \"V1/Contracts/sponsorCoin/SPC_Token.sol\":2118:2293  function isInserted(address accountKey) public view returns (bool) {... */\n    tag_44:\n        /* \"V1/Contracts/sponsorCoin/SPC_Token.sol\":2179:2183  bool */\n      0x00\n        /* \"V1/Contracts/sponsorCoin/SPC_Token.sol\":2200:2208  inserted */\n      0x08\n        /* \"V1/Contracts/sponsorCoin/SPC_Token.sol\":2200:2220  inserted[accountKey] */\n      0x00\n        /* \"V1/Contracts/sponsorCoin/SPC_Token.sol\":2209:2219  accountKey */\n      dup4\n        /* \"V1/Contracts/sponsorCoin/SPC_Token.sol\":2200:2220  inserted[accountKey] */\n      0xffffffffffffffffffffffffffffffffffffffff\n      and\n      0xffffffffffffffffffffffffffffffffffffffff\n      and\n      dup2\n      mstore\n      0x20\n      add\n      swap1\n      dup2\n      mstore\n      0x20\n      add\n      0x00\n      keccak256\n      0x00\n      swap1\n      sload\n      swap1\n      0x0100\n      exp\n      swap1\n      div\n      0xff\n      and\n        /* \"V1/Contracts/sponsorCoin/SPC_Token.sol\":2195:2284  if (!inserted[accountKey])... */\n      tag_88\n      jumpi\n        /* \"V1/Contracts/sponsorCoin/SPC_Token.sol\":2241:2246  false */\n      0x00\n        /* \"V1/Contracts/sponsorCoin/SPC_Token.sol\":2234:2246  return false */\n      swap1\n      pop\n      jump(tag_87)\n        /* \"V1/Contracts/sponsorCoin/SPC_Token.sol\":2195:2284  if (!inserted[accountKey])... */\n    tag_88:\n        /* \"V1/Contracts/sponsorCoin/SPC_Token.sol\":2280:2284  true */\n      0x01\n        /* \"V1/Contracts/sponsorCoin/SPC_Token.sol\":2273:2284  return true */\n      swap1\n      pop\n        /* \"V1/Contracts/sponsorCoin/SPC_Token.sol\":2118:2293  function isInserted(address accountKey) public view returns (bool) {... */\n    tag_87:\n      swap2\n      swap1\n      pop\n      jump\t// out\n        /* \"V1/Contracts/sponsorCoin/SPC_Token.sol\":471:494  uint256 public decimals */\n    tag_47:\n      sload(0x02)\n      dup2\n      jump\t// out\n        /* \"V1/Contracts/sponsorCoin/SPC_Token.sol\":584:628  mapping(address => uint256) public balanceOf */\n    tag_51:\n      mstore(0x20, 0x04)\n      dup1\n      0x00\n      mstore\n      keccak256(0x00, 0x40)\n      0x00\n      swap2\n      pop\n      swap1\n      pop\n      sload\n      dup2\n      jump\t// out\n        /* \"V1/Contracts/sponsorCoin/SPC_Token.sol\":445:465  string public symbol */\n    tag_54:\n      0x01\n      dup1\n      sload\n      tag_90\n      swap1\n      tag_70\n      jump\t// in\n    tag_90:\n      dup1\n      0x1f\n      add\n      0x20\n      dup1\n      swap2\n      div\n      mul\n      0x20\n      add\n      mload(0x40)\n      swap1\n      dup2\n      add\n      0x40\n      mstore\n      dup1\n      swap3\n      swap2\n      swap1\n      dup2\n      dup2\n      mstore\n      0x20\n      add\n      dup3\n      dup1\n      sload\n      tag_91\n      swap1\n      tag_70\n      jump\t// in\n    tag_91:\n      dup1\n      iszero\n      tag_92\n      jumpi\n      dup1\n      0x1f\n      lt\n      tag_93\n      jumpi\n      0x0100\n      dup1\n      dup4\n      sload\n      div\n      mul\n      dup4\n      mstore\n      swap2\n      0x20\n      add\n      swap2\n      jump(tag_92)\n    tag_93:\n      dup3\n      add\n      swap2\n      swap1\n      0x00\n      mstore\n      keccak256(0x00, 0x20)\n      swap1\n    tag_94:\n      dup2\n      sload\n      dup2\n      mstore\n      swap1\n      0x01\n      add\n      swap1\n      0x20\n      add\n      dup1\n      dup4\n      gt\n      tag_94\n      jumpi\n      dup3\n      swap1\n      sub\n      0x1f\n      and\n      dup3\n      add\n      swap2\n    tag_92:\n      pop\n      pop\n      pop\n      pop\n      pop\n      dup2\n      jump\t// out\n        /* \"V1/Contracts/sponsorCoin/SPC_Token.sol\":2491:2692  function transfer(address _to, uint256 _value) external returns (bool success) {... */\n    tag_58:\n        /* \"V1/Contracts/sponsorCoin/SPC_Token.sol\":2556:2568  bool success */\n      0x00\n        /* \"V1/Contracts/sponsorCoin/SPC_Token.sol\":2613:2619  _value */\n      dup2\n        /* \"V1/Contracts/sponsorCoin/SPC_Token.sol\":2588:2597  balanceOf */\n      0x04\n        /* \"V1/Contracts/sponsorCoin/SPC_Token.sol\":2588:2609  balanceOf[msg.sender] */\n      0x00\n        /* \"V1/Contracts/sponsorCoin/SPC_Token.sol\":2598:2608  msg.sender */\n      caller\n        /* \"V1/Contracts/sponsorCoin/SPC_Token.sol\":2588:2609  balanceOf[msg.sender] */\n      0xffffffffffffffffffffffffffffffffffffffff\n      and\n      0xffffffffffffffffffffffffffffffffffffffff\n      and\n      dup2\n      mstore\n      0x20\n      add\n      swap1\n      dup2\n      mstore\n      0x20\n      add\n      0x00\n      keccak256\n      sload\n        /* \"V1/Contracts/sponsorCoin/SPC_Token.sol\":2588:2619  balanceOf[msg.sender] >= _value */\n      lt\n      iszero\n        /* \"V1/Contracts/sponsorCoin/SPC_Token.sol\":2580:2620  require(balanceOf[msg.sender] >= _value) */\n      tag_96\n      jumpi\n      0x00\n      dup1\n      revert\n    tag_96:\n        /* \"V1/Contracts/sponsorCoin/SPC_Token.sol\":2630:2664  _transfer(msg.sender, _to, _value) */\n      tag_97\n        /* \"V1/Contracts/sponsorCoin/SPC_Token.sol\":2640:2650  msg.sender */\n      caller\n        /* \"V1/Contracts/sponsorCoin/SPC_Token.sol\":2652:2655  _to */\n      dup5\n        /* \"V1/Contracts/sponsorCoin/SPC_Token.sol\":2657:2663  _value */\n      dup5\n        /* \"V1/Contracts/sponsorCoin/SPC_Token.sol\":2630:2639  _transfer */\n      tag_86\n        /* \"V1/Contracts/sponsorCoin/SPC_Token.sol\":2630:2664  _transfer(msg.sender, _to, _value) */\n      jump\t// in\n    tag_97:\n        /* \"V1/Contracts/sponsorCoin/SPC_Token.sol\":2681:2685  true */\n      0x01\n        /* \"V1/Contracts/sponsorCoin/SPC_Token.sol\":2674:2685  return true */\n      swap1\n      pop\n        /* \"V1/Contracts/sponsorCoin/SPC_Token.sol\":2491:2692  function transfer(address _to, uint256 _value) external returns (bool success) {... */\n      swap3\n      swap2\n      pop\n      pop\n      jump\t// out\n        /* \"V1/Contracts/sponsorCoin/SPC_Token.sol\":634:698  mapping(address => mapping(address => uint256)) public allowance */\n    tag_63:\n      mstore(0x20, 0x05)\n      dup2\n      0x00\n      mstore\n      mstore(0x20, keccak256(0x00, 0x40))\n      dup1\n      0x00\n      mstore\n      keccak256(0x00, 0x40)\n      0x00\n      swap2\n      pop\n      swap2\n      pop\n      pop\n      sload\n      dup2\n      jump\t// out\n        /* \"V1/Contracts/sponsorCoin/SPC_Token.sol\":762:801  mapping(address => uint) public indexOf */\n    tag_67:\n      mstore(0x20, 0x07)\n      dup1\n      0x00\n      mstore\n      keccak256(0x00, 0x40)\n      0x00\n      swap2\n      pop\n      swap1\n      pop\n      sload\n      dup2\n      jump\t// out\n        /* \"V1/Contracts/sponsorCoin/SPC_Token.sol\":3018:3364  function _transfer(address _from, address _to, uint256 _value) internal {... */\n    tag_86:\n        /* \"V1/Contracts/sponsorCoin/SPC_Token.sol\":3206:3207  0 */\n      0x00\n        /* \"V1/Contracts/sponsorCoin/SPC_Token.sol\":3191:3208  _to != address(0) */\n      0xffffffffffffffffffffffffffffffffffffffff\n      and\n        /* \"V1/Contracts/sponsorCoin/SPC_Token.sol\":3191:3194  _to */\n      dup3\n        /* \"V1/Contracts/sponsorCoin/SPC_Token.sol\":3191:3208  _to != address(0) */\n      0xffffffffffffffffffffffffffffffffffffffff\n      and\n      eq\n      iszero\n        /* \"V1/Contracts/sponsorCoin/SPC_Token.sol\":3183:3209  require(_to != address(0)) */\n      tag_99\n      jumpi\n      0x00\n      dup1\n      revert\n    tag_99:\n        /* \"V1/Contracts/sponsorCoin/SPC_Token.sol\":3219:3263  setBalance(_from, balanceOf[_from] - _value) */\n      tag_100\n        /* \"V1/Contracts/sponsorCoin/SPC_Token.sol\":3230:3235  _from */\n      dup4\n        /* \"V1/Contracts/sponsorCoin/SPC_Token.sol\":3256:3262  _value */\n      dup3\n        /* \"V1/Contracts/sponsorCoin/SPC_Token.sol\":3237:3246  balanceOf */\n      0x04\n        /* \"V1/Contracts/sponsorCoin/SPC_Token.sol\":3237:3253  balanceOf[_from] */\n      0x00\n        /* \"V1/Contracts/sponsorCoin/SPC_Token.sol\":3247:3252  _from */\n      dup8\n        /* \"V1/Contracts/sponsorCoin/SPC_Token.sol\":3237:3253  balanceOf[_from] */\n      0xffffffffffffffffffffffffffffffffffffffff\n      and\n      0xffffffffffffffffffffffffffffffffffffffff\n      and\n      dup2\n      mstore\n      0x20\n      add\n      swap1\n      dup2\n      mstore\n      0x20\n      add\n      0x00\n      keccak256\n      sload\n        /* \"V1/Contracts/sponsorCoin/SPC_Token.sol\":3237:3262  balanceOf[_from] - _value */\n      tag_101\n      swap2\n      swap1\n      tag_84\n      jump\t// in\n    tag_101:\n        /* \"V1/Contracts/sponsorCoin/SPC_Token.sol\":3219:3229  setBalance */\n      tag_102\n        /* \"V1/Contracts/sponsorCoin/SPC_Token.sol\":3219:3263  setBalance(_from, balanceOf[_from] - _value) */\n      jump\t// in\n    tag_100:\n      pop\n        /* \"V1/Contracts/sponsorCoin/SPC_Token.sol\":3273:3314  setBalance(_to,  balanceOf[_to] + _value) */\n      tag_103\n        /* \"V1/Contracts/sponsorCoin/SPC_Token.sol\":3284:3287  _to */\n      dup3\n        /* \"V1/Contracts/sponsorCoin/SPC_Token.sol\":3307:3313  _value */\n      dup3\n        /* \"V1/Contracts/sponsorCoin/SPC_Token.sol\":3290:3299  balanceOf */\n      0x04\n        /* \"V1/Contracts/sponsorCoin/SPC_Token.sol\":3290:3304  balanceOf[_to] */\n      0x00\n        /* \"V1/Contracts/sponsorCoin/SPC_Token.sol\":3300:3303  _to */\n      dup7\n        /* \"V1/Contracts/sponsorCoin/SPC_Token.sol\":3290:3304  balanceOf[_to] */\n      0xffffffffffffffffffffffffffffffffffffffff\n      and\n      0xffffffffffffffffffffffffffffffffffffffff\n      and\n      dup2\n      mstore\n      0x20\n      add\n      swap1\n      dup2\n      mstore\n      0x20\n      add\n      0x00\n      keccak256\n      sload\n        /* \"V1/Contracts/sponsorCoin/SPC_Token.sol\":3290:3313  balanceOf[_to] + _value */\n      tag_104\n      swap2\n      swap1\n      tag_105\n      jump\t// in\n    tag_104:\n        /* \"V1/Contracts/sponsorCoin/SPC_Token.sol\":3273:3283  setBalance */\n      tag_102\n        /* \"V1/Contracts/sponsorCoin/SPC_Token.sol\":3273:3314  setBalance(_to,  balanceOf[_to] + _value) */\n      jump\t// in\n    tag_103:\n      pop\n        /* \"V1/Contracts/sponsorCoin/SPC_Token.sol\":3345:3348  _to */\n      dup2\n        /* \"V1/Contracts/sponsorCoin/SPC_Token.sol\":3329:3357  Transfer(_from, _to, _value) */\n      0xffffffffffffffffffffffffffffffffffffffff\n      and\n        /* \"V1/Contracts/sponsorCoin/SPC_Token.sol\":3338:3343  _from */\n      dup4\n        /* \"V1/Contracts/sponsorCoin/SPC_Token.sol\":3329:3357  Transfer(_from, _to, _value) */\n      0xffffffffffffffffffffffffffffffffffffffff\n      and\n      0xddf252ad1be2c89b69c2b068fc378daa952ba7f163c4a11628f55a4df523b3ef\n        /* \"V1/Contracts/sponsorCoin/SPC_Token.sol\":3350:3356  _value */\n      dup4\n        /* \"V1/Contracts/sponsorCoin/SPC_Token.sol\":3329:3357  Transfer(_from, _to, _value) */\n      mload(0x40)\n      tag_106\n      swap2\n      swap1\n      tag_29\n      jump\t// in\n    tag_106:\n      mload(0x40)\n      dup1\n      swap2\n      sub\n      swap1\n      log3\n        /* \"V1/Contracts/sponsorCoin/SPC_Token.sol\":3018:3364  function _transfer(address _from, address _to, uint256 _value) internal {... */\n      pop\n      pop\n      pop\n      jump\t// out\n        /* \"V1/Contracts/sponsorCoin/SPC_Token.sol\":1825:2112  function setBalance(address accountKey, uint newBalance ) internal returns (bool) {... */\n    tag_102:\n        /* \"V1/Contracts/sponsorCoin/SPC_Token.sol\":1901:1905  bool */\n      0x00\n        /* \"V1/Contracts/sponsorCoin/SPC_Token.sol\":1942:1952  newBalance */\n      dup2\n        /* \"V1/Contracts/sponsorCoin/SPC_Token.sol\":1918:1927  balanceOf */\n      0x04\n        /* \"V1/Contracts/sponsorCoin/SPC_Token.sol\":1918:1939  balanceOf[accountKey] */\n      0x00\n        /* \"V1/Contracts/sponsorCoin/SPC_Token.sol\":1928:1938  accountKey */\n      dup6\n        /* \"V1/Contracts/sponsorCoin/SPC_Token.sol\":1918:1939  balanceOf[accountKey] */\n      0xffffffffffffffffffffffffffffffffffffffff\n      and\n      0xffffffffffffffffffffffffffffffffffffffff\n      and\n      dup2\n      mstore\n      0x20\n      add\n      swap1\n      dup2\n      mstore\n      0x20\n      add\n      0x00\n      keccak256\n        /* \"V1/Contracts/sponsorCoin/SPC_Token.sol\":1918:1952  balanceOf[accountKey] = newBalance */\n      dup2\n      swap1\n      sstore\n      pop\n        /* \"V1/Contracts/sponsorCoin/SPC_Token.sol\":1968:1976  inserted */\n      0x08\n        /* \"V1/Contracts/sponsorCoin/SPC_Token.sol\":1968:1988  inserted[accountKey] */\n      0x00\n        /* \"V1/Contracts/sponsorCoin/SPC_Token.sol\":1977:1987  accountKey */\n      dup5\n        /* \"V1/Contracts/sponsorCoin/SPC_Token.sol\":1968:1988  inserted[accountKey] */\n      0xffffffffffffffffffffffffffffffffffffffff\n      and\n      0xffffffffffffffffffffffffffffffffffffffff\n      and\n      dup2\n      mstore\n      0x20\n      add\n      swap1\n      dup2\n      mstore\n      0x20\n      add\n      0x00\n      keccak256\n      0x00\n      swap1\n      sload\n      swap1\n      0x0100\n      exp\n      swap1\n      div\n      0xff\n      and\n        /* \"V1/Contracts/sponsorCoin/SPC_Token.sol\":1963:2084  if (!inserted[accountKey]) {... */\n      tag_108\n      jumpi\n        /* \"V1/Contracts/sponsorCoin/SPC_Token.sol\":2027:2031  true */\n      0x01\n        /* \"V1/Contracts/sponsorCoin/SPC_Token.sol\":2004:2012  inserted */\n      0x08\n        /* \"V1/Contracts/sponsorCoin/SPC_Token.sol\":2004:2024  inserted[accountKey] */\n      0x00\n        /* \"V1/Contracts/sponsorCoin/SPC_Token.sol\":2013:2023  accountKey */\n      dup6\n        /* \"V1/Contracts/sponsorCoin/SPC_Token.sol\":2004:2024  inserted[accountKey] */\n      0xffffffffffffffffffffffffffffffffffffffff\n      and\n      0xffffffffffffffffffffffffffffffffffffffff\n      and\n      dup2\n      mstore\n      0x20\n      add\n      swap1\n      dup2\n      mstore\n      0x20\n      add\n      0x00\n      keccak256\n      0x00\n        /* \"V1/Contracts/sponsorCoin/SPC_Token.sol\":2004:2031  inserted[accountKey] = true */\n      0x0100\n      exp\n      dup2\n      sload\n      dup2\n      0xff\n      mul\n      not\n      and\n      swap1\n      dup4\n      iszero\n      iszero\n      mul\n      or\n      swap1\n      sstore\n      pop\n        /* \"V1/Contracts/sponsorCoin/SPC_Token.sol\":2045:2056  accountKeys */\n      0x06\n        /* \"V1/Contracts/sponsorCoin/SPC_Token.sol\":2062:2072  accountKey */\n      dup4\n        /* \"V1/Contracts/sponsorCoin/SPC_Token.sol\":2045:2073  accountKeys.push(accountKey) */\n      swap1\n      dup1\n      0x01\n      dup2\n      sload\n      add\n      dup1\n      dup3\n      sstore\n      dup1\n      swap2\n      pop\n      pop\n      0x01\n      swap1\n      sub\n      swap1\n      0x00\n      mstore\n      keccak256(0x00, 0x20)\n      add\n      0x00\n      swap1\n      swap2\n      swap1\n      swap2\n      swap1\n      swap2\n      0x0100\n      exp\n      dup2\n      sload\n      dup2\n      0xffffffffffffffffffffffffffffffffffffffff\n      mul\n      not\n      and\n      swap1\n      dup4\n      0xffffffffffffffffffffffffffffffffffffffff\n      and\n      mul\n      or\n      swap1\n      sstore\n      pop\n        /* \"V1/Contracts/sponsorCoin/SPC_Token.sol\":1963:2084  if (!inserted[accountKey]) {... */\n    tag_108:\n        /* \"V1/Contracts/sponsorCoin/SPC_Token.sol\":2100:2104  true */\n      0x01\n        /* \"V1/Contracts/sponsorCoin/SPC_Token.sol\":2093:2104  return true */\n      swap1\n      pop\n        /* \"V1/Contracts/sponsorCoin/SPC_Token.sol\":1825:2112  function setBalance(address accountKey, uint newBalance ) internal returns (bool) {... */\n      swap3\n      swap2\n      pop\n      pop\n      jump\t// out\n        /* \"#utility.yul\":7:146   */\n    tag_111:\n        /* \"#utility.yul\":53:58   */\n      0x00\n        /* \"#utility.yul\":91:97   */\n      dup2\n        /* \"#utility.yul\":78:98   */\n      calldataload\n        /* \"#utility.yul\":69:98   */\n      swap1\n      pop\n        /* \"#utility.yul\":107:140   */\n      tag_113\n        /* \"#utility.yul\":134:139   */\n      dup2\n        /* \"#utility.yul\":107:140   */\n      tag_114\n      jump\t// in\n    tag_113:\n        /* \"#utility.yul\":7:146   */\n      swap3\n      swap2\n      pop\n      pop\n      jump\t// out\n        /* \"#utility.yul\":152:291   */\n    tag_115:\n        /* \"#utility.yul\":198:203   */\n      0x00\n        /* \"#utility.yul\":236:242   */\n      dup2\n        /* \"#utility.yul\":223:243   */\n      calldataload\n        /* \"#utility.yul\":214:243   */\n      swap1\n      pop\n        /* \"#utility.yul\":252:285   */\n      tag_117\n        /* \"#utility.yul\":279:284   */\n      dup2\n        /* \"#utility.yul\":252:285   */\n      tag_118\n      jump\t// in\n    tag_117:\n        /* \"#utility.yul\":152:291   */\n      swap3\n      swap2\n      pop\n      pop\n      jump\t// out\n        /* \"#utility.yul\":297:626   */\n    tag_43:\n        /* \"#utility.yul\":356:362   */\n      0x00\n        /* \"#utility.yul\":405:407   */\n      0x20\n        /* \"#utility.yul\":393:402   */\n      dup3\n        /* \"#utility.yul\":384:391   */\n      dup5\n        /* \"#utility.yul\":380:403   */\n      sub\n        /* \"#utility.yul\":376:408   */\n      slt\n        /* \"#utility.yul\":373:492   */\n      iszero\n      tag_120\n      jumpi\n        /* \"#utility.yul\":411:490   */\n      tag_121\n      tag_122\n      jump\t// in\n    tag_121:\n        /* \"#utility.yul\":373:492   */\n    tag_120:\n        /* \"#utility.yul\":531:532   */\n      0x00\n        /* \"#utility.yul\":556:609   */\n      tag_123\n        /* \"#utility.yul\":601:608   */\n      dup5\n        /* \"#utility.yul\":592:598   */\n      dup3\n        /* \"#utility.yul\":581:590   */\n      dup6\n        /* \"#utility.yul\":577:599   */\n      add\n        /* \"#utility.yul\":556:609   */\n      tag_111\n      jump\t// in\n    tag_123:\n        /* \"#utility.yul\":546:609   */\n      swap2\n      pop\n        /* \"#utility.yul\":502:619   */\n      pop\n        /* \"#utility.yul\":297:626   */\n      swap3\n      swap2\n      pop\n      pop\n      jump\t// out\n        /* \"#utility.yul\":632:1106   */\n    tag_62:\n        /* \"#utility.yul\":700:706   */\n      0x00\n        /* \"#utility.yul\":708:714   */\n      dup1\n        /* \"#utility.yul\":757:759   */\n      0x40\n        /* \"#utility.yul\":745:754   */\n      dup4\n        /* \"#utility.yul\":736:743   */\n      dup6\n        /* \"#utility.yul\":732:755   */\n      sub\n        /* \"#utility.yul\":728:760   */\n      slt\n        /* \"#utility.yul\":725:844   */\n      iszero\n      tag_125\n      jumpi\n        /* \"#utility.yul\":763:842   */\n      tag_126\n      tag_122\n      jump\t// in\n    tag_126:\n        /* \"#utility.yul\":725:844   */\n    tag_125:\n        /* \"#utility.yul\":883:884   */\n      0x00\n        /* \"#utility.yul\":908:961   */\n      tag_127\n        /* \"#utility.yul\":953:960   */\n      dup6\n        /* \"#utility.yul\":944:950   */\n      dup3\n        /* \"#utility.yul\":933:942   */\n      dup7\n        /* \"#utility.yul\":929:951   */\n      add\n        /* \"#utility.yul\":908:961   */\n      tag_111\n      jump\t// in\n    tag_127:\n        /* \"#utility.yul\":898:961   */\n      swap3\n      pop\n        /* \"#utility.yul\":854:971   */\n      pop\n        /* \"#utility.yul\":1010:1012   */\n      0x20\n        /* \"#utility.yul\":1036:1089   */\n      tag_128\n        /* \"#utility.yul\":1081:1088   */\n      dup6\n        /* \"#utility.yul\":1072:1078   */\n      dup3\n        /* \"#utility.yul\":1061:1070   */\n      dup7\n        /* \"#utility.yul\":1057:1079   */\n      add\n        /* \"#utility.yul\":1036:1089   */\n      tag_111\n      jump\t// in\n    tag_128:\n        /* \"#utility.yul\":1026:1089   */\n      swap2\n      pop\n        /* \"#utility.yul\":981:1099   */\n      pop\n        /* \"#utility.yul\":632:1106   */\n      swap3\n      pop\n      swap3\n      swap1\n      pop\n      jump\t// out\n        /* \"#utility.yul\":1112:1731   */\n    tag_38:\n        /* \"#utility.yul\":1189:1195   */\n      0x00\n        /* \"#utility.yul\":1197:1203   */\n      dup1\n        /* \"#utility.yul\":1205:1211   */\n      0x00\n        /* \"#utility.yul\":1254:1256   */\n      0x60\n        /* \"#utility.yul\":1242:1251   */\n      dup5\n        /* \"#utility.yul\":1233:1240   */\n      dup7\n        /* \"#utility.yul\":1229:1252   */\n      sub\n        /* \"#utility.yul\":1225:1257   */\n      slt\n        /* \"#utility.yul\":1222:1341   */\n      iszero\n      tag_130\n      jumpi\n        /* \"#utility.yul\":1260:1339   */\n      tag_131\n      tag_122\n      jump\t// in\n    tag_131:\n        /* \"#utility.yul\":1222:1341   */\n    tag_130:\n        /* \"#utility.yul\":1380:1381   */\n      0x00\n        /* \"#utility.yul\":1405:1458   */\n      tag_132\n        /* \"#utility.yul\":1450:1457   */\n      dup7\n        /* \"#utility.yul\":1441:1447   */\n      dup3\n        /* \"#utility.yul\":1430:1439   */\n      dup8\n        /* \"#utility.yul\":1426:1448   */\n      add\n        /* \"#utility.yul\":1405:1458   */\n      tag_111\n      jump\t// in\n    tag_132:\n        /* \"#utility.yul\":1395:1458   */\n      swap4\n      pop\n        /* \"#utility.yul\":1351:1468   */\n      pop\n        /* \"#utility.yul\":1507:1509   */\n      0x20\n        /* \"#utility.yul\":1533:1586   */\n      tag_133\n        /* \"#utility.yul\":1578:1585   */\n      dup7\n        /* \"#utility.yul\":1569:1575   */\n      dup3\n        /* \"#utility.yul\":1558:1567   */\n      dup8\n        /* \"#utility.yul\":1554:1576   */\n      add\n        /* \"#utility.yul\":1533:1586   */\n      tag_111\n      jump\t// in\n    tag_133:\n        /* \"#utility.yul\":1523:1586   */\n      swap3\n      pop\n        /* \"#utility.yul\":1478:1596   */\n      pop\n        /* \"#utility.yul\":1635:1637   */\n      0x40\n        /* \"#utility.yul\":1661:1714   */\n      tag_134\n        /* \"#utility.yul\":1706:1713   */\n      dup7\n        /* \"#utility.yul\":1697:1703   */\n      dup3\n        /* \"#utility.yul\":1686:1695   */\n      dup8\n        /* \"#utility.yul\":1682:1704   */\n      add\n        /* \"#utility.yul\":1661:1714   */\n      tag_115\n      jump\t// in\n    tag_134:\n        /* \"#utility.yul\":1651:1714   */\n      swap2\n      pop\n        /* \"#utility.yul\":1606:1724   */\n      pop\n        /* \"#utility.yul\":1112:1731   */\n      swap3\n      pop\n      swap3\n      pop\n      swap3\n      jump\t// out\n        /* \"#utility.yul\":1737:2211   */\n    tag_22:\n        /* \"#utility.yul\":1805:1811   */\n      0x00\n        /* \"#utility.yul\":1813:1819   */\n      dup1\n        /* \"#utility.yul\":1862:1864   */\n      0x40\n        /* \"#utility.yul\":1850:1859   */\n      dup4\n        /* \"#utility.yul\":1841:1848   */\n      dup6\n        /* \"#utility.yul\":1837:1860   */\n      sub\n        /* \"#utility.yul\":1833:1865   */\n      slt\n        /* \"#utility.yul\":1830:1949   */\n      iszero\n      tag_136\n      jumpi\n        /* \"#utility.yul\":1868:1947   */\n      tag_137\n      tag_122\n      jump\t// in\n    tag_137:\n        /* \"#utility.yul\":1830:1949   */\n    tag_136:\n        /* \"#utility.yul\":1988:1989   */\n      0x00\n        /* \"#utility.yul\":2013:2066   */\n      tag_138\n        /* \"#utility.yul\":2058:2065   */\n      dup6\n        /* \"#utility.yul\":2049:2055   */\n      dup3\n        /* \"#utility.yul\":2038:2047   */\n      dup7\n        /* \"#utility.yul\":2034:2056   */\n      add\n        /* \"#utility.yul\":2013:2066   */\n      tag_111\n      jump\t// in\n    tag_138:\n        /* \"#utility.yul\":2003:2066   */\n      swap3\n      pop\n        /* \"#utility.yul\":1959:2076   */\n      pop\n        /* \"#utility.yul\":2115:2117   */\n      0x20\n        /* \"#utility.yul\":2141:2194   */\n      tag_139\n        /* \"#utility.yul\":2186:2193   */\n      dup6\n        /* \"#utility.yul\":2177:2183   */\n      dup3\n        /* \"#utility.yul\":2166:2175   */\n      dup7\n        /* \"#utility.yul\":2162:2184   */\n      add\n        /* \"#utility.yul\":2141:2194   */\n      tag_115\n      jump\t// in\n    tag_139:\n        /* \"#utility.yul\":2131:2194   */\n      swap2\n      pop\n        /* \"#utility.yul\":2086:2204   */\n      pop\n        /* \"#utility.yul\":1737:2211   */\n      swap3\n      pop\n      swap3\n      swap1\n      pop\n      jump\t// out\n        /* \"#utility.yul\":2217:2546   */\n    tag_32:\n        /* \"#utility.yul\":2276:2282   */\n      0x00\n        /* \"#utility.yul\":2325:2327   */\n      0x20\n        /* \"#utility.yul\":2313:2322   */\n      dup3\n        /* \"#utility.yul\":2304:2311   */\n      dup5\n        /* \"#utility.yul\":2300:2323   */\n      sub\n        /* \"#utility.yul\":2296:2328   */\n      slt\n        /* \"#utility.yul\":2293:2412   */\n      iszero\n      tag_141\n      jumpi\n        /* \"#utility.yul\":2331:2410   */\n      tag_142\n      tag_122\n      jump\t// in\n    tag_142:\n        /* \"#utility.yul\":2293:2412   */\n    tag_141:\n        /* \"#utility.yul\":2451:2452   */\n      0x00\n        /* \"#utility.yul\":2476:2529   */\n      tag_143\n        /* \"#utility.yul\":2521:2528   */\n      dup5\n        /* \"#utility.yul\":2512:2518   */\n      dup3\n        /* \"#utility.yul\":2501:2510   */\n      dup6\n        /* \"#utility.yul\":2497:2519   */\n      add\n        /* \"#utility.yul\":2476:2529   */\n      tag_115\n      jump\t// in\n    tag_143:\n        /* \"#utility.yul\":2466:2529   */\n      swap2\n      pop\n        /* \"#utility.yul\":2422:2539   */\n      pop\n        /* \"#utility.yul\":2217:2546   */\n      swap3\n      swap2\n      pop\n      pop\n      jump\t// out\n        /* \"#utility.yul\":2552:2670   */\n    tag_144:\n        /* \"#utility.yul\":2639:2663   */\n      tag_146\n        /* \"#utility.yul\":2657:2662   */\n      dup2\n        /* \"#utility.yul\":2639:2663   */\n      tag_147\n      jump\t// in\n    tag_146:\n        /* \"#utility.yul\":2634:2637   */\n      dup3\n        /* \"#utility.yul\":2627:2664   */\n      mstore\n        /* \"#utility.yul\":2552:2670   */\n      pop\n      pop\n      jump\t// out\n        /* \"#utility.yul\":2676:2785   */\n    tag_148:\n        /* \"#utility.yul\":2757:2778   */\n      tag_150\n        /* \"#utility.yul\":2772:2777   */\n      dup2\n        /* \"#utility.yul\":2757:2778   */\n      tag_151\n      jump\t// in\n    tag_150:\n        /* \"#utility.yul\":2752:2755   */\n      dup3\n        /* \"#utility.yul\":2745:2779   */\n      mstore\n        /* \"#utility.yul\":2676:2785   */\n      pop\n      pop\n      jump\t// out\n        /* \"#utility.yul\":2791:3155   */\n    tag_152:\n        /* \"#utility.yul\":2879:2882   */\n      0x00\n        /* \"#utility.yul\":2907:2946   */\n      tag_154\n        /* \"#utility.yul\":2940:2945   */\n      dup3\n        /* \"#utility.yul\":2907:2946   */\n      tag_155\n      jump\t// in\n    tag_154:\n        /* \"#utility.yul\":2962:3033   */\n      tag_156\n        /* \"#utility.yul\":3026:3032   */\n      dup2\n        /* \"#utility.yul\":3021:3024   */\n      dup6\n        /* \"#utility.yul\":2962:3033   */\n      tag_157\n      jump\t// in\n    tag_156:\n        /* \"#utility.yul\":2955:3033   */\n      swap4\n      pop\n        /* \"#utility.yul\":3042:3094   */\n      tag_158\n        /* \"#utility.yul\":3087:3093   */\n      dup2\n        /* \"#utility.yul\":3082:3085   */\n      dup6\n        /* \"#utility.yul\":3075:3079   */\n      0x20\n        /* \"#utility.yul\":3068:3073   */\n      dup7\n        /* \"#utility.yul\":3064:3080   */\n      add\n        /* \"#utility.yul\":3042:3094   */\n      tag_159\n      jump\t// in\n    tag_158:\n        /* \"#utility.yul\":3119:3148   */\n      tag_160\n        /* \"#utility.yul\":3141:3147   */\n      dup2\n        /* \"#utility.yul\":3119:3148   */\n      tag_161\n      jump\t// in\n    tag_160:\n        /* \"#utility.yul\":3114:3117   */\n      dup5\n        /* \"#utility.yul\":3110:3149   */\n      add\n        /* \"#utility.yul\":3103:3149   */\n      swap2\n      pop\n        /* \"#utility.yul\":2883:3155   */\n      pop\n        /* \"#utility.yul\":2791:3155   */\n      swap3\n      swap2\n      pop\n      pop\n      jump\t// out\n        /* \"#utility.yul\":3161:3279   */\n    tag_162:\n        /* \"#utility.yul\":3248:3272   */\n      tag_164\n        /* \"#utility.yul\":3266:3271   */\n      dup2\n        /* \"#utility.yul\":3248:3272   */\n      tag_165\n      jump\t// in\n    tag_164:\n        /* \"#utility.yul\":3243:3246   */\n      dup3\n        /* \"#utility.yul\":3236:3273   */\n      mstore\n        /* \"#utility.yul\":3161:3279   */\n      pop\n      pop\n      jump\t// out\n        /* \"#utility.yul\":3285:3507   */\n    tag_35:\n        /* \"#utility.yul\":3378:3382   */\n      0x00\n        /* \"#utility.yul\":3416:3418   */\n      0x20\n        /* \"#utility.yul\":3405:3414   */\n      dup3\n        /* \"#utility.yul\":3401:3419   */\n      add\n        /* \"#utility.yul\":3393:3419   */\n      swap1\n      pop\n        /* \"#utility.yul\":3429:3500   */\n      tag_167\n        /* \"#utility.yul\":3497:3498   */\n      0x00\n        /* \"#utility.yul\":3486:3495   */\n      dup4\n        /* \"#utility.yul\":3482:3499   */\n      add\n        /* \"#utility.yul\":3473:3479   */\n      dup5\n        /* \"#utility.yul\":3429:3500   */\n      tag_144\n      jump\t// in\n    tag_167:\n        /* \"#utility.yul\":3285:3507   */\n      swap3\n      swap2\n      pop\n      pop\n      jump\t// out\n        /* \"#utility.yul\":3513:3723   */\n    tag_25:\n        /* \"#utility.yul\":3600:3604   */\n      0x00\n        /* \"#utility.yul\":3638:3640   */\n      0x20\n        /* \"#utility.yul\":3627:3636   */\n      dup3\n        /* \"#utility.yul\":3623:3641   */\n      add\n        /* \"#utility.yul\":3615:3641   */\n      swap1\n      pop\n        /* \"#utility.yul\":3651:3716   */\n      tag_169\n        /* \"#utility.yul\":3713:3714   */\n      0x00\n        /* \"#utility.yul\":3702:3711   */\n      dup4\n        /* \"#utility.yul\":3698:3715   */\n      add\n        /* \"#utility.yul\":3689:3695   */\n      dup5\n        /* \"#utility.yul\":3651:3716   */\n      tag_148\n      jump\t// in\n    tag_169:\n        /* \"#utility.yul\":3513:3723   */\n      swap3\n      swap2\n      pop\n      pop\n      jump\t// out\n        /* \"#utility.yul\":3729:4042   */\n    tag_19:\n        /* \"#utility.yul\":3842:3846   */\n      0x00\n        /* \"#utility.yul\":3880:3882   */\n      0x20\n        /* \"#utility.yul\":3869:3878   */\n      dup3\n        /* \"#utility.yul\":3865:3883   */\n      add\n        /* \"#utility.yul\":3857:3883   */\n      swap1\n      pop\n        /* \"#utility.yul\":3929:3938   */\n      dup2\n        /* \"#utility.yul\":3923:3927   */\n      dup2\n        /* \"#utility.yul\":3919:3939   */\n      sub\n        /* \"#utility.yul\":3915:3916   */\n      0x00\n        /* \"#utility.yul\":3904:3913   */\n      dup4\n        /* \"#utility.yul\":3900:3917   */\n      add\n        /* \"#utility.yul\":3893:3940   */\n      mstore\n        /* \"#utility.yul\":3957:4035   */\n      tag_171\n        /* \"#utility.yul\":4030:4034   */\n      dup2\n        /* \"#utility.yul\":4021:4027   */\n      dup5\n        /* \"#utility.yul\":3957:4035   */\n      tag_152\n      jump\t// in\n    tag_171:\n        /* \"#utility.yul\":3949:4035   */\n      swap1\n      pop\n        /* \"#utility.yul\":3729:4042   */\n      swap3\n      swap2\n      pop\n      pop\n      jump\t// out\n        /* \"#utility.yul\":4048:4270   */\n    tag_29:\n        /* \"#utility.yul\":4141:4145   */\n      0x00\n        /* \"#utility.yul\":4179:4181   */\n      0x20\n        /* \"#utility.yul\":4168:4177   */\n      dup3\n        /* \"#utility.yul\":4164:4182   */\n      add\n        /* \"#utility.yul\":4156:4182   */\n      swap1\n      pop\n        /* \"#utility.yul\":4192:4263   */\n      tag_173\n        /* \"#utility.yul\":4260:4261   */\n      0x00\n        /* \"#utility.yul\":4249:4258   */\n      dup4\n        /* \"#utility.yul\":4245:4262   */\n      add\n        /* \"#utility.yul\":4236:4242   */\n      dup5\n        /* \"#utility.yul\":4192:4263   */\n      tag_162\n      jump\t// in\n    tag_173:\n        /* \"#utility.yul\":4048:4270   */\n      swap3\n      swap2\n      pop\n      pop\n      jump\t// out\n        /* \"#utility.yul\":4357:4456   */\n    tag_155:\n        /* \"#utility.yul\":4409:4415   */\n      0x00\n        /* \"#utility.yul\":4443:4448   */\n      dup2\n        /* \"#utility.yul\":4437:4449   */\n      mload\n        /* \"#utility.yul\":4427:4449   */\n      swap1\n      pop\n        /* \"#utility.yul\":4357:4456   */\n      swap2\n      swap1\n      pop\n      jump\t// out\n        /* \"#utility.yul\":4462:4631   */\n    tag_157:\n        /* \"#utility.yul\":4546:4557   */\n      0x00\n        /* \"#utility.yul\":4580:4586   */\n      dup3\n        /* \"#utility.yul\":4575:4578   */\n      dup3\n        /* \"#utility.yul\":4568:4587   */\n      mstore\n        /* \"#utility.yul\":4620:4624   */\n      0x20\n        /* \"#utility.yul\":4615:4618   */\n      dup3\n        /* \"#utility.yul\":4611:4625   */\n      add\n        /* \"#utility.yul\":4596:4625   */\n      swap1\n      pop\n        /* \"#utility.yul\":4462:4631   */\n      swap3\n      swap2\n      pop\n      pop\n      jump\t// out\n        /* \"#utility.yul\":4637:4942   */\n    tag_105:\n        /* \"#utility.yul\":4677:4680   */\n      0x00\n        /* \"#utility.yul\":4696:4716   */\n      tag_179\n        /* \"#utility.yul\":4714:4715   */\n      dup3\n        /* \"#utility.yul\":4696:4716   */\n      tag_165\n      jump\t// in\n    tag_179:\n        /* \"#utility.yul\":4691:4716   */\n      swap2\n      pop\n        /* \"#utility.yul\":4730:4750   */\n      tag_180\n        /* \"#utility.yul\":4748:4749   */\n      dup4\n        /* \"#utility.yul\":4730:4750   */\n      tag_165\n      jump\t// in\n    tag_180:\n        /* \"#utility.yul\":4725:4750   */\n      swap3\n      pop\n        /* \"#utility.yul\":4884:4885   */\n      dup3\n        /* \"#utility.yul\":4816:4882   */\n      0xffffffffffffffffffffffffffffffffffffffffffffffffffffffffffffffff\n        /* \"#utility.yul\":4812:4886   */\n      sub\n        /* \"#utility.yul\":4809:4810   */\n      dup3\n        /* \"#utility.yul\":4806:4887   */\n      gt\n        /* \"#utility.yul\":4803:4910   */\n      iszero\n      tag_181\n      jumpi\n        /* \"#utility.yul\":4890:4908   */\n      tag_182\n      tag_183\n      jump\t// in\n    tag_182:\n        /* \"#utility.yul\":4803:4910   */\n    tag_181:\n        /* \"#utility.yul\":4934:4935   */\n      dup3\n        /* \"#utility.yul\":4931:4932   */\n      dup3\n        /* \"#utility.yul\":4927:4936   */\n      add\n        /* \"#utility.yul\":4920:4936   */\n      swap1\n      pop\n        /* \"#utility.yul\":4637:4942   */\n      swap3\n      swap2\n      pop\n      pop\n      jump\t// out\n        /* \"#utility.yul\":4948:5139   */\n    tag_84:\n        /* \"#utility.yul\":4988:4992   */\n      0x00\n        /* \"#utility.yul\":5008:5028   */\n      tag_185\n        /* \"#utility.yul\":5026:5027   */\n      dup3\n        /* \"#utility.yul\":5008:5028   */\n      tag_165\n      jump\t// in\n    tag_185:\n        /* \"#utility.yul\":5003:5028   */\n      swap2\n      pop\n        /* \"#utility.yul\":5042:5062   */\n      tag_186\n        /* \"#utility.yul\":5060:5061   */\n      dup4\n        /* \"#utility.yul\":5042:5062   */\n      tag_165\n      jump\t// in\n    tag_186:\n        /* \"#utility.yul\":5037:5062   */\n      swap3\n      pop\n        /* \"#utility.yul\":5081:5082   */\n      dup3\n        /* \"#utility.yul\":5078:5079   */\n      dup3\n        /* \"#utility.yul\":5075:5083   */\n      lt\n        /* \"#utility.yul\":5072:5106   */\n      iszero\n      tag_187\n      jumpi\n        /* \"#utility.yul\":5086:5104   */\n      tag_188\n      tag_183\n      jump\t// in\n    tag_188:\n        /* \"#utility.yul\":5072:5106   */\n    tag_187:\n        /* \"#utility.yul\":5131:5132   */\n      dup3\n        /* \"#utility.yul\":5128:5129   */\n      dup3\n        /* \"#utility.yul\":5124:5133   */\n      sub\n        /* \"#utility.yul\":5116:5133   */\n      swap1\n      pop\n        /* \"#utility.yul\":4948:5139   */\n      swap3\n      swap2\n      pop\n      pop\n      jump\t// out\n        /* \"#utility.yul\":5145:5241   */\n    tag_147:\n        /* \"#utility.yul\":5182:5189   */\n      0x00\n        /* \"#utility.yul\":5211:5235   */\n      tag_190\n        /* \"#utility.yul\":5229:5234   */\n      dup3\n        /* \"#utility.yul\":5211:5235   */\n      tag_191\n      jump\t// in\n    tag_190:\n        /* \"#utility.yul\":5200:5235   */\n      swap1\n      pop\n        /* \"#utility.yul\":5145:5241   */\n      swap2\n      swap1\n      pop\n      jump\t// out\n        /* \"#utility.yul\":5247:5337   */\n    tag_151:\n        /* \"#utility.yul\":5281:5288   */\n      0x00\n        /* \"#utility.yul\":5324:5329   */\n      dup2\n        /* \"#utility.yul\":5317:5330   */\n      iszero\n        /* \"#utility.yul\":5310:5331   */\n      iszero\n        /* \"#utility.yul\":5299:5331   */\n      swap1\n      pop\n        /* \"#utility.yul\":5247:5337   */\n      swap2\n      swap1\n      pop\n      jump\t// out\n        /* \"#utility.yul\":5343:5469   */\n    tag_191:\n        /* \"#utility.yul\":5380:5387   */\n      0x00\n        /* \"#utility.yul\":5420:5462   */\n      0xffffffffffffffffffffffffffffffffffffffff\n        /* \"#utility.yul\":5413:5418   */\n      dup3\n        /* \"#utility.yul\":5409:5463   */\n      and\n        /* \"#utility.yul\":5398:5463   */\n      swap1\n      pop\n        /* \"#utility.yul\":5343:5469   */\n      swap2\n      swap1\n      pop\n      jump\t// out\n        /* \"#utility.yul\":5475:5552   */\n    tag_165:\n        /* \"#utility.yul\":5512:5519   */\n      0x00\n        /* \"#utility.yul\":5541:5546   */\n      dup2\n        /* \"#utility.yul\":5530:5546   */\n      swap1\n      pop\n        /* \"#utility.yul\":5475:5552   */\n      swap2\n      swap1\n      pop\n      jump\t// out\n        /* \"#utility.yul\":5558:5865   */\n    tag_159:\n        /* \"#utility.yul\":5626:5627   */\n      0x00\n        /* \"#utility.yul\":5636:5749   */\n    tag_196:\n        /* \"#utility.yul\":5650:5656   */\n      dup4\n        /* \"#utility.yul\":5647:5648   */\n      dup2\n        /* \"#utility.yul\":5644:5657   */\n      lt\n        /* \"#utility.yul\":5636:5749   */\n      iszero\n      tag_198\n      jumpi\n        /* \"#utility.yul\":5735:5736   */\n      dup1\n        /* \"#utility.yul\":5730:5733   */\n      dup3\n        /* \"#utility.yul\":5726:5737   */\n      add\n        /* \"#utility.yul\":5720:5738   */\n      mload\n        /* \"#utility.yul\":5716:5717   */\n      dup2\n        /* \"#utility.yul\":5711:5714   */\n      dup5\n        /* \"#utility.yul\":5707:5718   */\n      add\n        /* \"#utility.yul\":5700:5739   */\n      mstore\n        /* \"#utility.yul\":5672:5674   */\n      0x20\n        /* \"#utility.yul\":5669:5670   */\n      dup2\n        /* \"#utility.yul\":5665:5675   */\n      add\n        /* \"#utility.yul\":5660:5675   */\n      swap1\n      pop\n        /* \"#utility.yul\":5636:5749   */\n      jump(tag_196)\n    tag_198:\n        /* \"#utility.yul\":5767:5773   */\n      dup4\n        /* \"#utility.yul\":5764:5765   */\n      dup2\n        /* \"#utility.yul\":5761:5774   */\n      gt\n        /* \"#utility.yul\":5758:5859   */\n      iszero\n      tag_199\n      jumpi\n        /* \"#utility.yul\":5847:5848   */\n      0x00\n        /* \"#utility.yul\":5838:5844   */\n      dup5\n        /* \"#utility.yul\":5833:5836   */\n      dup5\n        /* \"#utility.yul\":5829:5845   */\n      add\n        /* \"#utility.yul\":5822:5849   */\n      mstore\n        /* \"#utility.yul\":5758:5859   */\n    tag_199:\n        /* \"#utility.yul\":5607:5865   */\n      pop\n        /* \"#utility.yul\":5558:5865   */\n      pop\n      pop\n      pop\n      jump\t// out\n        /* \"#utility.yul\":5871:6191   */\n    tag_70:\n        /* \"#utility.yul\":5915:5921   */\n      0x00\n        /* \"#utility.yul\":5952:5953   */\n      0x02\n        /* \"#utility.yul\":5946:5950   */\n      dup3\n        /* \"#utility.yul\":5942:5954   */\n      div\n        /* \"#utility.yul\":5932:5954   */\n      swap1\n      pop\n        /* \"#utility.yul\":5999:6000   */\n      0x01\n        /* \"#utility.yul\":5993:5997   */\n      dup3\n        /* \"#utility.yul\":5989:6001   */\n      and\n        /* \"#utility.yul\":6020:6038   */\n      dup1\n        /* \"#utility.yul\":6010:6091   */\n      tag_201\n      jumpi\n        /* \"#utility.yul\":6076:6080   */\n      0x7f\n        /* \"#utility.yul\":6068:6074   */\n      dup3\n        /* \"#utility.yul\":6064:6081   */\n      and\n        /* \"#utility.yul\":6054:6081   */\n      swap2\n      pop\n        /* \"#utility.yul\":6010:6091   */\n    tag_201:\n        /* \"#utility.yul\":6138:6140   */\n      0x20\n        /* \"#utility.yul\":6130:6136   */\n      dup3\n        /* \"#utility.yul\":6127:6141   */\n      lt\n        /* \"#utility.yul\":6107:6125   */\n      dup2\n        /* \"#utility.yul\":6104:6142   */\n      eq\n        /* \"#utility.yul\":6101:6185   */\n      iszero\n      tag_202\n      jumpi\n        /* \"#utility.yul\":6157:6175   */\n      tag_203\n      tag_204\n      jump\t// in\n    tag_203:\n        /* \"#utility.yul\":6101:6185   */\n    tag_202:\n        /* \"#utility.yul\":5922:6191   */\n      pop\n        /* \"#utility.yul\":5871:6191   */\n      swap2\n      swap1\n      pop\n      jump\t// out\n        /* \"#utility.yul\":6197:6377   */\n    tag_183:\n        /* \"#utility.yul\":6245:6322   */\n      0x4e487b7100000000000000000000000000000000000000000000000000000000\n        /* \"#utility.yul\":6242:6243   */\n      0x00\n        /* \"#utility.yul\":6235:6323   */\n      mstore\n        /* \"#utility.yul\":6342:6346   */\n      0x11\n        /* \"#utility.yul\":6339:6340   */\n      0x04\n        /* \"#utility.yul\":6332:6347   */\n      mstore\n        /* \"#utility.yul\":6366:6370   */\n      0x24\n        /* \"#utility.yul\":6363:6364   */\n      0x00\n        /* \"#utility.yul\":6356:6371   */\n      revert\n        /* \"#utility.yul\":6383:6563   */\n    tag_204:\n        /* \"#utility.yul\":6431:6508   */\n      0x4e487b7100000000000000000000000000000000000000000000000000000000\n        /* \"#utility.yul\":6428:6429   */\n      0x00\n        /* \"#utility.yul\":6421:6509   */\n      mstore\n        /* \"#utility.yul\":6528:6532   */\n      0x22\n        /* \"#utility.yul\":6525:6526   */\n      0x04\n        /* \"#utility.yul\":6518:6533   */\n      mstore\n        /* \"#utility.yul\":6552:6556   */\n      0x24\n        /* \"#utility.yul\":6549:6550   */\n      0x00\n        /* \"#utility.yul\":6542:6557   */\n      revert\n        /* \"#utility.yul\":6692:6809   */\n    tag_122:\n        /* \"#utility.yul\":6801:6802   */\n      0x00\n        /* \"#utility.yul\":6798:6799   */\n      dup1\n        /* \"#utility.yul\":6791:6803   */\n      revert\n        /* \"#utility.yul\":6815:6917   */\n    tag_161:\n        /* \"#utility.yul\":6856:6862   */\n      0x00\n        /* \"#utility.yul\":6907:6909   */\n      0x1f\n        /* \"#utility.yul\":6903:6910   */\n      not\n        /* \"#utility.yul\":6898:6900   */\n      0x1f\n        /* \"#utility.yul\":6891:6896   */\n      dup4\n        /* \"#utility.yul\":6887:6901   */\n      add\n        /* \"#utility.yul\":6883:6911   */\n      and\n        /* \"#utility.yul\":6873:6911   */\n      swap1\n      pop\n        /* \"#utility.yul\":6815:6917   */\n      swap2\n      swap1\n      pop\n      jump\t// out\n        /* \"#utility.yul\":6923:7045   */\n    tag_114:\n        /* \"#utility.yul\":6996:7020   */\n      tag_212\n        /* \"#utility.yul\":7014:7019   */\n      dup2\n        /* \"#utility.yul\":6996:7020   */\n      tag_147\n      jump\t// in\n    tag_212:\n        /* \"#utility.yul\":6989:6994   */\n      dup2\n        /* \"#utility.yul\":6986:7021   */\n      eq\n        /* \"#utility.yul\":6976:7039   */\n      tag_213\n      jumpi\n        /* \"#utility.yul\":7035:7036   */\n      0x00\n        /* \"#utility.yul\":7032:7033   */\n      dup1\n        /* \"#utility.yul\":7025:7037   */\n      revert\n        /* \"#utility.yul\":6976:7039   */\n    tag_213:\n        /* \"#utility.yul\":6923:7045   */\n      pop\n      jump\t// out\n        /* \"#utility.yul\":7051:7173   */\n    tag_118:\n        /* \"#utility.yul\":7124:7148   */\n      tag_215\n        /* \"#utility.yul\":7142:7147   */\n      dup2\n        /* \"#utility.yul\":7124:7148   */\n      tag_165\n      jump\t// in\n    tag_215:\n        /* \"#utility.yul\":7117:7122   */\n      dup2\n        /* \"#utility.yul\":7114:7149   */\n      eq\n        /* \"#utility.yul\":7104:7167   */\n      tag_216\n      jumpi\n        /* \"#utility.yul\":7163:7164   */\n      0x00\n        /* \"#utility.yul\":7160:7161   */\n      dup1\n        /* \"#utility.yul\":7153:7165   */\n      revert\n        /* \"#utility.yul\":7104:7167   */\n    tag_216:\n        /* \"#utility.yul\":7051:7173   */\n      pop\n      jump\t// out\n\n    auxdata: 0xa264697066735822122080b99cc131c2e9caa7c3f0d1ab9b119144e9ab38b0b2ff0f929a5a6b5537b73764736f6c63430008070033\n}\n",
				"bytecode": {
					"linkReferences": {},
					"object": "60806040523480156200001157600080fd5b506040518060400160405280600b81526020017f73706f6e736f72436f696e000000000000000000000000000000000000000000815250600090805190602001906200005f92919062000240565b506040518060400160405280600781526020017f53505f436f696e0000000000000000000000000000000000000000000000000081525060019080519060200190620000ad92919062000240565b50601260028190555069d3c21bcecceda1000000600381905550620000db33600354620000e260201b60201c565b5062000355565b600081600460008573ffffffffffffffffffffffffffffffffffffffff1673ffffffffffffffffffffffffffffffffffffffff16815260200190815260200160002081905550600860008473ffffffffffffffffffffffffffffffffffffffff1673ffffffffffffffffffffffffffffffffffffffff16815260200190815260200160002060009054906101000a900460ff1662000236576001600860008573ffffffffffffffffffffffffffffffffffffffff1673ffffffffffffffffffffffffffffffffffffffff16815260200190815260200160002060006101000a81548160ff0219169083151502179055506006839080600181540180825580915050600190039060005260206000200160009091909190916101000a81548173ffffffffffffffffffffffffffffffffffffffff021916908373ffffffffffffffffffffffffffffffffffffffff1602179055505b6001905092915050565b8280546200024e90620002f0565b90600052602060002090601f016020900481019282620002725760008555620002be565b82601f106200028d57805160ff1916838001178555620002be565b82800160010185558215620002be579182015b82811115620002bd578251825591602001919060010190620002a0565b5b509050620002cd9190620002d1565b5090565b5b80821115620002ec576000816000905550600101620002d2565b5090565b600060028204905060018216806200030957607f821691505b6020821081141562000320576200031f62000326565b5b50919050565b7f4e487b7100000000000000000000000000000000000000000000000000000000600052602260045260246000fd5b610f5c80620003656000396000f3fe608060405234801561001057600080fd5b50600436106100b45760003560e01c8063313ce56711610071578063313ce567146101b557806370a08231146101d357806395d89b4114610203578063a9059cbb14610221578063dd62ed3e14610251578063fd6aad2514610281576100b4565b806306fdde03146100b9578063095ea7b3146100d757806318160ddd146101075780631e2eb0881461012557806323b872dd1461015557806329b57c1414610185575b600080fd5b6100c16102b1565b6040516100ce9190610cf4565b60405180910390f35b6100f160048036038101906100ec9190610beb565b61033f565b6040516100fe9190610cd9565b60405180910390f35b61010f61046a565b60405161011c9190610d16565b60405180910390f35b61013f600480360381019061013a9190610c2b565b610470565b60405161014c9190610cbe565b60405180910390f35b61016f600480360381019061016a9190610b98565b6104af565b60405161017c9190610cd9565b60405180910390f35b61019f600480360381019061019a9190610b2b565b6106a4565b6040516101ac9190610cd9565b60405180910390f35b6101bd61070a565b6040516101ca9190610d16565b60405180910390f35b6101ed60048036038101906101e89190610b2b565b610710565b6040516101fa9190610d16565b60405180910390f35b61020b610728565b6040516102189190610cf4565b60405180910390f35b61023b60048036038101906102369190610beb565b6107b6565b6040516102489190610cd9565b60405180910390f35b61026b60048036038101906102669190610b58565b610819565b6040516102789190610d16565b60405180910390f35b61029b60048036038101906102969190610b2b565b61083e565b6040516102a89190610d16565b60405180910390f35b600080546102be90610e52565b80601f01602080910402602001604051908101604052809291908181526020018280546102ea90610e52565b80156103375780601f1061030c57610100808354040283529160200191610337565b820191906000526020600020905b81548152906001019060200180831161031a57829003601f168201915b505050505081565b60008073ffffffffffffffffffffffffffffffffffffffff168373ffffffffffffffffffffffffffffffffffffffff16141561037a57600080fd5b81600560003373ffffffffffffffffffffffffffffffffffffffff1673ffffffffffffffffffffffffffffffffffffffff16815260200190815260200160002060008573ffffffffffffffffffffffffffffffffffffffff1673ffffffffffffffffffffffffffffffffffffffff168152602001908152602001600020819055508273ffffffffffffffffffffffffffffffffffffffff163373ffffffffffffffffffffffffffffffffffffffff167f8c5be1e5ebec7d5bd14f71427d1e84f3dd0314c0f7b2291e5b200ac8c7c3b925846040516104589190610d16565b60405180910390a36001905092915050565b60035481565b6006818154811061048057600080fd5b906000526020600020016000915054906101000a900473ffffffffffffffffffffffffffffffffffffffff1681565b6000600460008573ffffffffffffffffffffffffffffffffffffffff1673ffffffffffffffffffffffffffffffffffffffff168152602001908152602001600020548211156104fd57600080fd5b600560008573ffffffffffffffffffffffffffffffffffffffff1673ffffffffffffffffffffffffffffffffffffffff16815260200190815260200160002060003373ffffffffffffffffffffffffffffffffffffffff1673ffffffffffffffffffffffffffffffffffffffff1681526020019081526020016000205482111561058657600080fd5b81600560008673ffffffffffffffffffffffffffffffffffffffff1673ffffffffffffffffffffffffffffffffffffffff16815260200190815260200160002060003373ffffffffffffffffffffffffffffffffffffffff1673ffffffffffffffffffffffffffffffffffffffff1681526020019081526020016000205461060e9190610da3565b600560008673ffffffffffffffffffffffffffffffffffffffff1673ffffffffffffffffffffffffffffffffffffffff16815260200190815260200160002060003373ffffffffffffffffffffffffffffffffffffffff1673ffffffffffffffffffffffffffffffffffffffff16815260200190815260200160002081905550610699848484610856565b600190509392505050565b6000600860008373ffffffffffffffffffffffffffffffffffffffff1673ffffffffffffffffffffffffffffffffffffffff16815260200190815260200160002060009054906101000a900460ff166107005760009050610705565b600190505b919050565b60025481565b60046020528060005260406000206000915090505481565b6001805461073590610e52565b80601f016020809104026020016040519081016040528092919081815260200182805461076190610e52565b80156107ae5780601f10610783576101008083540402835291602001916107ae565b820191906000526020600020905b81548152906001019060200180831161079157829003601f168201915b505050505081565b600081600460003373ffffffffffffffffffffffffffffffffffffffff1673ffffffffffffffffffffffffffffffffffffffff16815260200190815260200160002054101561080457600080fd5b61080f338484610856565b6001905092915050565b6005602052816000526040600020602052806000526040600020600091509150505481565b60076020528060005260406000206000915090505481565b600073ffffffffffffffffffffffffffffffffffffffff168273ffffffffffffffffffffffffffffffffffffffff16141561089057600080fd5b6108e48382600460008773ffffffffffffffffffffffffffffffffffffffff1673ffffffffffffffffffffffffffffffffffffffff168152602001908152602001600020546108df9190610da3565b6109a4565b506109398282600460008673ffffffffffffffffffffffffffffffffffffffff1673ffffffffffffffffffffffffffffffffffffffff168152602001908152602001600020546109349190610d4d565b6109a4565b508173ffffffffffffffffffffffffffffffffffffffff168373ffffffffffffffffffffffffffffffffffffffff167fddf252ad1be2c89b69c2b068fc378daa952ba7f163c4a11628f55a4df523b3ef836040516109979190610d16565b60405180910390a3505050565b600081600460008573ffffffffffffffffffffffffffffffffffffffff1673ffffffffffffffffffffffffffffffffffffffff16815260200190815260200160002081905550600860008473ffffffffffffffffffffffffffffffffffffffff1673ffffffffffffffffffffffffffffffffffffffff16815260200190815260200160002060009054906101000a900460ff16610af7576001600860008573ffffffffffffffffffffffffffffffffffffffff1673ffffffffffffffffffffffffffffffffffffffff16815260200190815260200160002060006101000a81548160ff0219169083151502179055506006839080600181540180825580915050600190039060005260206000200160009091909190916101000a81548173ffffffffffffffffffffffffffffffffffffffff021916908373ffffffffffffffffffffffffffffffffffffffff1602179055505b6001905092915050565b600081359050610b1081610ef8565b92915050565b600081359050610b2581610f0f565b92915050565b600060208284031215610b4157610b40610ee2565b5b6000610b4f84828501610b01565b91505092915050565b60008060408385031215610b6f57610b6e610ee2565b5b6000610b7d85828601610b01565b9250506020610b8e85828601610b01565b9150509250929050565b600080600060608486031215610bb157610bb0610ee2565b5b6000610bbf86828701610b01565b9350506020610bd086828701610b01565b9250506040610be186828701610b16565b9150509250925092565b60008060408385031215610c0257610c01610ee2565b5b6000610c1085828601610b01565b9250506020610c2185828601610b16565b9150509250929050565b600060208284031215610c4157610c40610ee2565b5b6000610c4f84828501610b16565b91505092915050565b610c6181610dd7565b82525050565b610c7081610de9565b82525050565b6000610c8182610d31565b610c8b8185610d3c565b9350610c9b818560208601610e1f565b610ca481610ee7565b840191505092915050565b610cb881610e15565b82525050565b6000602082019050610cd36000830184610c58565b92915050565b6000602082019050610cee6000830184610c67565b92915050565b60006020820190508181036000830152610d0e8184610c76565b905092915050565b6000602082019050610d2b6000830184610caf565b92915050565b600081519050919050565b600082825260208201905092915050565b6000610d5882610e15565b9150610d6383610e15565b9250827fffffffffffffffffffffffffffffffffffffffffffffffffffffffffffffffff03821115610d9857610d97610e84565b5b828201905092915050565b6000610dae82610e15565b9150610db983610e15565b925082821015610dcc57610dcb610e84565b5b828203905092915050565b6000610de282610df5565b9050919050565b60008115159050919050565b600073ffffffffffffffffffffffffffffffffffffffff82169050919050565b6000819050919050565b60005b83811015610e3d578082015181840152602081019050610e22565b83811115610e4c576000848401525b50505050565b60006002820490506001821680610e6a57607f821691505b60208210811415610e7e57610e7d610eb3565b5b50919050565b7f4e487b7100000000000000000000000000000000000000000000000000000000600052601160045260246000fd5b7f4e487b7100000000000000000000000000000000000000000000000000000000600052602260045260246000fd5b600080fd5b6000601f19601f8301169050919050565b610f0181610dd7565b8114610f0c57600080fd5b50565b610f1881610e15565b8114610f2357600080fd5b5056fea264697066735822122080b99cc131c2e9caa7c3f0d1ab9b119144e9ab38b0b2ff0f929a5a6b5537b73764736f6c63430008070033",
					"opcodes": "PUSH1 0x80 PUSH1 0x40 MSTORE CALLVALUE DUP1 ISZERO PUSH3 0x11 JUMPI PUSH1 0x0 DUP1 REVERT JUMPDEST POP PUSH1 0x40 MLOAD DUP1 PUSH1 0x40 ADD PUSH1 0x40 MSTORE DUP1 PUSH1 0xB DUP2 MSTORE PUSH1 0x20 ADD PUSH32 0x73706F6E736F72436F696E000000000000000000000000000000000000000000 DUP2 MSTORE POP PUSH1 0x0 SWAP1 DUP1 MLOAD SWAP1 PUSH1 0x20 ADD SWAP1 PUSH3 0x5F SWAP3 SWAP2 SWAP1 PUSH3 0x240 JUMP JUMPDEST POP PUSH1 0x40 MLOAD DUP1 PUSH1 0x40 ADD PUSH1 0x40 MSTORE DUP1 PUSH1 0x7 DUP2 MSTORE PUSH1 0x20 ADD PUSH32 0x53505F436F696E00000000000000000000000000000000000000000000000000 DUP2 MSTORE POP PUSH1 0x1 SWAP1 DUP1 MLOAD SWAP1 PUSH1 0x20 ADD SWAP1 PUSH3 0xAD SWAP3 SWAP2 SWAP1 PUSH3 0x240 JUMP JUMPDEST POP PUSH1 0x12 PUSH1 0x2 DUP2 SWAP1 SSTORE POP PUSH10 0xD3C21BCECCEDA1000000 PUSH1 0x3 DUP2 SWAP1 SSTORE POP PUSH3 0xDB CALLER PUSH1 0x3 SLOAD PUSH3 0xE2 PUSH1 0x20 SHL PUSH1 0x20 SHR JUMP JUMPDEST POP PUSH3 0x355 JUMP JUMPDEST PUSH1 0x0 DUP2 PUSH1 0x4 PUSH1 0x0 DUP6 PUSH20 0xFFFFFFFFFFFFFFFFFFFFFFFFFFFFFFFFFFFFFFFF AND PUSH20 0xFFFFFFFFFFFFFFFFFFFFFFFFFFFFFFFFFFFFFFFF AND DUP2 MSTORE PUSH1 0x20 ADD SWAP1 DUP2 MSTORE PUSH1 0x20 ADD PUSH1 0x0 KECCAK256 DUP2 SWAP1 SSTORE POP PUSH1 0x8 PUSH1 0x0 DUP5 PUSH20 0xFFFFFFFFFFFFFFFFFFFFFFFFFFFFFFFFFFFFFFFF AND PUSH20 0xFFFFFFFFFFFFFFFFFFFFFFFFFFFFFFFFFFFFFFFF AND DUP2 MSTORE PUSH1 0x20 ADD SWAP1 DUP2 MSTORE PUSH1 0x20 ADD PUSH1 0x0 KECCAK256 PUSH1 0x0 SWAP1 SLOAD SWAP1 PUSH2 0x100 EXP SWAP1 DIV PUSH1 0xFF AND PUSH3 0x236 JUMPI PUSH1 0x1 PUSH1 0x8 PUSH1 0x0 DUP6 PUSH20 0xFFFFFFFFFFFFFFFFFFFFFFFFFFFFFFFFFFFFFFFF AND PUSH20 0xFFFFFFFFFFFFFFFFFFFFFFFFFFFFFFFFFFFFFFFF AND DUP2 MSTORE PUSH1 0x20 ADD SWAP1 DUP2 MSTORE PUSH1 0x20 ADD PUSH1 0x0 KECCAK256 PUSH1 0x0 PUSH2 0x100 EXP DUP2 SLOAD DUP2 PUSH1 0xFF MUL NOT AND SWAP1 DUP4 ISZERO ISZERO MUL OR SWAP1 SSTORE POP PUSH1 0x6 DUP4 SWAP1 DUP1 PUSH1 0x1 DUP2 SLOAD ADD DUP1 DUP3 SSTORE DUP1 SWAP2 POP POP PUSH1 0x1 SWAP1 SUB SWAP1 PUSH1 0x0 MSTORE PUSH1 0x20 PUSH1 0x0 KECCAK256 ADD PUSH1 0x0 SWAP1 SWAP2 SWAP1 SWAP2 SWAP1 SWAP2 PUSH2 0x100 EXP DUP2 SLOAD DUP2 PUSH20 0xFFFFFFFFFFFFFFFFFFFFFFFFFFFFFFFFFFFFFFFF MUL NOT AND SWAP1 DUP4 PUSH20 0xFFFFFFFFFFFFFFFFFFFFFFFFFFFFFFFFFFFFFFFF AND MUL OR SWAP1 SSTORE POP JUMPDEST PUSH1 0x1 SWAP1 POP SWAP3 SWAP2 POP POP JUMP JUMPDEST DUP3 DUP1 SLOAD PUSH3 0x24E SWAP1 PUSH3 0x2F0 JUMP JUMPDEST SWAP1 PUSH1 0x0 MSTORE PUSH1 0x20 PUSH1 0x0 KECCAK256 SWAP1 PUSH1 0x1F ADD PUSH1 0x20 SWAP1 DIV DUP2 ADD SWAP3 DUP3 PUSH3 0x272 JUMPI PUSH1 0x0 DUP6 SSTORE PUSH3 0x2BE JUMP JUMPDEST DUP3 PUSH1 0x1F LT PUSH3 0x28D JUMPI DUP1 MLOAD PUSH1 0xFF NOT AND DUP4 DUP1 ADD OR DUP6 SSTORE PUSH3 0x2BE JUMP JUMPDEST DUP3 DUP1 ADD PUSH1 0x1 ADD DUP6 SSTORE DUP3 ISZERO PUSH3 0x2BE JUMPI SWAP2 DUP3 ADD JUMPDEST DUP3 DUP2 GT ISZERO PUSH3 0x2BD JUMPI DUP3 MLOAD DUP3 SSTORE SWAP2 PUSH1 0x20 ADD SWAP2 SWAP1 PUSH1 0x1 ADD SWAP1 PUSH3 0x2A0 JUMP JUMPDEST JUMPDEST POP SWAP1 POP PUSH3 0x2CD SWAP2 SWAP1 PUSH3 0x2D1 JUMP JUMPDEST POP SWAP1 JUMP JUMPDEST JUMPDEST DUP1 DUP3 GT ISZERO PUSH3 0x2EC JUMPI PUSH1 0x0 DUP2 PUSH1 0x0 SWAP1 SSTORE POP PUSH1 0x1 ADD PUSH3 0x2D2 JUMP JUMPDEST POP SWAP1 JUMP JUMPDEST PUSH1 0x0 PUSH1 0x2 DUP3 DIV SWAP1 POP PUSH1 0x1 DUP3 AND DUP1 PUSH3 0x309 JUMPI PUSH1 0x7F DUP3 AND SWAP2 POP JUMPDEST PUSH1 0x20 DUP3 LT DUP2 EQ ISZERO PUSH3 0x320 JUMPI PUSH3 0x31F PUSH3 0x326 JUMP JUMPDEST JUMPDEST POP SWAP2 SWAP1 POP JUMP JUMPDEST PUSH32 0x4E487B7100000000000000000000000000000000000000000000000000000000 PUSH1 0x0 MSTORE PUSH1 0x22 PUSH1 0x4 MSTORE PUSH1 0x24 PUSH1 0x0 REVERT JUMPDEST PUSH2 0xF5C DUP1 PUSH3 0x365 PUSH1 0x0 CODECOPY PUSH1 0x0 RETURN INVALID PUSH1 0x80 PUSH1 0x40 MSTORE CALLVALUE DUP1 ISZERO PUSH2 0x10 JUMPI PUSH1 0x0 DUP1 REVERT JUMPDEST POP PUSH1 0x4 CALLDATASIZE LT PUSH2 0xB4 JUMPI PUSH1 0x0 CALLDATALOAD PUSH1 0xE0 SHR DUP1 PUSH4 0x313CE567 GT PUSH2 0x71 JUMPI DUP1 PUSH4 0x313CE567 EQ PUSH2 0x1B5 JUMPI DUP1 PUSH4 0x70A08231 EQ PUSH2 0x1D3 JUMPI DUP1 PUSH4 0x95D89B41 EQ PUSH2 0x203 JUMPI DUP1 PUSH4 0xA9059CBB EQ PUSH2 0x221 JUMPI DUP1 PUSH4 0xDD62ED3E EQ PUSH2 0x251 JUMPI DUP1 PUSH4 0xFD6AAD25 EQ PUSH2 0x281 JUMPI PUSH2 0xB4 JUMP JUMPDEST DUP1 PUSH4 0x6FDDE03 EQ PUSH2 0xB9 JUMPI DUP1 PUSH4 0x95EA7B3 EQ PUSH2 0xD7 JUMPI DUP1 PUSH4 0x18160DDD EQ PUSH2 0x107 JUMPI DUP1 PUSH4 0x1E2EB088 EQ PUSH2 0x125 JUMPI DUP1 PUSH4 0x23B872DD EQ PUSH2 0x155 JUMPI DUP1 PUSH4 0x29B57C14 EQ PUSH2 0x185 JUMPI JUMPDEST PUSH1 0x0 DUP1 REVERT JUMPDEST PUSH2 0xC1 PUSH2 0x2B1 JUMP JUMPDEST PUSH1 0x40 MLOAD PUSH2 0xCE SWAP2 SWAP1 PUSH2 0xCF4 JUMP JUMPDEST PUSH1 0x40 MLOAD DUP1 SWAP2 SUB SWAP1 RETURN JUMPDEST PUSH2 0xF1 PUSH1 0x4 DUP1 CALLDATASIZE SUB DUP2 ADD SWAP1 PUSH2 0xEC SWAP2 SWAP1 PUSH2 0xBEB JUMP JUMPDEST PUSH2 0x33F JUMP JUMPDEST PUSH1 0x40 MLOAD PUSH2 0xFE SWAP2 SWAP1 PUSH2 0xCD9 JUMP JUMPDEST PUSH1 0x40 MLOAD DUP1 SWAP2 SUB SWAP1 RETURN JUMPDEST PUSH2 0x10F PUSH2 0x46A JUMP JUMPDEST PUSH1 0x40 MLOAD PUSH2 0x11C SWAP2 SWAP1 PUSH2 0xD16 JUMP JUMPDEST PUSH1 0x40 MLOAD DUP1 SWAP2 SUB SWAP1 RETURN JUMPDEST PUSH2 0x13F PUSH1 0x4 DUP1 CALLDATASIZE SUB DUP2 ADD SWAP1 PUSH2 0x13A SWAP2 SWAP1 PUSH2 0xC2B JUMP JUMPDEST PUSH2 0x470 JUMP JUMPDEST PUSH1 0x40 MLOAD PUSH2 0x14C SWAP2 SWAP1 PUSH2 0xCBE JUMP JUMPDEST PUSH1 0x40 MLOAD DUP1 SWAP2 SUB SWAP1 RETURN JUMPDEST PUSH2 0x16F PUSH1 0x4 DUP1 CALLDATASIZE SUB DUP2 ADD SWAP1 PUSH2 0x16A SWAP2 SWAP1 PUSH2 0xB98 JUMP JUMPDEST PUSH2 0x4AF JUMP JUMPDEST PUSH1 0x40 MLOAD PUSH2 0x17C SWAP2 SWAP1 PUSH2 0xCD9 JUMP JUMPDEST PUSH1 0x40 MLOAD DUP1 SWAP2 SUB SWAP1 RETURN JUMPDEST PUSH2 0x19F PUSH1 0x4 DUP1 CALLDATASIZE SUB DUP2 ADD SWAP1 PUSH2 0x19A SWAP2 SWAP1 PUSH2 0xB2B JUMP JUMPDEST PUSH2 0x6A4 JUMP JUMPDEST PUSH1 0x40 MLOAD PUSH2 0x1AC SWAP2 SWAP1 PUSH2 0xCD9 JUMP JUMPDEST PUSH1 0x40 MLOAD DUP1 SWAP2 SUB SWAP1 RETURN JUMPDEST PUSH2 0x1BD PUSH2 0x70A JUMP JUMPDEST PUSH1 0x40 MLOAD PUSH2 0x1CA SWAP2 SWAP1 PUSH2 0xD16 JUMP JUMPDEST PUSH1 0x40 MLOAD DUP1 SWAP2 SUB SWAP1 RETURN JUMPDEST PUSH2 0x1ED PUSH1 0x4 DUP1 CALLDATASIZE SUB DUP2 ADD SWAP1 PUSH2 0x1E8 SWAP2 SWAP1 PUSH2 0xB2B JUMP JUMPDEST PUSH2 0x710 JUMP JUMPDEST PUSH1 0x40 MLOAD PUSH2 0x1FA SWAP2 SWAP1 PUSH2 0xD16 JUMP JUMPDEST PUSH1 0x40 MLOAD DUP1 SWAP2 SUB SWAP1 RETURN JUMPDEST PUSH2 0x20B PUSH2 0x728 JUMP JUMPDEST PUSH1 0x40 MLOAD PUSH2 0x218 SWAP2 SWAP1 PUSH2 0xCF4 JUMP JUMPDEST PUSH1 0x40 MLOAD DUP1 SWAP2 SUB SWAP1 RETURN JUMPDEST PUSH2 0x23B PUSH1 0x4 DUP1 CALLDATASIZE SUB DUP2 ADD SWAP1 PUSH2 0x236 SWAP2 SWAP1 PUSH2 0xBEB JUMP JUMPDEST PUSH2 0x7B6 JUMP JUMPDEST PUSH1 0x40 MLOAD PUSH2 0x248 SWAP2 SWAP1 PUSH2 0xCD9 JUMP JUMPDEST PUSH1 0x40 MLOAD DUP1 SWAP2 SUB SWAP1 RETURN JUMPDEST PUSH2 0x26B PUSH1 0x4 DUP1 CALLDATASIZE SUB DUP2 ADD SWAP1 PUSH2 0x266 SWAP2 SWAP1 PUSH2 0xB58 JUMP JUMPDEST PUSH2 0x819 JUMP JUMPDEST PUSH1 0x40 MLOAD PUSH2 0x278 SWAP2 SWAP1 PUSH2 0xD16 JUMP JUMPDEST PUSH1 0x40 MLOAD DUP1 SWAP2 SUB SWAP1 RETURN JUMPDEST PUSH2 0x29B PUSH1 0x4 DUP1 CALLDATASIZE SUB DUP2 ADD SWAP1 PUSH2 0x296 SWAP2 SWAP1 PUSH2 0xB2B JUMP JUMPDEST PUSH2 0x83E JUMP JUMPDEST PUSH1 0x40 MLOAD PUSH2 0x2A8 SWAP2 SWAP1 PUSH2 0xD16 JUMP JUMPDEST PUSH1 0x40 MLOAD DUP1 SWAP2 SUB SWAP1 RETURN JUMPDEST PUSH1 0x0 DUP1 SLOAD PUSH2 0x2BE SWAP1 PUSH2 0xE52 JUMP JUMPDEST DUP1 PUSH1 0x1F ADD PUSH1 0x20 DUP1 SWAP2 DIV MUL PUSH1 0x20 ADD PUSH1 0x40 MLOAD SWAP1 DUP2 ADD PUSH1 0x40 MSTORE DUP1 SWAP3 SWAP2 SWAP1 DUP2 DUP2 MSTORE PUSH1 0x20 ADD DUP3 DUP1 SLOAD PUSH2 0x2EA SWAP1 PUSH2 0xE52 JUMP JUMPDEST DUP1 ISZERO PUSH2 0x337 JUMPI DUP1 PUSH1 0x1F LT PUSH2 0x30C JUMPI PUSH2 0x100 DUP1 DUP4 SLOAD DIV MUL DUP4 MSTORE SWAP2 PUSH1 0x20 ADD SWAP2 PUSH2 0x337 JUMP JUMPDEST DUP3 ADD SWAP2 SWAP1 PUSH1 0x0 MSTORE PUSH1 0x20 PUSH1 0x0 KECCAK256 SWAP1 JUMPDEST DUP2 SLOAD DUP2 MSTORE SWAP1 PUSH1 0x1 ADD SWAP1 PUSH1 0x20 ADD DUP1 DUP4 GT PUSH2 0x31A JUMPI DUP3 SWAP1 SUB PUSH1 0x1F AND DUP3 ADD SWAP2 JUMPDEST POP POP POP POP POP DUP2 JUMP JUMPDEST PUSH1 0x0 DUP1 PUSH20 0xFFFFFFFFFFFFFFFFFFFFFFFFFFFFFFFFFFFFFFFF AND DUP4 PUSH20 0xFFFFFFFFFFFFFFFFFFFFFFFFFFFFFFFFFFFFFFFF AND EQ ISZERO PUSH2 0x37A JUMPI PUSH1 0x0 DUP1 REVERT JUMPDEST DUP2 PUSH1 0x5 PUSH1 0x0 CALLER PUSH20 0xFFFFFFFFFFFFFFFFFFFFFFFFFFFFFFFFFFFFFFFF AND PUSH20 0xFFFFFFFFFFFFFFFFFFFFFFFFFFFFFFFFFFFFFFFF AND DUP2 MSTORE PUSH1 0x20 ADD SWAP1 DUP2 MSTORE PUSH1 0x20 ADD PUSH1 0x0 KECCAK256 PUSH1 0x0 DUP6 PUSH20 0xFFFFFFFFFFFFFFFFFFFFFFFFFFFFFFFFFFFFFFFF AND PUSH20 0xFFFFFFFFFFFFFFFFFFFFFFFFFFFFFFFFFFFFFFFF AND DUP2 MSTORE PUSH1 0x20 ADD SWAP1 DUP2 MSTORE PUSH1 0x20 ADD PUSH1 0x0 KECCAK256 DUP2 SWAP1 SSTORE POP DUP3 PUSH20 0xFFFFFFFFFFFFFFFFFFFFFFFFFFFFFFFFFFFFFFFF AND CALLER PUSH20 0xFFFFFFFFFFFFFFFFFFFFFFFFFFFFFFFFFFFFFFFF AND PUSH32 0x8C5BE1E5EBEC7D5BD14F71427D1E84F3DD0314C0F7B2291E5B200AC8C7C3B925 DUP5 PUSH1 0x40 MLOAD PUSH2 0x458 SWAP2 SWAP1 PUSH2 0xD16 JUMP JUMPDEST PUSH1 0x40 MLOAD DUP1 SWAP2 SUB SWAP1 LOG3 PUSH1 0x1 SWAP1 POP SWAP3 SWAP2 POP POP JUMP JUMPDEST PUSH1 0x3 SLOAD DUP2 JUMP JUMPDEST PUSH1 0x6 DUP2 DUP2 SLOAD DUP2 LT PUSH2 0x480 JUMPI PUSH1 0x0 DUP1 REVERT JUMPDEST SWAP1 PUSH1 0x0 MSTORE PUSH1 0x20 PUSH1 0x0 KECCAK256 ADD PUSH1 0x0 SWAP2 POP SLOAD SWAP1 PUSH2 0x100 EXP SWAP1 DIV PUSH20 0xFFFFFFFFFFFFFFFFFFFFFFFFFFFFFFFFFFFFFFFF AND DUP2 JUMP JUMPDEST PUSH1 0x0 PUSH1 0x4 PUSH1 0x0 DUP6 PUSH20 0xFFFFFFFFFFFFFFFFFFFFFFFFFFFFFFFFFFFFFFFF AND PUSH20 0xFFFFFFFFFFFFFFFFFFFFFFFFFFFFFFFFFFFFFFFF AND DUP2 MSTORE PUSH1 0x20 ADD SWAP1 DUP2 MSTORE PUSH1 0x20 ADD PUSH1 0x0 KECCAK256 SLOAD DUP3 GT ISZERO PUSH2 0x4FD JUMPI PUSH1 0x0 DUP1 REVERT JUMPDEST PUSH1 0x5 PUSH1 0x0 DUP6 PUSH20 0xFFFFFFFFFFFFFFFFFFFFFFFFFFFFFFFFFFFFFFFF AND PUSH20 0xFFFFFFFFFFFFFFFFFFFFFFFFFFFFFFFFFFFFFFFF AND DUP2 MSTORE PUSH1 0x20 ADD SWAP1 DUP2 MSTORE PUSH1 0x20 ADD PUSH1 0x0 KECCAK256 PUSH1 0x0 CALLER PUSH20 0xFFFFFFFFFFFFFFFFFFFFFFFFFFFFFFFFFFFFFFFF AND PUSH20 0xFFFFFFFFFFFFFFFFFFFFFFFFFFFFFFFFFFFFFFFF AND DUP2 MSTORE PUSH1 0x20 ADD SWAP1 DUP2 MSTORE PUSH1 0x20 ADD PUSH1 0x0 KECCAK256 SLOAD DUP3 GT ISZERO PUSH2 0x586 JUMPI PUSH1 0x0 DUP1 REVERT JUMPDEST DUP2 PUSH1 0x5 PUSH1 0x0 DUP7 PUSH20 0xFFFFFFFFFFFFFFFFFFFFFFFFFFFFFFFFFFFFFFFF AND PUSH20 0xFFFFFFFFFFFFFFFFFFFFFFFFFFFFFFFFFFFFFFFF AND DUP2 MSTORE PUSH1 0x20 ADD SWAP1 DUP2 MSTORE PUSH1 0x20 ADD PUSH1 0x0 KECCAK256 PUSH1 0x0 CALLER PUSH20 0xFFFFFFFFFFFFFFFFFFFFFFFFFFFFFFFFFFFFFFFF AND PUSH20 0xFFFFFFFFFFFFFFFFFFFFFFFFFFFFFFFFFFFFFFFF AND DUP2 MSTORE PUSH1 0x20 ADD SWAP1 DUP2 MSTORE PUSH1 0x20 ADD PUSH1 0x0 KECCAK256 SLOAD PUSH2 0x60E SWAP2 SWAP1 PUSH2 0xDA3 JUMP JUMPDEST PUSH1 0x5 PUSH1 0x0 DUP7 PUSH20 0xFFFFFFFFFFFFFFFFFFFFFFFFFFFFFFFFFFFFFFFF AND PUSH20 0xFFFFFFFFFFFFFFFFFFFFFFFFFFFFFFFFFFFFFFFF AND DUP2 MSTORE PUSH1 0x20 ADD SWAP1 DUP2 MSTORE PUSH1 0x20 ADD PUSH1 0x0 KECCAK256 PUSH1 0x0 CALLER PUSH20 0xFFFFFFFFFFFFFFFFFFFFFFFFFFFFFFFFFFFFFFFF AND PUSH20 0xFFFFFFFFFFFFFFFFFFFFFFFFFFFFFFFFFFFFFFFF AND DUP2 MSTORE PUSH1 0x20 ADD SWAP1 DUP2 MSTORE PUSH1 0x20 ADD PUSH1 0x0 KECCAK256 DUP2 SWAP1 SSTORE POP PUSH2 0x699 DUP5 DUP5 DUP5 PUSH2 0x856 JUMP JUMPDEST PUSH1 0x1 SWAP1 POP SWAP4 SWAP3 POP POP POP JUMP JUMPDEST PUSH1 0x0 PUSH1 0x8 PUSH1 0x0 DUP4 PUSH20 0xFFFFFFFFFFFFFFFFFFFFFFFFFFFFFFFFFFFFFFFF AND PUSH20 0xFFFFFFFFFFFFFFFFFFFFFFFFFFFFFFFFFFFFFFFF AND DUP2 MSTORE PUSH1 0x20 ADD SWAP1 DUP2 MSTORE PUSH1 0x20 ADD PUSH1 0x0 KECCAK256 PUSH1 0x0 SWAP1 SLOAD SWAP1 PUSH2 0x100 EXP SWAP1 DIV PUSH1 0xFF AND PUSH2 0x700 JUMPI PUSH1 0x0 SWAP1 POP PUSH2 0x705 JUMP JUMPDEST PUSH1 0x1 SWAP1 POP JUMPDEST SWAP2 SWAP1 POP JUMP JUMPDEST PUSH1 0x2 SLOAD DUP2 JUMP JUMPDEST PUSH1 0x4 PUSH1 0x20 MSTORE DUP1 PUSH1 0x0 MSTORE PUSH1 0x40 PUSH1 0x0 KECCAK256 PUSH1 0x0 SWAP2 POP SWAP1 POP SLOAD DUP2 JUMP JUMPDEST PUSH1 0x1 DUP1 SLOAD PUSH2 0x735 SWAP1 PUSH2 0xE52 JUMP JUMPDEST DUP1 PUSH1 0x1F ADD PUSH1 0x20 DUP1 SWAP2 DIV MUL PUSH1 0x20 ADD PUSH1 0x40 MLOAD SWAP1 DUP2 ADD PUSH1 0x40 MSTORE DUP1 SWAP3 SWAP2 SWAP1 DUP2 DUP2 MSTORE PUSH1 0x20 ADD DUP3 DUP1 SLOAD PUSH2 0x761 SWAP1 PUSH2 0xE52 JUMP JUMPDEST DUP1 ISZERO PUSH2 0x7AE JUMPI DUP1 PUSH1 0x1F LT PUSH2 0x783 JUMPI PUSH2 0x100 DUP1 DUP4 SLOAD DIV MUL DUP4 MSTORE SWAP2 PUSH1 0x20 ADD SWAP2 PUSH2 0x7AE JUMP JUMPDEST DUP3 ADD SWAP2 SWAP1 PUSH1 0x0 MSTORE PUSH1 0x20 PUSH1 0x0 KECCAK256 SWAP1 JUMPDEST DUP2 SLOAD DUP2 MSTORE SWAP1 PUSH1 0x1 ADD SWAP1 PUSH1 0x20 ADD DUP1 DUP4 GT PUSH2 0x791 JUMPI DUP3 SWAP1 SUB PUSH1 0x1F AND DUP3 ADD SWAP2 JUMPDEST POP POP POP POP POP DUP2 JUMP JUMPDEST PUSH1 0x0 DUP2 PUSH1 0x4 PUSH1 0x0 CALLER PUSH20 0xFFFFFFFFFFFFFFFFFFFFFFFFFFFFFFFFFFFFFFFF AND PUSH20 0xFFFFFFFFFFFFFFFFFFFFFFFFFFFFFFFFFFFFFFFF AND DUP2 MSTORE PUSH1 0x20 ADD SWAP1 DUP2 MSTORE PUSH1 0x20 ADD PUSH1 0x0 KECCAK256 SLOAD LT ISZERO PUSH2 0x804 JUMPI PUSH1 0x0 DUP1 REVERT JUMPDEST PUSH2 0x80F CALLER DUP5 DUP5 PUSH2 0x856 JUMP JUMPDEST PUSH1 0x1 SWAP1 POP SWAP3 SWAP2 POP POP JUMP JUMPDEST PUSH1 0x5 PUSH1 0x20 MSTORE DUP2 PUSH1 0x0 MSTORE PUSH1 0x40 PUSH1 0x0 KECCAK256 PUSH1 0x20 MSTORE DUP1 PUSH1 0x0 MSTORE PUSH1 0x40 PUSH1 0x0 KECCAK256 PUSH1 0x0 SWAP2 POP SWAP2 POP POP SLOAD DUP2 JUMP JUMPDEST PUSH1 0x7 PUSH1 0x20 MSTORE DUP1 PUSH1 0x0 MSTORE PUSH1 0x40 PUSH1 0x0 KECCAK256 PUSH1 0x0 SWAP2 POP SWAP1 POP SLOAD DUP2 JUMP JUMPDEST PUSH1 0x0 PUSH20 0xFFFFFFFFFFFFFFFFFFFFFFFFFFFFFFFFFFFFFFFF AND DUP3 PUSH20 0xFFFFFFFFFFFFFFFFFFFFFFFFFFFFFFFFFFFFFFFF AND EQ ISZERO PUSH2 0x890 JUMPI PUSH1 0x0 DUP1 REVERT JUMPDEST PUSH2 0x8E4 DUP4 DUP3 PUSH1 0x4 PUSH1 0x0 DUP8 PUSH20 0xFFFFFFFFFFFFFFFFFFFFFFFFFFFFFFFFFFFFFFFF AND PUSH20 0xFFFFFFFFFFFFFFFFFFFFFFFFFFFFFFFFFFFFFFFF AND DUP2 MSTORE PUSH1 0x20 ADD SWAP1 DUP2 MSTORE PUSH1 0x20 ADD PUSH1 0x0 KECCAK256 SLOAD PUSH2 0x8DF SWAP2 SWAP1 PUSH2 0xDA3 JUMP JUMPDEST PUSH2 0x9A4 JUMP JUMPDEST POP PUSH2 0x939 DUP3 DUP3 PUSH1 0x4 PUSH1 0x0 DUP7 PUSH20 0xFFFFFFFFFFFFFFFFFFFFFFFFFFFFFFFFFFFFFFFF AND PUSH20 0xFFFFFFFFFFFFFFFFFFFFFFFFFFFFFFFFFFFFFFFF AND DUP2 MSTORE PUSH1 0x20 ADD SWAP1 DUP2 MSTORE PUSH1 0x20 ADD PUSH1 0x0 KECCAK256 SLOAD PUSH2 0x934 SWAP2 SWAP1 PUSH2 0xD4D JUMP JUMPDEST PUSH2 0x9A4 JUMP JUMPDEST POP DUP2 PUSH20 0xFFFFFFFFFFFFFFFFFFFFFFFFFFFFFFFFFFFFFFFF AND DUP4 PUSH20 0xFFFFFFFFFFFFFFFFFFFFFFFFFFFFFFFFFFFFFFFF AND PUSH32 0xDDF252AD1BE2C89B69C2B068FC378DAA952BA7F163C4A11628F55A4DF523B3EF DUP4 PUSH1 0x40 MLOAD PUSH2 0x997 SWAP2 SWAP1 PUSH2 0xD16 JUMP JUMPDEST PUSH1 0x40 MLOAD DUP1 SWAP2 SUB SWAP1 LOG3 POP POP POP JUMP JUMPDEST PUSH1 0x0 DUP2 PUSH1 0x4 PUSH1 0x0 DUP6 PUSH20 0xFFFFFFFFFFFFFFFFFFFFFFFFFFFFFFFFFFFFFFFF AND PUSH20 0xFFFFFFFFFFFFFFFFFFFFFFFFFFFFFFFFFFFFFFFF AND DUP2 MSTORE PUSH1 0x20 ADD SWAP1 DUP2 MSTORE PUSH1 0x20 ADD PUSH1 0x0 KECCAK256 DUP2 SWAP1 SSTORE POP PUSH1 0x8 PUSH1 0x0 DUP5 PUSH20 0xFFFFFFFFFFFFFFFFFFFFFFFFFFFFFFFFFFFFFFFF AND PUSH20 0xFFFFFFFFFFFFFFFFFFFFFFFFFFFFFFFFFFFFFFFF AND DUP2 MSTORE PUSH1 0x20 ADD SWAP1 DUP2 MSTORE PUSH1 0x20 ADD PUSH1 0x0 KECCAK256 PUSH1 0x0 SWAP1 SLOAD SWAP1 PUSH2 0x100 EXP SWAP1 DIV PUSH1 0xFF AND PUSH2 0xAF7 JUMPI PUSH1 0x1 PUSH1 0x8 PUSH1 0x0 DUP6 PUSH20 0xFFFFFFFFFFFFFFFFFFFFFFFFFFFFFFFFFFFFFFFF AND PUSH20 0xFFFFFFFFFFFFFFFFFFFFFFFFFFFFFFFFFFFFFFFF AND DUP2 MSTORE PUSH1 0x20 ADD SWAP1 DUP2 MSTORE PUSH1 0x20 ADD PUSH1 0x0 KECCAK256 PUSH1 0x0 PUSH2 0x100 EXP DUP2 SLOAD DUP2 PUSH1 0xFF MUL NOT AND SWAP1 DUP4 ISZERO ISZERO MUL OR SWAP1 SSTORE POP PUSH1 0x6 DUP4 SWAP1 DUP1 PUSH1 0x1 DUP2 SLOAD ADD DUP1 DUP3 SSTORE DUP1 SWAP2 POP POP PUSH1 0x1 SWAP1 SUB SWAP1 PUSH1 0x0 MSTORE PUSH1 0x20 PUSH1 0x0 KECCAK256 ADD PUSH1 0x0 SWAP1 SWAP2 SWAP1 SWAP2 SWAP1 SWAP2 PUSH2 0x100 EXP DUP2 SLOAD DUP2 PUSH20 0xFFFFFFFFFFFFFFFFFFFFFFFFFFFFFFFFFFFFFFFF MUL NOT AND SWAP1 DUP4 PUSH20 0xFFFFFFFFFFFFFFFFFFFFFFFFFFFFFFFFFFFFFFFF AND MUL OR SWAP1 SSTORE POP JUMPDEST PUSH1 0x1 SWAP1 POP SWAP3 SWAP2 POP POP JUMP JUMPDEST PUSH1 0x0 DUP2 CALLDATALOAD SWAP1 POP PUSH2 0xB10 DUP2 PUSH2 0xEF8 JUMP JUMPDEST SWAP3 SWAP2 POP POP JUMP JUMPDEST PUSH1 0x0 DUP2 CALLDATALOAD SWAP1 POP PUSH2 0xB25 DUP2 PUSH2 0xF0F JUMP JUMPDEST SWAP3 SWAP2 POP POP JUMP JUMPDEST PUSH1 0x0 PUSH1 0x20 DUP3 DUP5 SUB SLT ISZERO PUSH2 0xB41 JUMPI PUSH2 0xB40 PUSH2 0xEE2 JUMP JUMPDEST JUMPDEST PUSH1 0x0 PUSH2 0xB4F DUP5 DUP3 DUP6 ADD PUSH2 0xB01 JUMP JUMPDEST SWAP2 POP POP SWAP3 SWAP2 POP POP JUMP JUMPDEST PUSH1 0x0 DUP1 PUSH1 0x40 DUP4 DUP6 SUB SLT ISZERO PUSH2 0xB6F JUMPI PUSH2 0xB6E PUSH2 0xEE2 JUMP JUMPDEST JUMPDEST PUSH1 0x0 PUSH2 0xB7D DUP6 DUP3 DUP7 ADD PUSH2 0xB01 JUMP JUMPDEST SWAP3 POP POP PUSH1 0x20 PUSH2 0xB8E DUP6 DUP3 DUP7 ADD PUSH2 0xB01 JUMP JUMPDEST SWAP2 POP POP SWAP3 POP SWAP3 SWAP1 POP JUMP JUMPDEST PUSH1 0x0 DUP1 PUSH1 0x0 PUSH1 0x60 DUP5 DUP7 SUB SLT ISZERO PUSH2 0xBB1 JUMPI PUSH2 0xBB0 PUSH2 0xEE2 JUMP JUMPDEST JUMPDEST PUSH1 0x0 PUSH2 0xBBF DUP7 DUP3 DUP8 ADD PUSH2 0xB01 JUMP JUMPDEST SWAP4 POP POP PUSH1 0x20 PUSH2 0xBD0 DUP7 DUP3 DUP8 ADD PUSH2 0xB01 JUMP JUMPDEST SWAP3 POP POP PUSH1 0x40 PUSH2 0xBE1 DUP7 DUP3 DUP8 ADD PUSH2 0xB16 JUMP JUMPDEST SWAP2 POP POP SWAP3 POP SWAP3 POP SWAP3 JUMP JUMPDEST PUSH1 0x0 DUP1 PUSH1 0x40 DUP4 DUP6 SUB SLT ISZERO PUSH2 0xC02 JUMPI PUSH2 0xC01 PUSH2 0xEE2 JUMP JUMPDEST JUMPDEST PUSH1 0x0 PUSH2 0xC10 DUP6 DUP3 DUP7 ADD PUSH2 0xB01 JUMP JUMPDEST SWAP3 POP POP PUSH1 0x20 PUSH2 0xC21 DUP6 DUP3 DUP7 ADD PUSH2 0xB16 JUMP JUMPDEST SWAP2 POP POP SWAP3 POP SWAP3 SWAP1 POP JUMP JUMPDEST PUSH1 0x0 PUSH1 0x20 DUP3 DUP5 SUB SLT ISZERO PUSH2 0xC41 JUMPI PUSH2 0xC40 PUSH2 0xEE2 JUMP JUMPDEST JUMPDEST PUSH1 0x0 PUSH2 0xC4F DUP5 DUP3 DUP6 ADD PUSH2 0xB16 JUMP JUMPDEST SWAP2 POP POP SWAP3 SWAP2 POP POP JUMP JUMPDEST PUSH2 0xC61 DUP2 PUSH2 0xDD7 JUMP JUMPDEST DUP3 MSTORE POP POP JUMP JUMPDEST PUSH2 0xC70 DUP2 PUSH2 0xDE9 JUMP JUMPDEST DUP3 MSTORE POP POP JUMP JUMPDEST PUSH1 0x0 PUSH2 0xC81 DUP3 PUSH2 0xD31 JUMP JUMPDEST PUSH2 0xC8B DUP2 DUP6 PUSH2 0xD3C JUMP JUMPDEST SWAP4 POP PUSH2 0xC9B DUP2 DUP6 PUSH1 0x20 DUP7 ADD PUSH2 0xE1F JUMP JUMPDEST PUSH2 0xCA4 DUP2 PUSH2 0xEE7 JUMP JUMPDEST DUP5 ADD SWAP2 POP POP SWAP3 SWAP2 POP POP JUMP JUMPDEST PUSH2 0xCB8 DUP2 PUSH2 0xE15 JUMP JUMPDEST DUP3 MSTORE POP POP JUMP JUMPDEST PUSH1 0x0 PUSH1 0x20 DUP3 ADD SWAP1 POP PUSH2 0xCD3 PUSH1 0x0 DUP4 ADD DUP5 PUSH2 0xC58 JUMP JUMPDEST SWAP3 SWAP2 POP POP JUMP JUMPDEST PUSH1 0x0 PUSH1 0x20 DUP3 ADD SWAP1 POP PUSH2 0xCEE PUSH1 0x0 DUP4 ADD DUP5 PUSH2 0xC67 JUMP JUMPDEST SWAP3 SWAP2 POP POP JUMP JUMPDEST PUSH1 0x0 PUSH1 0x20 DUP3 ADD SWAP1 POP DUP2 DUP2 SUB PUSH1 0x0 DUP4 ADD MSTORE PUSH2 0xD0E DUP2 DUP5 PUSH2 0xC76 JUMP JUMPDEST SWAP1 POP SWAP3 SWAP2 POP POP JUMP JUMPDEST PUSH1 0x0 PUSH1 0x20 DUP3 ADD SWAP1 POP PUSH2 0xD2B PUSH1 0x0 DUP4 ADD DUP5 PUSH2 0xCAF JUMP JUMPDEST SWAP3 SWAP2 POP POP JUMP JUMPDEST PUSH1 0x0 DUP2 MLOAD SWAP1 POP SWAP2 SWAP1 POP JUMP JUMPDEST PUSH1 0x0 DUP3 DUP3 MSTORE PUSH1 0x20 DUP3 ADD SWAP1 POP SWAP3 SWAP2 POP POP JUMP JUMPDEST PUSH1 0x0 PUSH2 0xD58 DUP3 PUSH2 0xE15 JUMP JUMPDEST SWAP2 POP PUSH2 0xD63 DUP4 PUSH2 0xE15 JUMP JUMPDEST SWAP3 POP DUP3 PUSH32 0xFFFFFFFFFFFFFFFFFFFFFFFFFFFFFFFFFFFFFFFFFFFFFFFFFFFFFFFFFFFFFFFF SUB DUP3 GT ISZERO PUSH2 0xD98 JUMPI PUSH2 0xD97 PUSH2 0xE84 JUMP JUMPDEST JUMPDEST DUP3 DUP3 ADD SWAP1 POP SWAP3 SWAP2 POP POP JUMP JUMPDEST PUSH1 0x0 PUSH2 0xDAE DUP3 PUSH2 0xE15 JUMP JUMPDEST SWAP2 POP PUSH2 0xDB9 DUP4 PUSH2 0xE15 JUMP JUMPDEST SWAP3 POP DUP3 DUP3 LT ISZERO PUSH2 0xDCC JUMPI PUSH2 0xDCB PUSH2 0xE84 JUMP JUMPDEST JUMPDEST DUP3 DUP3 SUB SWAP1 POP SWAP3 SWAP2 POP POP JUMP JUMPDEST PUSH1 0x0 PUSH2 0xDE2 DUP3 PUSH2 0xDF5 JUMP JUMPDEST SWAP1 POP SWAP2 SWAP1 POP JUMP JUMPDEST PUSH1 0x0 DUP2 ISZERO ISZERO SWAP1 POP SWAP2 SWAP1 POP JUMP JUMPDEST PUSH1 0x0 PUSH20 0xFFFFFFFFFFFFFFFFFFFFFFFFFFFFFFFFFFFFFFFF DUP3 AND SWAP1 POP SWAP2 SWAP1 POP JUMP JUMPDEST PUSH1 0x0 DUP2 SWAP1 POP SWAP2 SWAP1 POP JUMP JUMPDEST PUSH1 0x0 JUMPDEST DUP4 DUP2 LT ISZERO PUSH2 0xE3D JUMPI DUP1 DUP3 ADD MLOAD DUP2 DUP5 ADD MSTORE PUSH1 0x20 DUP2 ADD SWAP1 POP PUSH2 0xE22 JUMP JUMPDEST DUP4 DUP2 GT ISZERO PUSH2 0xE4C JUMPI PUSH1 0x0 DUP5 DUP5 ADD MSTORE JUMPDEST POP POP POP POP JUMP JUMPDEST PUSH1 0x0 PUSH1 0x2 DUP3 DIV SWAP1 POP PUSH1 0x1 DUP3 AND DUP1 PUSH2 0xE6A JUMPI PUSH1 0x7F DUP3 AND SWAP2 POP JUMPDEST PUSH1 0x20 DUP3 LT DUP2 EQ ISZERO PUSH2 0xE7E JUMPI PUSH2 0xE7D PUSH2 0xEB3 JUMP JUMPDEST JUMPDEST POP SWAP2 SWAP1 POP JUMP JUMPDEST PUSH32 0x4E487B7100000000000000000000000000000000000000000000000000000000 PUSH1 0x0 MSTORE PUSH1 0x11 PUSH1 0x4 MSTORE PUSH1 0x24 PUSH1 0x0 REVERT JUMPDEST PUSH32 0x4E487B7100000000000000000000000000000000000000000000000000000000 PUSH1 0x0 MSTORE PUSH1 0x22 PUSH1 0x4 MSTORE PUSH1 0x24 PUSH1 0x0 REVERT JUMPDEST PUSH1 0x0 DUP1 REVERT JUMPDEST PUSH1 0x0 PUSH1 0x1F NOT PUSH1 0x1F DUP4 ADD AND SWAP1 POP SWAP2 SWAP1 POP JUMP JUMPDEST PUSH2 0xF01 DUP2 PUSH2 0xDD7 JUMP JUMPDEST DUP2 EQ PUSH2 0xF0C JUMPI PUSH1 0x0 DUP1 REVERT JUMPDEST POP JUMP JUMPDEST PUSH2 0xF18 DUP2 PUSH2 0xE15 JUMP JUMPDEST DUP2 EQ PUSH2 0xF23 JUMPI PUSH1 0x0 DUP1 REVERT JUMPDEST POP JUMP INVALID LOG2 PUSH5 0x6970667358 0x22 SLT KECCAK256 DUP1 0xB9 SWAP13 0xC1 BALANCE 0xC2 0xE9 0xCA 0xA7 0xC3 CREATE 0xD1 0xAB SWAP12 GT SWAP2 DIFFICULTY 0xE9 0xAB CODESIZE 0xB0 0xB2 SELFDESTRUCT 0xF SWAP3 SWAP11 GAS PUSH12 0x5537B73764736F6C63430008 SMOD STOP CALLER "
				},
				"gasEstimates": {
					"creation": {
						"codeDepositCost": "786400",
						"executionCost": "infinite",
						"totalCost": "infinite"
					},
					"external": {
						"accountKeys(uint256)": "5023",
						"allowance(address,address)": "infinite",
						"approve(address,uint256)": "infinite",
						"balanceOf(address)": "2836",
						"decimals()": "2429",
						"indexOf(address)": "2924",
						"isInserted(address)": "3022",
						"name()": "infinite",
						"symbol()": "infinite",
						"totalSupply()": "2474",
						"transfer(address,uint256)": "infinite",
						"transferFrom(address,address,uint256)": "infinite"
					},
					"internal": {
						"_transfer(address,address,uint256)": "infinite",
						"setBalance(address,uint256)": "97419"
					}
				},
				"methodIdentifiers": {
					"accountKeys(uint256)": "1e2eb088",
					"allowance(address,address)": "dd62ed3e",
					"approve(address,uint256)": "095ea7b3",
					"balanceOf(address)": "70a08231",
					"decimals()": "313ce567",
					"indexOf(address)": "fd6aad25",
					"isInserted(address)": "29b57c14",
					"name()": "06fdde03",
					"symbol()": "95d89b41",
					"totalSupply()": "18160ddd",
					"transfer(address,uint256)": "a9059cbb",
					"transferFrom(address,address,uint256)": "23b872dd"
				}
			},
			"storageLayout": {
				"storage": [
					{
						"astId": 4,
						"contract": "V1/Contracts/sponsorCoin/SPC_Token.sol:SPC_Token",
						"label": "name",
						"offset": 0,
						"slot": "0",
						"type": "t_string_storage"
					},
					{
						"astId": 6,
						"contract": "V1/Contracts/sponsorCoin/SPC_Token.sol:SPC_Token",
						"label": "symbol",
						"offset": 0,
						"slot": "1",
						"type": "t_string_storage"
					},
					{
						"astId": 8,
						"contract": "V1/Contracts/sponsorCoin/SPC_Token.sol:SPC_Token",
						"label": "decimals",
						"offset": 0,
						"slot": "2",
						"type": "t_uint256"
					},
					{
						"astId": 10,
						"contract": "V1/Contracts/sponsorCoin/SPC_Token.sol:SPC_Token",
						"label": "totalSupply",
						"offset": 0,
						"slot": "3",
						"type": "t_uint256"
					},
					{
						"astId": 14,
						"contract": "V1/Contracts/sponsorCoin/SPC_Token.sol:SPC_Token",
						"label": "balanceOf",
						"offset": 0,
						"slot": "4",
						"type": "t_mapping(t_address,t_uint256)"
					},
					{
						"astId": 20,
						"contract": "V1/Contracts/sponsorCoin/SPC_Token.sol:SPC_Token",
						"label": "allowance",
						"offset": 0,
						"slot": "5",
						"type": "t_mapping(t_address,t_mapping(t_address,t_uint256))"
					},
					{
						"astId": 23,
						"contract": "V1/Contracts/sponsorCoin/SPC_Token.sol:SPC_Token",
						"label": "accountKeys",
						"offset": 0,
						"slot": "6",
						"type": "t_array(t_address)dyn_storage"
					},
					{
						"astId": 27,
						"contract": "V1/Contracts/sponsorCoin/SPC_Token.sol:SPC_Token",
						"label": "indexOf",
						"offset": 0,
						"slot": "7",
						"type": "t_mapping(t_address,t_uint256)"
					},
					{
						"astId": 31,
						"contract": "V1/Contracts/sponsorCoin/SPC_Token.sol:SPC_Token",
						"label": "inserted",
						"offset": 0,
						"slot": "8",
						"type": "t_mapping(t_address,t_bool)"
					}
				],
				"types": {
					"t_address": {
						"encoding": "inplace",
						"label": "address",
						"numberOfBytes": "20"
					},
					"t_array(t_address)dyn_storage": {
						"base": "t_address",
						"encoding": "dynamic_array",
						"label": "address[]",
						"numberOfBytes": "32"
					},
					"t_bool": {
						"encoding": "inplace",
						"label": "bool",
						"numberOfBytes": "1"
					},
					"t_mapping(t_address,t_bool)": {
						"encoding": "mapping",
						"key": "t_address",
						"label": "mapping(address => bool)",
						"numberOfBytes": "32",
						"value": "t_bool"
					},
					"t_mapping(t_address,t_mapping(t_address,t_uint256))": {
						"encoding": "mapping",
						"key": "t_address",
						"label": "mapping(address => mapping(address => uint256))",
						"numberOfBytes": "32",
						"value": "t_mapping(t_address,t_uint256)"
					},
					"t_mapping(t_address,t_uint256)": {
						"encoding": "mapping",
						"key": "t_address",
						"label": "mapping(address => uint256)",
						"numberOfBytes": "32",
						"value": "t_uint256"
					},
					"t_string_storage": {
						"encoding": "bytes",
						"label": "string",
						"numberOfBytes": "32"
					},
					"t_uint256": {
						"encoding": "inplace",
						"label": "uint256",
						"numberOfBytes": "32"
					}
				}
			},
			"userdoc": {
				"kind": "user",
				"methods": {
					"approve(address,uint256)": {
						"notice": "Approve other to spend on your behalf eg an exchange "
					},
					"transfer(address,uint256)": {
						"notice": "transfer amount of tokens to an address"
					},
					"transferFrom(address,address,uint256)": {
						"notice": "transfer by approved person from original address of an amount within approved limit "
					}
				},
				"version": 1
			}
		}
	}
}