{
	"V1/Contracts/lib/IterableMapping.sol": {
		"TestIterableMap": {
			"abi": [
				{
					"inputs": [],
					"name": "testIterableMap",
					"outputs": [],
					"stateMutability": "nonpayable",
					"type": "function"
				}
			],
			"devdoc": {
				"kind": "dev",
				"methods": {},
				"version": 1
			},
			"evm": {
				"assembly": "    /* \"V1/Contracts/lib/IterableMapping.sol\":1523:2342  contract TestIterableMap {... */\n  mstore(0x40, 0x80)\n  callvalue\n  dup1\n  iszero\n  tag_1\n  jumpi\n  0x00\n  dup1\n  revert\ntag_1:\n  pop\n  dataSize(sub_0)\n  dup1\n  dataOffset(sub_0)\n  0x00\n  codecopy\n  0x00\n  return\nstop\n\nsub_0: assembly {\n        /* \"V1/Contracts/lib/IterableMapping.sol\":1523:2342  contract TestIterableMap {... */\n      mstore(0x40, 0x80)\n      callvalue\n      dup1\n      iszero\n      tag_1\n      jumpi\n      0x00\n      dup1\n      revert\n    tag_1:\n      pop\n      jumpi(tag_2, lt(calldatasize, 0x04))\n      shr(0xe0, calldataload(0x00))\n      dup1\n      0xd230a0d5\n      eq\n      tag_3\n      jumpi\n    tag_2:\n      0x00\n      dup1\n      revert\n        /* \"V1/Contracts/lib/IterableMapping.sol\":1649:2339  function testIterableMap() public {... */\n    tag_3:\n      tag_4\n      tag_5\n      jump\t// in\n    tag_4:\n      stop\n    tag_5:\n        /* \"V1/Contracts/lib/IterableMapping.sol\":1694:1697  map */\n      0x00\n        /* \"V1/Contracts/lib/IterableMapping.sol\":1694:1701  map.set */\n      linkerSymbol(\"3034370f6241cefc0acbf379f4e65db268cea80ec685344f500012df2339648f\")\n      0xbc2b405c\n      swap1\n      swap2\n        /* \"V1/Contracts/lib/IterableMapping.sol\":1710:1711  0 */\n      0x00\n        /* \"V1/Contracts/lib/IterableMapping.sol\":1714:1715  0 */\n      dup1\n        /* \"V1/Contracts/lib/IterableMapping.sol\":1694:1716  map.set(address(0), 0) */\n      mload(0x40)\n      dup5\n      0xffffffff\n      and\n      0xe0\n      shl\n      dup2\n      mstore\n      0x04\n      add\n      tag_7\n      swap4\n      swap3\n      swap2\n      swap1\n      tag_8\n      jump\t// in\n    tag_7:\n      0x00\n      mload(0x40)\n      dup1\n      dup4\n      sub\n      dup2\n      dup7\n      dup1\n      extcodesize\n      iszero\n      dup1\n      iszero\n      tag_9\n      jumpi\n      0x00\n      dup1\n      revert\n    tag_9:\n      pop\n      gas\n      delegatecall\n      iszero\n      dup1\n      iszero\n      tag_11\n      jumpi\n      returndatasize\n      0x00\n      dup1\n      returndatacopy\n      revert(0x00, returndatasize)\n    tag_11:\n      pop\n      pop\n      pop\n      pop\n        /* \"V1/Contracts/lib/IterableMapping.sol\":1727:1730  map */\n      0x00\n        /* \"V1/Contracts/lib/IterableMapping.sol\":1727:1734  map.set */\n      linkerSymbol(\"3034370f6241cefc0acbf379f4e65db268cea80ec685344f500012df2339648f\")\n      0xbc2b405c\n      swap1\n      swap2\n        /* \"V1/Contracts/lib/IterableMapping.sol\":1743:1744  1 */\n      0x01\n        /* \"V1/Contracts/lib/IterableMapping.sol\":1747:1750  100 */\n      0x64\n        /* \"V1/Contracts/lib/IterableMapping.sol\":1727:1751  map.set(address(1), 100) */\n      mload(0x40)\n      dup5\n      0xffffffff\n      and\n      0xe0\n      shl\n      dup2\n      mstore\n      0x04\n      add\n      tag_12\n      swap4\n      swap3\n      swap2\n      swap1\n      tag_13\n      jump\t// in\n    tag_12:\n      0x00\n      mload(0x40)\n      dup1\n      dup4\n      sub\n      dup2\n      dup7\n      dup1\n      extcodesize\n      iszero\n      dup1\n      iszero\n      tag_14\n      jumpi\n      0x00\n      dup1\n      revert\n    tag_14:\n      pop\n      gas\n      delegatecall\n      iszero\n      dup1\n      iszero\n      tag_16\n      jumpi\n      returndatasize\n      0x00\n      dup1\n      returndatacopy\n      revert(0x00, returndatasize)\n    tag_16:\n      pop\n      pop\n      pop\n      pop\n        /* \"V1/Contracts/lib/IterableMapping.sol\":1762:1765  map */\n      0x00\n        /* \"V1/Contracts/lib/IterableMapping.sol\":1762:1769  map.set */\n      linkerSymbol(\"3034370f6241cefc0acbf379f4e65db268cea80ec685344f500012df2339648f\")\n      0xbc2b405c\n      swap1\n      swap2\n        /* \"V1/Contracts/lib/IterableMapping.sol\":1778:1779  2 */\n      0x02\n        /* \"V1/Contracts/lib/IterableMapping.sol\":1782:1785  200 */\n      0xc8\n        /* \"V1/Contracts/lib/IterableMapping.sol\":1762:1786  map.set(address(2), 200) */\n      mload(0x40)\n      dup5\n      0xffffffff\n      and\n      0xe0\n      shl\n      dup2\n      mstore\n      0x04\n      add\n      tag_17\n      swap4\n      swap3\n      swap2\n      swap1\n      tag_18\n      jump\t// in\n    tag_17:\n      0x00\n      mload(0x40)\n      dup1\n      dup4\n      sub\n      dup2\n      dup7\n      dup1\n      extcodesize\n      iszero\n      dup1\n      iszero\n      tag_19\n      jumpi\n      0x00\n      dup1\n      revert\n    tag_19:\n      pop\n      gas\n      delegatecall\n      iszero\n      dup1\n      iszero\n      tag_21\n      jumpi\n      returndatasize\n      0x00\n      dup1\n      returndatacopy\n      revert(0x00, returndatasize)\n    tag_21:\n      pop\n      pop\n      pop\n      pop\n        /* \"V1/Contracts/lib/IterableMapping.sol\":1807:1810  map */\n      0x00\n        /* \"V1/Contracts/lib/IterableMapping.sol\":1807:1814  map.set */\n      linkerSymbol(\"3034370f6241cefc0acbf379f4e65db268cea80ec685344f500012df2339648f\")\n      0xbc2b405c\n      swap1\n      swap2\n        /* \"V1/Contracts/lib/IterableMapping.sol\":1823:1824  2 */\n      0x02\n        /* \"V1/Contracts/lib/IterableMapping.sol\":1827:1830  200 */\n      0xc8\n        /* \"V1/Contracts/lib/IterableMapping.sol\":1807:1831  map.set(address(2), 200) */\n      mload(0x40)\n      dup5\n      0xffffffff\n      and\n      0xe0\n      shl\n      dup2\n      mstore\n      0x04\n      add\n      tag_22\n      swap4\n      swap3\n      swap2\n      swap1\n      tag_18\n      jump\t// in\n    tag_22:\n      0x00\n      mload(0x40)\n      dup1\n      dup4\n      sub\n      dup2\n      dup7\n      dup1\n      extcodesize\n      iszero\n      dup1\n      iszero\n      tag_23\n      jumpi\n      0x00\n      dup1\n      revert\n    tag_23:\n      pop\n      gas\n      delegatecall\n      iszero\n      dup1\n      iszero\n      tag_25\n      jumpi\n      returndatasize\n      0x00\n      dup1\n      returndatacopy\n      revert(0x00, returndatasize)\n    tag_25:\n      pop\n      pop\n      pop\n      pop\n        /* \"V1/Contracts/lib/IterableMapping.sol\":1852:1855  map */\n      0x00\n        /* \"V1/Contracts/lib/IterableMapping.sol\":1852:1859  map.set */\n      linkerSymbol(\"3034370f6241cefc0acbf379f4e65db268cea80ec685344f500012df2339648f\")\n      0xbc2b405c\n      swap1\n      swap2\n        /* \"V1/Contracts/lib/IterableMapping.sol\":1868:1869  3 */\n      0x03\n        /* \"V1/Contracts/lib/IterableMapping.sol\":1872:1875  300 */\n      0x012c\n        /* \"V1/Contracts/lib/IterableMapping.sol\":1852:1876  map.set(address(3), 300) */\n      mload(0x40)\n      dup5\n      0xffffffff\n      and\n      0xe0\n      shl\n      dup2\n      mstore\n      0x04\n      add\n      tag_26\n      swap4\n      swap3\n      swap2\n      swap1\n      tag_27\n      jump\t// in\n    tag_26:\n      0x00\n      mload(0x40)\n      dup1\n      dup4\n      sub\n      dup2\n      dup7\n      dup1\n      extcodesize\n      iszero\n      dup1\n      iszero\n      tag_28\n      jumpi\n      0x00\n      dup1\n      revert\n    tag_28:\n      pop\n      gas\n      delegatecall\n      iszero\n      dup1\n      iszero\n      tag_30\n      jumpi\n      returndatasize\n      0x00\n      dup1\n      returndatacopy\n      revert(0x00, returndatasize)\n    tag_30:\n      pop\n      pop\n      pop\n      pop\n        /* \"V1/Contracts/lib/IterableMapping.sol\":1894:1900  uint i */\n      0x00\n        /* \"V1/Contracts/lib/IterableMapping.sol\":1889:2038  for (uint i = 0; i < map.size(); i++) {... */\n    tag_31:\n        /* \"V1/Contracts/lib/IterableMapping.sol\":1910:1913  map */\n      0x00\n        /* \"V1/Contracts/lib/IterableMapping.sol\":1910:1918  map.size */\n      linkerSymbol(\"3034370f6241cefc0acbf379f4e65db268cea80ec685344f500012df2339648f\")\n      0xdeb3d896\n      swap1\n      swap2\n        /* \"V1/Contracts/lib/IterableMapping.sol\":1910:1920  map.size() */\n      mload(0x40)\n      dup3\n      0xffffffff\n      and\n      0xe0\n      shl\n      dup2\n      mstore\n      0x04\n      add\n      tag_34\n      swap2\n      swap1\n      tag_35\n      jump\t// in\n    tag_34:\n      0x20\n      mload(0x40)\n      dup1\n      dup4\n      sub\n      dup2\n      dup7\n      gas\n      delegatecall\n      iszero\n      dup1\n      iszero\n      tag_37\n      jumpi\n      returndatasize\n      0x00\n      dup1\n      returndatacopy\n      revert(0x00, returndatasize)\n    tag_37:\n      pop\n      pop\n      pop\n      pop\n      mload(0x40)\n      returndatasize\n      not(0x1f)\n      0x1f\n      dup3\n      add\n      and\n      dup3\n      add\n      dup1\n      0x40\n      mstore\n      pop\n      dup2\n      add\n      swap1\n      tag_38\n      swap2\n      swap1\n      tag_39\n      jump\t// in\n    tag_38:\n        /* \"V1/Contracts/lib/IterableMapping.sol\":1906:1907  i */\n      dup2\n        /* \"V1/Contracts/lib/IterableMapping.sol\":1906:1920  i < map.size() */\n      lt\n        /* \"V1/Contracts/lib/IterableMapping.sol\":1889:2038  for (uint i = 0; i < map.size(); i++) {... */\n      iszero\n      tag_32\n      jumpi\n        /* \"V1/Contracts/lib/IterableMapping.sol\":1942:1953  address key */\n      0x00\n        /* \"V1/Contracts/lib/IterableMapping.sol\":1956:1959  map */\n      dup1\n        /* \"V1/Contracts/lib/IterableMapping.sol\":1956:1973  map.getKeyAtIndex */\n      linkerSymbol(\"3034370f6241cefc0acbf379f4e65db268cea80ec685344f500012df2339648f\")\n      0xd1aa9e7e\n      swap1\n      swap2\n        /* \"V1/Contracts/lib/IterableMapping.sol\":1974:1975  i */\n      dup5\n        /* \"V1/Contracts/lib/IterableMapping.sol\":1956:1976  map.getKeyAtIndex(i) */\n      mload(0x40)\n      dup4\n      0xffffffff\n      and\n      0xe0\n      shl\n      dup2\n      mstore\n      0x04\n      add\n      tag_40\n      swap3\n      swap2\n      swap1\n      tag_41\n      jump\t// in\n    tag_40:\n      0x20\n      mload(0x40)\n      dup1\n      dup4\n      sub\n      dup2\n      dup7\n      gas\n      delegatecall\n      iszero\n      dup1\n      iszero\n      tag_43\n      jumpi\n      returndatasize\n      0x00\n      dup1\n      returndatacopy\n      revert(0x00, returndatasize)\n    tag_43:\n      pop\n      pop\n      pop\n      pop\n      mload(0x40)\n      returndatasize\n      not(0x1f)\n      0x1f\n      dup3\n      add\n      and\n      dup3\n      add\n      dup1\n      0x40\n      mstore\n      pop\n      dup2\n      add\n      swap1\n      tag_44\n      swap2\n      swap1\n      tag_45\n      jump\t// in\n    tag_44:\n        /* \"V1/Contracts/lib/IterableMapping.sol\":1942:1976  address key = map.getKeyAtIndex(i) */\n      swap1\n      pop\n        /* \"V1/Contracts/lib/IterableMapping.sol\":1927:2038  {... */\n      pop\n        /* \"V1/Contracts/lib/IterableMapping.sol\":1922:1925  i++ */\n      dup1\n      dup1\n      tag_46\n      swap1\n      tag_47\n      jump\t// in\n    tag_46:\n      swap2\n      pop\n      pop\n        /* \"V1/Contracts/lib/IterableMapping.sol\":1889:2038  for (uint i = 0; i < map.size(); i++) {... */\n      jump(tag_31)\n    tag_32:\n      pop\n        /* \"V1/Contracts/lib/IterableMapping.sol\":2050:2053  map */\n      0x00\n        /* \"V1/Contracts/lib/IterableMapping.sol\":2050:2060  map.remove */\n      linkerSymbol(\"3034370f6241cefc0acbf379f4e65db268cea80ec685344f500012df2339648f\")\n      0x4c60db9c\n      swap1\n      swap2\n        /* \"V1/Contracts/lib/IterableMapping.sol\":2069:2070  1 */\n      0x01\n        /* \"V1/Contracts/lib/IterableMapping.sol\":2050:2072  map.remove(address(1)) */\n      mload(0x40)\n      dup4\n      0xffffffff\n      and\n      0xe0\n      shl\n      dup2\n      mstore\n      0x04\n      add\n      tag_48\n      swap3\n      swap2\n      swap1\n      tag_49\n      jump\t// in\n    tag_48:\n      0x00\n      mload(0x40)\n      dup1\n      dup4\n      sub\n      dup2\n      dup7\n      dup1\n      extcodesize\n      iszero\n      dup1\n      iszero\n      tag_50\n      jumpi\n      0x00\n      dup1\n      revert\n    tag_50:\n      pop\n      gas\n      delegatecall\n      iszero\n      dup1\n      iszero\n      tag_52\n      jumpi\n      returndatasize\n      0x00\n      dup1\n      returndatacopy\n      revert(0x00, returndatasize)\n    tag_52:\n      pop\n      pop\n      pop\n      pop\n        /* \"V1/Contracts/lib/IterableMapping.sol\":1649:2339  function testIterableMap() public {... */\n      jump\t// out\n        /* \"#utility.yul\":7:134   */\n    tag_53:\n        /* \"#utility.yul\":122:127   */\n      dup1\n        /* \"#utility.yul\":117:120   */\n      dup3\n        /* \"#utility.yul\":110:128   */\n      mstore\n        /* \"#utility.yul\":7:134   */\n      pop\n      pop\n      jump\t// out\n        /* \"#utility.yul\":140:266   */\n    tag_54:\n        /* \"#utility.yul\":177:184   */\n      0x00\n        /* \"#utility.yul\":217:259   */\n      0xffffffffffffffffffffffffffffffffffffffff\n        /* \"#utility.yul\":210:215   */\n      dup3\n        /* \"#utility.yul\":206:260   */\n      and\n        /* \"#utility.yul\":195:260   */\n      swap1\n      pop\n        /* \"#utility.yul\":140:266   */\n      swap2\n      swap1\n      pop\n      jump\t// out\n        /* \"#utility.yul\":272:368   */\n    tag_55:\n        /* \"#utility.yul\":309:316   */\n      0x00\n        /* \"#utility.yul\":338:362   */\n      tag_84\n        /* \"#utility.yul\":356:361   */\n      dup3\n        /* \"#utility.yul\":338:362   */\n      tag_54\n      jump\t// in\n    tag_84:\n        /* \"#utility.yul\":327:362   */\n      swap1\n      pop\n        /* \"#utility.yul\":272:368   */\n      swap2\n      swap1\n      pop\n      jump\t// out\n        /* \"#utility.yul\":374:500   */\n    tag_56:\n        /* \"#utility.yul\":469:493   */\n      tag_86\n        /* \"#utility.yul\":487:492   */\n      dup2\n        /* \"#utility.yul\":469:493   */\n      tag_55\n      jump\t// in\n    tag_86:\n        /* \"#utility.yul\":464:467   */\n      dup3\n        /* \"#utility.yul\":457:494   */\n      mstore\n        /* \"#utility.yul\":374:500   */\n      pop\n      pop\n      jump\t// out\n        /* \"#utility.yul\":506:591   */\n    tag_57:\n        /* \"#utility.yul\":551:558   */\n      0x00\n        /* \"#utility.yul\":580:585   */\n      dup2\n        /* \"#utility.yul\":569:585   */\n      swap1\n      pop\n        /* \"#utility.yul\":506:591   */\n      swap2\n      swap1\n      pop\n      jump\t// out\n        /* \"#utility.yul\":597:674   */\n    tag_58:\n        /* \"#utility.yul\":634:641   */\n      0x00\n        /* \"#utility.yul\":663:668   */\n      dup2\n        /* \"#utility.yul\":652:668   */\n      swap1\n      pop\n        /* \"#utility.yul\":597:674   */\n      swap2\n      swap1\n      pop\n      jump\t// out\n        /* \"#utility.yul\":680:740   */\n    tag_59:\n        /* \"#utility.yul\":708:711   */\n      0x00\n        /* \"#utility.yul\":729:734   */\n      dup2\n        /* \"#utility.yul\":722:734   */\n      swap1\n      pop\n        /* \"#utility.yul\":680:740   */\n      swap2\n      swap1\n      pop\n      jump\t// out\n        /* \"#utility.yul\":746:904   */\n    tag_60:\n        /* \"#utility.yul\":804:813   */\n      0x00\n        /* \"#utility.yul\":837:898   */\n      tag_91\n        /* \"#utility.yul\":855:897   */\n      tag_92\n        /* \"#utility.yul\":864:896   */\n      tag_93\n        /* \"#utility.yul\":890:895   */\n      dup5\n        /* \"#utility.yul\":864:896   */\n      tag_57\n      jump\t// in\n    tag_93:\n        /* \"#utility.yul\":855:897   */\n      tag_59\n      jump\t// in\n    tag_92:\n        /* \"#utility.yul\":837:898   */\n      tag_58\n      jump\t// in\n    tag_91:\n        /* \"#utility.yul\":824:898   */\n      swap1\n      pop\n        /* \"#utility.yul\":746:904   */\n      swap2\n      swap1\n      pop\n      jump\t// out\n        /* \"#utility.yul\":910:1065   */\n    tag_61:\n        /* \"#utility.yul\":1013:1058   */\n      tag_95\n        /* \"#utility.yul\":1052:1057   */\n      dup2\n        /* \"#utility.yul\":1013:1058   */\n      tag_60\n      jump\t// in\n    tag_95:\n        /* \"#utility.yul\":1008:1011   */\n      dup3\n        /* \"#utility.yul\":1001:1059   */\n      mstore\n        /* \"#utility.yul\":910:1065   */\n      pop\n      pop\n      jump\t// out\n        /* \"#utility.yul\":1071:1601   */\n    tag_8:\n        /* \"#utility.yul\":1256:1260   */\n      0x00\n        /* \"#utility.yul\":1294:1296   */\n      0x60\n        /* \"#utility.yul\":1283:1292   */\n      dup3\n        /* \"#utility.yul\":1279:1297   */\n      add\n        /* \"#utility.yul\":1271:1297   */\n      swap1\n      pop\n        /* \"#utility.yul\":1307:1406   */\n      tag_97\n        /* \"#utility.yul\":1403:1404   */\n      0x00\n        /* \"#utility.yul\":1392:1401   */\n      dup4\n        /* \"#utility.yul\":1388:1405   */\n      add\n        /* \"#utility.yul\":1379:1385   */\n      dup7\n        /* \"#utility.yul\":1307:1406   */\n      tag_53\n      jump\t// in\n    tag_97:\n        /* \"#utility.yul\":1416:1496   */\n      tag_98\n        /* \"#utility.yul\":1492:1494   */\n      0x20\n        /* \"#utility.yul\":1481:1490   */\n      dup4\n        /* \"#utility.yul\":1477:1495   */\n      add\n        /* \"#utility.yul\":1468:1474   */\n      dup6\n        /* \"#utility.yul\":1416:1496   */\n      tag_56\n      jump\t// in\n    tag_98:\n        /* \"#utility.yul\":1506:1594   */\n      tag_99\n        /* \"#utility.yul\":1590:1592   */\n      0x40\n        /* \"#utility.yul\":1579:1588   */\n      dup4\n        /* \"#utility.yul\":1575:1593   */\n      add\n        /* \"#utility.yul\":1566:1572   */\n      dup5\n        /* \"#utility.yul\":1506:1594   */\n      tag_61\n      jump\t// in\n    tag_99:\n        /* \"#utility.yul\":1071:1601   */\n      swap5\n      swap4\n      pop\n      pop\n      pop\n      pop\n      jump\t// out\n        /* \"#utility.yul\":1607:1694   */\n    tag_62:\n        /* \"#utility.yul\":1654:1661   */\n      0x00\n        /* \"#utility.yul\":1683:1688   */\n      dup2\n        /* \"#utility.yul\":1672:1688   */\n      swap1\n      pop\n        /* \"#utility.yul\":1607:1694   */\n      swap2\n      swap1\n      pop\n      jump\t// out\n        /* \"#utility.yul\":1700:1862   */\n    tag_63:\n        /* \"#utility.yul\":1760:1769   */\n      0x00\n        /* \"#utility.yul\":1793:1856   */\n      tag_102\n        /* \"#utility.yul\":1811:1855   */\n      tag_103\n        /* \"#utility.yul\":1820:1854   */\n      tag_104\n        /* \"#utility.yul\":1848:1853   */\n      dup5\n        /* \"#utility.yul\":1820:1854   */\n      tag_62\n      jump\t// in\n    tag_104:\n        /* \"#utility.yul\":1811:1855   */\n      tag_59\n      jump\t// in\n    tag_103:\n        /* \"#utility.yul\":1793:1856   */\n      tag_58\n      jump\t// in\n    tag_102:\n        /* \"#utility.yul\":1780:1856   */\n      swap1\n      pop\n        /* \"#utility.yul\":1700:1862   */\n      swap2\n      swap1\n      pop\n      jump\t// out\n        /* \"#utility.yul\":1868:2027   */\n    tag_64:\n        /* \"#utility.yul\":1973:2020   */\n      tag_106\n        /* \"#utility.yul\":2014:2019   */\n      dup2\n        /* \"#utility.yul\":1973:2020   */\n      tag_63\n      jump\t// in\n    tag_106:\n        /* \"#utility.yul\":1968:1971   */\n      dup3\n        /* \"#utility.yul\":1961:2021   */\n      mstore\n        /* \"#utility.yul\":1868:2027   */\n      pop\n      pop\n      jump\t// out\n        /* \"#utility.yul\":2033:2567   */\n    tag_13:\n        /* \"#utility.yul\":2220:2224   */\n      0x00\n        /* \"#utility.yul\":2258:2260   */\n      0x60\n        /* \"#utility.yul\":2247:2256   */\n      dup3\n        /* \"#utility.yul\":2243:2261   */\n      add\n        /* \"#utility.yul\":2235:2261   */\n      swap1\n      pop\n        /* \"#utility.yul\":2271:2370   */\n      tag_108\n        /* \"#utility.yul\":2367:2368   */\n      0x00\n        /* \"#utility.yul\":2356:2365   */\n      dup4\n        /* \"#utility.yul\":2352:2369   */\n      add\n        /* \"#utility.yul\":2343:2349   */\n      dup7\n        /* \"#utility.yul\":2271:2370   */\n      tag_53\n      jump\t// in\n    tag_108:\n        /* \"#utility.yul\":2380:2460   */\n      tag_109\n        /* \"#utility.yul\":2456:2458   */\n      0x20\n        /* \"#utility.yul\":2445:2454   */\n      dup4\n        /* \"#utility.yul\":2441:2459   */\n      add\n        /* \"#utility.yul\":2432:2438   */\n      dup6\n        /* \"#utility.yul\":2380:2460   */\n      tag_56\n      jump\t// in\n    tag_109:\n        /* \"#utility.yul\":2470:2560   */\n      tag_110\n        /* \"#utility.yul\":2556:2558   */\n      0x40\n        /* \"#utility.yul\":2545:2554   */\n      dup4\n        /* \"#utility.yul\":2541:2559   */\n      add\n        /* \"#utility.yul\":2532:2538   */\n      dup5\n        /* \"#utility.yul\":2470:2560   */\n      tag_64\n      jump\t// in\n    tag_110:\n        /* \"#utility.yul\":2033:2567   */\n      swap5\n      swap4\n      pop\n      pop\n      pop\n      pop\n      jump\t// out\n        /* \"#utility.yul\":2573:2660   */\n    tag_65:\n        /* \"#utility.yul\":2620:2627   */\n      0x00\n        /* \"#utility.yul\":2649:2654   */\n      dup2\n        /* \"#utility.yul\":2638:2654   */\n      swap1\n      pop\n        /* \"#utility.yul\":2573:2660   */\n      swap2\n      swap1\n      pop\n      jump\t// out\n        /* \"#utility.yul\":2666:2828   */\n    tag_66:\n        /* \"#utility.yul\":2726:2735   */\n      0x00\n        /* \"#utility.yul\":2759:2822   */\n      tag_113\n        /* \"#utility.yul\":2777:2821   */\n      tag_114\n        /* \"#utility.yul\":2786:2820   */\n      tag_115\n        /* \"#utility.yul\":2814:2819   */\n      dup5\n        /* \"#utility.yul\":2786:2820   */\n      tag_65\n      jump\t// in\n    tag_115:\n        /* \"#utility.yul\":2777:2821   */\n      tag_59\n      jump\t// in\n    tag_114:\n        /* \"#utility.yul\":2759:2822   */\n      tag_58\n      jump\t// in\n    tag_113:\n        /* \"#utility.yul\":2746:2822   */\n      swap1\n      pop\n        /* \"#utility.yul\":2666:2828   */\n      swap2\n      swap1\n      pop\n      jump\t// out\n        /* \"#utility.yul\":2834:2993   */\n    tag_67:\n        /* \"#utility.yul\":2939:2986   */\n      tag_117\n        /* \"#utility.yul\":2980:2985   */\n      dup2\n        /* \"#utility.yul\":2939:2986   */\n      tag_66\n      jump\t// in\n    tag_117:\n        /* \"#utility.yul\":2934:2937   */\n      dup3\n        /* \"#utility.yul\":2927:2987   */\n      mstore\n        /* \"#utility.yul\":2834:2993   */\n      pop\n      pop\n      jump\t// out\n        /* \"#utility.yul\":2999:3533   */\n    tag_18:\n        /* \"#utility.yul\":3186:3190   */\n      0x00\n        /* \"#utility.yul\":3224:3226   */\n      0x60\n        /* \"#utility.yul\":3213:3222   */\n      dup3\n        /* \"#utility.yul\":3209:3227   */\n      add\n        /* \"#utility.yul\":3201:3227   */\n      swap1\n      pop\n        /* \"#utility.yul\":3237:3336   */\n      tag_119\n        /* \"#utility.yul\":3333:3334   */\n      0x00\n        /* \"#utility.yul\":3322:3331   */\n      dup4\n        /* \"#utility.yul\":3318:3335   */\n      add\n        /* \"#utility.yul\":3309:3315   */\n      dup7\n        /* \"#utility.yul\":3237:3336   */\n      tag_53\n      jump\t// in\n    tag_119:\n        /* \"#utility.yul\":3346:3426   */\n      tag_120\n        /* \"#utility.yul\":3422:3424   */\n      0x20\n        /* \"#utility.yul\":3411:3420   */\n      dup4\n        /* \"#utility.yul\":3407:3425   */\n      add\n        /* \"#utility.yul\":3398:3404   */\n      dup6\n        /* \"#utility.yul\":3346:3426   */\n      tag_56\n      jump\t// in\n    tag_120:\n        /* \"#utility.yul\":3436:3526   */\n      tag_121\n        /* \"#utility.yul\":3522:3524   */\n      0x40\n        /* \"#utility.yul\":3511:3520   */\n      dup4\n        /* \"#utility.yul\":3507:3525   */\n      add\n        /* \"#utility.yul\":3498:3504   */\n      dup5\n        /* \"#utility.yul\":3436:3526   */\n      tag_67\n      jump\t// in\n    tag_121:\n        /* \"#utility.yul\":2999:3533   */\n      swap5\n      swap4\n      pop\n      pop\n      pop\n      pop\n      jump\t// out\n        /* \"#utility.yul\":3539:3626   */\n    tag_68:\n        /* \"#utility.yul\":3586:3593   */\n      0x00\n        /* \"#utility.yul\":3615:3620   */\n      dup2\n        /* \"#utility.yul\":3604:3620   */\n      swap1\n      pop\n        /* \"#utility.yul\":3539:3626   */\n      swap2\n      swap1\n      pop\n      jump\t// out\n        /* \"#utility.yul\":3632:3794   */\n    tag_69:\n        /* \"#utility.yul\":3692:3701   */\n      0x00\n        /* \"#utility.yul\":3725:3788   */\n      tag_124\n        /* \"#utility.yul\":3743:3787   */\n      tag_125\n        /* \"#utility.yul\":3752:3786   */\n      tag_126\n        /* \"#utility.yul\":3780:3785   */\n      dup5\n        /* \"#utility.yul\":3752:3786   */\n      tag_68\n      jump\t// in\n    tag_126:\n        /* \"#utility.yul\":3743:3787   */\n      tag_59\n      jump\t// in\n    tag_125:\n        /* \"#utility.yul\":3725:3788   */\n      tag_58\n      jump\t// in\n    tag_124:\n        /* \"#utility.yul\":3712:3788   */\n      swap1\n      pop\n        /* \"#utility.yul\":3632:3794   */\n      swap2\n      swap1\n      pop\n      jump\t// out\n        /* \"#utility.yul\":3800:3959   */\n    tag_70:\n        /* \"#utility.yul\":3905:3952   */\n      tag_128\n        /* \"#utility.yul\":3946:3951   */\n      dup2\n        /* \"#utility.yul\":3905:3952   */\n      tag_69\n      jump\t// in\n    tag_128:\n        /* \"#utility.yul\":3900:3903   */\n      dup3\n        /* \"#utility.yul\":3893:3953   */\n      mstore\n        /* \"#utility.yul\":3800:3959   */\n      pop\n      pop\n      jump\t// out\n        /* \"#utility.yul\":3965:4499   */\n    tag_27:\n        /* \"#utility.yul\":4152:4156   */\n      0x00\n        /* \"#utility.yul\":4190:4192   */\n      0x60\n        /* \"#utility.yul\":4179:4188   */\n      dup3\n        /* \"#utility.yul\":4175:4193   */\n      add\n        /* \"#utility.yul\":4167:4193   */\n      swap1\n      pop\n        /* \"#utility.yul\":4203:4302   */\n      tag_130\n        /* \"#utility.yul\":4299:4300   */\n      0x00\n        /* \"#utility.yul\":4288:4297   */\n      dup4\n        /* \"#utility.yul\":4284:4301   */\n      add\n        /* \"#utility.yul\":4275:4281   */\n      dup7\n        /* \"#utility.yul\":4203:4302   */\n      tag_53\n      jump\t// in\n    tag_130:\n        /* \"#utility.yul\":4312:4392   */\n      tag_131\n        /* \"#utility.yul\":4388:4390   */\n      0x20\n        /* \"#utility.yul\":4377:4386   */\n      dup4\n        /* \"#utility.yul\":4373:4391   */\n      add\n        /* \"#utility.yul\":4364:4370   */\n      dup6\n        /* \"#utility.yul\":4312:4392   */\n      tag_56\n      jump\t// in\n    tag_131:\n        /* \"#utility.yul\":4402:4492   */\n      tag_132\n        /* \"#utility.yul\":4488:4490   */\n      0x40\n        /* \"#utility.yul\":4477:4486   */\n      dup4\n        /* \"#utility.yul\":4473:4491   */\n      add\n        /* \"#utility.yul\":4464:4470   */\n      dup5\n        /* \"#utility.yul\":4402:4492   */\n      tag_70\n      jump\t// in\n    tag_132:\n        /* \"#utility.yul\":3965:4499   */\n      swap5\n      swap4\n      pop\n      pop\n      pop\n      pop\n      jump\t// out\n        /* \"#utility.yul\":4505:4783   */\n    tag_35:\n        /* \"#utility.yul\":4626:4630   */\n      0x00\n        /* \"#utility.yul\":4664:4666   */\n      0x20\n        /* \"#utility.yul\":4653:4662   */\n      dup3\n        /* \"#utility.yul\":4649:4667   */\n      add\n        /* \"#utility.yul\":4641:4667   */\n      swap1\n      pop\n        /* \"#utility.yul\":4677:4776   */\n      tag_134\n        /* \"#utility.yul\":4773:4774   */\n      0x00\n        /* \"#utility.yul\":4762:4771   */\n      dup4\n        /* \"#utility.yul\":4758:4775   */\n      add\n        /* \"#utility.yul\":4749:4755   */\n      dup5\n        /* \"#utility.yul\":4677:4776   */\n      tag_53\n      jump\t// in\n    tag_134:\n        /* \"#utility.yul\":4505:4783   */\n      swap3\n      swap2\n      pop\n      pop\n      jump\t// out\n        /* \"#utility.yul\":4870:4987   */\n    tag_72:\n        /* \"#utility.yul\":4979:4980   */\n      0x00\n        /* \"#utility.yul\":4976:4977   */\n      dup1\n        /* \"#utility.yul\":4969:4981   */\n      revert\n        /* \"#utility.yul\":5116:5238   */\n    tag_74:\n        /* \"#utility.yul\":5189:5213   */\n      tag_139\n        /* \"#utility.yul\":5207:5212   */\n      dup2\n        /* \"#utility.yul\":5189:5213   */\n      tag_58\n      jump\t// in\n    tag_139:\n        /* \"#utility.yul\":5182:5187   */\n      dup2\n        /* \"#utility.yul\":5179:5214   */\n      eq\n        /* \"#utility.yul\":5169:5232   */\n      tag_140\n      jumpi\n        /* \"#utility.yul\":5228:5229   */\n      0x00\n        /* \"#utility.yul\":5225:5226   */\n      dup1\n        /* \"#utility.yul\":5218:5230   */\n      revert\n        /* \"#utility.yul\":5169:5232   */\n    tag_140:\n        /* \"#utility.yul\":5116:5238   */\n      pop\n      jump\t// out\n        /* \"#utility.yul\":5244:5387   */\n    tag_75:\n        /* \"#utility.yul\":5301:5306   */\n      0x00\n        /* \"#utility.yul\":5332:5338   */\n      dup2\n        /* \"#utility.yul\":5326:5339   */\n      mload\n        /* \"#utility.yul\":5317:5339   */\n      swap1\n      pop\n        /* \"#utility.yul\":5348:5381   */\n      tag_142\n        /* \"#utility.yul\":5375:5380   */\n      dup2\n        /* \"#utility.yul\":5348:5381   */\n      tag_74\n      jump\t// in\n    tag_142:\n        /* \"#utility.yul\":5244:5387   */\n      swap3\n      swap2\n      pop\n      pop\n      jump\t// out\n        /* \"#utility.yul\":5393:5744   */\n    tag_39:\n        /* \"#utility.yul\":5463:5469   */\n      0x00\n        /* \"#utility.yul\":5512:5514   */\n      0x20\n        /* \"#utility.yul\":5500:5509   */\n      dup3\n        /* \"#utility.yul\":5491:5498   */\n      dup5\n        /* \"#utility.yul\":5487:5510   */\n      sub\n        /* \"#utility.yul\":5483:5515   */\n      slt\n        /* \"#utility.yul\":5480:5599   */\n      iszero\n      tag_144\n      jumpi\n        /* \"#utility.yul\":5518:5597   */\n      tag_145\n      tag_72\n      jump\t// in\n    tag_145:\n        /* \"#utility.yul\":5480:5599   */\n    tag_144:\n        /* \"#utility.yul\":5638:5639   */\n      0x00\n        /* \"#utility.yul\":5663:5727   */\n      tag_146\n        /* \"#utility.yul\":5719:5726   */\n      dup5\n        /* \"#utility.yul\":5710:5716   */\n      dup3\n        /* \"#utility.yul\":5699:5708   */\n      dup6\n        /* \"#utility.yul\":5695:5717   */\n      add\n        /* \"#utility.yul\":5663:5727   */\n      tag_75\n      jump\t// in\n    tag_146:\n        /* \"#utility.yul\":5653:5727   */\n      swap2\n      pop\n        /* \"#utility.yul\":5609:5737   */\n      pop\n        /* \"#utility.yul\":5393:5744   */\n      swap3\n      swap2\n      pop\n      pop\n      jump\t// out\n        /* \"#utility.yul\":5750:5876   */\n    tag_76:\n        /* \"#utility.yul\":5845:5869   */\n      tag_148\n        /* \"#utility.yul\":5863:5868   */\n      dup2\n        /* \"#utility.yul\":5845:5869   */\n      tag_58\n      jump\t// in\n    tag_148:\n        /* \"#utility.yul\":5840:5843   */\n      dup3\n        /* \"#utility.yul\":5833:5870   */\n      mstore\n        /* \"#utility.yul\":5750:5876   */\n      pop\n      pop\n      jump\t// out\n        /* \"#utility.yul\":5882:6278   */\n    tag_41:\n        /* \"#utility.yul\":6031:6035   */\n      0x00\n        /* \"#utility.yul\":6069:6071   */\n      0x40\n        /* \"#utility.yul\":6058:6067   */\n      dup3\n        /* \"#utility.yul\":6054:6072   */\n      add\n        /* \"#utility.yul\":6046:6072   */\n      swap1\n      pop\n        /* \"#utility.yul\":6082:6181   */\n      tag_150\n        /* \"#utility.yul\":6178:6179   */\n      0x00\n        /* \"#utility.yul\":6167:6176   */\n      dup4\n        /* \"#utility.yul\":6163:6180   */\n      add\n        /* \"#utility.yul\":6154:6160   */\n      dup6\n        /* \"#utility.yul\":6082:6181   */\n      tag_53\n      jump\t// in\n    tag_150:\n        /* \"#utility.yul\":6191:6271   */\n      tag_151\n        /* \"#utility.yul\":6267:6269   */\n      0x20\n        /* \"#utility.yul\":6256:6265   */\n      dup4\n        /* \"#utility.yul\":6252:6270   */\n      add\n        /* \"#utility.yul\":6243:6249   */\n      dup5\n        /* \"#utility.yul\":6191:6271   */\n      tag_76\n      jump\t// in\n    tag_151:\n        /* \"#utility.yul\":5882:6278   */\n      swap4\n      swap3\n      pop\n      pop\n      pop\n      jump\t// out\n        /* \"#utility.yul\":6284:6406   */\n    tag_77:\n        /* \"#utility.yul\":6357:6381   */\n      tag_153\n        /* \"#utility.yul\":6375:6380   */\n      dup2\n        /* \"#utility.yul\":6357:6381   */\n      tag_55\n      jump\t// in\n    tag_153:\n        /* \"#utility.yul\":6350:6355   */\n      dup2\n        /* \"#utility.yul\":6347:6382   */\n      eq\n        /* \"#utility.yul\":6337:6400   */\n      tag_154\n      jumpi\n        /* \"#utility.yul\":6396:6397   */\n      0x00\n        /* \"#utility.yul\":6393:6394   */\n      dup1\n        /* \"#utility.yul\":6386:6398   */\n      revert\n        /* \"#utility.yul\":6337:6400   */\n    tag_154:\n        /* \"#utility.yul\":6284:6406   */\n      pop\n      jump\t// out\n        /* \"#utility.yul\":6412:6555   */\n    tag_78:\n        /* \"#utility.yul\":6469:6474   */\n      0x00\n        /* \"#utility.yul\":6500:6506   */\n      dup2\n        /* \"#utility.yul\":6494:6507   */\n      mload\n        /* \"#utility.yul\":6485:6507   */\n      swap1\n      pop\n        /* \"#utility.yul\":6516:6549   */\n      tag_156\n        /* \"#utility.yul\":6543:6548   */\n      dup2\n        /* \"#utility.yul\":6516:6549   */\n      tag_77\n      jump\t// in\n    tag_156:\n        /* \"#utility.yul\":6412:6555   */\n      swap3\n      swap2\n      pop\n      pop\n      jump\t// out\n        /* \"#utility.yul\":6561:6912   */\n    tag_45:\n        /* \"#utility.yul\":6631:6637   */\n      0x00\n        /* \"#utility.yul\":6680:6682   */\n      0x20\n        /* \"#utility.yul\":6668:6677   */\n      dup3\n        /* \"#utility.yul\":6659:6666   */\n      dup5\n        /* \"#utility.yul\":6655:6678   */\n      sub\n        /* \"#utility.yul\":6651:6683   */\n      slt\n        /* \"#utility.yul\":6648:6767   */\n      iszero\n      tag_158\n      jumpi\n        /* \"#utility.yul\":6686:6765   */\n      tag_159\n      tag_72\n      jump\t// in\n    tag_159:\n        /* \"#utility.yul\":6648:6767   */\n    tag_158:\n        /* \"#utility.yul\":6806:6807   */\n      0x00\n        /* \"#utility.yul\":6831:6895   */\n      tag_160\n        /* \"#utility.yul\":6887:6894   */\n      dup5\n        /* \"#utility.yul\":6878:6884   */\n      dup3\n        /* \"#utility.yul\":6867:6876   */\n      dup6\n        /* \"#utility.yul\":6863:6885   */\n      add\n        /* \"#utility.yul\":6831:6895   */\n      tag_78\n      jump\t// in\n    tag_160:\n        /* \"#utility.yul\":6821:6895   */\n      swap2\n      pop\n        /* \"#utility.yul\":6777:6905   */\n      pop\n        /* \"#utility.yul\":6561:6912   */\n      swap3\n      swap2\n      pop\n      pop\n      jump\t// out\n        /* \"#utility.yul\":6918:7098   */\n    tag_79:\n        /* \"#utility.yul\":6966:7043   */\n      0x4e487b7100000000000000000000000000000000000000000000000000000000\n        /* \"#utility.yul\":6963:6964   */\n      0x00\n        /* \"#utility.yul\":6956:7044   */\n      mstore\n        /* \"#utility.yul\":7063:7067   */\n      0x11\n        /* \"#utility.yul\":7060:7061   */\n      0x04\n        /* \"#utility.yul\":7053:7068   */\n      mstore\n        /* \"#utility.yul\":7087:7091   */\n      0x24\n        /* \"#utility.yul\":7084:7085   */\n      0x00\n        /* \"#utility.yul\":7077:7092   */\n      revert\n        /* \"#utility.yul\":7104:7337   */\n    tag_47:\n        /* \"#utility.yul\":7143:7146   */\n      0x00\n        /* \"#utility.yul\":7166:7190   */\n      tag_163\n        /* \"#utility.yul\":7184:7189   */\n      dup3\n        /* \"#utility.yul\":7166:7190   */\n      tag_58\n      jump\t// in\n    tag_163:\n        /* \"#utility.yul\":7157:7190   */\n      swap2\n      pop\n        /* \"#utility.yul\":7212:7278   */\n      0xffffffffffffffffffffffffffffffffffffffffffffffffffffffffffffffff\n        /* \"#utility.yul\":7205:7210   */\n      dup3\n        /* \"#utility.yul\":7202:7279   */\n      sub\n        /* \"#utility.yul\":7199:7302   */\n      tag_164\n      jumpi\n        /* \"#utility.yul\":7282:7300   */\n      tag_165\n      tag_79\n      jump\t// in\n    tag_165:\n        /* \"#utility.yul\":7199:7302   */\n    tag_164:\n        /* \"#utility.yul\":7329:7330   */\n      0x01\n        /* \"#utility.yul\":7322:7327   */\n      dup3\n        /* \"#utility.yul\":7318:7331   */\n      add\n        /* \"#utility.yul\":7311:7331   */\n      swap1\n      pop\n        /* \"#utility.yul\":7104:7337   */\n      swap2\n      swap1\n      pop\n      jump\t// out\n        /* \"#utility.yul\":7343:7739   */\n    tag_49:\n        /* \"#utility.yul\":7492:7496   */\n      0x00\n        /* \"#utility.yul\":7530:7532   */\n      0x40\n        /* \"#utility.yul\":7519:7528   */\n      dup3\n        /* \"#utility.yul\":7515:7533   */\n      add\n        /* \"#utility.yul\":7507:7533   */\n      swap1\n      pop\n        /* \"#utility.yul\":7543:7642   */\n      tag_167\n        /* \"#utility.yul\":7639:7640   */\n      0x00\n        /* \"#utility.yul\":7628:7637   */\n      dup4\n        /* \"#utility.yul\":7624:7641   */\n      add\n        /* \"#utility.yul\":7615:7621   */\n      dup6\n        /* \"#utility.yul\":7543:7642   */\n      tag_53\n      jump\t// in\n    tag_167:\n        /* \"#utility.yul\":7652:7732   */\n      tag_168\n        /* \"#utility.yul\":7728:7730   */\n      0x20\n        /* \"#utility.yul\":7717:7726   */\n      dup4\n        /* \"#utility.yul\":7713:7731   */\n      add\n        /* \"#utility.yul\":7704:7710   */\n      dup5\n        /* \"#utility.yul\":7652:7732   */\n      tag_56\n      jump\t// in\n    tag_168:\n        /* \"#utility.yul\":7343:7739   */\n      swap4\n      swap3\n      pop\n      pop\n      pop\n      jump\t// out\n\n    auxdata: 0xa26469706673582212208d3e02153bfc07d092fe9970ae944b79dcb6823571bbc3ca5417c719321e85d464736f6c634300080d0033\n}\n",
				"bytecode": {
					"linkReferences": {
						"V1/Contracts/lib/IterableMapping.sol": {
							"IterableMapping": [
								{
									"length": 20,
									"start": 94
								},
								{
									"length": 20,
									"start": 205
								},
								{
									"length": 20,
									"start": 317
								},
								{
									"length": 20,
									"start": 429
								},
								{
									"length": 20,
									"start": 541
								},
								{
									"length": 20,
									"start": 657
								},
								{
									"length": 20,
									"start": 788
								},
								{
									"length": 20,
									"start": 936
								}
							]
						}
					},
					"object": "608060405234801561001057600080fd5b506107f7806100206000396000f3fe608060405234801561001057600080fd5b506004361061002b5760003560e01c8063d230a0d514610030575b600080fd5b61003861003a565b005b600073__$3034370f6241cefc0acbf379f4e65db268$__63bc2b405c90916000806040518463ffffffff1660e01b81526004016100799392919061048a565b60006040518083038186803b15801561009157600080fd5b505af41580156100a5573d6000803e3d6000fd5b50505050600073__$3034370f6241cefc0acbf379f4e65db268$__63bc2b405c9091600160646040518463ffffffff1660e01b81526004016100e9939291906104fc565b60006040518083038186803b15801561010157600080fd5b505af4158015610115573d6000803e3d6000fd5b50505050600073__$3034370f6241cefc0acbf379f4e65db268$__63bc2b405c9091600260c86040518463ffffffff1660e01b81526004016101599392919061056e565b60006040518083038186803b15801561017157600080fd5b505af4158015610185573d6000803e3d6000fd5b50505050600073__$3034370f6241cefc0acbf379f4e65db268$__63bc2b405c9091600260c86040518463ffffffff1660e01b81526004016101c99392919061056e565b60006040518083038186803b1580156101e157600080fd5b505af41580156101f5573d6000803e3d6000fd5b50505050600073__$3034370f6241cefc0acbf379f4e65db268$__63bc2b405c9091600361012c6040518463ffffffff1660e01b815260040161023a939291906105e0565b60006040518083038186803b15801561025257600080fd5b505af4158015610266573d6000803e3d6000fd5b5050505060005b600073__$3034370f6241cefc0acbf379f4e65db268$__63deb3d89690916040518263ffffffff1660e01b81526004016102a79190610617565b602060405180830381865af41580156102c4573d6000803e3d6000fd5b505050506040513d601f19601f820116820180604052508101906102e89190610663565b8110156103835760008073__$3034370f6241cefc0acbf379f4e65db268$__63d1aa9e7e9091846040518363ffffffff1660e01b815260040161032c92919061069f565b602060405180830381865af4158015610349573d6000803e3d6000fd5b505050506040513d601f19601f8201168201806040525081019061036d91906106f4565b905050808061037b90610750565b91505061026d565b50600073__$3034370f6241cefc0acbf379f4e65db268$__634c60db9c909160016040518363ffffffff1660e01b81526004016103c1929190610798565b60006040518083038186803b1580156103d957600080fd5b505af41580156103ed573d6000803e3d6000fd5b50505050565b8082525050565b600073ffffffffffffffffffffffffffffffffffffffff82169050919050565b6000610425826103fa565b9050919050565b6104358161041a565b82525050565b6000819050919050565b6000819050919050565b6000819050919050565b600061047461046f61046a8461043b565b61044f565b610445565b9050919050565b61048481610459565b82525050565b600060608201905061049f60008301866103f3565b6104ac602083018561042c565b6104b9604083018461047b565b949350505050565b6000819050919050565b60006104e66104e16104dc846104c1565b61044f565b610445565b9050919050565b6104f6816104cb565b82525050565b600060608201905061051160008301866103f3565b61051e602083018561042c565b61052b60408301846104ed565b949350505050565b6000819050919050565b600061055861055361054e84610533565b61044f565b610445565b9050919050565b6105688161053d565b82525050565b600060608201905061058360008301866103f3565b610590602083018561042c565b61059d604083018461055f565b949350505050565b6000819050919050565b60006105ca6105c56105c0846105a5565b61044f565b610445565b9050919050565b6105da816105af565b82525050565b60006060820190506105f560008301866103f3565b610602602083018561042c565b61060f60408301846105d1565b949350505050565b600060208201905061062c60008301846103f3565b92915050565b600080fd5b61064081610445565b811461064b57600080fd5b50565b60008151905061065d81610637565b92915050565b60006020828403121561067957610678610632565b5b60006106878482850161064e565b91505092915050565b61069981610445565b82525050565b60006040820190506106b460008301856103f3565b6106c16020830184610690565b9392505050565b6106d18161041a565b81146106dc57600080fd5b50565b6000815190506106ee816106c8565b92915050565b60006020828403121561070a57610709610632565b5b6000610718848285016106df565b91505092915050565b7f4e487b7100000000000000000000000000000000000000000000000000000000600052601160045260246000fd5b600061075b82610445565b91507fffffffffffffffffffffffffffffffffffffffffffffffffffffffffffffffff820361078d5761078c610721565b5b600182019050919050565b60006040820190506107ad60008301856103f3565b6107ba602083018461042c565b939250505056fea26469706673582212208d3e02153bfc07d092fe9970ae944b79dcb6823571bbc3ca5417c719321e85d464736f6c634300080d0033",
					"opcodes": "PUSH1 0x80 PUSH1 0x40 MSTORE CALLVALUE DUP1 ISZERO PUSH2 0x10 JUMPI PUSH1 0x0 DUP1 REVERT JUMPDEST POP PUSH2 0x7F7 DUP1 PUSH2 0x20 PUSH1 0x0 CODECOPY PUSH1 0x0 RETURN INVALID PUSH1 0x80 PUSH1 0x40 MSTORE CALLVALUE DUP1 ISZERO PUSH2 0x10 JUMPI PUSH1 0x0 DUP1 REVERT JUMPDEST POP PUSH1 0x4 CALLDATASIZE LT PUSH2 0x2B JUMPI PUSH1 0x0 CALLDATALOAD PUSH1 0xE0 SHR DUP1 PUSH4 0xD230A0D5 EQ PUSH2 0x30 JUMPI JUMPDEST PUSH1 0x0 DUP1 REVERT JUMPDEST PUSH2 0x38 PUSH2 0x3A JUMP JUMPDEST STOP JUMPDEST PUSH1 0x0 PUSH20 0x0 PUSH4 0xBC2B405C SWAP1 SWAP2 PUSH1 0x0 DUP1 PUSH1 0x40 MLOAD DUP5 PUSH4 0xFFFFFFFF AND PUSH1 0xE0 SHL DUP2 MSTORE PUSH1 0x4 ADD PUSH2 0x79 SWAP4 SWAP3 SWAP2 SWAP1 PUSH2 0x48A JUMP JUMPDEST PUSH1 0x0 PUSH1 0x40 MLOAD DUP1 DUP4 SUB DUP2 DUP7 DUP1 EXTCODESIZE ISZERO DUP1 ISZERO PUSH2 0x91 JUMPI PUSH1 0x0 DUP1 REVERT JUMPDEST POP GAS DELEGATECALL ISZERO DUP1 ISZERO PUSH2 0xA5 JUMPI RETURNDATASIZE PUSH1 0x0 DUP1 RETURNDATACOPY RETURNDATASIZE PUSH1 0x0 REVERT JUMPDEST POP POP POP POP PUSH1 0x0 PUSH20 0x0 PUSH4 0xBC2B405C SWAP1 SWAP2 PUSH1 0x1 PUSH1 0x64 PUSH1 0x40 MLOAD DUP5 PUSH4 0xFFFFFFFF AND PUSH1 0xE0 SHL DUP2 MSTORE PUSH1 0x4 ADD PUSH2 0xE9 SWAP4 SWAP3 SWAP2 SWAP1 PUSH2 0x4FC JUMP JUMPDEST PUSH1 0x0 PUSH1 0x40 MLOAD DUP1 DUP4 SUB DUP2 DUP7 DUP1 EXTCODESIZE ISZERO DUP1 ISZERO PUSH2 0x101 JUMPI PUSH1 0x0 DUP1 REVERT JUMPDEST POP GAS DELEGATECALL ISZERO DUP1 ISZERO PUSH2 0x115 JUMPI RETURNDATASIZE PUSH1 0x0 DUP1 RETURNDATACOPY RETURNDATASIZE PUSH1 0x0 REVERT JUMPDEST POP POP POP POP PUSH1 0x0 PUSH20 0x0 PUSH4 0xBC2B405C SWAP1 SWAP2 PUSH1 0x2 PUSH1 0xC8 PUSH1 0x40 MLOAD DUP5 PUSH4 0xFFFFFFFF AND PUSH1 0xE0 SHL DUP2 MSTORE PUSH1 0x4 ADD PUSH2 0x159 SWAP4 SWAP3 SWAP2 SWAP1 PUSH2 0x56E JUMP JUMPDEST PUSH1 0x0 PUSH1 0x40 MLOAD DUP1 DUP4 SUB DUP2 DUP7 DUP1 EXTCODESIZE ISZERO DUP1 ISZERO PUSH2 0x171 JUMPI PUSH1 0x0 DUP1 REVERT JUMPDEST POP GAS DELEGATECALL ISZERO DUP1 ISZERO PUSH2 0x185 JUMPI RETURNDATASIZE PUSH1 0x0 DUP1 RETURNDATACOPY RETURNDATASIZE PUSH1 0x0 REVERT JUMPDEST POP POP POP POP PUSH1 0x0 PUSH20 0x0 PUSH4 0xBC2B405C SWAP1 SWAP2 PUSH1 0x2 PUSH1 0xC8 PUSH1 0x40 MLOAD DUP5 PUSH4 0xFFFFFFFF AND PUSH1 0xE0 SHL DUP2 MSTORE PUSH1 0x4 ADD PUSH2 0x1C9 SWAP4 SWAP3 SWAP2 SWAP1 PUSH2 0x56E JUMP JUMPDEST PUSH1 0x0 PUSH1 0x40 MLOAD DUP1 DUP4 SUB DUP2 DUP7 DUP1 EXTCODESIZE ISZERO DUP1 ISZERO PUSH2 0x1E1 JUMPI PUSH1 0x0 DUP1 REVERT JUMPDEST POP GAS DELEGATECALL ISZERO DUP1 ISZERO PUSH2 0x1F5 JUMPI RETURNDATASIZE PUSH1 0x0 DUP1 RETURNDATACOPY RETURNDATASIZE PUSH1 0x0 REVERT JUMPDEST POP POP POP POP PUSH1 0x0 PUSH20 0x0 PUSH4 0xBC2B405C SWAP1 SWAP2 PUSH1 0x3 PUSH2 0x12C PUSH1 0x40 MLOAD DUP5 PUSH4 0xFFFFFFFF AND PUSH1 0xE0 SHL DUP2 MSTORE PUSH1 0x4 ADD PUSH2 0x23A SWAP4 SWAP3 SWAP2 SWAP1 PUSH2 0x5E0 JUMP JUMPDEST PUSH1 0x0 PUSH1 0x40 MLOAD DUP1 DUP4 SUB DUP2 DUP7 DUP1 EXTCODESIZE ISZERO DUP1 ISZERO PUSH2 0x252 JUMPI PUSH1 0x0 DUP1 REVERT JUMPDEST POP GAS DELEGATECALL ISZERO DUP1 ISZERO PUSH2 0x266 JUMPI RETURNDATASIZE PUSH1 0x0 DUP1 RETURNDATACOPY RETURNDATASIZE PUSH1 0x0 REVERT JUMPDEST POP POP POP POP PUSH1 0x0 JUMPDEST PUSH1 0x0 PUSH20 0x0 PUSH4 0xDEB3D896 SWAP1 SWAP2 PUSH1 0x40 MLOAD DUP3 PUSH4 0xFFFFFFFF AND PUSH1 0xE0 SHL DUP2 MSTORE PUSH1 0x4 ADD PUSH2 0x2A7 SWAP2 SWAP1 PUSH2 0x617 JUMP JUMPDEST PUSH1 0x20 PUSH1 0x40 MLOAD DUP1 DUP4 SUB DUP2 DUP7 GAS DELEGATECALL ISZERO DUP1 ISZERO PUSH2 0x2C4 JUMPI RETURNDATASIZE PUSH1 0x0 DUP1 RETURNDATACOPY RETURNDATASIZE PUSH1 0x0 REVERT JUMPDEST POP POP POP POP PUSH1 0x40 MLOAD RETURNDATASIZE PUSH1 0x1F NOT PUSH1 0x1F DUP3 ADD AND DUP3 ADD DUP1 PUSH1 0x40 MSTORE POP DUP2 ADD SWAP1 PUSH2 0x2E8 SWAP2 SWAP1 PUSH2 0x663 JUMP JUMPDEST DUP2 LT ISZERO PUSH2 0x383 JUMPI PUSH1 0x0 DUP1 PUSH20 0x0 PUSH4 0xD1AA9E7E SWAP1 SWAP2 DUP5 PUSH1 0x40 MLOAD DUP4 PUSH4 0xFFFFFFFF AND PUSH1 0xE0 SHL DUP2 MSTORE PUSH1 0x4 ADD PUSH2 0x32C SWAP3 SWAP2 SWAP1 PUSH2 0x69F JUMP JUMPDEST PUSH1 0x20 PUSH1 0x40 MLOAD DUP1 DUP4 SUB DUP2 DUP7 GAS DELEGATECALL ISZERO DUP1 ISZERO PUSH2 0x349 JUMPI RETURNDATASIZE PUSH1 0x0 DUP1 RETURNDATACOPY RETURNDATASIZE PUSH1 0x0 REVERT JUMPDEST POP POP POP POP PUSH1 0x40 MLOAD RETURNDATASIZE PUSH1 0x1F NOT PUSH1 0x1F DUP3 ADD AND DUP3 ADD DUP1 PUSH1 0x40 MSTORE POP DUP2 ADD SWAP1 PUSH2 0x36D SWAP2 SWAP1 PUSH2 0x6F4 JUMP JUMPDEST SWAP1 POP POP DUP1 DUP1 PUSH2 0x37B SWAP1 PUSH2 0x750 JUMP JUMPDEST SWAP2 POP POP PUSH2 0x26D JUMP JUMPDEST POP PUSH1 0x0 PUSH20 0x0 PUSH4 0x4C60DB9C SWAP1 SWAP2 PUSH1 0x1 PUSH1 0x40 MLOAD DUP4 PUSH4 0xFFFFFFFF AND PUSH1 0xE0 SHL DUP2 MSTORE PUSH1 0x4 ADD PUSH2 0x3C1 SWAP3 SWAP2 SWAP1 PUSH2 0x798 JUMP JUMPDEST PUSH1 0x0 PUSH1 0x40 MLOAD DUP1 DUP4 SUB DUP2 DUP7 DUP1 EXTCODESIZE ISZERO DUP1 ISZERO PUSH2 0x3D9 JUMPI PUSH1 0x0 DUP1 REVERT JUMPDEST POP GAS DELEGATECALL ISZERO DUP1 ISZERO PUSH2 0x3ED JUMPI RETURNDATASIZE PUSH1 0x0 DUP1 RETURNDATACOPY RETURNDATASIZE PUSH1 0x0 REVERT JUMPDEST POP POP POP POP JUMP JUMPDEST DUP1 DUP3 MSTORE POP POP JUMP JUMPDEST PUSH1 0x0 PUSH20 0xFFFFFFFFFFFFFFFFFFFFFFFFFFFFFFFFFFFFFFFF DUP3 AND SWAP1 POP SWAP2 SWAP1 POP JUMP JUMPDEST PUSH1 0x0 PUSH2 0x425 DUP3 PUSH2 0x3FA JUMP JUMPDEST SWAP1 POP SWAP2 SWAP1 POP JUMP JUMPDEST PUSH2 0x435 DUP2 PUSH2 0x41A JUMP JUMPDEST DUP3 MSTORE POP POP JUMP JUMPDEST PUSH1 0x0 DUP2 SWAP1 POP SWAP2 SWAP1 POP JUMP JUMPDEST PUSH1 0x0 DUP2 SWAP1 POP SWAP2 SWAP1 POP JUMP JUMPDEST PUSH1 0x0 DUP2 SWAP1 POP SWAP2 SWAP1 POP JUMP JUMPDEST PUSH1 0x0 PUSH2 0x474 PUSH2 0x46F PUSH2 0x46A DUP5 PUSH2 0x43B JUMP JUMPDEST PUSH2 0x44F JUMP JUMPDEST PUSH2 0x445 JUMP JUMPDEST SWAP1 POP SWAP2 SWAP1 POP JUMP JUMPDEST PUSH2 0x484 DUP2 PUSH2 0x459 JUMP JUMPDEST DUP3 MSTORE POP POP JUMP JUMPDEST PUSH1 0x0 PUSH1 0x60 DUP3 ADD SWAP1 POP PUSH2 0x49F PUSH1 0x0 DUP4 ADD DUP7 PUSH2 0x3F3 JUMP JUMPDEST PUSH2 0x4AC PUSH1 0x20 DUP4 ADD DUP6 PUSH2 0x42C JUMP JUMPDEST PUSH2 0x4B9 PUSH1 0x40 DUP4 ADD DUP5 PUSH2 0x47B JUMP JUMPDEST SWAP5 SWAP4 POP POP POP POP JUMP JUMPDEST PUSH1 0x0 DUP2 SWAP1 POP SWAP2 SWAP1 POP JUMP JUMPDEST PUSH1 0x0 PUSH2 0x4E6 PUSH2 0x4E1 PUSH2 0x4DC DUP5 PUSH2 0x4C1 JUMP JUMPDEST PUSH2 0x44F JUMP JUMPDEST PUSH2 0x445 JUMP JUMPDEST SWAP1 POP SWAP2 SWAP1 POP JUMP JUMPDEST PUSH2 0x4F6 DUP2 PUSH2 0x4CB JUMP JUMPDEST DUP3 MSTORE POP POP JUMP JUMPDEST PUSH1 0x0 PUSH1 0x60 DUP3 ADD SWAP1 POP PUSH2 0x511 PUSH1 0x0 DUP4 ADD DUP7 PUSH2 0x3F3 JUMP JUMPDEST PUSH2 0x51E PUSH1 0x20 DUP4 ADD DUP6 PUSH2 0x42C JUMP JUMPDEST PUSH2 0x52B PUSH1 0x40 DUP4 ADD DUP5 PUSH2 0x4ED JUMP JUMPDEST SWAP5 SWAP4 POP POP POP POP JUMP JUMPDEST PUSH1 0x0 DUP2 SWAP1 POP SWAP2 SWAP1 POP JUMP JUMPDEST PUSH1 0x0 PUSH2 0x558 PUSH2 0x553 PUSH2 0x54E DUP5 PUSH2 0x533 JUMP JUMPDEST PUSH2 0x44F JUMP JUMPDEST PUSH2 0x445 JUMP JUMPDEST SWAP1 POP SWAP2 SWAP1 POP JUMP JUMPDEST PUSH2 0x568 DUP2 PUSH2 0x53D JUMP JUMPDEST DUP3 MSTORE POP POP JUMP JUMPDEST PUSH1 0x0 PUSH1 0x60 DUP3 ADD SWAP1 POP PUSH2 0x583 PUSH1 0x0 DUP4 ADD DUP7 PUSH2 0x3F3 JUMP JUMPDEST PUSH2 0x590 PUSH1 0x20 DUP4 ADD DUP6 PUSH2 0x42C JUMP JUMPDEST PUSH2 0x59D PUSH1 0x40 DUP4 ADD DUP5 PUSH2 0x55F JUMP JUMPDEST SWAP5 SWAP4 POP POP POP POP JUMP JUMPDEST PUSH1 0x0 DUP2 SWAP1 POP SWAP2 SWAP1 POP JUMP JUMPDEST PUSH1 0x0 PUSH2 0x5CA PUSH2 0x5C5 PUSH2 0x5C0 DUP5 PUSH2 0x5A5 JUMP JUMPDEST PUSH2 0x44F JUMP JUMPDEST PUSH2 0x445 JUMP JUMPDEST SWAP1 POP SWAP2 SWAP1 POP JUMP JUMPDEST PUSH2 0x5DA DUP2 PUSH2 0x5AF JUMP JUMPDEST DUP3 MSTORE POP POP JUMP JUMPDEST PUSH1 0x0 PUSH1 0x60 DUP3 ADD SWAP1 POP PUSH2 0x5F5 PUSH1 0x0 DUP4 ADD DUP7 PUSH2 0x3F3 JUMP JUMPDEST PUSH2 0x602 PUSH1 0x20 DUP4 ADD DUP6 PUSH2 0x42C JUMP JUMPDEST PUSH2 0x60F PUSH1 0x40 DUP4 ADD DUP5 PUSH2 0x5D1 JUMP JUMPDEST SWAP5 SWAP4 POP POP POP POP JUMP JUMPDEST PUSH1 0x0 PUSH1 0x20 DUP3 ADD SWAP1 POP PUSH2 0x62C PUSH1 0x0 DUP4 ADD DUP5 PUSH2 0x3F3 JUMP JUMPDEST SWAP3 SWAP2 POP POP JUMP JUMPDEST PUSH1 0x0 DUP1 REVERT JUMPDEST PUSH2 0x640 DUP2 PUSH2 0x445 JUMP JUMPDEST DUP2 EQ PUSH2 0x64B JUMPI PUSH1 0x0 DUP1 REVERT JUMPDEST POP JUMP JUMPDEST PUSH1 0x0 DUP2 MLOAD SWAP1 POP PUSH2 0x65D DUP2 PUSH2 0x637 JUMP JUMPDEST SWAP3 SWAP2 POP POP JUMP JUMPDEST PUSH1 0x0 PUSH1 0x20 DUP3 DUP5 SUB SLT ISZERO PUSH2 0x679 JUMPI PUSH2 0x678 PUSH2 0x632 JUMP JUMPDEST JUMPDEST PUSH1 0x0 PUSH2 0x687 DUP5 DUP3 DUP6 ADD PUSH2 0x64E JUMP JUMPDEST SWAP2 POP POP SWAP3 SWAP2 POP POP JUMP JUMPDEST PUSH2 0x699 DUP2 PUSH2 0x445 JUMP JUMPDEST DUP3 MSTORE POP POP JUMP JUMPDEST PUSH1 0x0 PUSH1 0x40 DUP3 ADD SWAP1 POP PUSH2 0x6B4 PUSH1 0x0 DUP4 ADD DUP6 PUSH2 0x3F3 JUMP JUMPDEST PUSH2 0x6C1 PUSH1 0x20 DUP4 ADD DUP5 PUSH2 0x690 JUMP JUMPDEST SWAP4 SWAP3 POP POP POP JUMP JUMPDEST PUSH2 0x6D1 DUP2 PUSH2 0x41A JUMP JUMPDEST DUP2 EQ PUSH2 0x6DC JUMPI PUSH1 0x0 DUP1 REVERT JUMPDEST POP JUMP JUMPDEST PUSH1 0x0 DUP2 MLOAD SWAP1 POP PUSH2 0x6EE DUP2 PUSH2 0x6C8 JUMP JUMPDEST SWAP3 SWAP2 POP POP JUMP JUMPDEST PUSH1 0x0 PUSH1 0x20 DUP3 DUP5 SUB SLT ISZERO PUSH2 0x70A JUMPI PUSH2 0x709 PUSH2 0x632 JUMP JUMPDEST JUMPDEST PUSH1 0x0 PUSH2 0x718 DUP5 DUP3 DUP6 ADD PUSH2 0x6DF JUMP JUMPDEST SWAP2 POP POP SWAP3 SWAP2 POP POP JUMP JUMPDEST PUSH32 0x4E487B7100000000000000000000000000000000000000000000000000000000 PUSH1 0x0 MSTORE PUSH1 0x11 PUSH1 0x4 MSTORE PUSH1 0x24 PUSH1 0x0 REVERT JUMPDEST PUSH1 0x0 PUSH2 0x75B DUP3 PUSH2 0x445 JUMP JUMPDEST SWAP2 POP PUSH32 0xFFFFFFFFFFFFFFFFFFFFFFFFFFFFFFFFFFFFFFFFFFFFFFFFFFFFFFFFFFFFFFFF DUP3 SUB PUSH2 0x78D JUMPI PUSH2 0x78C PUSH2 0x721 JUMP JUMPDEST JUMPDEST PUSH1 0x1 DUP3 ADD SWAP1 POP SWAP2 SWAP1 POP JUMP JUMPDEST PUSH1 0x0 PUSH1 0x40 DUP3 ADD SWAP1 POP PUSH2 0x7AD PUSH1 0x0 DUP4 ADD DUP6 PUSH2 0x3F3 JUMP JUMPDEST PUSH2 0x7BA PUSH1 0x20 DUP4 ADD DUP5 PUSH2 0x42C JUMP JUMPDEST SWAP4 SWAP3 POP POP POP JUMP INVALID LOG2 PUSH5 0x6970667358 0x22 SLT KECCAK256 DUP14 RETURNDATACOPY MUL ISZERO EXTCODESIZE 0xFC SMOD 0xD0 SWAP3 INVALID SWAP10 PUSH17 0xAE944B79DCB6823571BBC3CA5417C71932 0x1E DUP6 0xD4 PUSH5 0x736F6C6343 STOP ADDMOD 0xD STOP CALLER "
				},
				"gasEstimates": {
					"creation": {
						"codeDepositCost": "407800",
						"executionCost": "443",
						"totalCost": "408243"
					},
					"external": {
						"testIterableMap()": "infinite"
					}
				},
				"methodIdentifiers": {
					"testIterableMap()": "d230a0d5"
				}
			},
			"storageLayout": {
				"storage": [
					{
						"astId": 210,
						"contract": "V1/Contracts/lib/IterableMapping.sol:TestIterableMap",
						"label": "map",
						"offset": 0,
						"slot": "0",
						"type": "t_struct(Map)17_storage"
					}
				],
				"types": {
					"t_address": {
						"encoding": "inplace",
						"label": "address",
						"numberOfBytes": "20"
					},
					"t_array(t_address)dyn_storage": {
						"base": "t_address",
						"encoding": "dynamic_array",
						"label": "address[]",
						"numberOfBytes": "32"
					},
					"t_bool": {
						"encoding": "inplace",
						"label": "bool",
						"numberOfBytes": "1"
					},
					"t_mapping(t_address,t_bool)": {
						"encoding": "mapping",
						"key": "t_address",
						"label": "mapping(address => bool)",
						"numberOfBytes": "32",
						"value": "t_bool"
					},
					"t_mapping(t_address,t_uint256)": {
						"encoding": "mapping",
						"key": "t_address",
						"label": "mapping(address => uint256)",
						"numberOfBytes": "32",
						"value": "t_uint256"
					},
					"t_struct(Map)17_storage": {
						"encoding": "inplace",
						"label": "struct IterableMapping.Map",
						"members": [
							{
								"astId": 4,
								"contract": "V1/Contracts/lib/IterableMapping.sol:TestIterableMap",
								"label": "keys",
								"offset": 0,
								"slot": "0",
								"type": "t_array(t_address)dyn_storage"
							},
							{
								"astId": 8,
								"contract": "V1/Contracts/lib/IterableMapping.sol:TestIterableMap",
								"label": "values",
								"offset": 0,
								"slot": "1",
								"type": "t_mapping(t_address,t_uint256)"
							},
							{
								"astId": 12,
								"contract": "V1/Contracts/lib/IterableMapping.sol:TestIterableMap",
								"label": "indexOf",
								"offset": 0,
								"slot": "2",
								"type": "t_mapping(t_address,t_uint256)"
							},
							{
								"astId": 16,
								"contract": "V1/Contracts/lib/IterableMapping.sol:TestIterableMap",
								"label": "inserted",
								"offset": 0,
								"slot": "3",
								"type": "t_mapping(t_address,t_bool)"
							}
						],
						"numberOfBytes": "128"
					},
					"t_uint256": {
						"encoding": "inplace",
						"label": "uint256",
						"numberOfBytes": "32"
					}
				}
			},
			"userdoc": {
				"kind": "user",
				"methods": {},
				"version": 1
			}
		}
	}
}